{"abi":[{"type":"constructor","inputs":[],"stateMutability":"nonpayable"},{"type":"function","name":"chainTypes","inputs":[{"name":"","type":"uint256","internalType":"uint256"}],"outputs":[{"name":"","type":"uint8","internalType":"enum ChainTypeRegistry.ChainType"}],"stateMutability":"view"},{"type":"function","name":"chainValidators","inputs":[{"name":"","type":"uint256","internalType":"uint256"}],"outputs":[{"name":"","type":"address","internalType":"contract IChainValidator"}],"stateMutability":"view"},{"type":"function","name":"configs","inputs":[{"name":"","type":"uint256","internalType":"uint256"}],"outputs":[{"name":"chainId","type":"uint256","internalType":"uint256"},{"name":"chainType","type":"uint8","internalType":"enum ChainTypeRegistry.ChainType"},{"name":"validator","type":"address","internalType":"address"},{"name":"expectedBlockTime","type":"uint256","internalType":"uint256"},{"name":"maxBlockLag","type":"uint256","internalType":"uint256"},{"name":"batchInterval","type":"uint256","internalType":"uint256"},{"name":"finalizationTime","type":"uint256","internalType":"uint256"},{"name":"isActive","type":"bool","internalType":"bool"}],"stateMutability":"view"},{"type":"function","name":"getChainConfig","inputs":[{"name":"chainId","type":"uint256","internalType":"uint256"}],"outputs":[{"name":"","type":"tuple","internalType":"struct ChainTypeRegistry.ChainConfig","components":[{"name":"chainId","type":"uint256","internalType":"uint256"},{"name":"chainType","type":"uint8","internalType":"enum ChainTypeRegistry.ChainType"},{"name":"validator","type":"address","internalType":"address"},{"name":"expectedBlockTime","type":"uint256","internalType":"uint256"},{"name":"maxBlockLag","type":"uint256","internalType":"uint256"},{"name":"batchInterval","type":"uint256","internalType":"uint256"},{"name":"finalizationTime","type":"uint256","internalType":"uint256"},{"name":"isActive","type":"bool","internalType":"bool"}]}],"stateMutability":"view"},{"type":"function","name":"getChainType","inputs":[{"name":"chainId","type":"uint256","internalType":"uint256"}],"outputs":[{"name":"","type":"string","internalType":"string"}],"stateMutability":"view"},{"type":"function","name":"getSignalThreshold","inputs":[{"name":"chainId","type":"uint256","internalType":"uint256"},{"name":"signalType","type":"uint8","internalType":"enum SignalTypes.SignalType"}],"outputs":[{"name":"threshold","type":"uint256","internalType":"uint256"}],"stateMutability":"view"},{"type":"function","name":"isChainActive","inputs":[{"name":"chainId","type":"uint256","internalType":"uint256"}],"outputs":[{"name":"","type":"bool","internalType":"bool"}],"stateMutability":"view"},{"type":"function","name":"owner","inputs":[],"outputs":[{"name":"","type":"address","internalType":"address"}],"stateMutability":"view"},{"type":"function","name":"registerChainType","inputs":[{"name":"chainId","type":"uint256","internalType":"uint256"},{"name":"chainType","type":"uint8","internalType":"enum ChainTypeRegistry.ChainType"},{"name":"validator","type":"address","internalType":"address"},{"name":"expectedBlockTime","type":"uint256","internalType":"uint256"},{"name":"maxBlockLag","type":"uint256","internalType":"uint256"},{"name":"batchInterval","type":"uint256","internalType":"uint256"},{"name":"finalizationTime","type":"uint256","internalType":"uint256"}],"outputs":[],"stateMutability":"nonpayable"},{"type":"function","name":"setValidatorImplementation","inputs":[{"name":"chainType","type":"uint8","internalType":"enum ChainTypeRegistry.ChainType"},{"name":"validator","type":"address","internalType":"address"}],"outputs":[],"stateMutability":"nonpayable"},{"type":"function","name":"updateChainValidator","inputs":[{"name":"chainId","type":"uint256","internalType":"uint256"},{"name":"newValidator","type":"address","internalType":"address"}],"outputs":[],"stateMutability":"nonpayable"},{"type":"function","name":"validateSignal","inputs":[{"name":"chainId","type":"uint256","internalType":"uint256"},{"name":"signalType","type":"uint8","internalType":"enum SignalTypes.SignalType"},{"name":"signalData","type":"bytes","internalType":"bytes"}],"outputs":[{"name":"isValid","type":"bool","internalType":"bool"},{"name":"reason","type":"string","internalType":"string"}],"stateMutability":"view"},{"type":"function","name":"validatorImplementations","inputs":[{"name":"","type":"uint8","internalType":"uint8"}],"outputs":[{"name":"","type":"address","internalType":"address"}],"stateMutability":"view"},{"type":"event","name":"ChainTypeRegistered","inputs":[{"name":"chainId","type":"uint256","indexed":true,"internalType":"uint256"},{"name":"chainType","type":"uint8","indexed":true,"internalType":"uint8"},{"name":"validator","type":"address","indexed":true,"internalType":"address"}],"anonymous":false},{"type":"event","name":"ChainTypeUpdated","inputs":[{"name":"chainId","type":"uint256","indexed":true,"internalType":"uint256"},{"name":"newValidator","type":"address","indexed":true,"internalType":"address"}],"anonymous":false},{"type":"event","name":"ValidatorImplementationSet","inputs":[{"name":"chainType","type":"uint8","indexed":true,"internalType":"uint8"},{"name":"validator","type":"address","indexed":true,"internalType":"address"}],"anonymous":false}],"bytecode":{"object":"0x6080604052348015600e575f5ffd5b50335f5f6101000a81548173ffffffffffffffffffffffffffffffffffffffff021916908373ffffffffffffffffffffffffffffffffffffffff160217905550611df48061005b5f395ff3fe608060405234801561000f575f5ffd5b50600436106100cc575f3560e01c80638d6ffd6a1161008a578063c4a0158711610064578063c4a015871461024e578063dc320f631461027e578063f2475665146102ae578063fe09abd8146102ca576100cc565b80638d6ffd6a146101cf5780638da5cb5b146101ff578063b4600cac1461021d576100cc565b806298fa22146100d057806319ed16dc146101075780632403e27d146101375780635c7cf40f146101535780635e2a579c1461018357806372344405146101b3575b5f5ffd5b6100ea60048036038101906100e591906110d3565b6102fa565b6040516100fe9897969594939291906111d9565b60405180910390f35b610121600480360381019061011c91906110d3565b610376565b60405161012e9190611331565b60405180910390f35b610151600480360381019061014c9190611375565b61047d565b005b61016d600480360381019061016891906110d3565b61067f565b60405161017a9190611423565b60405180910390f35b61019d600480360381019061019891906110d3565b61079b565b6040516101aa9190611443565b60405180910390f35b6101cd60048036038101906101c8919061147f565b6107c4565b005b6101e960048036038101906101e491906110d3565b610b65565b6040516101f6919061151c565b60405180910390f35b610207610b82565b6040516102149190611535565b60405180910390f35b610237600480360381019061023291906115d2565b610ba6565b604051610245929190611643565b60405180910390f35b610268600480360381019061026391906110d3565b610cda565b60405161027591906116cc565b60405180910390f35b6102986004803603810190610293919061171b565b610d0a565b6040516102a59190611535565b60405180910390f35b6102c860048036038101906102c39190611746565b610d3a565b005b6102e460048036038101906102df9190611784565b610e74565b6040516102f191906117c2565b60405180910390f35b6004602052805f5260405f205f91509050805f015490806001015f9054906101000a900460ff16908060010160019054906101000a900473ffffffffffffffffffffffffffffffffffffffff1690806002015490806003015490806004015490806005015490806006015f9054906101000a900460ff16905088565b61037e611028565b60045f8381526020019081526020015f20604051806101000160405290815f8201548152602001600182015f9054906101000a900460ff1660038111156103c8576103c761110d565b5b60038111156103da576103d961110d565b5b81526020016001820160019054906101000a900473ffffffffffffffffffffffffffffffffffffffff1673ffffffffffffffffffffffffffffffffffffffff1673ffffffffffffffffffffffffffffffffffffffff16815260200160028201548152602001600382015481526020016004820154815260200160058201548152602001600682015f9054906101000a900460ff1615151515815250509050919050565b610485610f98565b5f82116104c7576040517f08c379a00000000000000000000000000000000000000000000000000000000081526004016104be90611825565b60405180910390fd5b5f73ffffffffffffffffffffffffffffffffffffffff168173ffffffffffffffffffffffffffffffffffffffff1603610535576040517f08c379a000000000000000000000000000000000000000000000000000000000815260040161052c9061188d565b60405180910390fd5b60045f8381526020019081526020015f206006015f9054906101000a900460ff16610595576040517f08c379a000000000000000000000000000000000000000000000000000000000815260040161058c906118f5565b60405180910390fd5b8060015f8481526020019081526020015f205f6101000a81548173ffffffffffffffffffffffffffffffffffffffff021916908373ffffffffffffffffffffffffffffffffffffffff1602179055508060045f8481526020019081526020015f2060010160016101000a81548173ffffffffffffffffffffffffffffffffffffffff021916908373ffffffffffffffffffffffffffffffffffffffff1602179055508073ffffffffffffffffffffffffffffffffffffffff16827f2be40c28d84b03ec7f76e76b5d0d05cdceb44d22e6cb85e907becc565b12169760405160405180910390a35050565b60605f60015f8481526020019081526020015f205f9054906101000a900473ffffffffffffffffffffffffffffffffffffffff1690505f73ffffffffffffffffffffffffffffffffffffffff168173ffffffffffffffffffffffffffffffffffffffff1603610723576040517f08c379a000000000000000000000000000000000000000000000000000000000815260040161071a9061195d565b60405180910390fd5b8073ffffffffffffffffffffffffffffffffffffffff16633b397af56040518163ffffffff1660e01b81526004015f60405180830381865afa15801561076b573d5f5f3e3d5ffd5b505050506040513d5f823e3d601f19601f820116820180604052508101906107939190611a95565b915050919050565b5f60045f8381526020019081526020015f206006015f9054906101000a900460ff169050919050565b6107cc610f98565b5f871161080e576040517f08c379a000000000000000000000000000000000000000000000000000000000815260040161080590611825565b60405180910390fd5b5f8411610850576040517f08c379a000000000000000000000000000000000000000000000000000000000815260040161084790611b26565b60405180910390fd5b5f73ffffffffffffffffffffffffffffffffffffffff168573ffffffffffffffffffffffffffffffffffffffff16036108cf5760035f8760038111156108995761089861110d565b5b60ff1660ff1681526020019081526020015f205f9054906101000a900473ffffffffffffffffffffffffffffffffffffffff1694505b5f73ffffffffffffffffffffffffffffffffffffffff168573ffffffffffffffffffffffffffffffffffffffff160361093d576040517f08c379a000000000000000000000000000000000000000000000000000000000815260040161093490611b8e565b60405180910390fd5b8460015f8981526020019081526020015f205f6101000a81548173ffffffffffffffffffffffffffffffffffffffff021916908373ffffffffffffffffffffffffffffffffffffffff1602179055508560025f8981526020019081526020015f205f6101000a81548160ff021916908360038111156109bf576109be61110d565b5b02179055506040518061010001604052808881526020018760038111156109e9576109e861110d565b5b81526020018673ffffffffffffffffffffffffffffffffffffffff1681526020018581526020018481526020018381526020018281526020016001151581525060045f8981526020019081526020015f205f820151815f01556020820151816001015f6101000a81548160ff02191690836003811115610a6c57610a6b61110d565b5b021790555060408201518160010160016101000a81548173ffffffffffffffffffffffffffffffffffffffff021916908373ffffffffffffffffffffffffffffffffffffffff160217905550606082015181600201556080820151816003015560a0820151816004015560c0820151816005015560e0820151816006015f6101000a81548160ff0219169083151502179055509050508473ffffffffffffffffffffffffffffffffffffffff16866003811115610b2c57610b2b61110d565b5b60ff16887f3f155d38d7d1d0f2f1adf6da40a8fa13828a8a8f2d8affe1eb2d046729cef30860405160405180910390a450505050505050565b6002602052805f5260405f205f915054906101000a900460ff1681565b5f5f9054906101000a900473ffffffffffffffffffffffffffffffffffffffff1681565b5f60605f60015f8881526020019081526020015f205f9054906101000a900473ffffffffffffffffffffffffffffffffffffffff1690505f73ffffffffffffffffffffffffffffffffffffffff168173ffffffffffffffffffffffffffffffffffffffff1603610c4b576040517f08c379a0000000000000000000000000000000000000000000000000000000008152600401610c429061195d565b60405180910390fd5b8073ffffffffffffffffffffffffffffffffffffffff1663b4600cac888888886040518563ffffffff1660e01b8152600401610c8a9493929190611c3c565b5f60405180830381865afa158015610ca4573d5f5f3e3d5ffd5b505050506040513d5f823e3d601f19601f82011682018060405250810190610ccc9190611ca4565b925092505094509492505050565b6001602052805f5260405f205f915054906101000a900473ffffffffffffffffffffffffffffffffffffffff1681565b6003602052805f5260405f205f915054906101000a900473ffffffffffffffffffffffffffffffffffffffff1681565b610d42610f98565b5f73ffffffffffffffffffffffffffffffffffffffff168173ffffffffffffffffffffffffffffffffffffffff1603610db0576040517f08c379a0000000000000000000000000000000000000000000000000000000008152600401610da79061188d565b60405180910390fd5b8060035f846003811115610dc757610dc661110d565b5b60ff1660ff1681526020019081526020015f205f6101000a81548173ffffffffffffffffffffffffffffffffffffffff021916908373ffffffffffffffffffffffffffffffffffffffff1602179055508073ffffffffffffffffffffffffffffffffffffffff16826003811115610e4157610e4061110d565b5b60ff167fd9c5dea50eb1e06f6d1ab607d34901871a386076862d1451421b63fb52d78ab260405160405180910390a35050565b5f5f60015f8581526020019081526020015f205f9054906101000a900473ffffffffffffffffffffffffffffffffffffffff1690505f73ffffffffffffffffffffffffffffffffffffffff168173ffffffffffffffffffffffffffffffffffffffff1603610f17576040517f08c379a0000000000000000000000000000000000000000000000000000000008152600401610f0e9061195d565b60405180910390fd5b8073ffffffffffffffffffffffffffffffffffffffff1663cfd5ef05846040518263ffffffff1660e01b8152600401610f509190611cfe565b602060405180830381865afa158015610f6b573d5f5f3e3d5ffd5b505050506040513d601f19601f82011682018060405250810190610f8f9190611d2b565b91505092915050565b5f5f9054906101000a900473ffffffffffffffffffffffffffffffffffffffff1673ffffffffffffffffffffffffffffffffffffffff163373ffffffffffffffffffffffffffffffffffffffff1614611026576040517f08c379a000000000000000000000000000000000000000000000000000000000815260040161101d90611da0565b60405180910390fd5b565b6040518061010001604052805f81526020015f600381111561104d5761104c61110d565b5b81526020015f73ffffffffffffffffffffffffffffffffffffffff1681526020015f81526020015f81526020015f81526020015f81526020015f151581525090565b5f604051905090565b5f5ffd5b5f5ffd5b5f819050919050565b6110b2816110a0565b81146110bc575f5ffd5b50565b5f813590506110cd816110a9565b92915050565b5f602082840312156110e8576110e7611098565b5b5f6110f5848285016110bf565b91505092915050565b611107816110a0565b82525050565b7f4e487b71000000000000000000000000000000000000000000000000000000005f52602160045260245ffd5b6004811061114b5761114a61110d565b5b50565b5f81905061115b8261113a565b919050565b5f61116a8261114e565b9050919050565b61117a81611160565b82525050565b5f73ffffffffffffffffffffffffffffffffffffffff82169050919050565b5f6111a982611180565b9050919050565b6111b98161119f565b82525050565b5f8115159050919050565b6111d3816111bf565b82525050565b5f610100820190506111ed5f83018b6110fe565b6111fa602083018a611171565b61120760408301896111b0565b61121460608301886110fe565b61122160808301876110fe565b61122e60a08301866110fe565b61123b60c08301856110fe565b61124860e08301846111ca565b9998505050505050505050565b61125e816110a0565b82525050565b61126d81611160565b82525050565b61127c8161119f565b82525050565b61128b816111bf565b82525050565b61010082015f8201516112a65f850182611255565b5060208201516112b96020850182611264565b5060408201516112cc6040850182611273565b5060608201516112df6060850182611255565b5060808201516112f26080850182611255565b5060a082015161130560a0850182611255565b5060c082015161131860c0850182611255565b5060e082015161132b60e0850182611282565b50505050565b5f610100820190506113455f830184611291565b92915050565b6113548161119f565b811461135e575f5ffd5b50565b5f8135905061136f8161134b565b92915050565b5f5f6040838503121561138b5761138a611098565b5b5f611398858286016110bf565b92505060206113a985828601611361565b9150509250929050565b5f81519050919050565b5f82825260208201905092915050565b8281835e5f83830152505050565b5f601f19601f8301169050919050565b5f6113f5826113b3565b6113ff81856113bd565b935061140f8185602086016113cd565b611418816113db565b840191505092915050565b5f6020820190508181035f83015261143b81846113eb565b905092915050565b5f6020820190506114565f8301846111ca565b92915050565b60048110611468575f5ffd5b50565b5f813590506114798161145c565b92915050565b5f5f5f5f5f5f5f60e0888a03121561149a57611499611098565b5b5f6114a78a828b016110bf565b97505060206114b88a828b0161146b565b96505060406114c98a828b01611361565b95505060606114da8a828b016110bf565b94505060806114eb8a828b016110bf565b93505060a06114fc8a828b016110bf565b92505060c061150d8a828b016110bf565b91505092959891949750929550565b5f60208201905061152f5f830184611171565b92915050565b5f6020820190506115485f8301846111b0565b92915050565b600c811061155a575f5ffd5b50565b5f8135905061156b8161154e565b92915050565b5f5ffd5b5f5ffd5b5f5ffd5b5f5f83601f84011261159257611591611571565b5b8235905067ffffffffffffffff8111156115af576115ae611575565b5b6020830191508360018202830111156115cb576115ca611579565b5b9250929050565b5f5f5f5f606085870312156115ea576115e9611098565b5b5f6115f7878288016110bf565b94505060206116088782880161155d565b935050604085013567ffffffffffffffff8111156116295761162861109c565b5b6116358782880161157d565b925092505092959194509250565b5f6040820190506116565f8301856111ca565b818103602083015261166881846113eb565b90509392505050565b5f819050919050565b5f61169461168f61168a84611180565b611671565b611180565b9050919050565b5f6116a58261167a565b9050919050565b5f6116b68261169b565b9050919050565b6116c6816116ac565b82525050565b5f6020820190506116df5f8301846116bd565b92915050565b5f60ff82169050919050565b6116fa816116e5565b8114611704575f5ffd5b50565b5f81359050611715816116f1565b92915050565b5f602082840312156117305761172f611098565b5b5f61173d84828501611707565b91505092915050565b5f5f6040838503121561175c5761175b611098565b5b5f6117698582860161146b565b925050602061177a85828601611361565b9150509250929050565b5f5f6040838503121561179a57611799611098565b5b5f6117a7858286016110bf565b92505060206117b88582860161155d565b9150509250929050565b5f6020820190506117d55f8301846110fe565b92915050565b7f696e76616c696420636861696e206964000000000000000000000000000000005f82015250565b5f61180f6010836113bd565b915061181a826117db565b602082019050919050565b5f6020820190508181035f83015261183c81611803565b9050919050565b7f7a65726f2076616c696461746f720000000000000000000000000000000000005f82015250565b5f611877600e836113bd565b915061188282611843565b602082019050919050565b5f6020820190508181035f8301526118a48161186b565b9050919050565b7f636861696e206e6f7420726567697374657265640000000000000000000000005f82015250565b5f6118df6014836113bd565b91506118ea826118ab565b602082019050919050565b5f6020820190508181035f83015261190c816118d3565b9050919050565b7f6e6f2076616c696461746f7220666f7220636861696e000000000000000000005f82015250565b5f6119476016836113bd565b915061195282611913565b602082019050919050565b5f6020820190508181035f8301526119748161193b565b9050919050565b5f5ffd5b7f4e487b71000000000000000000000000000000000000000000000000000000005f52604160045260245ffd5b6119b5826113db565b810181811067ffffffffffffffff821117156119d4576119d361197f565b5b80604052505050565b5f6119e661108f565b90506119f282826119ac565b919050565b5f67ffffffffffffffff821115611a1157611a1061197f565b5b611a1a826113db565b9050602081019050919050565b5f611a39611a34846119f7565b6119dd565b905082815260208101848484011115611a5557611a5461197b565b5b611a608482856113cd565b509392505050565b5f82601f830112611a7c57611a7b611571565b5b8151611a8c848260208601611a27565b91505092915050565b5f60208284031215611aaa57611aa9611098565b5b5f82015167ffffffffffffffff811115611ac757611ac661109c565b5b611ad384828501611a68565b91505092915050565b7f696e76616c696420626c6f636b2074696d6500000000000000000000000000005f82015250565b5f611b106012836113bd565b9150611b1b82611adc565b602082019050919050565b5f6020820190508181035f830152611b3d81611b04565b9050919050565b7f6e6f2076616c696461746f7220666f72207479706500000000000000000000005f82015250565b5f611b786015836113bd565b9150611b8382611b44565b602082019050919050565b5f6020820190508181035f830152611ba581611b6c565b9050919050565b600c8110611bbd57611bbc61110d565b5b50565b5f819050611bcd82611bac565b919050565b5f611bdc82611bc0565b9050919050565b611bec81611bd2565b82525050565b5f82825260208201905092915050565b828183375f83830152505050565b5f611c1b8385611bf2565b9350611c28838584611c02565b611c31836113db565b840190509392505050565b5f606082019050611c4f5f8301876110fe565b611c5c6020830186611be3565b8181036040830152611c6f818486611c10565b905095945050505050565b611c83816111bf565b8114611c8d575f5ffd5b50565b5f81519050611c9e81611c7a565b92915050565b5f5f60408385031215611cba57611cb9611098565b5b5f611cc785828601611c90565b925050602083015167ffffffffffffffff811115611ce857611ce761109c565b5b611cf485828601611a68565b9150509250929050565b5f602082019050611d115f830184611be3565b92915050565b5f81519050611d25816110a9565b92915050565b5f60208284031215611d4057611d3f611098565b5b5f611d4d84828501611d17565b91505092915050565b7f6f6e6c79206f776e6572000000000000000000000000000000000000000000005f82015250565b5f611d8a600a836113bd565b9150611d9582611d56565b602082019050919050565b5f6020820190508181035f830152611db781611d7e565b905091905056fea26469706673582212200f01d85c38e6e68134f162c51a2b072aad169ce2fd493a870799df97da5b3eb464736f6c634300081e0033","linkReferences":{}},"methodIdentifiers":{"chainTypes(uint256)":"8d6ffd6a","chainValidators(uint256)":"c4a01587","configs(uint256)":"0098fa22","getChainConfig(uint256)":"19ed16dc","getChainType(uint256)":"5c7cf40f","getSignalThreshold(uint256,uint8)":"fe09abd8","isChainActive(uint256)":"5e2a579c","owner()":"8da5cb5b","registerChainType(uint256,uint8,address,uint256,uint256,uint256,uint256)":"72344405","setValidatorImplementation(uint8,address)":"f2475665","updateChainValidator(uint256,address)":"2403e27d","validateSignal(uint256,uint8,bytes)":"b4600cac","validatorImplementations(uint8)":"dc320f63"},"id":22}