{"abi":[{"type":"constructor","inputs":[],"stateMutability":"nonpayable"},{"type":"function","name":"chainTypes","inputs":[{"name":"","type":"uint256","internalType":"uint256"}],"outputs":[{"name":"","type":"uint8","internalType":"enum ChainTypeRegistry.ChainType"}],"stateMutability":"view"},{"type":"function","name":"chainValidators","inputs":[{"name":"","type":"uint256","internalType":"uint256"}],"outputs":[{"name":"","type":"address","internalType":"contract IChainValidator"}],"stateMutability":"view"},{"type":"function","name":"configs","inputs":[{"name":"","type":"uint256","internalType":"uint256"}],"outputs":[{"name":"chainId","type":"uint256","internalType":"uint256"},{"name":"chainType","type":"uint8","internalType":"enum ChainTypeRegistry.ChainType"},{"name":"validator","type":"address","internalType":"address"},{"name":"expectedBlockTime","type":"uint256","internalType":"uint256"},{"name":"maxBlockLag","type":"uint256","internalType":"uint256"},{"name":"batchInterval","type":"uint256","internalType":"uint256"},{"name":"finalizationTime","type":"uint256","internalType":"uint256"},{"name":"isActive","type":"bool","internalType":"bool"}],"stateMutability":"view"},{"type":"function","name":"getChainConfig","inputs":[{"name":"chainId","type":"uint256","internalType":"uint256"}],"outputs":[{"name":"","type":"tuple","internalType":"struct ChainTypeRegistry.ChainConfig","components":[{"name":"chainId","type":"uint256","internalType":"uint256"},{"name":"chainType","type":"uint8","internalType":"enum ChainTypeRegistry.ChainType"},{"name":"validator","type":"address","internalType":"address"},{"name":"expectedBlockTime","type":"uint256","internalType":"uint256"},{"name":"maxBlockLag","type":"uint256","internalType":"uint256"},{"name":"batchInterval","type":"uint256","internalType":"uint256"},{"name":"finalizationTime","type":"uint256","internalType":"uint256"},{"name":"isActive","type":"bool","internalType":"bool"}]}],"stateMutability":"view"},{"type":"function","name":"getChainType","inputs":[{"name":"chainId","type":"uint256","internalType":"uint256"}],"outputs":[{"name":"","type":"string","internalType":"string"}],"stateMutability":"view"},{"type":"function","name":"getSignalThreshold","inputs":[{"name":"chainId","type":"uint256","internalType":"uint256"},{"name":"signalType","type":"uint8","internalType":"enum SignalTypes.SignalType"}],"outputs":[{"name":"threshold","type":"uint256","internalType":"uint256"}],"stateMutability":"view"},{"type":"function","name":"isChainActive","inputs":[{"name":"chainId","type":"uint256","internalType":"uint256"}],"outputs":[{"name":"","type":"bool","internalType":"bool"}],"stateMutability":"view"},{"type":"function","name":"owner","inputs":[],"outputs":[{"name":"","type":"address","internalType":"address"}],"stateMutability":"view"},{"type":"function","name":"registerChainType","inputs":[{"name":"chainId","type":"uint256","internalType":"uint256"},{"name":"chainType","type":"uint8","internalType":"enum ChainTypeRegistry.ChainType"},{"name":"validator","type":"address","internalType":"address"},{"name":"expectedBlockTime","type":"uint256","internalType":"uint256"},{"name":"maxBlockLag","type":"uint256","internalType":"uint256"},{"name":"batchInterval","type":"uint256","internalType":"uint256"},{"name":"finalizationTime","type":"uint256","internalType":"uint256"}],"outputs":[],"stateMutability":"nonpayable"},{"type":"function","name":"setValidatorImplementation","inputs":[{"name":"chainType","type":"uint8","internalType":"enum ChainTypeRegistry.ChainType"},{"name":"validator","type":"address","internalType":"address"}],"outputs":[],"stateMutability":"nonpayable"},{"type":"function","name":"updateChainValidator","inputs":[{"name":"chainId","type":"uint256","internalType":"uint256"},{"name":"newValidator","type":"address","internalType":"address"}],"outputs":[],"stateMutability":"nonpayable"},{"type":"function","name":"validateSignal","inputs":[{"name":"chainId","type":"uint256","internalType":"uint256"},{"name":"signalType","type":"uint8","internalType":"enum SignalTypes.SignalType"},{"name":"signalData","type":"bytes","internalType":"bytes"}],"outputs":[{"name":"isValid","type":"bool","internalType":"bool"},{"name":"reason","type":"string","internalType":"string"}],"stateMutability":"view"},{"type":"function","name":"validatorImplementations","inputs":[{"name":"","type":"uint8","internalType":"uint8"}],"outputs":[{"name":"","type":"address","internalType":"address"}],"stateMutability":"view"},{"type":"event","name":"ChainTypeRegistered","inputs":[{"name":"chainId","type":"uint256","indexed":true,"internalType":"uint256"},{"name":"chainType","type":"uint8","indexed":true,"internalType":"uint8"},{"name":"validator","type":"address","indexed":true,"internalType":"address"}],"anonymous":false},{"type":"event","name":"ChainTypeUpdated","inputs":[{"name":"chainId","type":"uint256","indexed":true,"internalType":"uint256"},{"name":"newValidator","type":"address","indexed":true,"internalType":"address"}],"anonymous":false},{"type":"event","name":"ValidatorImplementationSet","inputs":[{"name":"chainType","type":"uint8","indexed":true,"internalType":"uint8"},{"name":"validator","type":"address","indexed":true,"internalType":"address"}],"anonymous":false}],"bytecode":{"object":"0x6080604052348015600e575f5ffd5b50335f5f6101000a81548173ffffffffffffffffffffffffffffffffffffffff021916908373ffffffffffffffffffffffffffffffffffffffff160217905550611ef68061005b5f395ff3fe608060405234801561000f575f5ffd5b50600436106100cc575f3560e01c80638d6ffd6a1161008a578063c4a0158711610064578063c4a015871461024e578063dc320f631461027e578063f2475665146102ae578063fe09abd8146102ca576100cc565b80638d6ffd6a146101cf5780638da5cb5b146101ff578063b4600cac1461021d576100cc565b806298fa22146100d057806319ed16dc146101075780632403e27d146101375780635c7cf40f146101535780635e2a579c1461018357806372344405146101b3575b5f5ffd5b6100ea60048036038101906100e591906111d5565b6102fa565b6040516100fe9897969594939291906112db565b60405180910390f35b610121600480360381019061011c91906111d5565b610376565b60405161012e9190611433565b60405180910390f35b610151600480360381019061014c9190611477565b61047d565b005b61016d600480360381019061016891906111d5565b610705565b60405161017a9190611525565b60405180910390f35b61019d600480360381019061019891906111d5565b610821565b6040516101aa9190611545565b60405180910390f35b6101cd60048036038101906101c89190611581565b61084a565b005b6101e960048036038101906101e491906111d5565b610c71565b6040516101f6919061161e565b60405180910390f35b610207610c8e565b6040516102149190611637565b60405180910390f35b610237600480360381019061023291906116d4565b610cb2565b604051610245929190611745565b60405180910390f35b610268600480360381019061026391906111d5565b610de6565b60405161027591906117ce565b60405180910390f35b6102986004803603810190610293919061181d565b610e16565b6040516102a59190611637565b60405180910390f35b6102c860048036038101906102c39190611848565b610e46565b005b6102e460048036038101906102df9190611886565b611006565b6040516102f191906118c4565b60405180910390f35b6004602052805f5260405f205f91509050805f015490806001015f9054906101000a900460ff16908060010160019054906101000a900473ffffffffffffffffffffffffffffffffffffffff1690806002015490806003015490806004015490806005015490806006015f9054906101000a900460ff16905088565b61037e61112a565b60045f8381526020019081526020015f20604051806101000160405290815f8201548152602001600182015f9054906101000a900460ff1660038111156103c8576103c761120f565b5b60038111156103da576103d961120f565b5b81526020016001820160019054906101000a900473ffffffffffffffffffffffffffffffffffffffff1673ffffffffffffffffffffffffffffffffffffffff1673ffffffffffffffffffffffffffffffffffffffff16815260200160028201548152602001600382015481526020016004820154815260200160058201548152602001600682015f9054906101000a900460ff1615151515815250509050919050565b5f5f9054906101000a900473ffffffffffffffffffffffffffffffffffffffff1673ffffffffffffffffffffffffffffffffffffffff163373ffffffffffffffffffffffffffffffffffffffff161461050b576040517f08c379a000000000000000000000000000000000000000000000000000000000815260040161050290611927565b60405180910390fd5b5f821161054d576040517f08c379a00000000000000000000000000000000000000000000000000000000081526004016105449061198f565b60405180910390fd5b5f73ffffffffffffffffffffffffffffffffffffffff168173ffffffffffffffffffffffffffffffffffffffff16036105bb576040517f08c379a00000000000000000000000000000000000000000000000000000000081526004016105b2906119f7565b60405180910390fd5b60045f8381526020019081526020015f206006015f9054906101000a900460ff1661061b576040517f08c379a000000000000000000000000000000000000000000000000000000000815260040161061290611a5f565b60405180910390fd5b8060015f8481526020019081526020015f205f6101000a81548173ffffffffffffffffffffffffffffffffffffffff021916908373ffffffffffffffffffffffffffffffffffffffff1602179055508060045f8481526020019081526020015f2060010160016101000a81548173ffffffffffffffffffffffffffffffffffffffff021916908373ffffffffffffffffffffffffffffffffffffffff1602179055508073ffffffffffffffffffffffffffffffffffffffff16827f2be40c28d84b03ec7f76e76b5d0d05cdceb44d22e6cb85e907becc565b12169760405160405180910390a35050565b60605f60015f8481526020019081526020015f205f9054906101000a900473ffffffffffffffffffffffffffffffffffffffff1690505f73ffffffffffffffffffffffffffffffffffffffff168173ffffffffffffffffffffffffffffffffffffffff16036107a9576040517f08c379a00000000000000000000000000000000000000000000000000000000081526004016107a090611ac7565b60405180910390fd5b8073ffffffffffffffffffffffffffffffffffffffff16633b397af56040518163ffffffff1660e01b81526004015f60405180830381865afa1580156107f1573d5f5f3e3d5ffd5b505050506040513d5f823e3d601f19601f820116820180604052508101906108199190611bff565b915050919050565b5f60045f8381526020019081526020015f206006015f9054906101000a900460ff169050919050565b5f5f9054906101000a900473ffffffffffffffffffffffffffffffffffffffff1673ffffffffffffffffffffffffffffffffffffffff163373ffffffffffffffffffffffffffffffffffffffff16146108d8576040517f08c379a00000000000000000000000000000000000000000000000000000000081526004016108cf90611927565b60405180910390fd5b5f871161091a576040517f08c379a00000000000000000000000000000000000000000000000000000000081526004016109119061198f565b60405180910390fd5b5f841161095c576040517f08c379a000000000000000000000000000000000000000000000000000000000815260040161095390611c90565b60405180910390fd5b5f73ffffffffffffffffffffffffffffffffffffffff168573ffffffffffffffffffffffffffffffffffffffff16036109db5760035f8760038111156109a5576109a461120f565b5b60ff1660ff1681526020019081526020015f205f9054906101000a900473ffffffffffffffffffffffffffffffffffffffff1694505b5f73ffffffffffffffffffffffffffffffffffffffff168573ffffffffffffffffffffffffffffffffffffffff1603610a49576040517f08c379a0000000000000000000000000000000000000000000000000000000008152600401610a4090611cf8565b60405180910390fd5b8460015f8981526020019081526020015f205f6101000a81548173ffffffffffffffffffffffffffffffffffffffff021916908373ffffffffffffffffffffffffffffffffffffffff1602179055508560025f8981526020019081526020015f205f6101000a81548160ff02191690836003811115610acb57610aca61120f565b5b0217905550604051806101000160405280888152602001876003811115610af557610af461120f565b5b81526020018673ffffffffffffffffffffffffffffffffffffffff1681526020018581526020018481526020018381526020018281526020016001151581525060045f8981526020019081526020015f205f820151815f01556020820151816001015f6101000a81548160ff02191690836003811115610b7857610b7761120f565b5b021790555060408201518160010160016101000a81548173ffffffffffffffffffffffffffffffffffffffff021916908373ffffffffffffffffffffffffffffffffffffffff160217905550606082015181600201556080820151816003015560a0820151816004015560c0820151816005015560e0820151816006015f6101000a81548160ff0219169083151502179055509050508473ffffffffffffffffffffffffffffffffffffffff16866003811115610c3857610c3761120f565b5b60ff16887f3f155d38d7d1d0f2f1adf6da40a8fa13828a8a8f2d8affe1eb2d046729cef30860405160405180910390a450505050505050565b6002602052805f5260405f205f915054906101000a900460ff1681565b5f5f9054906101000a900473ffffffffffffffffffffffffffffffffffffffff1681565b5f60605f60015f8881526020019081526020015f205f9054906101000a900473ffffffffffffffffffffffffffffffffffffffff1690505f73ffffffffffffffffffffffffffffffffffffffff168173ffffffffffffffffffffffffffffffffffffffff1603610d57576040517f08c379a0000000000000000000000000000000000000000000000000000000008152600401610d4e90611ac7565b60405180910390fd5b8073ffffffffffffffffffffffffffffffffffffffff1663b4600cac888888886040518563ffffffff1660e01b8152600401610d969493929190611da6565b5f60405180830381865afa158015610db0573d5f5f3e3d5ffd5b505050506040513d5f823e3d601f19601f82011682018060405250810190610dd89190611e0e565b925092505094509492505050565b6001602052805f5260405f205f915054906101000a900473ffffffffffffffffffffffffffffffffffffffff1681565b6003602052805f5260405f205f915054906101000a900473ffffffffffffffffffffffffffffffffffffffff1681565b5f5f9054906101000a900473ffffffffffffffffffffffffffffffffffffffff1673ffffffffffffffffffffffffffffffffffffffff163373ffffffffffffffffffffffffffffffffffffffff1614610ed4576040517f08c379a0000000000000000000000000000000000000000000000000000000008152600401610ecb90611927565b60405180910390fd5b5f73ffffffffffffffffffffffffffffffffffffffff168173ffffffffffffffffffffffffffffffffffffffff1603610f42576040517f08c379a0000000000000000000000000000000000000000000000000000000008152600401610f39906119f7565b60405180910390fd5b8060035f846003811115610f5957610f5861120f565b5b60ff1660ff1681526020019081526020015f205f6101000a81548173ffffffffffffffffffffffffffffffffffffffff021916908373ffffffffffffffffffffffffffffffffffffffff1602179055508073ffffffffffffffffffffffffffffffffffffffff16826003811115610fd357610fd261120f565b5b60ff167fd9c5dea50eb1e06f6d1ab607d34901871a386076862d1451421b63fb52d78ab260405160405180910390a35050565b5f5f60015f8581526020019081526020015f205f9054906101000a900473ffffffffffffffffffffffffffffffffffffffff1690505f73ffffffffffffffffffffffffffffffffffffffff168173ffffffffffffffffffffffffffffffffffffffff16036110a9576040517f08c379a00000000000000000000000000000000000000000000000000000000081526004016110a090611ac7565b60405180910390fd5b8073ffffffffffffffffffffffffffffffffffffffff1663cfd5ef05846040518263ffffffff1660e01b81526004016110e29190611e68565b602060405180830381865afa1580156110fd573d5f5f3e3d5ffd5b505050506040513d601f19601f820116820180604052508101906111219190611e95565b91505092915050565b6040518061010001604052805f81526020015f600381111561114f5761114e61120f565b5b81526020015f73ffffffffffffffffffffffffffffffffffffffff1681526020015f81526020015f81526020015f81526020015f81526020015f151581525090565b5f604051905090565b5f5ffd5b5f5ffd5b5f819050919050565b6111b4816111a2565b81146111be575f5ffd5b50565b5f813590506111cf816111ab565b92915050565b5f602082840312156111ea576111e961119a565b5b5f6111f7848285016111c1565b91505092915050565b611209816111a2565b82525050565b7f4e487b71000000000000000000000000000000000000000000000000000000005f52602160045260245ffd5b6004811061124d5761124c61120f565b5b50565b5f81905061125d8261123c565b919050565b5f61126c82611250565b9050919050565b61127c81611262565b82525050565b5f73ffffffffffffffffffffffffffffffffffffffff82169050919050565b5f6112ab82611282565b9050919050565b6112bb816112a1565b82525050565b5f8115159050919050565b6112d5816112c1565b82525050565b5f610100820190506112ef5f83018b611200565b6112fc602083018a611273565b61130960408301896112b2565b6113166060830188611200565b6113236080830187611200565b61133060a0830186611200565b61133d60c0830185611200565b61134a60e08301846112cc565b9998505050505050505050565b611360816111a2565b82525050565b61136f81611262565b82525050565b61137e816112a1565b82525050565b61138d816112c1565b82525050565b61010082015f8201516113a85f850182611357565b5060208201516113bb6020850182611366565b5060408201516113ce6040850182611375565b5060608201516113e16060850182611357565b5060808201516113f46080850182611357565b5060a082015161140760a0850182611357565b5060c082015161141a60c0850182611357565b5060e082015161142d60e0850182611384565b50505050565b5f610100820190506114475f830184611393565b92915050565b611456816112a1565b8114611460575f5ffd5b50565b5f813590506114718161144d565b92915050565b5f5f6040838503121561148d5761148c61119a565b5b5f61149a858286016111c1565b92505060206114ab85828601611463565b9150509250929050565b5f81519050919050565b5f82825260208201905092915050565b8281835e5f83830152505050565b5f601f19601f8301169050919050565b5f6114f7826114b5565b61150181856114bf565b93506115118185602086016114cf565b61151a816114dd565b840191505092915050565b5f6020820190508181035f83015261153d81846114ed565b905092915050565b5f6020820190506115585f8301846112cc565b92915050565b6004811061156a575f5ffd5b50565b5f8135905061157b8161155e565b92915050565b5f5f5f5f5f5f5f60e0888a03121561159c5761159b61119a565b5b5f6115a98a828b016111c1565b97505060206115ba8a828b0161156d565b96505060406115cb8a828b01611463565b95505060606115dc8a828b016111c1565b94505060806115ed8a828b016111c1565b93505060a06115fe8a828b016111c1565b92505060c061160f8a828b016111c1565b91505092959891949750929550565b5f6020820190506116315f830184611273565b92915050565b5f60208201905061164a5f8301846112b2565b92915050565b600c811061165c575f5ffd5b50565b5f8135905061166d81611650565b92915050565b5f5ffd5b5f5ffd5b5f5ffd5b5f5f83601f84011261169457611693611673565b5b8235905067ffffffffffffffff8111156116b1576116b0611677565b5b6020830191508360018202830111156116cd576116cc61167b565b5b9250929050565b5f5f5f5f606085870312156116ec576116eb61119a565b5b5f6116f9878288016111c1565b945050602061170a8782880161165f565b935050604085013567ffffffffffffffff81111561172b5761172a61119e565b5b6117378782880161167f565b925092505092959194509250565b5f6040820190506117585f8301856112cc565b818103602083015261176a81846114ed565b90509392505050565b5f819050919050565b5f61179661179161178c84611282565b611773565b611282565b9050919050565b5f6117a78261177c565b9050919050565b5f6117b88261179d565b9050919050565b6117c8816117ae565b82525050565b5f6020820190506117e15f8301846117bf565b92915050565b5f60ff82169050919050565b6117fc816117e7565b8114611806575f5ffd5b50565b5f81359050611817816117f3565b92915050565b5f602082840312156118325761183161119a565b5b5f61183f84828501611809565b91505092915050565b5f5f6040838503121561185e5761185d61119a565b5b5f61186b8582860161156d565b925050602061187c85828601611463565b9150509250929050565b5f5f6040838503121561189c5761189b61119a565b5b5f6118a9858286016111c1565b92505060206118ba8582860161165f565b9150509250929050565b5f6020820190506118d75f830184611200565b92915050565b7f6f6e6c79206f776e6572000000000000000000000000000000000000000000005f82015250565b5f611911600a836114bf565b915061191c826118dd565b602082019050919050565b5f6020820190508181035f83015261193e81611905565b9050919050565b7f696e76616c696420636861696e206964000000000000000000000000000000005f82015250565b5f6119796010836114bf565b915061198482611945565b602082019050919050565b5f6020820190508181035f8301526119a68161196d565b9050919050565b7f7a65726f2076616c696461746f720000000000000000000000000000000000005f82015250565b5f6119e1600e836114bf565b91506119ec826119ad565b602082019050919050565b5f6020820190508181035f830152611a0e816119d5565b9050919050565b7f636861696e206e6f7420726567697374657265640000000000000000000000005f82015250565b5f611a496014836114bf565b9150611a5482611a15565b602082019050919050565b5f6020820190508181035f830152611a7681611a3d565b9050919050565b7f6e6f2076616c696461746f7220666f7220636861696e000000000000000000005f82015250565b5f611ab16016836114bf565b9150611abc82611a7d565b602082019050919050565b5f6020820190508181035f830152611ade81611aa5565b9050919050565b5f5ffd5b7f4e487b71000000000000000000000000000000000000000000000000000000005f52604160045260245ffd5b611b1f826114dd565b810181811067ffffffffffffffff82111715611b3e57611b3d611ae9565b5b80604052505050565b5f611b50611191565b9050611b5c8282611b16565b919050565b5f67ffffffffffffffff821115611b7b57611b7a611ae9565b5b611b84826114dd565b9050602081019050919050565b5f611ba3611b9e84611b61565b611b47565b905082815260208101848484011115611bbf57611bbe611ae5565b5b611bca8482856114cf565b509392505050565b5f82601f830112611be657611be5611673565b5b8151611bf6848260208601611b91565b91505092915050565b5f60208284031215611c1457611c1361119a565b5b5f82015167ffffffffffffffff811115611c3157611c3061119e565b5b611c3d84828501611bd2565b91505092915050565b7f696e76616c696420626c6f636b2074696d6500000000000000000000000000005f82015250565b5f611c7a6012836114bf565b9150611c8582611c46565b602082019050919050565b5f6020820190508181035f830152611ca781611c6e565b9050919050565b7f6e6f2076616c696461746f7220666f72207479706500000000000000000000005f82015250565b5f611ce26015836114bf565b9150611ced82611cae565b602082019050919050565b5f6020820190508181035f830152611d0f81611cd6565b9050919050565b600c8110611d2757611d2661120f565b5b50565b5f819050611d3782611d16565b919050565b5f611d4682611d2a565b9050919050565b611d5681611d3c565b82525050565b5f82825260208201905092915050565b828183375f83830152505050565b5f611d858385611d5c565b9350611d92838584611d6c565b611d9b836114dd565b840190509392505050565b5f606082019050611db95f830187611200565b611dc66020830186611d4d565b8181036040830152611dd9818486611d7a565b905095945050505050565b611ded816112c1565b8114611df7575f5ffd5b50565b5f81519050611e0881611de4565b92915050565b5f5f60408385031215611e2457611e2361119a565b5b5f611e3185828601611dfa565b925050602083015167ffffffffffffffff811115611e5257611e5161119e565b5b611e5e85828601611bd2565b9150509250929050565b5f602082019050611e7b5f830184611d4d565b92915050565b5f81519050611e8f816111ab565b92915050565b5f60208284031215611eaa57611ea961119a565b5b5f611eb784828501611e81565b9150509291505056fea264697066735822122022eb46e0b41f2148257d31c2839f3b02c5581539ad3a096e25c55f4b242c6a2664736f6c634300081e0033","linkReferences":{}},"methodIdentifiers":{"chainTypes(uint256)":"8d6ffd6a","chainValidators(uint256)":"c4a01587","configs(uint256)":"0098fa22","getChainConfig(uint256)":"19ed16dc","getChainType(uint256)":"5c7cf40f","getSignalThreshold(uint256,uint8)":"fe09abd8","isChainActive(uint256)":"5e2a579c","owner()":"8da5cb5b","registerChainType(uint256,uint8,address,uint256,uint256,uint256,uint256)":"72344405","setValidatorImplementation(uint8,address)":"f2475665","updateChainValidator(uint256,address)":"2403e27d","validateSignal(uint256,uint8,bytes)":"b4600cac","validatorImplementations(uint8)":"dc320f63"},"id":21}