{"abi":[{"type":"constructor","inputs":[],"stateMutability":"nonpayable"},{"type":"function","name":"chainType","inputs":[],"outputs":[{"name":"","type":"string","internalType":"string"}],"stateMutability":"pure"},{"type":"function","name":"getDefaultThreshold","inputs":[{"name":"signalType","type":"uint8","internalType":"enum SignalTypes.SignalType"}],"outputs":[{"name":"","type":"uint256","internalType":"uint256"}],"stateMutability":"view"},{"type":"function","name":"owner","inputs":[],"outputs":[{"name":"","type":"address","internalType":"address"}],"stateMutability":"view"},{"type":"function","name":"thresholds","inputs":[{"name":"","type":"uint8","internalType":"uint8"}],"outputs":[{"name":"","type":"uint256","internalType":"uint256"}],"stateMutability":"view"},{"type":"function","name":"validateSignal","inputs":[{"name":"","type":"uint256","internalType":"uint256"},{"name":"signalType","type":"uint8","internalType":"enum SignalTypes.SignalType"},{"name":"data","type":"bytes","internalType":"bytes"}],"outputs":[{"name":"isValid","type":"bool","internalType":"bool"},{"name":"reason","type":"string","internalType":"string"}],"stateMutability":"pure"}],"bytecode":{"object":"0x6080604052348015600e575f5ffd5b50335f5f6101000a81548173ffffffffffffffffffffffffffffffffffffffff021916908373ffffffffffffffffffffffffffffffffffffffff16021790555061070860015f6002600b811115606557606460ae565b5b60ff1660ff1681526020019081526020015f2081905550611c2060015f6003600b811115609357609260ae565b5b60ff1660ff1681526020019081526020015f208190555060db565b7f4e487b71000000000000000000000000000000000000000000000000000000005f52602160045260245ffd5b610720806100e85f395ff3fe608060405234801561000f575f5ffd5b5060043610610055575f3560e01c80633b397af5146100595780635a50d2f4146100775780638da5cb5b146100a7578063b4600cac146100c5578063cfd5ef05146100f6575b5f5ffd5b610061610126565b60405161006e91906103c4565b60405180910390f35b610091600480360381019061008c9190610422565b610163565b60405161009e9190610465565b60405180910390f35b6100af610178565b6040516100bc91906104bd565b60405180910390f35b6100df60048036038101906100da9190610584565b61019c565b6040516100ed92919061060f565b60405180910390f35b610110600480360381019061010b919061063d565b610322565b60405161011d9190610465565b60405180910390f35b60606040518060400160405280600881526020017f4f505f535441434b000000000000000000000000000000000000000000000000815250905090565b6001602052805f5260405f205f915090505481565b5f5f9054906101000a900473ffffffffffffffffffffffffffffffffffffffff1681565b5f60606002600b8111156101b3576101b2610668565b5b85600b8111156101c6576101c5610668565b5b0361023e575f84848101906101db91906106bf565b905080610223575f6040518060400160405280601681526020017f6261746368206e6f7420706f7374656420746f206c31000000000000000000008152509250925050610319565b600160405180602001604052805f8152509250925050610319565b6003600b81111561025257610251610668565b5b85600b81111561026557610264610668565b5b036102dd575f848481019061027a91906106bf565b9050806102c2575f6040518060400160405280601981526020017f6261746368206e6f7420636f6e6669726d6564206f6e206c31000000000000008152509250925050610319565b600160405180602001604052805f8152509250925050610319565b5f6040518060400160405280601781526020017f756e737570706f72746564207369676e616c2074797065000000000000000000815250915091505b94509492505050565b5f60015f83600b81111561033957610338610668565b5b60ff1660ff1681526020019081526020015f20549050919050565b5f81519050919050565b5f82825260208201905092915050565b8281835e5f83830152505050565b5f601f19601f8301169050919050565b5f61039682610354565b6103a0818561035e565b93506103b081856020860161036e565b6103b98161037c565b840191505092915050565b5f6020820190508181035f8301526103dc818461038c565b905092915050565b5f5ffd5b5f5ffd5b5f60ff82169050919050565b610401816103ec565b811461040b575f5ffd5b50565b5f8135905061041c816103f8565b92915050565b5f60208284031215610437576104366103e4565b5b5f6104448482850161040e565b91505092915050565b5f819050919050565b61045f8161044d565b82525050565b5f6020820190506104785f830184610456565b92915050565b5f73ffffffffffffffffffffffffffffffffffffffff82169050919050565b5f6104a78261047e565b9050919050565b6104b78161049d565b82525050565b5f6020820190506104d05f8301846104ae565b92915050565b6104df8161044d565b81146104e9575f5ffd5b50565b5f813590506104fa816104d6565b92915050565b600c811061050c575f5ffd5b50565b5f8135905061051d81610500565b92915050565b5f5ffd5b5f5ffd5b5f5ffd5b5f5f83601f84011261054457610543610523565b5b8235905067ffffffffffffffff81111561056157610560610527565b5b60208301915083600182028301111561057d5761057c61052b565b5b9250929050565b5f5f5f5f6060858703121561059c5761059b6103e4565b5b5f6105a9878288016104ec565b94505060206105ba8782880161050f565b935050604085013567ffffffffffffffff8111156105db576105da6103e8565b5b6105e78782880161052f565b925092505092959194509250565b5f8115159050919050565b610609816105f5565b82525050565b5f6040820190506106225f830185610600565b8181036020830152610634818461038c565b90509392505050565b5f60208284031215610652576106516103e4565b5b5f61065f8482850161050f565b91505092915050565b7f4e487b71000000000000000000000000000000000000000000000000000000005f52602160045260245ffd5b61069e816105f5565b81146106a8575f5ffd5b50565b5f813590506106b981610695565b92915050565b5f602082840312156106d4576106d36103e4565b5b5f6106e1848285016106ab565b9150509291505056fea2646970667358221220eed662bc8eecb9b0afb2660b9e85542311acc238bd8910d8a1d81426871b69c564736f6c634300081e0033","linkReferences":{}},"methodIdentifiers":{"chainType()":"3b397af5","getDefaultThreshold(uint8)":"cfd5ef05","owner()":"8da5cb5b","thresholds(uint8)":"5a50d2f4","validateSignal(uint256,uint8,bytes)":"b4600cac"},"id":22}