{"abi":[{"type":"constructor","inputs":[],"stateMutability":"nonpayable"},{"type":"function","name":"chainType","inputs":[],"outputs":[{"name":"","type":"string","internalType":"string"}],"stateMutability":"pure"},{"type":"function","name":"getDefaultThreshold","inputs":[{"name":"signalType","type":"uint8","internalType":"enum SignalTypes.SignalType"}],"outputs":[{"name":"","type":"uint256","internalType":"uint256"}],"stateMutability":"view"},{"type":"function","name":"owner","inputs":[],"outputs":[{"name":"","type":"address","internalType":"address"}],"stateMutability":"view"},{"type":"function","name":"setThreshold","inputs":[{"name":"signalTypeId","type":"uint8","internalType":"uint8"},{"name":"value","type":"uint256","internalType":"uint256"}],"outputs":[],"stateMutability":"nonpayable"},{"type":"function","name":"thresholds","inputs":[{"name":"","type":"uint8","internalType":"uint8"}],"outputs":[{"name":"","type":"uint256","internalType":"uint256"}],"stateMutability":"view"},{"type":"function","name":"validateSignal","inputs":[{"name":"chainId","type":"uint256","internalType":"uint256"},{"name":"signalType","type":"uint8","internalType":"enum SignalTypes.SignalType"},{"name":"data","type":"bytes","internalType":"bytes"}],"outputs":[{"name":"isValid","type":"bool","internalType":"bool"},{"name":"reason","type":"string","internalType":"string"}],"stateMutability":"view"}],"bytecode":{"object":"0x608060405234801561000f575f5ffd5b50335f5f6101000a81548173ffffffffffffffffffffffffffffffffffffffff021916908373ffffffffffffffffffffffffffffffffffffffff160217905550600260015f5f600b81111561006757610066610144565b5b60ff1660ff1681526020019081526020015f2081905550600a60015f6001600b81111561009757610096610144565b5b60ff1660ff1681526020019081526020015f208190555061025860015f6002600b8111156100c8576100c7610144565b5b60ff1660ff1681526020019081526020015f20819055506104b060015f6008600b8111156100f9576100f8610144565b5b60ff1660ff1681526020019081526020015f20819055506001805f600a600b81111561012857610127610144565b5b60ff1660ff1681526020019081526020015f2081905550610171565b7f4e487b71000000000000000000000000000000000000000000000000000000005f52602160045260245ffd5b6109f78061017e5f395ff3fe608060405234801561000f575f5ffd5b5060043610610060575f3560e01c80633b397af5146100645780633d098c00146100825780635a50d2f41461009e5780638da5cb5b146100ce578063b4600cac146100ec578063cfd5ef051461011d575b5f5ffd5b61006c61014d565b6040516100799190610546565b60405180910390f35b61009c600480360381019061009791906105d7565b61018a565b005b6100b860048036038101906100b39190610615565b610238565b6040516100c5919061064f565b60405180910390f35b6100d661024d565b6040516100e391906106a7565b60405180910390f35b61010660048036038101906101019190610744565b610271565b6040516101149291906107cf565b60405180910390f35b610137600480360381019061013291906107fd565b6104a4565b604051610144919061064f565b60405180910390f35b60606040518060400160405280600e81526020017f415242495452554d5f4f52424954000000000000000000000000000000000000815250905090565b5f5f9054906101000a900473ffffffffffffffffffffffffffffffffffffffff1673ffffffffffffffffffffffffffffffffffffffff163373ffffffffffffffffffffffffffffffffffffffff1614610218576040517f08c379a000000000000000000000000000000000000000000000000000000000815260040161020f90610872565b60405180910390fd5b8060015f8460ff1660ff1681526020019081526020015f20819055505050565b6001602052805f5260405f205f915090505481565b5f5f9054906101000a900473ffffffffffffffffffffffffffffffffffffffff1681565b5f60605f600b81111561028757610286610890565b5b85600b81111561029a57610299610890565b5b0361031a575f5f85858101906102b091906108bd565b91509150808211156102fe575f6040518060400160405280601781526020017f626c6f636b2070726f647563656420746f6f206c61746500000000000000000081525093509350505061049b565b600160405180602001604052805f81525093509350505061049b565b6001600b81111561032e5761032d610890565b5b85600b81111561034157610340610890565b5b036103c0575f5f8585810190610357919061092e565b915091508082036103a4575f6040518060400160405280601981526020017f737461746520726f6f7420646964206e6f74206368616e67650000000000000081525093509350505061049b565b600160405180602001604052805f81525093509350505061049b565b600a600b8111156103d4576103d3610890565b5b85600b8111156103e7576103e6610890565b5b0361045f575f84848101906103fc9190610996565b905080610444575f6040518060400160405280601481526020017f7472616e73616374696f6e2063656e736f726564000000000000000000000000815250925092505061049b565b600160405180602001604052805f815250925092505061049b565b5f6040518060400160405280601781526020017f756e737570706f72746564207369676e616c2074797065000000000000000000815250915091505b94509492505050565b5f60015f83600b8111156104bb576104ba610890565b5b60ff1660ff1681526020019081526020015f20549050919050565b5f81519050919050565b5f82825260208201905092915050565b8281835e5f83830152505050565b5f601f19601f8301169050919050565b5f610518826104d6565b61052281856104e0565b93506105328185602086016104f0565b61053b816104fe565b840191505092915050565b5f6020820190508181035f83015261055e818461050e565b905092915050565b5f5ffd5b5f5ffd5b5f60ff82169050919050565b6105838161056e565b811461058d575f5ffd5b50565b5f8135905061059e8161057a565b92915050565b5f819050919050565b6105b6816105a4565b81146105c0575f5ffd5b50565b5f813590506105d1816105ad565b92915050565b5f5f604083850312156105ed576105ec610566565b5b5f6105fa85828601610590565b925050602061060b858286016105c3565b9150509250929050565b5f6020828403121561062a57610629610566565b5b5f61063784828501610590565b91505092915050565b610649816105a4565b82525050565b5f6020820190506106625f830184610640565b92915050565b5f73ffffffffffffffffffffffffffffffffffffffff82169050919050565b5f61069182610668565b9050919050565b6106a181610687565b82525050565b5f6020820190506106ba5f830184610698565b92915050565b600c81106106cc575f5ffd5b50565b5f813590506106dd816106c0565b92915050565b5f5ffd5b5f5ffd5b5f5ffd5b5f5f83601f840112610704576107036106e3565b5b8235905067ffffffffffffffff811115610721576107206106e7565b5b60208301915083600182028301111561073d5761073c6106eb565b5b9250929050565b5f5f5f5f6060858703121561075c5761075b610566565b5b5f610769878288016105c3565b945050602061077a878288016106cf565b935050604085013567ffffffffffffffff81111561079b5761079a61056a565b5b6107a7878288016106ef565b925092505092959194509250565b5f8115159050919050565b6107c9816107b5565b82525050565b5f6040820190506107e25f8301856107c0565b81810360208301526107f4818461050e565b90509392505050565b5f6020828403121561081257610811610566565b5b5f61081f848285016106cf565b91505092915050565b7f6f6e6c79206f776e6572000000000000000000000000000000000000000000005f82015250565b5f61085c600a836104e0565b915061086782610828565b602082019050919050565b5f6020820190508181035f83015261088981610850565b9050919050565b7f4e487b71000000000000000000000000000000000000000000000000000000005f52602160045260245ffd5b5f5f604083850312156108d3576108d2610566565b5b5f6108e0858286016105c3565b92505060206108f1858286016105c3565b9150509250929050565b5f819050919050565b61090d816108fb565b8114610917575f5ffd5b50565b5f8135905061092881610904565b92915050565b5f5f6040838503121561094457610943610566565b5b5f6109518582860161091a565b92505060206109628582860161091a565b9150509250929050565b610975816107b5565b811461097f575f5ffd5b50565b5f813590506109908161096c565b92915050565b5f602082840312156109ab576109aa610566565b5b5f6109b884828501610982565b9150509291505056fea26469706673582212207ae5d58b61b5e648f80fc4ec4d326150951122d45aef6b5337156048db0af69264736f6c634300081e0033","linkReferences":{}},"methodIdentifiers":{"chainType()":"3b397af5","getDefaultThreshold(uint8)":"cfd5ef05","owner()":"8da5cb5b","setThreshold(uint8,uint256)":"3d098c00","thresholds(uint8)":"5a50d2f4","validateSignal(uint256,uint8,bytes)":"b4600cac"},"id":21}