{"abi":[{"type":"constructor","inputs":[],"stateMutability":"nonpayable"},{"type":"function","name":"chainType","inputs":[],"outputs":[{"name":"","type":"string","internalType":"string"}],"stateMutability":"pure"},{"type":"function","name":"getDefaultThreshold","inputs":[{"name":"signalType","type":"uint8","internalType":"enum SignalTypes.SignalType"}],"outputs":[{"name":"","type":"uint256","internalType":"uint256"}],"stateMutability":"view"},{"type":"function","name":"owner","inputs":[],"outputs":[{"name":"","type":"address","internalType":"address"}],"stateMutability":"view"},{"type":"function","name":"setThreshold","inputs":[{"name":"signalTypeId","type":"uint8","internalType":"uint8"},{"name":"value","type":"uint256","internalType":"uint256"}],"outputs":[],"stateMutability":"nonpayable"},{"type":"function","name":"thresholds","inputs":[{"name":"","type":"uint8","internalType":"uint8"}],"outputs":[{"name":"","type":"uint256","internalType":"uint256"}],"stateMutability":"view"},{"type":"function","name":"validateSignal","inputs":[{"name":"","type":"uint256","internalType":"uint256"},{"name":"signalType","type":"uint8","internalType":"enum SignalTypes.SignalType"},{"name":"data","type":"bytes","internalType":"bytes"}],"outputs":[{"name":"isValid","type":"bool","internalType":"bool"},{"name":"reason","type":"string","internalType":"string"}],"stateMutability":"pure"}],"bytecode":{"object":"0x608060405234801561000f575f5ffd5b50335f5f6101000a81548173ffffffffffffffffffffffffffffffffffffffff021916908373ffffffffffffffffffffffffffffffffffffffff160217905550600260015f5f600b81111561006757610066610144565b5b60ff1660ff1681526020019081526020015f2081905550600a60015f6001600b81111561009757610096610144565b5b60ff1660ff1681526020019081526020015f208190555061025860015f6002600b8111156100c8576100c7610144565b5b60ff1660ff1681526020019081526020015f20819055506104b060015f6008600b8111156100f9576100f8610144565b5b60ff1660ff1681526020019081526020015f20819055506001805f600a600b81111561012857610127610144565b5b60ff1660ff1681526020019081526020015f2081905550610171565b7f4e487b71000000000000000000000000000000000000000000000000000000005f52602160045260245ffd5b610a018061017e5f395ff3fe608060405234801561000f575f5ffd5b5060043610610060575f3560e01c80633b397af5146100645780633d098c00146100825780635a50d2f41461009e5780638da5cb5b146100ce578063b4600cac146100ec578063cfd5ef051461011d575b5f5ffd5b61006c61014d565b6040516100799190610550565b60405180910390f35b61009c600480360381019061009791906105e1565b61018a565b005b6100b860048036038101906100b3919061061f565b6101b2565b6040516100c59190610659565b60405180910390f35b6100d66101c7565b6040516100e391906106b1565b60405180910390f35b6101066004803603810190610101919061074e565b6101eb565b6040516101149291906107d9565b60405180910390f35b61013760048036038101906101329190610807565b61041e565b6040516101449190610659565b60405180910390f35b60606040518060400160405280600e81526020017f415242495452554d5f4f52424954000000000000000000000000000000000000815250905090565b610192610450565b8060015f8460ff1660ff1681526020019081526020015f20819055505050565b6001602052805f5260405f205f915090505481565b5f5f9054906101000a900473ffffffffffffffffffffffffffffffffffffffff1681565b5f60605f600b81111561020157610200610832565b5b85600b81111561021457610213610832565b5b03610294575f5f858581019061022a919061085f565b9150915080821115610278575f6040518060400160405280601781526020017f626c6f636b2070726f647563656420746f6f206c617465000000000000000000815250935093505050610415565b600160405180602001604052805f815250935093505050610415565b6001600b8111156102a8576102a7610832565b5b85600b8111156102bb576102ba610832565b5b0361033a575f5f85858101906102d191906108d0565b9150915080820361031e575f6040518060400160405280601981526020017f737461746520726f6f7420646964206e6f74206368616e676500000000000000815250935093505050610415565b600160405180602001604052805f815250935093505050610415565b600a600b81111561034e5761034d610832565b5b85600b81111561036157610360610832565b5b036103d9575f84848101906103769190610938565b9050806103be575f6040518060400160405280601481526020017f7472616e73616374696f6e2063656e736f7265640000000000000000000000008152509250925050610415565b600160405180602001604052805f8152509250925050610415565b5f6040518060400160405280601781526020017f756e737570706f72746564207369676e616c2074797065000000000000000000815250915091505b94509492505050565b5f60015f83600b81111561043557610434610832565b5b60ff1660ff1681526020019081526020015f20549050919050565b5f5f9054906101000a900473ffffffffffffffffffffffffffffffffffffffff1673ffffffffffffffffffffffffffffffffffffffff163373ffffffffffffffffffffffffffffffffffffffff16146104de576040517f08c379a00000000000000000000000000000000000000000000000000000000081526004016104d5906109ad565b60405180910390fd5b565b5f81519050919050565b5f82825260208201905092915050565b8281835e5f83830152505050565b5f601f19601f8301169050919050565b5f610522826104e0565b61052c81856104ea565b935061053c8185602086016104fa565b61054581610508565b840191505092915050565b5f6020820190508181035f8301526105688184610518565b905092915050565b5f5ffd5b5f5ffd5b5f60ff82169050919050565b61058d81610578565b8114610597575f5ffd5b50565b5f813590506105a881610584565b92915050565b5f819050919050565b6105c0816105ae565b81146105ca575f5ffd5b50565b5f813590506105db816105b7565b92915050565b5f5f604083850312156105f7576105f6610570565b5b5f6106048582860161059a565b9250506020610615858286016105cd565b9150509250929050565b5f6020828403121561063457610633610570565b5b5f6106418482850161059a565b91505092915050565b610653816105ae565b82525050565b5f60208201905061066c5f83018461064a565b92915050565b5f73ffffffffffffffffffffffffffffffffffffffff82169050919050565b5f61069b82610672565b9050919050565b6106ab81610691565b82525050565b5f6020820190506106c45f8301846106a2565b92915050565b600c81106106d6575f5ffd5b50565b5f813590506106e7816106ca565b92915050565b5f5ffd5b5f5ffd5b5f5ffd5b5f5f83601f84011261070e5761070d6106ed565b5b8235905067ffffffffffffffff81111561072b5761072a6106f1565b5b602083019150836001820283011115610747576107466106f5565b5b9250929050565b5f5f5f5f6060858703121561076657610765610570565b5b5f610773878288016105cd565b9450506020610784878288016106d9565b935050604085013567ffffffffffffffff8111156107a5576107a4610574565b5b6107b1878288016106f9565b925092505092959194509250565b5f8115159050919050565b6107d3816107bf565b82525050565b5f6040820190506107ec5f8301856107ca565b81810360208301526107fe8184610518565b90509392505050565b5f6020828403121561081c5761081b610570565b5b5f610829848285016106d9565b91505092915050565b7f4e487b71000000000000000000000000000000000000000000000000000000005f52602160045260245ffd5b5f5f6040838503121561087557610874610570565b5b5f610882858286016105cd565b9250506020610893858286016105cd565b9150509250929050565b5f819050919050565b6108af8161089d565b81146108b9575f5ffd5b50565b5f813590506108ca816108a6565b92915050565b5f5f604083850312156108e6576108e5610570565b5b5f6108f3858286016108bc565b9250506020610904858286016108bc565b9150509250929050565b610917816107bf565b8114610921575f5ffd5b50565b5f813590506109328161090e565b92915050565b5f6020828403121561094d5761094c610570565b5b5f61095a84828501610924565b91505092915050565b7f6f6e6c79206f776e6572000000000000000000000000000000000000000000005f82015250565b5f610997600a836104ea565b91506109a282610963565b602082019050919050565b5f6020820190508181035f8301526109c48161098b565b905091905056fea26469706673582212203670df175a833717b4612cd86f16620f8da692d5ba4082515820a5f86807330664736f6c634300081e0033","linkReferences":{}},"methodIdentifiers":{"chainType()":"3b397af5","getDefaultThreshold(uint8)":"cfd5ef05","owner()":"8da5cb5b","setThreshold(uint8,uint256)":"3d098c00","thresholds(uint8)":"5a50d2f4","validateSignal(uint256,uint8,bytes)":"b4600cac"},"id":22}