{"abi":[{"type":"constructor","inputs":[{"name":"registryAddress","type":"address","internalType":"address"}],"stateMutability":"nonpayable"},{"type":"receive","stateMutability":"payable"},{"type":"function","name":"SLASH_AMOUNT","inputs":[],"outputs":[{"name":"","type":"uint256","internalType":"uint256"}],"stateMutability":"view"},{"type":"function","name":"clearIncident","inputs":[{"name":"chainId","type":"uint256","internalType":"uint256"}],"outputs":[],"stateMutability":"nonpayable"},{"type":"function","name":"inIncident","inputs":[{"name":"","type":"uint256","internalType":"uint256"}],"outputs":[{"name":"","type":"bool","internalType":"bool"}],"stateMutability":"view"},{"type":"function","name":"lastHeartbeat","inputs":[{"name":"","type":"uint256","internalType":"uint256"}],"outputs":[{"name":"","type":"uint256","internalType":"uint256"}],"stateMutability":"view"},{"type":"function","name":"registry","inputs":[],"outputs":[{"name":"","type":"address","internalType":"contract IOrbitRegistry"}],"stateMutability":"view"},{"type":"function","name":"reportHealth","inputs":[{"name":"chainId","type":"uint256","internalType":"uint256"},{"name":"statusCode","type":"uint8","internalType":"uint8"},{"name":"details","type":"string","internalType":"string"}],"outputs":[],"stateMutability":"nonpayable"},{"type":"function","name":"submitHeartbeat","inputs":[{"name":"chainId","type":"uint256","internalType":"uint256"},{"name":"seqNumber","type":"uint256","internalType":"uint256"},{"name":"l2SeqNumber","type":"uint256","internalType":"uint256"}],"outputs":[],"stateMutability":"nonpayable"},{"type":"function","name":"triggerIncidentIfExpired","inputs":[{"name":"chainId","type":"uint256","internalType":"uint256"}],"outputs":[],"stateMutability":"nonpayable"},{"type":"event","name":"HealthReport","inputs":[{"name":"chainId","type":"uint256","indexed":true,"internalType":"uint256"},{"name":"statusCode","type":"uint8","indexed":false,"internalType":"uint8"},{"name":"details","type":"string","indexed":false,"internalType":"string"},{"name":"timestamp","type":"uint256","indexed":false,"internalType":"uint256"}],"anonymous":false},{"type":"event","name":"Heartbeat","inputs":[{"name":"chainId","type":"uint256","indexed":true,"internalType":"uint256"},{"name":"seqNumber","type":"uint256","indexed":false,"internalType":"uint256"},{"name":"l2SeqNumber","type":"uint256","indexed":false,"internalType":"uint256"},{"name":"timestamp","type":"uint256","indexed":false,"internalType":"uint256"}],"anonymous":false},{"type":"event","name":"IncidentCleared","inputs":[{"name":"chainId","type":"uint256","indexed":true,"internalType":"uint256"},{"name":"clearedAt","type":"uint256","indexed":false,"internalType":"uint256"}],"anonymous":false},{"type":"event","name":"IncidentRaised","inputs":[{"name":"chainId","type":"uint256","indexed":true,"internalType":"uint256"},{"name":"lastHeartbeat","type":"uint256","indexed":false,"internalType":"uint256"},{"name":"triggeredAt","type":"uint256","indexed":false,"internalType":"uint256"},{"name":"reason","type":"string","indexed":false,"internalType":"string"}],"anonymous":false}],"bytecode":{"object":"0x608060405234801561000f575f5ffd5b50604051611123380380611123833981810160405281019061003191906100d4565b805f5f6101000a81548173ffffffffffffffffffffffffffffffffffffffff021916908373ffffffffffffffffffffffffffffffffffffffff160217905550506100ff565b5f5ffd5b5f73ffffffffffffffffffffffffffffffffffffffff82169050919050565b5f6100a38261007a565b9050919050565b6100b381610099565b81146100bd575f5ffd5b50565b5f815190506100ce816100aa565b92915050565b5f602082840312156100e9576100e8610076565b5b5f6100f6848285016100c0565b91505092915050565b6110178061010c5f395ff3fe60806040526004361061007e575f3560e01c80638ba2f3041161004d5780638ba2f3041461012d578063c24a545414610169578063cf15ff9b14610191578063d3be6574146101cd57610085565b806337720606146100895780635988ce72146100b35780636ecdc001146100db5780637b1039991461010357610085565b3661008557005b5f5ffd5b348015610094575f5ffd5b5061009d6101f5565b6040516100aa91906108f3565b60405180910390f35b3480156100be575f5ffd5b506100d960048036038101906100d4919061093e565b6101fa565b005b3480156100e6575f5ffd5b5061010160048036038101906100fc9190610a00565b610432565b005b34801561010e575f5ffd5b50610117610476565b6040516101249190610aeb565b60405180910390f35b348015610138575f5ffd5b50610153600480360381019061014e919061093e565b61049a565b60405161016091906108f3565b60405180910390f35b348015610174575f5ffd5b5061018f600480360381019061018a919061093e565b6104af565b005b34801561019c575f5ffd5b506101b760048036038101906101b2919061093e565b6106c7565b6040516101c49190610b1e565b60405180910390f35b3480156101d8575f5ffd5b506101f360048036038101906101ee9190610b37565b6106e4565b005b600181565b5f5f5f9054906101000a900473ffffffffffffffffffffffffffffffffffffffff1673ffffffffffffffffffffffffffffffffffffffff166305f63c8a836040518263ffffffff1660e01b815260040161025491906108f3565b602060405180830381865afa15801561026f573d5f5f3e3d5ffd5b505050506040513d601f19601f820116820180604052508101906102939190610bc2565b90505f73ffffffffffffffffffffffffffffffffffffffff168173ffffffffffffffffffffffffffffffffffffffff1603610303576040517f08c379a00000000000000000000000000000000000000000000000000000000081526004016102fa90610c47565b60405180910390fd5b8073ffffffffffffffffffffffffffffffffffffffff163373ffffffffffffffffffffffffffffffffffffffff1614610371576040517f08c379a000000000000000000000000000000000000000000000000000000000815260040161036890610caf565b60405180910390fd5b60025f8381526020019081526020015f205f9054906101000a900460ff166103ce576040517f08c379a00000000000000000000000000000000000000000000000000000000081526004016103c590610d17565b60405180910390fd5b5f60025f8481526020019081526020015f205f6101000a81548160ff021916908315150217905550817f17284d4bcc0d9c007999a4487a1805551e8102544d04ca395cffa76122dff25c4260405161042691906108f3565b60405180910390a25050565b837f7015810de4b0bc9a05085ae30d777296c4788cf662d3c72a20f0622c394d92da848484426040516104689493929190610d8e565b60405180910390a250505050565b5f5f9054906101000a900473ffffffffffffffffffffffffffffffffffffffff1681565b6001602052805f5260405f205f915090505481565b5f5f5f9054906101000a900473ffffffffffffffffffffffffffffffffffffffff1673ffffffffffffffffffffffffffffffffffffffff16638ed0717e836040518263ffffffff1660e01b815260040161050991906108f3565b602060405180830381865afa158015610524573d5f5f3e3d5ffd5b505050506040513d601f19601f820116820180604052508101906105489190610de0565b90505f811161058c576040517f08c379a000000000000000000000000000000000000000000000000000000000815260040161058390610e55565b60405180910390fd5b5f60015f8481526020019081526020015f2054905081816105ad9190610ea0565b4211156106c25760025f8481526020019081526020015f205f9054906101000a900460ff166106c157600160025f8581526020019081526020015f205f6101000a81548160ff021916908315150217905550827f5b96c839e728de2530075ac81602282f0542df8151a0b532d1d5cab15bd1ff578242604051610631929190610f1d565b60405180910390a25f5f9054906101000a900473ffffffffffffffffffffffffffffffffffffffff1673ffffffffffffffffffffffffffffffffffffffff166383db1f6a846001306040518463ffffffff1660e01b815260040161069793929190610f77565b5f604051808303815f87803b1580156106ae575f5ffd5b505af19250505080156106bf575060015b505b5b505050565b6002602052805f5260405f205f915054906101000a900460ff1681565b5f5f5f9054906101000a900473ffffffffffffffffffffffffffffffffffffffff1673ffffffffffffffffffffffffffffffffffffffff166305f63c8a856040518263ffffffff1660e01b815260040161073e91906108f3565b602060405180830381865afa158015610759573d5f5f3e3d5ffd5b505050506040513d601f19601f8201168201806040525081019061077d9190610bc2565b90505f73ffffffffffffffffffffffffffffffffffffffff168173ffffffffffffffffffffffffffffffffffffffff16036107ed576040517f08c379a00000000000000000000000000000000000000000000000000000000081526004016107e490610c47565b60405180910390fd5b8073ffffffffffffffffffffffffffffffffffffffff163373ffffffffffffffffffffffffffffffffffffffff161461085b576040517f08c379a000000000000000000000000000000000000000000000000000000000815260040161085290610caf565b60405180910390fd5b4260015f8681526020019081526020015f20819055505f60025f8681526020019081526020015f205f6101000a81548160ff021916908315150217905550837f708a01f440b4e1ed4233b95c9612dc9e44eaaa29bda63659fe30fae34d5eefe48484426040516108cd93929190610fac565b60405180910390a250505050565b5f819050919050565b6108ed816108db565b82525050565b5f6020820190506109065f8301846108e4565b92915050565b5f5ffd5b5f5ffd5b61091d816108db565b8114610927575f5ffd5b50565b5f8135905061093881610914565b92915050565b5f602082840312156109535761095261090c565b5b5f6109608482850161092a565b91505092915050565b5f60ff82169050919050565b61097e81610969565b8114610988575f5ffd5b50565b5f8135905061099981610975565b92915050565b5f5ffd5b5f5ffd5b5f5ffd5b5f5f83601f8401126109c0576109bf61099f565b5b8235905067ffffffffffffffff8111156109dd576109dc6109a3565b5b6020830191508360018202830111156109f9576109f86109a7565b5b9250929050565b5f5f5f5f60608587031215610a1857610a1761090c565b5b5f610a258782880161092a565b9450506020610a368782880161098b565b935050604085013567ffffffffffffffff811115610a5757610a56610910565b5b610a63878288016109ab565b925092505092959194509250565b5f73ffffffffffffffffffffffffffffffffffffffff82169050919050565b5f819050919050565b5f610ab3610aae610aa984610a71565b610a90565b610a71565b9050919050565b5f610ac482610a99565b9050919050565b5f610ad582610aba565b9050919050565b610ae581610acb565b82525050565b5f602082019050610afe5f830184610adc565b92915050565b5f8115159050919050565b610b1881610b04565b82525050565b5f602082019050610b315f830184610b0f565b92915050565b5f5f5f60608486031215610b4e57610b4d61090c565b5b5f610b5b8682870161092a565b9350506020610b6c8682870161092a565b9250506040610b7d8682870161092a565b9150509250925092565b5f610b9182610a71565b9050919050565b610ba181610b87565b8114610bab575f5ffd5b50565b5f81519050610bbc81610b98565b92915050565b5f60208284031215610bd757610bd661090c565b5b5f610be484828501610bae565b91505092915050565b5f82825260208201905092915050565b7f6e6f206f70657261746f720000000000000000000000000000000000000000005f82015250565b5f610c31600b83610bed565b9150610c3c82610bfd565b602082019050919050565b5f6020820190508181035f830152610c5e81610c25565b9050919050565b7f6e6f74206f70657261746f7200000000000000000000000000000000000000005f82015250565b5f610c99600c83610bed565b9150610ca482610c65565b602082019050919050565b5f6020820190508181035f830152610cc681610c8d565b9050919050565b7f6e6f20696e636964656e740000000000000000000000000000000000000000005f82015250565b5f610d01600b83610bed565b9150610d0c82610ccd565b602082019050919050565b5f6020820190508181035f830152610d2e81610cf5565b9050919050565b610d3e81610969565b82525050565b828183375f83830152505050565b5f601f19601f8301169050919050565b5f610d6d8385610bed565b9350610d7a838584610d44565b610d8383610d52565b840190509392505050565b5f606082019050610da15f830187610d35565b8181036020830152610db4818587610d62565b9050610dc360408301846108e4565b95945050505050565b5f81519050610dda81610914565b92915050565b5f60208284031215610df557610df461090c565b5b5f610e0284828501610dcc565b91505092915050565b7f6e6f207468726573686f6c6400000000000000000000000000000000000000005f82015250565b5f610e3f600c83610bed565b9150610e4a82610e0b565b602082019050919050565b5f6020820190508181035f830152610e6c81610e33565b9050919050565b7f4e487b71000000000000000000000000000000000000000000000000000000005f52601160045260245ffd5b5f610eaa826108db565b9150610eb5836108db565b9250828201905080821115610ecd57610ecc610e73565b5b92915050565b7f6865617274626561745f657870697265640000000000000000000000000000005f82015250565b5f610f07601183610bed565b9150610f1282610ed3565b602082019050919050565b5f606082019050610f305f8301856108e4565b610f3d60208301846108e4565b8181036040830152610f4e81610efb565b90509392505050565b5f610f6182610a71565b9050919050565b610f7181610f57565b82525050565b5f606082019050610f8a5f8301866108e4565b610f9760208301856108e4565b610fa46040830184610f68565b949350505050565b5f606082019050610fbf5f8301866108e4565b610fcc60208301856108e4565b610fd960408301846108e4565b94935050505056fea2646970667358221220f270be0b2617332555e97f33c652f6b3dda0f099d7c37699219cafa0a2d287eb64736f6c634300081e0033","linkReferences":{}},"methodIdentifiers":{"SLASH_AMOUNT()":"37720606","clearIncident(uint256)":"5988ce72","inIncident(uint256)":"cf15ff9b","lastHeartbeat(uint256)":"8ba2f304","registry()":"7b103999","reportHealth(uint256,uint8,string)":"6ecdc001","submitHeartbeat(uint256,uint256,uint256)":"d3be6574","triggerIncidentIfExpired(uint256)":"c24a5454"},"id":23}