{"abi":[{"type":"constructor","inputs":[],"stateMutability":"nonpayable"},{"type":"function","name":"accuracyRewardRate","inputs":[],"outputs":[{"name":"","type":"uint256","internalType":"uint256"}],"stateMutability":"view"},{"type":"function","name":"addSupportedToken","inputs":[{"name":"token","type":"address","internalType":"address"},{"name":"minBond","type":"uint256","internalType":"uint256"}],"outputs":[],"stateMutability":"nonpayable"},{"type":"function","name":"arbitrationTime","inputs":[],"outputs":[{"name":"","type":"uint256","internalType":"uint256"}],"stateMutability":"view"},{"type":"function","name":"arbitrator","inputs":[],"outputs":[{"name":"","type":"address","internalType":"address"}],"stateMutability":"view"},{"type":"function","name":"disputePeriod","inputs":[],"outputs":[{"name":"","type":"uint256","internalType":"uint256"}],"stateMutability":"view"},{"type":"function","name":"disputes","inputs":[{"name":"","type":"uint256","internalType":"uint256"}],"outputs":[{"name":"signalId","type":"uint256","internalType":"uint256"},{"name":"challenger","type":"address","internalType":"address"},{"name":"token","type":"address","internalType":"address"},{"name":"challengeBond","type":"uint256","internalType":"uint256"},{"name":"settled","type":"bool","internalType":"bool"},{"name":"isValid","type":"bool","internalType":"bool"},{"name":"createdAt","type":"uint256","internalType":"uint256"}],"stateMutability":"view"},{"type":"function","name":"getAccuracyRate","inputs":[{"name":"reporter","type":"address","internalType":"address"}],"outputs":[{"name":"accurate","type":"uint256","internalType":"uint256"},{"name":"total","type":"uint256","internalType":"uint256"}],"stateMutability":"view"},{"type":"function","name":"getDispute","inputs":[{"name":"disputeId","type":"uint256","internalType":"uint256"}],"outputs":[{"name":"","type":"tuple","internalType":"struct ValidatorRegistry.Dispute","components":[{"name":"signalId","type":"uint256","internalType":"uint256"},{"name":"challenger","type":"address","internalType":"address"},{"name":"token","type":"address","internalType":"address"},{"name":"challengeBond","type":"uint256","internalType":"uint256"},{"name":"settled","type":"bool","internalType":"bool"},{"name":"isValid","type":"bool","internalType":"bool"},{"name":"createdAt","type":"uint256","internalType":"uint256"}]}],"stateMutability":"view"},{"type":"function","name":"getReporter","inputs":[{"name":"reporter","type":"address","internalType":"address"}],"outputs":[{"name":"","type":"tuple","internalType":"struct ValidatorRegistry.Reporter","components":[{"name":"token","type":"address","internalType":"address"},{"name":"bondAmount","type":"uint256","internalType":"uint256"},{"name":"signalCount","type":"uint256","internalType":"uint256"},{"name":"slashCount","type":"uint256","internalType":"uint256"},{"name":"isActive","type":"bool","internalType":"bool"}]}],"stateMutability":"view"},{"type":"function","name":"getSignal","inputs":[{"name":"signalId","type":"uint256","internalType":"uint256"}],"outputs":[{"name":"","type":"tuple","internalType":"struct ValidatorRegistry.SignalRecord","components":[{"name":"reporter","type":"address","internalType":"address"},{"name":"chainId","type":"uint256","internalType":"uint256"},{"name":"timestamp","type":"uint256","internalType":"uint256"},{"name":"signalType","type":"uint8","internalType":"enum SignalTypes.SignalType"},{"name":"description","type":"string","internalType":"string"},{"name":"isDisputed","type":"bool","internalType":"bool"},{"name":"isVerified","type":"bool","internalType":"bool"},{"name":"disputeCount","type":"uint256","internalType":"uint256"}]}],"stateMutability":"view"},{"type":"function","name":"isTokenSupported","inputs":[{"name":"","type":"address","internalType":"address"}],"outputs":[{"name":"","type":"bool","internalType":"bool"}],"stateMutability":"view"},{"type":"function","name":"nextDisputeId","inputs":[],"outputs":[{"name":"","type":"uint256","internalType":"uint256"}],"stateMutability":"view"},{"type":"function","name":"nextSignalId","inputs":[],"outputs":[{"name":"","type":"uint256","internalType":"uint256"}],"stateMutability":"view"},{"type":"function","name":"owner","inputs":[],"outputs":[{"name":"","type":"address","internalType":"address"}],"stateMutability":"view"},{"type":"function","name":"raiseDispute","inputs":[{"name":"signalId","type":"uint256","internalType":"uint256"}],"outputs":[{"name":"disputeId","type":"uint256","internalType":"uint256"}],"stateMutability":"nonpayable"},{"type":"function","name":"recordSignal","inputs":[{"name":"reporter","type":"address","internalType":"address"},{"name":"chainId","type":"uint256","internalType":"uint256"},{"name":"signalType","type":"uint8","internalType":"enum SignalTypes.SignalType"},{"name":"description","type":"string","internalType":"string"}],"outputs":[{"name":"signalId","type":"uint256","internalType":"uint256"}],"stateMutability":"nonpayable"},{"type":"function","name":"registerReporter","inputs":[{"name":"token","type":"address","internalType":"address"},{"name":"bondAmount","type":"uint256","internalType":"uint256"}],"outputs":[],"stateMutability":"nonpayable"},{"type":"function","name":"registeredReporters","inputs":[{"name":"","type":"uint256","internalType":"uint256"}],"outputs":[{"name":"","type":"address","internalType":"address"}],"stateMutability":"view"},{"type":"function","name":"reporters","inputs":[{"name":"","type":"address","internalType":"address"}],"outputs":[{"name":"token","type":"address","internalType":"address"},{"name":"bondAmount","type":"uint256","internalType":"uint256"},{"name":"signalCount","type":"uint256","internalType":"uint256"},{"name":"slashCount","type":"uint256","internalType":"uint256"},{"name":"isActive","type":"bool","internalType":"bool"}],"stateMutability":"view"},{"type":"function","name":"resolveDispute","inputs":[{"name":"disputeId","type":"uint256","internalType":"uint256"},{"name":"isValid","type":"bool","internalType":"bool"}],"outputs":[],"stateMutability":"nonpayable"},{"type":"function","name":"setAccuracyRewardRate","inputs":[{"name":"newRate","type":"uint256","internalType":"uint256"}],"outputs":[],"stateMutability":"nonpayable"},{"type":"function","name":"setArbitrator","inputs":[{"name":"newArbitrator","type":"address","internalType":"address"}],"outputs":[],"stateMutability":"nonpayable"},{"type":"function","name":"setDisputePeriod","inputs":[{"name":"newPeriod","type":"uint256","internalType":"uint256"}],"outputs":[],"stateMutability":"nonpayable"},{"type":"function","name":"setSlashRate","inputs":[{"name":"newRate","type":"uint256","internalType":"uint256"}],"outputs":[],"stateMutability":"nonpayable"},{"type":"function","name":"signals","inputs":[{"name":"","type":"uint256","internalType":"uint256"}],"outputs":[{"name":"reporter","type":"address","internalType":"address"},{"name":"chainId","type":"uint256","internalType":"uint256"},{"name":"timestamp","type":"uint256","internalType":"uint256"},{"name":"signalType","type":"uint8","internalType":"enum SignalTypes.SignalType"},{"name":"description","type":"string","internalType":"string"},{"name":"isDisputed","type":"bool","internalType":"bool"},{"name":"isVerified","type":"bool","internalType":"bool"},{"name":"disputeCount","type":"uint256","internalType":"uint256"}],"stateMutability":"view"},{"type":"function","name":"slashRate","inputs":[],"outputs":[{"name":"","type":"uint256","internalType":"uint256"}],"stateMutability":"view"},{"type":"function","name":"supportedTokens","inputs":[{"name":"","type":"uint256","internalType":"uint256"}],"outputs":[{"name":"","type":"address","internalType":"address"}],"stateMutability":"view"},{"type":"function","name":"tokenMinBond","inputs":[{"name":"","type":"address","internalType":"address"}],"outputs":[{"name":"","type":"uint256","internalType":"uint256"}],"stateMutability":"view"},{"type":"function","name":"unregisterReporter","inputs":[],"outputs":[],"stateMutability":"nonpayable"},{"type":"event","name":"DisputeRaised","inputs":[{"name":"disputeId","type":"uint256","indexed":true,"internalType":"uint256"},{"name":"signalId","type":"uint256","indexed":true,"internalType":"uint256"},{"name":"challenger","type":"address","indexed":true,"internalType":"address"}],"anonymous":false},{"type":"event","name":"DisputeResolved","inputs":[{"name":"disputeId","type":"uint256","indexed":true,"internalType":"uint256"},{"name":"isValid","type":"bool","indexed":false,"internalType":"bool"},{"name":"winner","type":"address","indexed":false,"internalType":"address"},{"name":"winnings","type":"uint256","indexed":false,"internalType":"uint256"}],"anonymous":false},{"type":"event","name":"ReporterRegistered","inputs":[{"name":"reporter","type":"address","indexed":true,"internalType":"address"},{"name":"token","type":"address","indexed":true,"internalType":"address"},{"name":"bondAmount","type":"uint256","indexed":false,"internalType":"uint256"}],"anonymous":false},{"type":"event","name":"ReporterRewarded","inputs":[{"name":"reporter","type":"address","indexed":true,"internalType":"address"},{"name":"amount","type":"uint256","indexed":false,"internalType":"uint256"},{"name":"reason","type":"string","indexed":false,"internalType":"string"}],"anonymous":false},{"type":"event","name":"ReporterSlashed","inputs":[{"name":"reporter","type":"address","indexed":true,"internalType":"address"},{"name":"amount","type":"uint256","indexed":false,"internalType":"uint256"},{"name":"reason","type":"string","indexed":false,"internalType":"string"}],"anonymous":false},{"type":"event","name":"SignalRecorded","inputs":[{"name":"signalId","type":"uint256","indexed":true,"internalType":"uint256"},{"name":"reporter","type":"address","indexed":true,"internalType":"address"},{"name":"chainId","type":"uint256","indexed":false,"internalType":"uint256"}],"anonymous":false}],"bytecode":{"object":"0x608060405262093a806005556203f4806006556005600d556032600e553480156026575f5ffd5b503360035f6101000a81548173ffffffffffffffffffffffffffffffffffffffff021916908373ffffffffffffffffffffffffffffffffffffffff1602179055503360045f6101000a81548173ffffffffffffffffffffffffffffffffffffffff021916908373ffffffffffffffffffffffffffffffffffffffff160217905550613fdf806100b45f395ff3fe608060405234801561000f575f5ffd5b50600436106101cd575f3560e01c80638209c5b811610102578063b0eefabe116100a0578063e341181d1161006f578063e341181d14610575578063e3a96cbd14610593578063f7dda078146105c3578063fb44b58f146105f3576101cd565b8063b0eefabe146104dd578063c122ef2f146104f9578063c625562614610515578063dcf6338214610545576101cd565b80638da5cb5b116100dc5780638da5cb5b14610455578063a5c1674e14610473578063a83ba53e146104a3578063b0c3b8ef146104bf576101cd565b80638209c5b8146103d9578063828e58e21461040957806385c34c5b14610439576101cd565b8063564a565d1161016f578063662d4e3811610149578063662d4e381461033d5780636cc6cde11461035b578063732995af1461037957806375151b63146103a9576101cd565b8063564a565d146102df578063577fb581146103155780635bf31d4d1461031f576101cd565b806334b25ee2116101ab57806334b25ee2146102545780634151766b1461027057806347c740cd1461028c5780634d8e3d3b146102c3576101cd565b80630d0aa38e146101d15780630db39934146102025780632cc1cd9e14610220575b5f5ffd5b6101eb60048036038101906101e691906129b9565b610611565b6040516101f99291906129fc565b60405180910390f35b61020a6107cf565b6040516102179190612a23565b60405180910390f35b61023a600480360381019061023591906129b9565b6107d5565b60405161024b959493929190612a65565b60405180910390f35b61026e60048036038101906102699190612b0a565b610832565b005b61028a60048036038101906102859190612b48565b610d80565b005b6102a660048036038101906102a19190612b48565b610e5d565b6040516102ba989796959493929190612c56565b60405180910390f35b6102dd60048036038101906102d89190612cd9565b610f6b565b005b6102f960048036038101906102f49190612b48565b6111eb565b60405161030c9796959493929190612d17565b60405180910390f35b61031d611280565b005b6103276113a7565b6040516103349190612a23565b60405180910390f35b6103456113ad565b6040516103529190612a23565b60405180910390f35b6103636113b3565b6040516103709190612d84565b60405180910390f35b610393600480360381019061038e91906129b9565b6113d8565b6040516103a09190612e30565b60405180910390f35b6103c360048036038101906103be91906129b9565b6114bb565b6040516103d09190612e49565b60405180910390f35b6103f360048036038101906103ee9190612ee6565b6114d8565b6040516104009190612a23565b60405180910390f35b610423600480360381019061041e9190612b48565b6117cf565b604051610430919061306e565b60405180910390f35b610453600480360381019061044e9190612b48565b61196c565b005b61045d611a49565b60405161046a9190612d84565b60405180910390f35b61048d60048036038101906104889190612b48565b611a6e565b60405161049a9190612a23565b60405180910390f35b6104bd60048036038101906104b89190612b48565b611ea4565b005b6104c7611f7f565b6040516104d49190612a23565b60405180910390f35b6104f760048036038101906104f291906129b9565b611f85565b005b610513600480360381019061050e9190612cd9565b6120c5565b005b61052f600480360381019061052a9190612b48565b612470565b60405161053c9190612d84565b60405180910390f35b61055f600480360381019061055a9190612b48565b6124aa565b60405161056c9190612d84565b60405180910390f35b61057d6124e5565b60405161058a9190612a23565b60405180910390f35b6105ad60048036038101906105a89190612b48565b6124eb565b6040516105ba919061311a565b60405180910390f35b6105dd60048036038101906105d891906129b9565b612612565b6040516105ea9190612a23565b60405180910390f35b6105fb612627565b6040516106089190612a23565b60405180910390f35b5f5f5f60075f8573ffffffffffffffffffffffffffffffffffffffff1673ffffffffffffffffffffffffffffffffffffffff1681526020019081526020015f206040518060a00160405290815f82015f9054906101000a900473ffffffffffffffffffffffffffffffffffffffff1673ffffffffffffffffffffffffffffffffffffffff1673ffffffffffffffffffffffffffffffffffffffff168152602001600182015481526020016002820154815260200160038201548152602001600482015f9054906101000a900460ff16151515158152505090505f816040015103610701575f5f92509250506107ca565b5f5f90505b600a548110156107c7578473ffffffffffffffffffffffffffffffffffffffff1660095f8381526020019081526020015f205f015f9054906101000a900473ffffffffffffffffffffffffffffffffffffffff1673ffffffffffffffffffffffffffffffffffffffff16036107ba57828061078090613160565b93505060095f8281526020019081526020015f2060050160019054906101000a900460ff16156107b95783806107b590613160565b9450505b5b8080600101915050610706565b50505b915091565b600c5481565b6007602052805f5260405f205f91509050805f015f9054906101000a900473ffffffffffffffffffffffffffffffffffffffff1690806001015490806002015490806003015490806004015f9054906101000a900460ff16905085565b60045f9054906101000a900473ffffffffffffffffffffffffffffffffffffffff1673ffffffffffffffffffffffffffffffffffffffff163373ffffffffffffffffffffffffffffffffffffffff16146108c1576040517f08c379a00000000000000000000000000000000000000000000000000000000081526004016108b8906131f1565b60405180910390fd5b5f600b5f8481526020019081526020015f209050806004015f9054906101000a900460ff1615610926576040517f08c379a000000000000000000000000000000000000000000000000000000000815260040161091d90613259565b60405180910390fd5b5f60095f835f015481526020019081526020015f2090505f60075f835f015f9054906101000a900473ffffffffffffffffffffffffffffffffffffffff1673ffffffffffffffffffffffffffffffffffffffff1673ffffffffffffffffffffffffffffffffffffffff1681526020019081526020015f2090506001836004015f6101000a81548160ff021916908315150217905550838360040160016101000a81548160ff02191690831515021790555060018260050160016101000a81548160ff0219169083151502179055505f836002015f9054906101000a900473ffffffffffffffffffffffffffffffffffffffff1690505f826001015490505f856003015490508615610c25575f6064600e5483610a429190613277565b610a4c91906132e5565b90505f8183610a5b9190613315565b9050610a8b8530895f015f9054906101000a900473ffffffffffffffffffffffffffffffffffffffff168561262d565b50610ab9853060045f9054906101000a900473ffffffffffffffffffffffffffffffffffffffff168461262d565b505f6064600d5486610acb9190613277565b610ad591906132e5565b90508060075f8a5f015f9054906101000a900473ffffffffffffffffffffffffffffffffffffffff1673ffffffffffffffffffffffffffffffffffffffff1673ffffffffffffffffffffffffffffffffffffffff1681526020019081526020015f206001015f828254610b489190613348565b92505081905550875f015f9054906101000a900473ffffffffffffffffffffffffffffffffffffffff1673ffffffffffffffffffffffffffffffffffffffff167f94e249f03d51c2a02daae9773cdb019929191ffbf25ac2a179595c53ca7ecd6082604051610bb791906133c5565b60405180910390a28a7fd4fa2999479f884fbfc3ac21599f636fc4c812960aae4c0fae7216b3d0fc8c048b8a5f015f9054906101000a900473ffffffffffffffffffffffffffffffffffffffff1686604051610c15939291906133f1565b60405180910390a2505050610d5d565b5f6064600e5484610c369190613277565b610c4091906132e5565b905080856001015f828254610c559190613315565b92505081905550610c8b8430896001015f9054906101000a900473ffffffffffffffffffffffffffffffffffffffff168461262d565b50855f015f9054906101000a900473ffffffffffffffffffffffffffffffffffffffff1673ffffffffffffffffffffffffffffffffffffffff167f59843ad809a242070c568cb67f95012045dab94cf5e80010cc121993f77b9eea82604051610cf49190613470565b60405180910390a2887fd4fa2999479f884fbfc3ac21599f636fc4c812960aae4c0fae7216b3d0fc8c0489896001015f9054906101000a900473ffffffffffffffffffffffffffffffffffffffff1684604051610d53939291906133f1565b60405180910390a2505b836003015f815480929190610d719061349c565b91905055505050505050505050565b60035f9054906101000a900473ffffffffffffffffffffffffffffffffffffffff1673ffffffffffffffffffffffffffffffffffffffff163373ffffffffffffffffffffffffffffffffffffffff1614610e0f576040517f08c379a0000000000000000000000000000000000000000000000000000000008152600401610e069061350d565b60405180910390fd5b6064811115610e53576040517f08c379a0000000000000000000000000000000000000000000000000000000008152600401610e4a90613575565b60405180910390fd5b80600e8190555050565b6009602052805f5260405f205f91509050805f015f9054906101000a900473ffffffffffffffffffffffffffffffffffffffff1690806001015490806002015490806003015f9054906101000a900460ff1690806004018054610ebf906135c0565b80601f0160208091040260200160405190810160405280929190818152602001828054610eeb906135c0565b8015610f365780601f10610f0d57610100808354040283529160200191610f36565b820191905f5260205f20905b815481529060010190602001808311610f1957829003601f168201915b505050505090806005015f9054906101000a900460ff16908060050160019054906101000a900460ff16908060060154905088565b60035f9054906101000a900473ffffffffffffffffffffffffffffffffffffffff1673ffffffffffffffffffffffffffffffffffffffff163373ffffffffffffffffffffffffffffffffffffffff1614610ffa576040517f08c379a0000000000000000000000000000000000000000000000000000000008152600401610ff19061350d565b60405180910390fd5b5f73ffffffffffffffffffffffffffffffffffffffff168273ffffffffffffffffffffffffffffffffffffffff1603611068576040517f08c379a000000000000000000000000000000000000000000000000000000000815260040161105f9061363a565b60405180910390fd5b60015f8373ffffffffffffffffffffffffffffffffffffffff1673ffffffffffffffffffffffffffffffffffffffff1681526020019081526020015f205f9054906101000a900460ff16156110f2576040517f08c379a00000000000000000000000000000000000000000000000000000000081526004016110e9906136a2565b60405180910390fd5b5f82908060018154018082558091505060019003905f5260205f20015f9091909190916101000a81548173ffffffffffffffffffffffffffffffffffffffff021916908373ffffffffffffffffffffffffffffffffffffffff1602179055506001805f8473ffffffffffffffffffffffffffffffffffffffff1673ffffffffffffffffffffffffffffffffffffffff1681526020019081526020015f205f6101000a81548160ff0219169083151502179055508060025f8473ffffffffffffffffffffffffffffffffffffffff1673ffffffffffffffffffffffffffffffffffffffff1681526020019081526020015f20819055505050565b600b602052805f5260405f205f91509050805f015490806001015f9054906101000a900473ffffffffffffffffffffffffffffffffffffffff1690806002015f9054906101000a900473ffffffffffffffffffffffffffffffffffffffff1690806003015490806004015f9054906101000a900460ff16908060040160019054906101000a900460ff16908060050154905087565b5f60075f3373ffffffffffffffffffffffffffffffffffffffff1673ffffffffffffffffffffffffffffffffffffffff1681526020019081526020015f209050806004015f9054906101000a900460ff16611310576040517f08c379a00000000000000000000000000000000000000000000000000000000081526004016113079061370a565b60405180910390fd5b5f816003015414611356576040517f08c379a000000000000000000000000000000000000000000000000000000000815260040161134d90613772565b60405180910390fd5b611388815f015f9054906101000a900473ffffffffffffffffffffffffffffffffffffffff163033846001015461262d565b505f816004015f6101000a81548160ff02191690831515021790555050565b60055481565b600d5481565b60045f9054906101000a900473ffffffffffffffffffffffffffffffffffffffff1681565b6113e0612845565b60075f8373ffffffffffffffffffffffffffffffffffffffff1673ffffffffffffffffffffffffffffffffffffffff1681526020019081526020015f206040518060a00160405290815f82015f9054906101000a900473ffffffffffffffffffffffffffffffffffffffff1673ffffffffffffffffffffffffffffffffffffffff1673ffffffffffffffffffffffffffffffffffffffff168152602001600182015481526020016002820154815260200160038201548152602001600482015f9054906101000a900460ff1615151515815250509050919050565b6001602052805f5260405f205f915054906101000a900460ff1681565b5f8560075f8273ffffffffffffffffffffffffffffffffffffffff1673ffffffffffffffffffffffffffffffffffffffff1681526020019081526020015f206004015f9054906101000a900460ff16611566576040517f08c379a000000000000000000000000000000000000000000000000000000000815260040161155d906137da565b60405180910390fd5b600a5f81548092919061157890613160565b9190505591506040518061010001604052808873ffffffffffffffffffffffffffffffffffffffff16815260200187815260200142815260200186600b8111156115c5576115c4612b73565b5b815260200185858080601f0160208091040260200160405190810160405280939291908181526020018383808284375f81840152601f19601f8201169050808301925050505050505081526020015f151581526020015f151581526020015f81525060095f8481526020019081526020015f205f820151815f015f6101000a81548173ffffffffffffffffffffffffffffffffffffffff021916908373ffffffffffffffffffffffffffffffffffffffff16021790555060208201518160010155604082015181600201556060820151816003015f6101000a81548160ff0219169083600b8111156116ba576116b9612b73565b5b021790555060808201518160040190816116d491906139c5565b5060a0820151816005015f6101000a81548160ff02191690831515021790555060c08201518160050160016101000a81548160ff02191690831515021790555060e0820151816006015590505060075f8873ffffffffffffffffffffffffffffffffffffffff1673ffffffffffffffffffffffffffffffffffffffff1681526020019081526020015f206002015f81548092919061177190613160565b91905055508673ffffffffffffffffffffffffffffffffffffffff16827faf462ff4531415ebd1f6c799908d789e5402c440db3d073ca1bc88cb948bc846886040516117bd9190612a23565b60405180910390a35095945050505050565b6117d7612887565b60095f8381526020019081526020015f20604051806101000160405290815f82015f9054906101000a900473ffffffffffffffffffffffffffffffffffffffff1673ffffffffffffffffffffffffffffffffffffffff1673ffffffffffffffffffffffffffffffffffffffff1681526020016001820154815260200160028201548152602001600382015f9054906101000a900460ff16600b8111156118805761187f612b73565b5b600b81111561189257611891612b73565b5b81526020016004820180546118a6906135c0565b80601f01602080910402602001604051908101604052809291908181526020018280546118d2906135c0565b801561191d5780601f106118f45761010080835404028352916020019161191d565b820191905f5260205f20905b81548152906001019060200180831161190057829003601f168201915b50505050508152602001600582015f9054906101000a900460ff161515151581526020016005820160019054906101000a900460ff161515151581526020016006820154815250509050919050565b60035f9054906101000a900473ffffffffffffffffffffffffffffffffffffffff1673ffffffffffffffffffffffffffffffffffffffff163373ffffffffffffffffffffffffffffffffffffffff16146119fb576040517f08c379a00000000000000000000000000000000000000000000000000000000081526004016119f29061350d565b60405180910390fd5b6064811115611a3f576040517f08c379a0000000000000000000000000000000000000000000000000000000008152600401611a3690613575565b60405180910390fd5b80600d8190555050565b60035f9054906101000a900473ffffffffffffffffffffffffffffffffffffffff1681565b5f5f60095f8481526020019081526020015f2090505f73ffffffffffffffffffffffffffffffffffffffff16815f015f9054906101000a900473ffffffffffffffffffffffffffffffffffffffff1673ffffffffffffffffffffffffffffffffffffffff1603611b13576040517f08c379a0000000000000000000000000000000000000000000000000000000008152600401611b0a90613ade565b60405180910390fd5b806005015f9054906101000a900460ff1615611b64576040517f08c379a0000000000000000000000000000000000000000000000000000000008152600401611b5b90613b46565b60405180910390fd5b6005548160020154611b769190613348565b421115611bb8576040517f08c379a0000000000000000000000000000000000000000000000000000000008152600401611baf90613bae565b60405180910390fd5b5f60075f835f015f9054906101000a900473ffffffffffffffffffffffffffffffffffffffff1673ffffffffffffffffffffffffffffffffffffffff1673ffffffffffffffffffffffffffffffffffffffff1681526020019081526020015f2090505f815f015f9054906101000a900473ffffffffffffffffffffffffffffffffffffffff169050611c50813330856001015461262d565b611c8f576040517f08c379a0000000000000000000000000000000000000000000000000000000008152600401611c8690613c16565b60405180910390fd5b600c5f815480929190611ca190613160565b9190505593506040518060e001604052808681526020013373ffffffffffffffffffffffffffffffffffffffff1681526020018273ffffffffffffffffffffffffffffffffffffffff168152602001836001015481526020015f151581526020015f1515815260200142815250600b5f8681526020019081526020015f205f820151815f01556020820151816001015f6101000a81548173ffffffffffffffffffffffffffffffffffffffff021916908373ffffffffffffffffffffffffffffffffffffffff1602179055506040820151816002015f6101000a81548173ffffffffffffffffffffffffffffffffffffffff021916908373ffffffffffffffffffffffffffffffffffffffff160217905550606082015181600301556080820151816004015f6101000a81548160ff02191690831515021790555060a08201518160040160016101000a81548160ff02191690831515021790555060c082015181600501559050506001836005015f6101000a81548160ff021916908315150217905550826006015f815480929190611e3990613160565b9190505550816003015f815480929190611e5290613160565b91905055503373ffffffffffffffffffffffffffffffffffffffff1685857f83201991c75b30e493678d0543bdbd02d6a194a5a0dda31490a5fe09e9f0a22060405160405180910390a4505050919050565b60035f9054906101000a900473ffffffffffffffffffffffffffffffffffffffff1673ffffffffffffffffffffffffffffffffffffffff163373ffffffffffffffffffffffffffffffffffffffff1614611f33576040517f08c379a0000000000000000000000000000000000000000000000000000000008152600401611f2a9061350d565b60405180910390fd5b5f8111611f75576040517f08c379a0000000000000000000000000000000000000000000000000000000008152600401611f6c90613c7e565b60405180910390fd5b8060058190555050565b600a5481565b60035f9054906101000a900473ffffffffffffffffffffffffffffffffffffffff1673ffffffffffffffffffffffffffffffffffffffff163373ffffffffffffffffffffffffffffffffffffffff1614612014576040517f08c379a000000000000000000000000000000000000000000000000000000000815260040161200b9061350d565b60405180910390fd5b5f73ffffffffffffffffffffffffffffffffffffffff168173ffffffffffffffffffffffffffffffffffffffff1603612082576040517f08c379a000000000000000000000000000000000000000000000000000000000815260040161207990613ce6565b60405180910390fd5b8060045f6101000a81548173ffffffffffffffffffffffffffffffffffffffff021916908373ffffffffffffffffffffffffffffffffffffffff16021790555050565b60015f8373ffffffffffffffffffffffffffffffffffffffff1673ffffffffffffffffffffffffffffffffffffffff1681526020019081526020015f205f9054906101000a900460ff1661214e576040517f08c379a000000000000000000000000000000000000000000000000000000000815260040161214590613d4e565b60405180910390fd5b60025f8373ffffffffffffffffffffffffffffffffffffffff1673ffffffffffffffffffffffffffffffffffffffff1681526020019081526020015f20548110156121ce576040517f08c379a00000000000000000000000000000000000000000000000000000000081526004016121c590613db6565b60405180910390fd5b60075f3373ffffffffffffffffffffffffffffffffffffffff1673ffffffffffffffffffffffffffffffffffffffff1681526020019081526020015f206004015f9054906101000a900460ff161561225b576040517f08c379a000000000000000000000000000000000000000000000000000000000815260040161225290613e1e565b60405180910390fd5b6122678233308461262d565b6122a6576040517f08c379a000000000000000000000000000000000000000000000000000000000815260040161229d90613c16565b60405180910390fd5b6040518060a001604052808373ffffffffffffffffffffffffffffffffffffffff1681526020018281526020015f81526020015f81526020016001151581525060075f3373ffffffffffffffffffffffffffffffffffffffff1673ffffffffffffffffffffffffffffffffffffffff1681526020019081526020015f205f820151815f015f6101000a81548173ffffffffffffffffffffffffffffffffffffffff021916908373ffffffffffffffffffffffffffffffffffffffff1602179055506020820151816001015560408201518160020155606082015181600301556080820151816004015f6101000a81548160ff021916908315150217905550905050600833908060018154018082558091505060019003905f5260205f20015f9091909190916101000a81548173ffffffffffffffffffffffffffffffffffffffff021916908373ffffffffffffffffffffffffffffffffffffffff1602179055508173ffffffffffffffffffffffffffffffffffffffff163373ffffffffffffffffffffffffffffffffffffffff167fb234633a2bf0c0456610aa4e9d764a5d11b33a499858c7eb5092eb6192e9fa1c836040516124649190612a23565b60405180910390a35050565b5f818154811061247e575f80fd5b905f5260205f20015f915054906101000a900473ffffffffffffffffffffffffffffffffffffffff1681565b600881815481106124b9575f80fd5b905f5260205f20015f915054906101000a900473ffffffffffffffffffffffffffffffffffffffff1681565b600e5481565b6124f36128f1565b600b5f8381526020019081526020015f206040518060e00160405290815f8201548152602001600182015f9054906101000a900473ffffffffffffffffffffffffffffffffffffffff1673ffffffffffffffffffffffffffffffffffffffff1673ffffffffffffffffffffffffffffffffffffffff168152602001600282015f9054906101000a900473ffffffffffffffffffffffffffffffffffffffff1673ffffffffffffffffffffffffffffffffffffffff1673ffffffffffffffffffffffffffffffffffffffff16815260200160038201548152602001600482015f9054906101000a900460ff161515151581526020016004820160019054906101000a900460ff161515151581526020016005820154815250509050919050565b6002602052805f5260405f205f915090505481565b60065481565b5f5f73ffffffffffffffffffffffffffffffffffffffff168573ffffffffffffffffffffffffffffffffffffffff160361271557813410156126a4576040517f08c379a000000000000000000000000000000000000000000000000000000000815260040161269b90613e86565b60405180910390fd5b5f8373ffffffffffffffffffffffffffffffffffffffff16836040516126c990613ed1565b5f6040518083038185875af1925050503d805f8114612703576040519150601f19603f3d011682016040523d82523d5f602084013e612708565b606091505b505090508091505061283d565b5f5f8673ffffffffffffffffffffffffffffffffffffffff1686868660405160240161274393929190613ee5565b6040516020818303038152906040527f23b872dd000000000000000000000000000000000000000000000000000000007bffffffffffffffffffffffffffffffffffffffffffffffffffffffff19166020820180517bffffffffffffffffffffffffffffffffffffffffffffffffffffffff83818316178352505050506040516127cd9190613f54565b5f604051808303815f865af19150503d805f8114612806576040519150601f19603f3d011682016040523d82523d5f602084013e61280b565b606091505b509150915081801561283857505f815114806128375750808060200190518101906128369190613f7e565b5b5b925050505b949350505050565b6040518060a001604052805f73ffffffffffffffffffffffffffffffffffffffff1681526020015f81526020015f81526020015f81526020015f151581525090565b6040518061010001604052805f73ffffffffffffffffffffffffffffffffffffffff1681526020015f81526020015f81526020015f600b8111156128ce576128cd612b73565b5b8152602001606081526020015f151581526020015f151581526020015f81525090565b6040518060e001604052805f81526020015f73ffffffffffffffffffffffffffffffffffffffff1681526020015f73ffffffffffffffffffffffffffffffffffffffff1681526020015f81526020015f151581526020015f151581526020015f81525090565b5f5ffd5b5f5ffd5b5f73ffffffffffffffffffffffffffffffffffffffff82169050919050565b5f6129888261295f565b9050919050565b6129988161297e565b81146129a2575f5ffd5b50565b5f813590506129b38161298f565b92915050565b5f602082840312156129ce576129cd612957565b5b5f6129db848285016129a5565b91505092915050565b5f819050919050565b6129f6816129e4565b82525050565b5f604082019050612a0f5f8301856129ed565b612a1c60208301846129ed565b9392505050565b5f602082019050612a365f8301846129ed565b92915050565b612a458161297e565b82525050565b5f8115159050919050565b612a5f81612a4b565b82525050565b5f60a082019050612a785f830188612a3c565b612a8560208301876129ed565b612a9260408301866129ed565b612a9f60608301856129ed565b612aac6080830184612a56565b9695505050505050565b612abf816129e4565b8114612ac9575f5ffd5b50565b5f81359050612ada81612ab6565b92915050565b612ae981612a4b565b8114612af3575f5ffd5b50565b5f81359050612b0481612ae0565b92915050565b5f5f60408385031215612b2057612b1f612957565b5b5f612b2d85828601612acc565b9250506020612b3e85828601612af6565b9150509250929050565b5f60208284031215612b5d57612b5c612957565b5b5f612b6a84828501612acc565b91505092915050565b7f4e487b71000000000000000000000000000000000000000000000000000000005f52602160045260245ffd5b600c8110612bb157612bb0612b73565b5b50565b5f819050612bc182612ba0565b919050565b5f612bd082612bb4565b9050919050565b612be081612bc6565b82525050565b5f81519050919050565b5f82825260208201905092915050565b8281835e5f83830152505050565b5f601f19601f8301169050919050565b5f612c2882612be6565b612c328185612bf0565b9350612c42818560208601612c00565b612c4b81612c0e565b840191505092915050565b5f61010082019050612c6a5f83018b612a3c565b612c77602083018a6129ed565b612c8460408301896129ed565b612c916060830188612bd7565b8181036080830152612ca38187612c1e565b9050612cb260a0830186612a56565b612cbf60c0830185612a56565b612ccc60e08301846129ed565b9998505050505050505050565b5f5f60408385031215612cef57612cee612957565b5b5f612cfc858286016129a5565b9250506020612d0d85828601612acc565b9150509250929050565b5f60e082019050612d2a5f83018a6129ed565b612d376020830189612a3c565b612d446040830188612a3c565b612d5160608301876129ed565b612d5e6080830186612a56565b612d6b60a0830185612a56565b612d7860c08301846129ed565b98975050505050505050565b5f602082019050612d975f830184612a3c565b92915050565b612da68161297e565b82525050565b612db5816129e4565b82525050565b612dc481612a4b565b82525050565b60a082015f820151612dde5f850182612d9d565b506020820151612df16020850182612dac565b506040820151612e046040850182612dac565b506060820151612e176060850182612dac565b506080820151612e2a6080850182612dbb565b50505050565b5f60a082019050612e435f830184612dca565b92915050565b5f602082019050612e5c5f830184612a56565b92915050565b600c8110612e6e575f5ffd5b50565b5f81359050612e7f81612e62565b92915050565b5f5ffd5b5f5ffd5b5f5ffd5b5f5f83601f840112612ea657612ea5612e85565b5b8235905067ffffffffffffffff811115612ec357612ec2612e89565b5b602083019150836001820283011115612edf57612ede612e8d565b5b9250929050565b5f5f5f5f5f60808688031215612eff57612efe612957565b5b5f612f0c888289016129a5565b9550506020612f1d88828901612acc565b9450506040612f2e88828901612e71565b935050606086013567ffffffffffffffff811115612f4f57612f4e61295b565b5b612f5b88828901612e91565b92509250509295509295909350565b612f7381612bc6565b82525050565b5f82825260208201905092915050565b5f612f9382612be6565b612f9d8185612f79565b9350612fad818560208601612c00565b612fb681612c0e565b840191505092915050565b5f61010083015f830151612fd75f860182612d9d565b506020830151612fea6020860182612dac565b506040830151612ffd6040860182612dac565b5060608301516130106060860182612f6a565b50608083015184820360808601526130288282612f89565b91505060a083015161303d60a0860182612dbb565b5060c083015161305060c0860182612dbb565b5060e083015161306360e0860182612dac565b508091505092915050565b5f6020820190508181035f8301526130868184612fc1565b905092915050565b60e082015f8201516130a25f850182612dac565b5060208201516130b56020850182612d9d565b5060408201516130c86040850182612d9d565b5060608201516130db6060850182612dac565b5060808201516130ee6080850182612dbb565b5060a082015161310160a0850182612dbb565b5060c082015161311460c0850182612dac565b50505050565b5f60e08201905061312d5f83018461308e565b92915050565b7f4e487b71000000000000000000000000000000000000000000000000000000005f52601160045260245ffd5b5f61316a826129e4565b91507fffffffffffffffffffffffffffffffffffffffffffffffffffffffffffffffff820361319c5761319b613133565b5b600182019050919050565b7f6f6e6c792061726269747261746f7200000000000000000000000000000000005f82015250565b5f6131db600f83612bf0565b91506131e6826131a7565b602082019050919050565b5f6020820190508181035f830152613208816131cf565b9050919050565b7f616c7265616479207265736f6c766564000000000000000000000000000000005f82015250565b5f613243601083612bf0565b915061324e8261320f565b602082019050919050565b5f6020820190508181035f83015261327081613237565b9050919050565b5f613281826129e4565b915061328c836129e4565b925082820261329a816129e4565b915082820484148315176132b1576132b0613133565b5b5092915050565b7f4e487b71000000000000000000000000000000000000000000000000000000005f52601260045260245ffd5b5f6132ef826129e4565b91506132fa836129e4565b92508261330a576133096132b8565b5b828204905092915050565b5f61331f826129e4565b915061332a836129e4565b925082820390508181111561334257613341613133565b5b92915050565b5f613352826129e4565b915061335d836129e4565b925082820190508082111561337557613374613133565b5b92915050565b7f6163637572617465207369676e616c00000000000000000000000000000000005f82015250565b5f6133af600f83612bf0565b91506133ba8261337b565b602082019050919050565b5f6040820190506133d85f8301846129ed565b81810360208301526133e9816133a3565b905092915050565b5f6060820190506134045f830186612a56565b6134116020830185612a3c565b61341e60408301846129ed565b949350505050565b7f66616c7365207369676e616c00000000000000000000000000000000000000005f82015250565b5f61345a600c83612bf0565b915061346582613426565b602082019050919050565b5f6040820190506134835f8301846129ed565b81810360208301526134948161344e565b905092915050565b5f6134a6826129e4565b91505f82036134b8576134b7613133565b5b600182039050919050565b7f6f6e6c79206f776e6572000000000000000000000000000000000000000000005f82015250565b5f6134f7600a83612bf0565b9150613502826134c3565b602082019050919050565b5f6020820190508181035f830152613524816134eb565b9050919050565b7f7261746520746f6f2068696768000000000000000000000000000000000000005f82015250565b5f61355f600d83612bf0565b915061356a8261352b565b602082019050919050565b5f6020820190508181035f83015261358c81613553565b9050919050565b7f4e487b71000000000000000000000000000000000000000000000000000000005f52602260045260245ffd5b5f60028204905060018216806135d757607f821691505b6020821081036135ea576135e9613593565b5b50919050565b7f7a65726f20746f6b656e000000000000000000000000000000000000000000005f82015250565b5f613624600a83612bf0565b915061362f826135f0565b602082019050919050565b5f6020820190508181035f83015261365181613618565b9050919050565b7f616c726561647920737570706f727465640000000000000000000000000000005f82015250565b5f61368c601183612bf0565b915061369782613658565b602082019050919050565b5f6020820190508181035f8301526136b981613680565b9050919050565b7f6e6f7420726567697374657265640000000000000000000000000000000000005f82015250565b5f6136f4600e83612bf0565b91506136ff826136c0565b602082019050919050565b5f6020820190508181035f830152613721816136e8565b9050919050565b7f6861732070656e64696e672064697370757465730000000000000000000000005f82015250565b5f61375c601483612bf0565b915061376782613728565b602082019050919050565b5f6020820190508181035f83015261378981613750565b9050919050565b7f6e6f7420616374697665207265706f72746572000000000000000000000000005f82015250565b5f6137c4601383612bf0565b91506137cf82613790565b602082019050919050565b5f6020820190508181035f8301526137f1816137b8565b9050919050565b7f4e487b71000000000000000000000000000000000000000000000000000000005f52604160045260245ffd5b5f819050815f5260205f209050919050565b5f6020601f8301049050919050565b5f82821b905092915050565b5f600883026138817fffffffffffffffffffffffffffffffffffffffffffffffffffffffffffffffff82613846565b61388b8683613846565b95508019841693508086168417925050509392505050565b5f819050919050565b5f6138c66138c16138bc846129e4565b6138a3565b6129e4565b9050919050565b5f819050919050565b6138df836138ac565b6138f36138eb826138cd565b848454613852565b825550505050565b5f5f905090565b61390a6138fb565b6139158184846138d6565b505050565b5b818110156139385761392d5f82613902565b60018101905061391b565b5050565b601f82111561397d5761394e81613825565b61395784613837565b81016020851015613966578190505b61397a61397285613837565b83018261391a565b50505b505050565b5f82821c905092915050565b5f61399d5f1984600802613982565b1980831691505092915050565b5f6139b5838361398e565b9150826002028217905092915050565b6139ce82612be6565b67ffffffffffffffff8111156139e7576139e66137f8565b5b6139f182546135c0565b6139fc82828561393c565b5f60209050601f831160018114613a2d575f8415613a1b578287015190505b613a2585826139aa565b865550613a8c565b601f198416613a3b86613825565b5f5b82811015613a6257848901518255600182019150602085019450602081019050613a3d565b86831015613a7f5784890151613a7b601f89168261398e565b8355505b6001600288020188555050505b505050505050565b7f6e6f207369676e616c00000000000000000000000000000000000000000000005f82015250565b5f613ac8600983612bf0565b9150613ad382613a94565b602082019050919050565b5f6020820190508181035f830152613af581613abc565b9050919050565b7f616c7265616479206469737075746564000000000000000000000000000000005f82015250565b5f613b30601083612bf0565b9150613b3b82613afc565b602082019050919050565b5f6020820190508181035f830152613b5d81613b24565b9050919050565b7f6469737075746520706572696f6420636c6f73656400000000000000000000005f82015250565b5f613b98601583612bf0565b9150613ba382613b64565b602082019050919050565b5f6020820190508181035f830152613bc581613b8c565b9050919050565b7f626f6e64207472616e73666572206661696c65640000000000000000000000005f82015250565b5f613c00601483612bf0565b9150613c0b82613bcc565b602082019050919050565b5f6020820190508181035f830152613c2d81613bf4565b9050919050565b7f706572696f6420746f6f2073686f7274000000000000000000000000000000005f82015250565b5f613c68601083612bf0565b9150613c7382613c34565b602082019050919050565b5f6020820190508181035f830152613c9581613c5c565b9050919050565b7f7a65726f2061726269747261746f7200000000000000000000000000000000005f82015250565b5f613cd0600f83612bf0565b9150613cdb82613c9c565b602082019050919050565b5f6020820190508181035f830152613cfd81613cc4565b9050919050565b7f756e737570706f7274656420746f6b656e0000000000000000000000000000005f82015250565b5f613d38601183612bf0565b9150613d4382613d04565b602082019050919050565b5f6020820190508181035f830152613d6581613d2c565b9050919050565b7f626f6e6420746f6f20736d616c6c0000000000000000000000000000000000005f82015250565b5f613da0600e83612bf0565b9150613dab82613d6c565b602082019050919050565b5f6020820190508181035f830152613dcd81613d94565b9050919050565b7f616c7265616479207265676973746572656400000000000000000000000000005f82015250565b5f613e08601283612bf0565b9150613e1382613dd4565b602082019050919050565b5f6020820190508181035f830152613e3581613dfc565b9050919050565b7f696e73756666696369656e7420657468000000000000000000000000000000005f82015250565b5f613e70601083612bf0565b9150613e7b82613e3c565b602082019050919050565b5f6020820190508181035f830152613e9d81613e64565b9050919050565b5f81905092915050565b50565b5f613ebc5f83613ea4565b9150613ec782613eae565b5f82019050919050565b5f613edb82613eb1565b9150819050919050565b5f606082019050613ef85f830186612a3c565b613f056020830185612a3c565b613f1260408301846129ed565b949350505050565b5f81519050919050565b5f613f2e82613f1a565b613f388185613ea4565b9350613f48818560208601612c00565b80840191505092915050565b5f613f5f8284613f24565b915081905092915050565b5f81519050613f7881612ae0565b92915050565b5f60208284031215613f9357613f92612957565b5b5f613fa084828501613f6a565b9150509291505056fea26469706673582212200f37b88137df7ced8965b69aec06c95c356dbf3c68d9917a08527fe66d9d3eda64736f6c634300081e0033","linkReferences":{}},"methodIdentifiers":{"accuracyRewardRate()":"662d4e38","addSupportedToken(address,uint256)":"4d8e3d3b","arbitrationTime()":"fb44b58f","arbitrator()":"6cc6cde1","disputePeriod()":"5bf31d4d","disputes(uint256)":"564a565d","getAccuracyRate(address)":"0d0aa38e","getDispute(uint256)":"e3a96cbd","getReporter(address)":"732995af","getSignal(uint256)":"828e58e2","isTokenSupported(address)":"75151b63","nextDisputeId()":"0db39934","nextSignalId()":"b0c3b8ef","owner()":"8da5cb5b","raiseDispute(uint256)":"a5c1674e","recordSignal(address,uint256,uint8,string)":"8209c5b8","registerReporter(address,uint256)":"c122ef2f","registeredReporters(uint256)":"dcf63382","reporters(address)":"2cc1cd9e","resolveDispute(uint256,bool)":"34b25ee2","setAccuracyRewardRate(uint256)":"85c34c5b","setArbitrator(address)":"b0eefabe","setDisputePeriod(uint256)":"a83ba53e","setSlashRate(uint256)":"4151766b","signals(uint256)":"47c740cd","slashRate()":"e341181d","supportedTokens(uint256)":"c6255626","tokenMinBond(address)":"f7dda078","unregisterReporter()":"577fb581"},"id":29}