{"abi":[{"type":"constructor","inputs":[{"name":"initialAdmin","type":"address","internalType":"address"},{"name":"initialArbitrator","type":"address","internalType":"address"}],"stateMutability":"nonpayable"},{"type":"function","name":"ARBITRATOR_ROLE","inputs":[],"outputs":[{"name":"","type":"bytes32","internalType":"bytes32"}],"stateMutability":"view"},{"type":"function","name":"DEFAULT_ADMIN_ROLE","inputs":[],"outputs":[{"name":"","type":"bytes32","internalType":"bytes32"}],"stateMutability":"view"},{"type":"function","name":"PARAMETER_SETTER_ROLE","inputs":[],"outputs":[{"name":"","type":"bytes32","internalType":"bytes32"}],"stateMutability":"view"},{"type":"function","name":"accuracyRewardRate","inputs":[],"outputs":[{"name":"","type":"uint256","internalType":"uint256"}],"stateMutability":"view"},{"type":"function","name":"addSupportedToken","inputs":[{"name":"token","type":"address","internalType":"address"},{"name":"minBond","type":"uint256","internalType":"uint256"}],"outputs":[],"stateMutability":"nonpayable"},{"type":"function","name":"arbitrationTime","inputs":[],"outputs":[{"name":"","type":"uint256","internalType":"uint256"}],"stateMutability":"view"},{"type":"function","name":"arbitrator","inputs":[],"outputs":[{"name":"","type":"address","internalType":"address"}],"stateMutability":"view"},{"type":"function","name":"disputePeriod","inputs":[],"outputs":[{"name":"","type":"uint256","internalType":"uint256"}],"stateMutability":"view"},{"type":"function","name":"disputes","inputs":[{"name":"","type":"uint256","internalType":"uint256"}],"outputs":[{"name":"signalId","type":"uint256","internalType":"uint256"},{"name":"challenger","type":"address","internalType":"address"},{"name":"token","type":"address","internalType":"address"},{"name":"challengeBond","type":"uint256","internalType":"uint256"},{"name":"settled","type":"bool","internalType":"bool"},{"name":"isValid","type":"bool","internalType":"bool"},{"name":"createdAt","type":"uint256","internalType":"uint256"}],"stateMutability":"view"},{"type":"function","name":"getAccuracyRate","inputs":[{"name":"reporter","type":"address","internalType":"address"}],"outputs":[{"name":"accurate","type":"uint256","internalType":"uint256"},{"name":"total","type":"uint256","internalType":"uint256"}],"stateMutability":"view"},{"type":"function","name":"getDispute","inputs":[{"name":"disputeId","type":"uint256","internalType":"uint256"}],"outputs":[{"name":"","type":"tuple","internalType":"struct ValidatorRegistry.Dispute","components":[{"name":"signalId","type":"uint256","internalType":"uint256"},{"name":"challenger","type":"address","internalType":"address"},{"name":"token","type":"address","internalType":"address"},{"name":"challengeBond","type":"uint256","internalType":"uint256"},{"name":"settled","type":"bool","internalType":"bool"},{"name":"isValid","type":"bool","internalType":"bool"},{"name":"createdAt","type":"uint256","internalType":"uint256"}]}],"stateMutability":"view"},{"type":"function","name":"getReporter","inputs":[{"name":"reporter","type":"address","internalType":"address"}],"outputs":[{"name":"","type":"tuple","internalType":"struct ValidatorRegistry.Reporter","components":[{"name":"token","type":"address","internalType":"address"},{"name":"bondAmount","type":"uint256","internalType":"uint256"},{"name":"signalCount","type":"uint256","internalType":"uint256"},{"name":"slashCount","type":"uint256","internalType":"uint256"},{"name":"isActive","type":"bool","internalType":"bool"}]}],"stateMutability":"view"},{"type":"function","name":"getRoleAdmin","inputs":[{"name":"role","type":"bytes32","internalType":"bytes32"}],"outputs":[{"name":"","type":"bytes32","internalType":"bytes32"}],"stateMutability":"view"},{"type":"function","name":"getSignal","inputs":[{"name":"signalId","type":"uint256","internalType":"uint256"}],"outputs":[{"name":"","type":"tuple","internalType":"struct ValidatorRegistry.SignalRecord","components":[{"name":"reporter","type":"address","internalType":"address"},{"name":"chainId","type":"uint256","internalType":"uint256"},{"name":"timestamp","type":"uint256","internalType":"uint256"},{"name":"signalType","type":"uint8","internalType":"enum SignalTypes.SignalType"},{"name":"description","type":"string","internalType":"string"},{"name":"isDisputed","type":"bool","internalType":"bool"},{"name":"isVerified","type":"bool","internalType":"bool"},{"name":"disputeCount","type":"uint256","internalType":"uint256"}]}],"stateMutability":"view"},{"type":"function","name":"grantRole","inputs":[{"name":"role","type":"bytes32","internalType":"bytes32"},{"name":"account","type":"address","internalType":"address"}],"outputs":[],"stateMutability":"nonpayable"},{"type":"function","name":"hasRole","inputs":[{"name":"role","type":"bytes32","internalType":"bytes32"},{"name":"account","type":"address","internalType":"address"}],"outputs":[{"name":"","type":"bool","internalType":"bool"}],"stateMutability":"view"},{"type":"function","name":"isTokenSupported","inputs":[{"name":"","type":"address","internalType":"address"}],"outputs":[{"name":"","type":"bool","internalType":"bool"}],"stateMutability":"view"},{"type":"function","name":"nextDisputeId","inputs":[],"outputs":[{"name":"","type":"uint256","internalType":"uint256"}],"stateMutability":"view"},{"type":"function","name":"nextSignalId","inputs":[],"outputs":[{"name":"","type":"uint256","internalType":"uint256"}],"stateMutability":"view"},{"type":"function","name":"owner","inputs":[],"outputs":[{"name":"","type":"address","internalType":"address"}],"stateMutability":"view"},{"type":"function","name":"raiseDispute","inputs":[{"name":"signalId","type":"uint256","internalType":"uint256"}],"outputs":[{"name":"disputeId","type":"uint256","internalType":"uint256"}],"stateMutability":"nonpayable"},{"type":"function","name":"recordSignal","inputs":[{"name":"reporter","type":"address","internalType":"address"},{"name":"chainId","type":"uint256","internalType":"uint256"},{"name":"signalType","type":"uint8","internalType":"enum SignalTypes.SignalType"},{"name":"description","type":"string","internalType":"string"}],"outputs":[{"name":"signalId","type":"uint256","internalType":"uint256"}],"stateMutability":"nonpayable"},{"type":"function","name":"registerReporter","inputs":[{"name":"token","type":"address","internalType":"address"},{"name":"bondAmount","type":"uint256","internalType":"uint256"}],"outputs":[],"stateMutability":"nonpayable"},{"type":"function","name":"registeredReporters","inputs":[{"name":"","type":"uint256","internalType":"uint256"}],"outputs":[{"name":"","type":"address","internalType":"address"}],"stateMutability":"view"},{"type":"function","name":"renounceRole","inputs":[{"name":"role","type":"bytes32","internalType":"bytes32"},{"name":"callerConfirmation","type":"address","internalType":"address"}],"outputs":[],"stateMutability":"nonpayable"},{"type":"function","name":"reporters","inputs":[{"name":"","type":"address","internalType":"address"}],"outputs":[{"name":"token","type":"address","internalType":"address"},{"name":"bondAmount","type":"uint256","internalType":"uint256"},{"name":"signalCount","type":"uint256","internalType":"uint256"},{"name":"slashCount","type":"uint256","internalType":"uint256"},{"name":"isActive","type":"bool","internalType":"bool"}],"stateMutability":"view"},{"type":"function","name":"resolveDispute","inputs":[{"name":"disputeId","type":"uint256","internalType":"uint256"},{"name":"isValid","type":"bool","internalType":"bool"}],"outputs":[],"stateMutability":"nonpayable"},{"type":"function","name":"revokeRole","inputs":[{"name":"role","type":"bytes32","internalType":"bytes32"},{"name":"account","type":"address","internalType":"address"}],"outputs":[],"stateMutability":"nonpayable"},{"type":"function","name":"setAccuracyRewardRate","inputs":[{"name":"newRate","type":"uint256","internalType":"uint256"}],"outputs":[],"stateMutability":"nonpayable"},{"type":"function","name":"setArbitrator","inputs":[{"name":"newArbitrator","type":"address","internalType":"address"}],"outputs":[],"stateMutability":"nonpayable"},{"type":"function","name":"setDisputePeriod","inputs":[{"name":"newPeriod","type":"uint256","internalType":"uint256"}],"outputs":[],"stateMutability":"nonpayable"},{"type":"function","name":"setSlashRate","inputs":[{"name":"newRate","type":"uint256","internalType":"uint256"}],"outputs":[],"stateMutability":"nonpayable"},{"type":"function","name":"signals","inputs":[{"name":"","type":"uint256","internalType":"uint256"}],"outputs":[{"name":"reporter","type":"address","internalType":"address"},{"name":"chainId","type":"uint256","internalType":"uint256"},{"name":"timestamp","type":"uint256","internalType":"uint256"},{"name":"signalType","type":"uint8","internalType":"enum SignalTypes.SignalType"},{"name":"description","type":"string","internalType":"string"},{"name":"isDisputed","type":"bool","internalType":"bool"},{"name":"isVerified","type":"bool","internalType":"bool"},{"name":"disputeCount","type":"uint256","internalType":"uint256"}],"stateMutability":"view"},{"type":"function","name":"slashRate","inputs":[],"outputs":[{"name":"","type":"uint256","internalType":"uint256"}],"stateMutability":"view"},{"type":"function","name":"supportedTokens","inputs":[{"name":"","type":"uint256","internalType":"uint256"}],"outputs":[{"name":"","type":"address","internalType":"address"}],"stateMutability":"view"},{"type":"function","name":"supportsInterface","inputs":[{"name":"interfaceId","type":"bytes4","internalType":"bytes4"}],"outputs":[{"name":"","type":"bool","internalType":"bool"}],"stateMutability":"view"},{"type":"function","name":"tokenMinBond","inputs":[{"name":"","type":"address","internalType":"address"}],"outputs":[{"name":"","type":"uint256","internalType":"uint256"}],"stateMutability":"view"},{"type":"function","name":"unregisterReporter","inputs":[],"outputs":[],"stateMutability":"nonpayable"},{"type":"event","name":"AdminParameterUpdated","inputs":[{"name":"paramName","type":"string","indexed":true,"internalType":"string"},{"name":"newValue","type":"uint256","indexed":false,"internalType":"uint256"}],"anonymous":false},{"type":"event","name":"DisputeRaised","inputs":[{"name":"disputeId","type":"uint256","indexed":true,"internalType":"uint256"},{"name":"signalId","type":"uint256","indexed":true,"internalType":"uint256"},{"name":"challenger","type":"address","indexed":true,"internalType":"address"}],"anonymous":false},{"type":"event","name":"DisputeResolved","inputs":[{"name":"disputeId","type":"uint256","indexed":true,"internalType":"uint256"},{"name":"isValid","type":"bool","indexed":false,"internalType":"bool"},{"name":"winner","type":"address","indexed":false,"internalType":"address"},{"name":"winnings","type":"uint256","indexed":false,"internalType":"uint256"}],"anonymous":false},{"type":"event","name":"ReporterRegistered","inputs":[{"name":"reporter","type":"address","indexed":true,"internalType":"address"},{"name":"token","type":"address","indexed":true,"internalType":"address"},{"name":"bondAmount","type":"uint256","indexed":false,"internalType":"uint256"}],"anonymous":false},{"type":"event","name":"ReporterRewarded","inputs":[{"name":"reporter","type":"address","indexed":true,"internalType":"address"},{"name":"amount","type":"uint256","indexed":false,"internalType":"uint256"},{"name":"reason","type":"string","indexed":false,"internalType":"string"}],"anonymous":false},{"type":"event","name":"ReporterSlashed","inputs":[{"name":"reporter","type":"address","indexed":true,"internalType":"address"},{"name":"amount","type":"uint256","indexed":false,"internalType":"uint256"},{"name":"reason","type":"string","indexed":false,"internalType":"string"}],"anonymous":false},{"type":"event","name":"RoleAdminChanged","inputs":[{"name":"role","type":"bytes32","indexed":true,"internalType":"bytes32"},{"name":"previousAdminRole","type":"bytes32","indexed":true,"internalType":"bytes32"},{"name":"newAdminRole","type":"bytes32","indexed":true,"internalType":"bytes32"}],"anonymous":false},{"type":"event","name":"RoleGranted","inputs":[{"name":"role","type":"bytes32","indexed":true,"internalType":"bytes32"},{"name":"account","type":"address","indexed":true,"internalType":"address"},{"name":"sender","type":"address","indexed":true,"internalType":"address"}],"anonymous":false},{"type":"event","name":"RoleRevoked","inputs":[{"name":"role","type":"bytes32","indexed":true,"internalType":"bytes32"},{"name":"account","type":"address","indexed":true,"internalType":"address"},{"name":"sender","type":"address","indexed":true,"internalType":"address"}],"anonymous":false},{"type":"event","name":"SignalRecorded","inputs":[{"name":"signalId","type":"uint256","indexed":true,"internalType":"uint256"},{"name":"reporter","type":"address","indexed":true,"internalType":"address"},{"name":"chainId","type":"uint256","indexed":false,"internalType":"uint256"}],"anonymous":false},{"type":"error","name":"AccessControlBadConfirmation","inputs":[]},{"type":"error","name":"AccessControlUnauthorizedAccount","inputs":[{"name":"account","type":"address","internalType":"address"},{"name":"neededRole","type":"bytes32","internalType":"bytes32"}]}],"bytecode":{"object":"0x608060405262093a806006556203f480600755703200000000000000000000000000000005600e55348015610032575f5ffd5b50604051614e59380380614e59833981810160405281019061005491906103f5565b3360045f6101000a81548173ffffffffffffffffffffffffffffffffffffffff021916908373ffffffffffffffffffffffffffffffffffffffff1602179055503360055f6101000a81548173ffffffffffffffffffffffffffffffffffffffff021916908373ffffffffffffffffffffffffffffffffffffffff1602179055505f73ffffffffffffffffffffffffffffffffffffffff168273ffffffffffffffffffffffffffffffffffffffff161461018c576101195f5f1b8361023860201b60201c565b5061014a7fe08e6e8e2e796f02419355c6fa268d1461fe6f2f34114a881a2db47c0f2405098361023860201b60201c565b508160045f6101000a81548173ffffffffffffffffffffffffffffffffffffffff021916908373ffffffffffffffffffffffffffffffffffffffff1602179055505b5f73ffffffffffffffffffffffffffffffffffffffff168173ffffffffffffffffffffffffffffffffffffffff1614610231576101ef7f16ceee8289685dd2a02b9c8ae81d2df373176ce53519e6284e2a2950d6546ffa8261023860201b60201c565b508060055f6101000a81548173ffffffffffffffffffffffffffffffffffffffff021916908373ffffffffffffffffffffffffffffffffffffffff1602179055505b5050610433565b5f610249838361032d60201b60201c565b6103235760015f5f8581526020019081526020015f205f015f8473ffffffffffffffffffffffffffffffffffffffff1673ffffffffffffffffffffffffffffffffffffffff1681526020019081526020015f205f6101000a81548160ff0219169083151502179055506102c061039060201b60201c565b73ffffffffffffffffffffffffffffffffffffffff168273ffffffffffffffffffffffffffffffffffffffff16847f2f8788117e7eff1d82e926ec794901d17c78024a50270940304540a733656f0d60405160405180910390a460019050610327565b5f90505b92915050565b5f5f5f8481526020019081526020015f205f015f8373ffffffffffffffffffffffffffffffffffffffff1673ffffffffffffffffffffffffffffffffffffffff1681526020019081526020015f205f9054906101000a900460ff16905092915050565b5f33905090565b5f5ffd5b5f73ffffffffffffffffffffffffffffffffffffffff82169050919050565b5f6103c48261039b565b9050919050565b6103d4816103ba565b81146103de575f5ffd5b50565b5f815190506103ef816103cb565b92915050565b5f5f6040838503121561040b5761040a610397565b5b5f610418858286016103e1565b9250506020610429858286016103e1565b9150509250929050565b614a19806104405f395ff3fe608060405234801561000f575f5ffd5b5060043610610230575f3560e01c80638209c5b81161012e578063b0c3b8ef116100b6578063dcf633821161007a578063dcf63382146106e6578063e341181d14610716578063e3a96cbd14610734578063f7dda07814610764578063fb44b58f1461079457610230565b8063b0c3b8ef14610644578063b0eefabe14610662578063c122ef2f1461067e578063c62556261461069a578063d547741f146106ca57610230565b806391d14854116100fd57806391d148541461058c5780639cea0787146105bc578063a217fddf146105da578063a5c1674e146105f8578063a83ba53e1461062857610230565b80638209c5b8146104f2578063828e58e21461052257806385c34c5b146105525780638da5cb5b1461056e57610230565b806347c740cd116101bc5780635de207cc116101805780635de207cc14610438578063662d4e38146104565780636cc6cde114610474578063732995af1461049257806375151b63146104c257610230565b806347c740cd146103875780634d8e3d3b146103be578063564a565d146103da578063577fb581146104105780635bf31d4d1461041a57610230565b80632cc1cd9e116102035780632cc1cd9e146102e35780632f2ff15d1461031757806334b25ee21461033357806336568abe1461034f5780634151766b1461036b57610230565b806301ffc9a7146102345780630d0aa38e146102645780630db3993414610295578063248a9ca3146102b3575b5f5ffd5b61024e600480360381019061024991906130a3565b6107b2565b60405161025b91906130e8565b60405180910390f35b61027e6004803603810190610279919061315b565b61082b565b60405161028c92919061319e565b60405180910390f35b61029d6109e9565b6040516102aa91906131c5565b60405180910390f35b6102cd60048036038101906102c89190613211565b6109ef565b6040516102da919061324b565b60405180910390f35b6102fd60048036038101906102f8919061315b565b610a0b565b60405161030e959493929190613273565b60405180910390f35b610331600480360381019061032c91906132c4565b610a68565b005b61034d60048036038101906103489190613356565b610a8a565b005b610369600480360381019061036491906132c4565b610f60565b005b61038560048036038101906103809190613394565b610fdb565b005b6103a1600480360381019061039c9190613394565b61108e565b6040516103b59897969594939291906134a2565b60405180910390f35b6103d860048036038101906103d39190613525565b61119c565b005b6103f460048036038101906103ef9190613394565b6113f8565b6040516104079796959493929190613563565b60405180910390f35b61041861148d565b005b6104226115b4565b60405161042f91906131c5565b60405180910390f35b6104406115ba565b60405161044d919061324b565b60405180910390f35b61045e6115de565b60405161046b91906131c5565b60405180910390f35b61047c6115ec565b60405161048991906135d0565b60405180910390f35b6104ac60048036038101906104a7919061315b565b611611565b6040516104b9919061367c565b60405180910390f35b6104dc60048036038101906104d7919061315b565b6116f4565b6040516104e991906130e8565b60405180910390f35b61050c60048036038101906105079190613719565b611711565b60405161051991906131c5565b60405180910390f35b61053c60048036038101906105379190613394565b611985565b60405161054991906138a1565b60405180910390f35b61056c60048036038101906105679190613394565b611b22565b005b610576611bd5565b60405161058391906135d0565b60405180910390f35b6105a660048036038101906105a191906132c4565b611bfa565b6040516105b391906130e8565b60405180910390f35b6105c4611c5d565b6040516105d1919061324b565b60405180910390f35b6105e2611c81565b6040516105ef919061324b565b60405180910390f35b610612600480360381019061060d9190613394565b611c87565b60405161061f91906131c5565b60405180910390f35b610642600480360381019061063d9190613394565b6120bd565b005b61064c61215c565b60405161065991906131c5565b60405180910390f35b61067c6004803603810190610677919061315b565b612162565b005b61069860048036038101906106939190613525565b6122a7565b005b6106b460048036038101906106af9190613394565b612652565b6040516106c191906135d0565b60405180910390f35b6106e460048036038101906106df91906132c4565b61268d565b005b61070060048036038101906106fb9190613394565b6126af565b60405161070d91906135d0565b60405180910390f35b61071e6126ea565b60405161072b91906131c5565b60405180910390f35b61074e60048036038101906107499190613394565b6126f8565b60405161075b919061394d565b60405180910390f35b61077e6004803603810190610779919061315b565b61281f565b60405161078b91906131c5565b60405180910390f35b61079c612834565b6040516107a991906131c5565b60405180910390f35b5f7f7965db0b000000000000000000000000000000000000000000000000000000007bffffffffffffffffffffffffffffffffffffffffffffffffffffffff1916827bffffffffffffffffffffffffffffffffffffffffffffffffffffffff1916148061082457506108238261283a565b5b9050919050565b5f5f5f60085f8573ffffffffffffffffffffffffffffffffffffffff1673ffffffffffffffffffffffffffffffffffffffff1681526020019081526020015f206040518060a00160405290815f82015f9054906101000a900473ffffffffffffffffffffffffffffffffffffffff1673ffffffffffffffffffffffffffffffffffffffff1673ffffffffffffffffffffffffffffffffffffffff168152602001600182015481526020016002820154815260200160038201548152602001600482015f9054906101000a900460ff16151515158152505090505f81604001510361091b575f5f92509250506109e4565b5f5f90505b600b548110156109e1578473ffffffffffffffffffffffffffffffffffffffff16600a5f8381526020019081526020015f205f015f9054906101000a900473ffffffffffffffffffffffffffffffffffffffff1673ffffffffffffffffffffffffffffffffffffffff16036109d457828061099a90613993565b935050600a5f8281526020019081526020015f2060050160019054906101000a900460ff16156109d35783806109cf90613993565b9450505b5b8080600101915050610920565b50505b915091565b600d5481565b5f5f5f8381526020019081526020015f20600101549050919050565b6008602052805f5260405f205f91509050805f015f9054906101000a900473ffffffffffffffffffffffffffffffffffffffff1690806001015490806002015490806003015490806004015f9054906101000a900460ff16905085565b610a71826109ef565b610a7a816128a3565b610a8483836128b7565b50505050565b610a926129a0565b5f600c5f8481526020019081526020015f209050806004015f9054906101000a900460ff1615610af7576040517f08c379a0000000000000000000000000000000000000000000000000000000008152600401610aee90613a24565b60405180910390fd5b5f600a5f835f015481526020019081526020015f2090505f60085f835f015f9054906101000a900473ffffffffffffffffffffffffffffffffffffffff1673ffffffffffffffffffffffffffffffffffffffff1673ffffffffffffffffffffffffffffffffffffffff1681526020019081526020015f2090506001836004015f6101000a81548160ff021916908315150217905550838360040160016101000a81548160ff02191690831515021790555060018260050160016101000a81548160ff0219169083151502179055505f836002015f9054906101000a900473ffffffffffffffffffffffffffffffffffffffff1690505f826001015490505f856003015490508615610e00575f6064610c0d612a62565b83610c189190613a42565b610c229190613ab0565b90505f8183610c319190613ae0565b9050610c618530895f015f9054906101000a900473ffffffffffffffffffffffffffffffffffffffff1685612a6f565b50610c8f853060055f9054906101000a900473ffffffffffffffffffffffffffffffffffffffff1684612a6f565b505f6064610c9b612c87565b86610ca69190613a42565b610cb09190613ab0565b90508060085f8a5f015f9054906101000a900473ffffffffffffffffffffffffffffffffffffffff1673ffffffffffffffffffffffffffffffffffffffff1673ffffffffffffffffffffffffffffffffffffffff1681526020019081526020015f206001015f828254610d239190613b13565b92505081905550875f015f9054906101000a900473ffffffffffffffffffffffffffffffffffffffff1673ffffffffffffffffffffffffffffffffffffffff167f94e249f03d51c2a02daae9773cdb019929191ffbf25ac2a179595c53ca7ecd6082604051610d929190613b90565b60405180910390a28a7fd4fa2999479f884fbfc3ac21599f636fc4c812960aae4c0fae7216b3d0fc8c048b8a5f015f9054906101000a900473ffffffffffffffffffffffffffffffffffffffff1686604051610df093929190613bbc565b60405180910390a2505050610f3d565b5f6064610e0b612a62565b84610e169190613a42565b610e209190613ab0565b905080856001015f828254610e359190613ae0565b92505081905550610e6b8430896001015f9054906101000a900473ffffffffffffffffffffffffffffffffffffffff1684612a6f565b50855f015f9054906101000a900473ffffffffffffffffffffffffffffffffffffffff1673ffffffffffffffffffffffffffffffffffffffff167f59843ad809a242070c568cb67f95012045dab94cf5e80010cc121993f77b9eea82604051610ed49190613c3b565b60405180910390a2887fd4fa2999479f884fbfc3ac21599f636fc4c812960aae4c0fae7216b3d0fc8c0489896001015f9054906101000a900473ffffffffffffffffffffffffffffffffffffffff1684604051610f3393929190613bbc565b60405180910390a2505b836003015f815480929190610f5190613c67565b91905055505050505050505050565b610f68612ca2565b73ffffffffffffffffffffffffffffffffffffffff168173ffffffffffffffffffffffffffffffffffffffff1614610fcc576040517f6697b23200000000000000000000000000000000000000000000000000000000815260040160405180910390fd5b610fd68282612ca9565b505050565b610fe3612d92565b6064811115611027576040517f08c379a000000000000000000000000000000000000000000000000000000000815260040161101e90613cd8565b60405180910390fd5b5f611030612c87565b905080608083901b17600e8190555060405161104b90613d4a565b60405180910390207f034305695a3c2f8e24de370dab56fb8eaa776675dcaf4b052d40561a1838ce668360405161108291906131c5565b60405180910390a25050565b600a602052805f5260405f205f91509050805f015f9054906101000a900473ffffffffffffffffffffffffffffffffffffffff1690806001015490806002015490806003015f9054906101000a900460ff16908060040180546110f090613d8b565b80601f016020809104026020016040519081016040528092919081815260200182805461111c90613d8b565b80156111675780601f1061113e57610100808354040283529160200191611167565b820191905f5260205f20905b81548152906001019060200180831161114a57829003601f168201915b505050505090806005015f9054906101000a900460ff16908060050160019054906101000a900460ff16908060060154905088565b6111a4612d92565b5f73ffffffffffffffffffffffffffffffffffffffff168273ffffffffffffffffffffffffffffffffffffffff1603611212576040517f08c379a000000000000000000000000000000000000000000000000000000000815260040161120990613e05565b60405180910390fd5b60025f8373ffffffffffffffffffffffffffffffffffffffff1673ffffffffffffffffffffffffffffffffffffffff1681526020019081526020015f205f9054906101000a900460ff161561129c576040517f08c379a000000000000000000000000000000000000000000000000000000000815260040161129390613e6d565b60405180910390fd5b600182908060018154018082558091505060019003905f5260205f20015f9091909190916101000a81548173ffffffffffffffffffffffffffffffffffffffff021916908373ffffffffffffffffffffffffffffffffffffffff160217905550600160025f8473ffffffffffffffffffffffffffffffffffffffff1673ffffffffffffffffffffffffffffffffffffffff1681526020019081526020015f205f6101000a81548160ff0219169083151502179055508060035f8473ffffffffffffffffffffffffffffffffffffffff1673ffffffffffffffffffffffffffffffffffffffff1681526020019081526020015f208190555060405161139f90613ed5565b60405180910390207f034305695a3c2f8e24de370dab56fb8eaa776675dcaf4b052d40561a1838ce668373ffffffffffffffffffffffffffffffffffffffff166040516113ec91906131c5565b60405180910390a25050565b600c602052805f5260405f205f91509050805f015490806001015f9054906101000a900473ffffffffffffffffffffffffffffffffffffffff1690806002015f9054906101000a900473ffffffffffffffffffffffffffffffffffffffff1690806003015490806004015f9054906101000a900460ff16908060040160019054906101000a900460ff16908060050154905087565b5f60085f3373ffffffffffffffffffffffffffffffffffffffff1673ffffffffffffffffffffffffffffffffffffffff1681526020019081526020015f209050806004015f9054906101000a900460ff1661151d576040517f08c379a000000000000000000000000000000000000000000000000000000000815260040161151490613f33565b60405180910390fd5b5f816003015414611563576040517f08c379a000000000000000000000000000000000000000000000000000000000815260040161155a90613f9b565b60405180910390fd5b611595815f015f9054906101000a900473ffffffffffffffffffffffffffffffffffffffff1630338460010154612a6f565b505f816004015f6101000a81548160ff02191690831515021790555050565b60065481565b7fe08e6e8e2e796f02419355c6fa268d1461fe6f2f34114a881a2db47c0f24050981565b5f6115e7612c87565b905090565b60055f9054906101000a900473ffffffffffffffffffffffffffffffffffffffff1681565b611619612f34565b60085f8373ffffffffffffffffffffffffffffffffffffffff1673ffffffffffffffffffffffffffffffffffffffff1681526020019081526020015f206040518060a00160405290815f82015f9054906101000a900473ffffffffffffffffffffffffffffffffffffffff1673ffffffffffffffffffffffffffffffffffffffff1673ffffffffffffffffffffffffffffffffffffffff168152602001600182015481526020016002820154815260200160038201548152602001600482015f9054906101000a900460ff1615151515815250509050919050565b6002602052805f5260405f205f915054906101000a900460ff1681565b5f8561171c81612e54565b600b5f81548092919061172e90613993565b9190505591506040518061010001604052808873ffffffffffffffffffffffffffffffffffffffff16815260200187815260200142815260200186600b81111561177b5761177a6133bf565b5b815260200185858080601f0160208091040260200160405190810160405280939291908181526020018383808284375f81840152601f19601f8201169050808301925050505050505081526020015f151581526020015f151581526020015f815250600a5f8481526020019081526020015f205f820151815f015f6101000a81548173ffffffffffffffffffffffffffffffffffffffff021916908373ffffffffffffffffffffffffffffffffffffffff16021790555060208201518160010155604082015181600201556060820151816003015f6101000a81548160ff0219169083600b8111156118705761186f6133bf565b5b0217905550608082015181600401908161188a9190614186565b5060a0820151816005015f6101000a81548160ff02191690831515021790555060c08201518160050160016101000a81548160ff02191690831515021790555060e0820151816006015590505060085f8873ffffffffffffffffffffffffffffffffffffffff1673ffffffffffffffffffffffffffffffffffffffff1681526020019081526020015f206002015f81548092919061192790613993565b91905055508673ffffffffffffffffffffffffffffffffffffffff16827faf462ff4531415ebd1f6c799908d789e5402c440db3d073ca1bc88cb948bc8468860405161197391906131c5565b60405180910390a35095945050505050565b61198d612f76565b600a5f8381526020019081526020015f20604051806101000160405290815f82015f9054906101000a900473ffffffffffffffffffffffffffffffffffffffff1673ffffffffffffffffffffffffffffffffffffffff1673ffffffffffffffffffffffffffffffffffffffff1681526020016001820154815260200160028201548152602001600382015f9054906101000a900460ff16600b811115611a3657611a356133bf565b5b600b811115611a4857611a476133bf565b5b8152602001600482018054611a5c90613d8b565b80601f0160208091040260200160405190810160405280929190818152602001828054611a8890613d8b565b8015611ad35780601f10611aaa57610100808354040283529160200191611ad3565b820191905f5260205f20905b815481529060010190602001808311611ab657829003601f168201915b50505050508152602001600582015f9054906101000a900460ff161515151581526020016005820160019054906101000a900460ff161515151581526020016006820154815250509050919050565b611b2a612d92565b6064811115611b6e576040517f08c379a0000000000000000000000000000000000000000000000000000000008152600401611b6590613cd8565b60405180910390fd5b5f611b77612a62565b905081608082901b17600e81905550604051611b929061429f565b60405180910390207f034305695a3c2f8e24de370dab56fb8eaa776675dcaf4b052d40561a1838ce6683604051611bc991906131c5565b60405180910390a25050565b60045f9054906101000a900473ffffffffffffffffffffffffffffffffffffffff1681565b5f5f5f8481526020019081526020015f205f015f8373ffffffffffffffffffffffffffffffffffffffff1673ffffffffffffffffffffffffffffffffffffffff1681526020019081526020015f205f9054906101000a900460ff16905092915050565b7f16ceee8289685dd2a02b9c8ae81d2df373176ce53519e6284e2a2950d6546ffa81565b5f5f1b81565b5f5f600a5f8481526020019081526020015f2090505f73ffffffffffffffffffffffffffffffffffffffff16815f015f9054906101000a900473ffffffffffffffffffffffffffffffffffffffff1673ffffffffffffffffffffffffffffffffffffffff1603611d2c576040517f08c379a0000000000000000000000000000000000000000000000000000000008152600401611d23906142fd565b60405180910390fd5b806005015f9054906101000a900460ff1615611d7d576040517f08c379a0000000000000000000000000000000000000000000000000000000008152600401611d7490614365565b60405180910390fd5b6006548160020154611d8f9190613b13565b421115611dd1576040517f08c379a0000000000000000000000000000000000000000000000000000000008152600401611dc8906143cd565b60405180910390fd5b5f60085f835f015f9054906101000a900473ffffffffffffffffffffffffffffffffffffffff1673ffffffffffffffffffffffffffffffffffffffff1673ffffffffffffffffffffffffffffffffffffffff1681526020019081526020015f2090505f815f015f9054906101000a900473ffffffffffffffffffffffffffffffffffffffff169050611e698133308560010154612a6f565b611ea8576040517f08c379a0000000000000000000000000000000000000000000000000000000008152600401611e9f90614435565b60405180910390fd5b600d5f815480929190611eba90613993565b9190505593506040518060e001604052808681526020013373ffffffffffffffffffffffffffffffffffffffff1681526020018273ffffffffffffffffffffffffffffffffffffffff168152602001836001015481526020015f151581526020015f1515815260200142815250600c5f8681526020019081526020015f205f820151815f01556020820151816001015f6101000a81548173ffffffffffffffffffffffffffffffffffffffff021916908373ffffffffffffffffffffffffffffffffffffffff1602179055506040820151816002015f6101000a81548173ffffffffffffffffffffffffffffffffffffffff021916908373ffffffffffffffffffffffffffffffffffffffff160217905550606082015181600301556080820151816004015f6101000a81548160ff02191690831515021790555060a08201518160040160016101000a81548160ff02191690831515021790555060c082015181600501559050506001836005015f6101000a81548160ff021916908315150217905550826006015f81548092919061205290613993565b9190505550816003015f81548092919061206b90613993565b91905055503373ffffffffffffffffffffffffffffffffffffffff1685857f83201991c75b30e493678d0543bdbd02d6a194a5a0dda31490a5fe09e9f0a22060405160405180910390a4505050919050565b6120c5612d92565b5f8111612107576040517f08c379a00000000000000000000000000000000000000000000000000000000081526004016120fe9061449d565b60405180910390fd5b8060068190555060405161211a90614505565b60405180910390207f034305695a3c2f8e24de370dab56fb8eaa776675dcaf4b052d40561a1838ce668260405161215191906131c5565b60405180910390a250565b600b5481565b61216a612d92565b5f73ffffffffffffffffffffffffffffffffffffffff168173ffffffffffffffffffffffffffffffffffffffff16036121d8576040517f08c379a00000000000000000000000000000000000000000000000000000000081526004016121cf90614563565b60405180910390fd5b8060055f6101000a81548173ffffffffffffffffffffffffffffffffffffffff021916908373ffffffffffffffffffffffffffffffffffffffff1602179055506122427f16ceee8289685dd2a02b9c8ae81d2df373176ce53519e6284e2a2950d6546ffa826128b7565b5060405161224f906145cb565b60405180910390207f034305695a3c2f8e24de370dab56fb8eaa776675dcaf4b052d40561a1838ce668273ffffffffffffffffffffffffffffffffffffffff1660405161229c91906131c5565b60405180910390a250565b60025f8373ffffffffffffffffffffffffffffffffffffffff1673ffffffffffffffffffffffffffffffffffffffff1681526020019081526020015f205f9054906101000a900460ff16612330576040517f08c379a000000000000000000000000000000000000000000000000000000000815260040161232790614629565b60405180910390fd5b60035f8373ffffffffffffffffffffffffffffffffffffffff1673ffffffffffffffffffffffffffffffffffffffff1681526020019081526020015f20548110156123b0576040517f08c379a00000000000000000000000000000000000000000000000000000000081526004016123a790614691565b60405180910390fd5b60085f3373ffffffffffffffffffffffffffffffffffffffff1673ffffffffffffffffffffffffffffffffffffffff1681526020019081526020015f206004015f9054906101000a900460ff161561243d576040517f08c379a0000000000000000000000000000000000000000000000000000000008152600401612434906146f9565b60405180910390fd5b61244982333084612a6f565b612488576040517f08c379a000000000000000000000000000000000000000000000000000000000815260040161247f90614435565b60405180910390fd5b6040518060a001604052808373ffffffffffffffffffffffffffffffffffffffff1681526020018281526020015f81526020015f81526020016001151581525060085f3373ffffffffffffffffffffffffffffffffffffffff1673ffffffffffffffffffffffffffffffffffffffff1681526020019081526020015f205f820151815f015f6101000a81548173ffffffffffffffffffffffffffffffffffffffff021916908373ffffffffffffffffffffffffffffffffffffffff1602179055506020820151816001015560408201518160020155606082015181600301556080820151816004015f6101000a81548160ff021916908315150217905550905050600933908060018154018082558091505060019003905f5260205f20015f9091909190916101000a81548173ffffffffffffffffffffffffffffffffffffffff021916908373ffffffffffffffffffffffffffffffffffffffff1602179055508173ffffffffffffffffffffffffffffffffffffffff163373ffffffffffffffffffffffffffffffffffffffff167fb234633a2bf0c0456610aa4e9d764a5d11b33a499858c7eb5092eb6192e9fa1c8360405161264691906131c5565b60405180910390a35050565b60018181548110612661575f80fd5b905f5260205f20015f915054906101000a900473ffffffffffffffffffffffffffffffffffffffff1681565b612696826109ef565b61269f816128a3565b6126a98383612ca9565b50505050565b600981815481106126be575f80fd5b905f5260205f20015f915054906101000a900473ffffffffffffffffffffffffffffffffffffffff1681565b5f6126f3612a62565b905090565b612700612fe0565b600c5f8381526020019081526020015f206040518060e00160405290815f8201548152602001600182015f9054906101000a900473ffffffffffffffffffffffffffffffffffffffff1673ffffffffffffffffffffffffffffffffffffffff1673ffffffffffffffffffffffffffffffffffffffff168152602001600282015f9054906101000a900473ffffffffffffffffffffffffffffffffffffffff1673ffffffffffffffffffffffffffffffffffffffff1673ffffffffffffffffffffffffffffffffffffffff16815260200160038201548152602001600482015f9054906101000a900460ff161515151581526020016004820160019054906101000a900460ff161515151581526020016005820154815250509050919050565b6003602052805f5260405f205f915090505481565b60075481565b5f7f01ffc9a7000000000000000000000000000000000000000000000000000000007bffffffffffffffffffffffffffffffffffffffffffffffffffffffff1916827bffffffffffffffffffffffffffffffffffffffffffffffffffffffff1916149050919050565b6128b4816128af612ca2565b612ee3565b50565b5f6128c28383611bfa565b6129965760015f5f8581526020019081526020015f205f015f8473ffffffffffffffffffffffffffffffffffffffff1673ffffffffffffffffffffffffffffffffffffffff1681526020019081526020015f205f6101000a81548160ff021916908315150217905550612933612ca2565b73ffffffffffffffffffffffffffffffffffffffff168273ffffffffffffffffffffffffffffffffffffffff16847f2f8788117e7eff1d82e926ec794901d17c78024a50270940304540a733656f0d60405160405180910390a46001905061299a565b5f90505b92915050565b60055f9054906101000a900473ffffffffffffffffffffffffffffffffffffffff1673ffffffffffffffffffffffffffffffffffffffff163373ffffffffffffffffffffffffffffffffffffffff161480612a215750612a207f16ceee8289685dd2a02b9c8ae81d2df373176ce53519e6284e2a2950d6546ffa33611bfa565b5b612a60576040517f08c379a0000000000000000000000000000000000000000000000000000000008152600401612a5790614761565b60405180910390fd5b565b5f6080600e54901c905090565b5f5f73ffffffffffffffffffffffffffffffffffffffff168573ffffffffffffffffffffffffffffffffffffffff1603612b575781341015612ae6576040517f08c379a0000000000000000000000000000000000000000000000000000000008152600401612add906147c9565b60405180910390fd5b5f8373ffffffffffffffffffffffffffffffffffffffff1683604051612b0b90614814565b5f6040518083038185875af1925050503d805f8114612b45576040519150601f19603f3d011682016040523d82523d5f602084013e612b4a565b606091505b5050905080915050612c7f565b5f5f8673ffffffffffffffffffffffffffffffffffffffff16868686604051602401612b8593929190614828565b6040516020818303038152906040527f23b872dd000000000000000000000000000000000000000000000000000000007bffffffffffffffffffffffffffffffffffffffffffffffffffffffff19166020820180517bffffffffffffffffffffffffffffffffffffffffffffffffffffffff8381831617835250505050604051612c0f9190614897565b5f604051808303815f865af19150503d805f8114612c48576040519150601f19603f3d011682016040523d82523d5f602084013e612c4d565b606091505b5091509150818015612c7a57505f81511480612c79575080806020019051810190612c7891906148c1565b5b5b925050505b949350505050565b5f6fffffffffffffffffffffffffffffffff600e5416905090565b5f33905090565b5f612cb48383611bfa565b15612d88575f5f5f8581526020019081526020015f205f015f8473ffffffffffffffffffffffffffffffffffffffff1673ffffffffffffffffffffffffffffffffffffffff1681526020019081526020015f205f6101000a81548160ff021916908315150217905550612d25612ca2565b73ffffffffffffffffffffffffffffffffffffffff168273ffffffffffffffffffffffffffffffffffffffff16847ff6391f5c32d9c69d2a47ea670b442974b53935d1edc7fd64eb21e047a839171b60405160405180910390a460019050612d8c565b5f90505b92915050565b60045f9054906101000a900473ffffffffffffffffffffffffffffffffffffffff1673ffffffffffffffffffffffffffffffffffffffff163373ffffffffffffffffffffffffffffffffffffffff161480612e135750612e127fe08e6e8e2e796f02419355c6fa268d1461fe6f2f34114a881a2db47c0f24050933611bfa565b5b612e52576040517f08c379a0000000000000000000000000000000000000000000000000000000008152600401612e4990614936565b60405180910390fd5b565b60085f8273ffffffffffffffffffffffffffffffffffffffff1673ffffffffffffffffffffffffffffffffffffffff1681526020019081526020015f206004015f9054906101000a900460ff16612ee0576040517f08c379a0000000000000000000000000000000000000000000000000000000008152600401612ed79061499e565b60405180910390fd5b50565b612eed8282611bfa565b612f305780826040517fe2517d3f000000000000000000000000000000000000000000000000000000008152600401612f279291906149bc565b60405180910390fd5b5050565b6040518060a001604052805f73ffffffffffffffffffffffffffffffffffffffff1681526020015f81526020015f81526020015f81526020015f151581525090565b6040518061010001604052805f73ffffffffffffffffffffffffffffffffffffffff1681526020015f81526020015f81526020015f600b811115612fbd57612fbc6133bf565b5b8152602001606081526020015f151581526020015f151581526020015f81525090565b6040518060e001604052805f81526020015f73ffffffffffffffffffffffffffffffffffffffff1681526020015f73ffffffffffffffffffffffffffffffffffffffff1681526020015f81526020015f151581526020015f151581526020015f81525090565b5f5ffd5b5f5ffd5b5f7fffffffff0000000000000000000000000000000000000000000000000000000082169050919050565b6130828161304e565b811461308c575f5ffd5b50565b5f8135905061309d81613079565b92915050565b5f602082840312156130b8576130b7613046565b5b5f6130c58482850161308f565b91505092915050565b5f8115159050919050565b6130e2816130ce565b82525050565b5f6020820190506130fb5f8301846130d9565b92915050565b5f73ffffffffffffffffffffffffffffffffffffffff82169050919050565b5f61312a82613101565b9050919050565b61313a81613120565b8114613144575f5ffd5b50565b5f8135905061315581613131565b92915050565b5f602082840312156131705761316f613046565b5b5f61317d84828501613147565b91505092915050565b5f819050919050565b61319881613186565b82525050565b5f6040820190506131b15f83018561318f565b6131be602083018461318f565b9392505050565b5f6020820190506131d85f83018461318f565b92915050565b5f819050919050565b6131f0816131de565b81146131fa575f5ffd5b50565b5f8135905061320b816131e7565b92915050565b5f6020828403121561322657613225613046565b5b5f613233848285016131fd565b91505092915050565b613245816131de565b82525050565b5f60208201905061325e5f83018461323c565b92915050565b61326d81613120565b82525050565b5f60a0820190506132865f830188613264565b613293602083018761318f565b6132a0604083018661318f565b6132ad606083018561318f565b6132ba60808301846130d9565b9695505050505050565b5f5f604083850312156132da576132d9613046565b5b5f6132e7858286016131fd565b92505060206132f885828601613147565b9150509250929050565b61330b81613186565b8114613315575f5ffd5b50565b5f8135905061332681613302565b92915050565b613335816130ce565b811461333f575f5ffd5b50565b5f813590506133508161332c565b92915050565b5f5f6040838503121561336c5761336b613046565b5b5f61337985828601613318565b925050602061338a85828601613342565b9150509250929050565b5f602082840312156133a9576133a8613046565b5b5f6133b684828501613318565b91505092915050565b7f4e487b71000000000000000000000000000000000000000000000000000000005f52602160045260245ffd5b600c81106133fd576133fc6133bf565b5b50565b5f81905061340d826133ec565b919050565b5f61341c82613400565b9050919050565b61342c81613412565b82525050565b5f81519050919050565b5f82825260208201905092915050565b8281835e5f83830152505050565b5f601f19601f8301169050919050565b5f61347482613432565b61347e818561343c565b935061348e81856020860161344c565b6134978161345a565b840191505092915050565b5f610100820190506134b65f83018b613264565b6134c3602083018a61318f565b6134d0604083018961318f565b6134dd6060830188613423565b81810360808301526134ef818761346a565b90506134fe60a08301866130d9565b61350b60c08301856130d9565b61351860e083018461318f565b9998505050505050505050565b5f5f6040838503121561353b5761353a613046565b5b5f61354885828601613147565b925050602061355985828601613318565b9150509250929050565b5f60e0820190506135765f83018a61318f565b6135836020830189613264565b6135906040830188613264565b61359d606083018761318f565b6135aa60808301866130d9565b6135b760a08301856130d9565b6135c460c083018461318f565b98975050505050505050565b5f6020820190506135e35f830184613264565b92915050565b6135f281613120565b82525050565b61360181613186565b82525050565b613610816130ce565b82525050565b60a082015f82015161362a5f8501826135e9565b50602082015161363d60208501826135f8565b50604082015161365060408501826135f8565b50606082015161366360608501826135f8565b5060808201516136766080850182613607565b50505050565b5f60a08201905061368f5f830184613616565b92915050565b600c81106136a1575f5ffd5b50565b5f813590506136b281613695565b92915050565b5f5ffd5b5f5ffd5b5f5ffd5b5f5f83601f8401126136d9576136d86136b8565b5b8235905067ffffffffffffffff8111156136f6576136f56136bc565b5b602083019150836001820283011115613712576137116136c0565b5b9250929050565b5f5f5f5f5f6080868803121561373257613731613046565b5b5f61373f88828901613147565b955050602061375088828901613318565b9450506040613761888289016136a4565b935050606086013567ffffffffffffffff8111156137825761378161304a565b5b61378e888289016136c4565b92509250509295509295909350565b6137a681613412565b82525050565b5f82825260208201905092915050565b5f6137c682613432565b6137d081856137ac565b93506137e081856020860161344c565b6137e98161345a565b840191505092915050565b5f61010083015f83015161380a5f8601826135e9565b50602083015161381d60208601826135f8565b50604083015161383060408601826135f8565b506060830151613843606086018261379d565b506080830151848203608086015261385b82826137bc565b91505060a083015161387060a0860182613607565b5060c083015161388360c0860182613607565b5060e083015161389660e08601826135f8565b508091505092915050565b5f6020820190508181035f8301526138b981846137f4565b905092915050565b60e082015f8201516138d55f8501826135f8565b5060208201516138e860208501826135e9565b5060408201516138fb60408501826135e9565b50606082015161390e60608501826135f8565b5060808201516139216080850182613607565b5060a082015161393460a0850182613607565b5060c082015161394760c08501826135f8565b50505050565b5f60e0820190506139605f8301846138c1565b92915050565b7f4e487b71000000000000000000000000000000000000000000000000000000005f52601160045260245ffd5b5f61399d82613186565b91507fffffffffffffffffffffffffffffffffffffffffffffffffffffffffffffffff82036139cf576139ce613966565b5b600182019050919050565b7f616c7265616479207265736f6c766564000000000000000000000000000000005f82015250565b5f613a0e60108361343c565b9150613a19826139da565b602082019050919050565b5f6020820190508181035f830152613a3b81613a02565b9050919050565b5f613a4c82613186565b9150613a5783613186565b9250828202613a6581613186565b91508282048414831517613a7c57613a7b613966565b5b5092915050565b7f4e487b71000000000000000000000000000000000000000000000000000000005f52601260045260245ffd5b5f613aba82613186565b9150613ac583613186565b925082613ad557613ad4613a83565b5b828204905092915050565b5f613aea82613186565b9150613af583613186565b9250828203905081811115613b0d57613b0c613966565b5b92915050565b5f613b1d82613186565b9150613b2883613186565b9250828201905080821115613b4057613b3f613966565b5b92915050565b7f6163637572617465207369676e616c00000000000000000000000000000000005f82015250565b5f613b7a600f8361343c565b9150613b8582613b46565b602082019050919050565b5f604082019050613ba35f83018461318f565b8181036020830152613bb481613b6e565b905092915050565b5f606082019050613bcf5f8301866130d9565b613bdc6020830185613264565b613be9604083018461318f565b949350505050565b7f66616c7365207369676e616c00000000000000000000000000000000000000005f82015250565b5f613c25600c8361343c565b9150613c3082613bf1565b602082019050919050565b5f604082019050613c4e5f83018461318f565b8181036020830152613c5f81613c19565b905092915050565b5f613c7182613186565b91505f8203613c8357613c82613966565b5b600182039050919050565b7f7261746520746f6f2068696768000000000000000000000000000000000000005f82015250565b5f613cc2600d8361343c565b9150613ccd82613c8e565b602082019050919050565b5f6020820190508181035f830152613cef81613cb6565b9050919050565b5f81905092915050565b7f736c6173685261746500000000000000000000000000000000000000000000005f82015250565b5f613d34600983613cf6565b9150613d3f82613d00565b600982019050919050565b5f613d5482613d28565b9150819050919050565b7f4e487b71000000000000000000000000000000000000000000000000000000005f52602260045260245ffd5b5f6002820490506001821680613da257607f821691505b602082108103613db557613db4613d5e565b5b50919050565b7f7a65726f20746f6b656e000000000000000000000000000000000000000000005f82015250565b5f613def600a8361343c565b9150613dfa82613dbb565b602082019050919050565b5f6020820190508181035f830152613e1c81613de3565b9050919050565b7f616c726561647920737570706f727465640000000000000000000000000000005f82015250565b5f613e5760118361343c565b9150613e6282613e23565b602082019050919050565b5f6020820190508181035f830152613e8481613e4b565b9050919050565b7f616464546f6b656e0000000000000000000000000000000000000000000000005f82015250565b5f613ebf600883613cf6565b9150613eca82613e8b565b600882019050919050565b5f613edf82613eb3565b9150819050919050565b7f6e6f7420726567697374657265640000000000000000000000000000000000005f82015250565b5f613f1d600e8361343c565b9150613f2882613ee9565b602082019050919050565b5f6020820190508181035f830152613f4a81613f11565b9050919050565b7f6861732070656e64696e672064697370757465730000000000000000000000005f82015250565b5f613f8560148361343c565b9150613f9082613f51565b602082019050919050565b5f6020820190508181035f830152613fb281613f79565b9050919050565b7f4e487b71000000000000000000000000000000000000000000000000000000005f52604160045260245ffd5b5f819050815f5260205f209050919050565b5f6020601f8301049050919050565b5f82821b905092915050565b5f600883026140427fffffffffffffffffffffffffffffffffffffffffffffffffffffffffffffffff82614007565b61404c8683614007565b95508019841693508086168417925050509392505050565b5f819050919050565b5f61408761408261407d84613186565b614064565b613186565b9050919050565b5f819050919050565b6140a08361406d565b6140b46140ac8261408e565b848454614013565b825550505050565b5f5f905090565b6140cb6140bc565b6140d6818484614097565b505050565b5b818110156140f9576140ee5f826140c3565b6001810190506140dc565b5050565b601f82111561413e5761410f81613fe6565b61411884613ff8565b81016020851015614127578190505b61413b61413385613ff8565b8301826140db565b50505b505050565b5f82821c905092915050565b5f61415e5f1984600802614143565b1980831691505092915050565b5f614176838361414f565b9150826002028217905092915050565b61418f82613432565b67ffffffffffffffff8111156141a8576141a7613fb9565b5b6141b28254613d8b565b6141bd8282856140fd565b5f60209050601f8311600181146141ee575f84156141dc578287015190505b6141e6858261416b565b86555061424d565b601f1984166141fc86613fe6565b5f5b82811015614223578489015182556001820191506020850194506020810190506141fe565b86831015614240578489015161423c601f89168261414f565b8355505b6001600288020188555050505b505050505050565b7f61636375726163795265776172645261746500000000000000000000000000005f82015250565b5f614289601283613cf6565b915061429482614255565b601282019050919050565b5f6142a98261427d565b9150819050919050565b7f6e6f207369676e616c00000000000000000000000000000000000000000000005f82015250565b5f6142e760098361343c565b91506142f2826142b3565b602082019050919050565b5f6020820190508181035f830152614314816142db565b9050919050565b7f616c7265616479206469737075746564000000000000000000000000000000005f82015250565b5f61434f60108361343c565b915061435a8261431b565b602082019050919050565b5f6020820190508181035f83015261437c81614343565b9050919050565b7f6469737075746520706572696f6420636c6f73656400000000000000000000005f82015250565b5f6143b760158361343c565b91506143c282614383565b602082019050919050565b5f6020820190508181035f8301526143e4816143ab565b9050919050565b7f626f6e64207472616e73666572206661696c65640000000000000000000000005f82015250565b5f61441f60148361343c565b915061442a826143eb565b602082019050919050565b5f6020820190508181035f83015261444c81614413565b9050919050565b7f706572696f6420746f6f2073686f7274000000000000000000000000000000005f82015250565b5f61448760108361343c565b915061449282614453565b602082019050919050565b5f6020820190508181035f8301526144b48161447b565b9050919050565b7f64697370757465506572696f64000000000000000000000000000000000000005f82015250565b5f6144ef600d83613cf6565b91506144fa826144bb565b600d82019050919050565b5f61450f826144e3565b9150819050919050565b7f7a65726f2061726269747261746f7200000000000000000000000000000000005f82015250565b5f61454d600f8361343c565b915061455882614519565b602082019050919050565b5f6020820190508181035f83015261457a81614541565b9050919050565b7f61726269747261746f72000000000000000000000000000000000000000000005f82015250565b5f6145b5600a83613cf6565b91506145c082614581565b600a82019050919050565b5f6145d5826145a9565b9150819050919050565b7f756e737570706f7274656420746f6b656e0000000000000000000000000000005f82015250565b5f61461360118361343c565b915061461e826145df565b602082019050919050565b5f6020820190508181035f83015261464081614607565b9050919050565b7f626f6e6420746f6f20736d616c6c0000000000000000000000000000000000005f82015250565b5f61467b600e8361343c565b915061468682614647565b602082019050919050565b5f6020820190508181035f8301526146a88161466f565b9050919050565b7f616c7265616479207265676973746572656400000000000000000000000000005f82015250565b5f6146e360128361343c565b91506146ee826146af565b602082019050919050565b5f6020820190508181035f830152614710816146d7565b9050919050565b7f6f6e6c792061726269747261746f7200000000000000000000000000000000005f82015250565b5f61474b600f8361343c565b915061475682614717565b602082019050919050565b5f6020820190508181035f8301526147788161473f565b9050919050565b7f696e73756666696369656e7420657468000000000000000000000000000000005f82015250565b5f6147b360108361343c565b91506147be8261477f565b602082019050919050565b5f6020820190508181035f8301526147e0816147a7565b9050919050565b5f81905092915050565b50565b5f6147ff5f836147e7565b915061480a826147f1565b5f82019050919050565b5f61481e826147f4565b9150819050919050565b5f60608201905061483b5f830186613264565b6148486020830185613264565b614855604083018461318f565b949350505050565b5f81519050919050565b5f6148718261485d565b61487b81856147e7565b935061488b81856020860161344c565b80840191505092915050565b5f6148a28284614867565b915081905092915050565b5f815190506148bb8161332c565b92915050565b5f602082840312156148d6576148d5613046565b5b5f6148e3848285016148ad565b91505092915050565b7f6f6e6c792061646d696e000000000000000000000000000000000000000000005f82015250565b5f614920600a8361343c565b915061492b826148ec565b602082019050919050565b5f6020820190508181035f83015261494d81614914565b9050919050565b7f6e6f7420616374697665207265706f72746572000000000000000000000000005f82015250565b5f61498860138361343c565b915061499382614954565b602082019050919050565b5f6020820190508181035f8301526149b58161497c565b9050919050565b5f6040820190506149cf5f830185613264565b6149dc602083018461323c565b939250505056fea2646970667358221220fb01e0737f78533d4c467be1e3b4035612f15f037b47d9230412e7a6072b94a964736f6c634300081e0033","linkReferences":{}},"methodIdentifiers":{"ARBITRATOR_ROLE()":"9cea0787","DEFAULT_ADMIN_ROLE()":"a217fddf","PARAMETER_SETTER_ROLE()":"5de207cc","accuracyRewardRate()":"662d4e38","addSupportedToken(address,uint256)":"4d8e3d3b","arbitrationTime()":"fb44b58f","arbitrator()":"6cc6cde1","disputePeriod()":"5bf31d4d","disputes(uint256)":"564a565d","getAccuracyRate(address)":"0d0aa38e","getDispute(uint256)":"e3a96cbd","getReporter(address)":"732995af","getRoleAdmin(bytes32)":"248a9ca3","getSignal(uint256)":"828e58e2","grantRole(bytes32,address)":"2f2ff15d","hasRole(bytes32,address)":"91d14854","isTokenSupported(address)":"75151b63","nextDisputeId()":"0db39934","nextSignalId()":"b0c3b8ef","owner()":"8da5cb5b","raiseDispute(uint256)":"a5c1674e","recordSignal(address,uint256,uint8,string)":"8209c5b8","registerReporter(address,uint256)":"c122ef2f","registeredReporters(uint256)":"dcf63382","renounceRole(bytes32,address)":"36568abe","reporters(address)":"2cc1cd9e","resolveDispute(uint256,bool)":"34b25ee2","revokeRole(bytes32,address)":"d547741f","setAccuracyRewardRate(uint256)":"85c34c5b","setArbitrator(address)":"b0eefabe","setDisputePeriod(uint256)":"a83ba53e","setSlashRate(uint256)":"4151766b","signals(uint256)":"47c740cd","slashRate()":"e341181d","supportedTokens(uint256)":"c6255626","supportsInterface(bytes4)":"01ffc9a7","tokenMinBond(address)":"f7dda078","unregisterReporter()":"577fb581"},"id":30}