{"abi":[{"type":"constructor","inputs":[],"stateMutability":"nonpayable"},{"type":"function","name":"bonds","inputs":[{"name":"","type":"uint256","internalType":"uint256"}],"outputs":[{"name":"","type":"uint256","internalType":"uint256"}],"stateMutability":"view"},{"type":"function","name":"chains","inputs":[{"name":"","type":"uint256","internalType":"uint256"}],"outputs":[{"name":"operator","type":"address","internalType":"address"},{"name":"metadataURI","type":"string","internalType":"string"},{"name":"heartbeatThreshold","type":"uint256","internalType":"uint256"},{"name":"exists","type":"bool","internalType":"bool"},{"name":"monitor","type":"address","internalType":"address"}],"stateMutability":"view"},{"type":"function","name":"depositBond","inputs":[{"name":"chainId","type":"uint256","internalType":"uint256"}],"outputs":[],"stateMutability":"payable"},{"type":"function","name":"getBond","inputs":[{"name":"chainId","type":"uint256","internalType":"uint256"}],"outputs":[{"name":"","type":"uint256","internalType":"uint256"}],"stateMutability":"view"},{"type":"function","name":"getChainMonitor","inputs":[{"name":"chainId","type":"uint256","internalType":"uint256"}],"outputs":[{"name":"","type":"address","internalType":"address"}],"stateMutability":"view"},{"type":"function","name":"getHeartbeatThreshold","inputs":[{"name":"chainId","type":"uint256","internalType":"uint256"}],"outputs":[{"name":"","type":"uint256","internalType":"uint256"}],"stateMutability":"view"},{"type":"function","name":"getOperator","inputs":[{"name":"chainId","type":"uint256","internalType":"uint256"}],"outputs":[{"name":"","type":"address","internalType":"address"}],"stateMutability":"view"},{"type":"function","name":"monitor","inputs":[],"outputs":[{"name":"","type":"address","internalType":"address"}],"stateMutability":"view"},{"type":"function","name":"owner","inputs":[],"outputs":[{"name":"","type":"address","internalType":"address"}],"stateMutability":"view"},{"type":"function","name":"registerChain","inputs":[{"name":"chainId","type":"uint256","internalType":"uint256"},{"name":"operator","type":"address","internalType":"address"},{"name":"metadataURI","type":"string","internalType":"string"},{"name":"heartbeatThreshold","type":"uint256","internalType":"uint256"}],"outputs":[],"stateMutability":"nonpayable"},{"type":"function","name":"setChainMonitor","inputs":[{"name":"chainId","type":"uint256","internalType":"uint256"},{"name":"_monitor","type":"address","internalType":"address"}],"outputs":[],"stateMutability":"nonpayable"},{"type":"function","name":"setHeartbeatThreshold","inputs":[{"name":"chainId","type":"uint256","internalType":"uint256"},{"name":"heartbeatThreshold","type":"uint256","internalType":"uint256"}],"outputs":[],"stateMutability":"nonpayable"},{"type":"function","name":"slashBond","inputs":[{"name":"chainId","type":"uint256","internalType":"uint256"},{"name":"amount","type":"uint256","internalType":"uint256"},{"name":"recipient","type":"address","internalType":"address payable"}],"outputs":[],"stateMutability":"nonpayable"},{"type":"function","name":"updateOperator","inputs":[{"name":"chainId","type":"uint256","internalType":"uint256"},{"name":"newOperator","type":"address","internalType":"address"}],"outputs":[],"stateMutability":"nonpayable"},{"type":"function","name":"withdrawBond","inputs":[{"name":"chainId","type":"uint256","internalType":"uint256"},{"name":"amount","type":"uint256","internalType":"uint256"}],"outputs":[],"stateMutability":"nonpayable"},{"type":"event","name":"BondWithdrawn","inputs":[{"name":"chainId","type":"uint256","indexed":true,"internalType":"uint256"},{"name":"operator","type":"address","indexed":true,"internalType":"address"},{"name":"amount","type":"uint256","indexed":false,"internalType":"uint256"}],"anonymous":false},{"type":"event","name":"ChainRegistered","inputs":[{"name":"chainId","type":"uint256","indexed":true,"internalType":"uint256"},{"name":"operator","type":"address","indexed":true,"internalType":"address"},{"name":"metadataURI","type":"string","indexed":false,"internalType":"string"},{"name":"heartbeatThreshold","type":"uint256","indexed":false,"internalType":"uint256"}],"anonymous":false},{"type":"event","name":"ChainUpdated","inputs":[{"name":"chainId","type":"uint256","indexed":true,"internalType":"uint256"},{"name":"operator","type":"address","indexed":true,"internalType":"address"},{"name":"heartbeatThreshold","type":"uint256","indexed":false,"internalType":"uint256"}],"anonymous":false},{"type":"event","name":"OwnershipTransferred","inputs":[{"name":"previousOwner","type":"address","indexed":true,"internalType":"address"},{"name":"newOwner","type":"address","indexed":true,"internalType":"address"}],"anonymous":false}],"bytecode":{"object":"0x6080604052348015600e575f5ffd5b50335f5f6101000a81548173ffffffffffffffffffffffffffffffffffffffff021916908373ffffffffffffffffffffffffffffffffffffffff1602179055505f5f9054906101000a900473ffffffffffffffffffffffffffffffffffffffff1673ffffffffffffffffffffffffffffffffffffffff165f73ffffffffffffffffffffffffffffffffffffffff167f8be0079c531659141344cd1fd0a4f28419497f9722a3daafe3b4186f6b6457e060405160405180910390a36122b3806100d55f395ff3fe6080604052600436106100e7575f3560e01c806383db1f6a11610089578063c65a391d11610058578063c65a391d14610303578063c749c4301461032b578063d8fe764214610353578063eecfd2ce1461038f576100e7565b806383db1f6a1461024d5780638da5cb5b146102755780638ed0717e1461029f57806394b2c958146102db576100e7565b80634dcb05f9116100c55780634dcb05f91461018d578063550325b5146101a95780635f1c17c0146101e95780636ffcdfc014610225576100e7565b806305f63c8a146100eb5780633241992a146101275780634d6f45d414610151575b5f5ffd5b3480156100f6575f5ffd5b50610111600480360381019061010c91906115d6565b6103b7565b60405161011e9190611640565b60405180910390f35b348015610132575f5ffd5b5061013b6103f2565b6040516101489190611640565b60405180910390f35b34801561015c575f5ffd5b50610177600480360381019061017291906115d6565b610417565b6040516101849190611640565b60405180910390f35b6101a760048036038101906101a291906115d6565b610454565b005b3480156101b4575f5ffd5b506101cf60048036038101906101ca91906115d6565b6105c0565b6040516101e09594939291906116f2565b60405180910390f35b3480156101f4575f5ffd5b5061020f600480360381019061020a91906115d6565b6106c3565b60405161021c919061174a565b60405180910390f35b348015610230575f5ffd5b5061024b60048036038101906102469190611763565b6106d8565b005b348015610258575f5ffd5b50610273600480360381019061026e91906117dc565b610a7e565b005b348015610280575f5ffd5b50610289610c7f565b6040516102969190611640565b60405180910390f35b3480156102aa575f5ffd5b506102c560048036038101906102c091906115d6565b610ca3565b6040516102d2919061174a565b60405180910390f35b3480156102e6575f5ffd5b5061030160048036038101906102fc9190611763565b610cc0565b005b34801561030e575f5ffd5b5061032960048036038101906103249190611856565b610e5e565b005b348015610336575f5ffd5b50610351600480360381019061034c9190611856565b611084565b005b34801561035e575f5ffd5b50610379600480360381019061037491906115d6565b611249565b604051610386919061174a565b60405180910390f35b34801561039a575f5ffd5b506103b560048036038101906103b091906118f5565b611263565b005b5f60015f8381526020019081526020015f205f015f9054906101000a900473ffffffffffffffffffffffffffffffffffffffff169050919050565b60035f9054906101000a900473ffffffffffffffffffffffffffffffffffffffff1681565b5f60015f8381526020019081526020015f2060030160019054906101000a900473ffffffffffffffffffffffffffffffffffffffff169050919050565b60015f8281526020019081526020015f206003015f9054906101000a900460ff166104b4576040517f08c379a00000000000000000000000000000000000000000000000000000000081526004016104ab906119c3565b60405180910390fd5b60015f8281526020019081526020015f205f015f9054906101000a900473ffffffffffffffffffffffffffffffffffffffff1673ffffffffffffffffffffffffffffffffffffffff163373ffffffffffffffffffffffffffffffffffffffff1614610554576040517f08c379a000000000000000000000000000000000000000000000000000000000815260040161054b90611a2b565b60405180910390fd5b5f3411610596576040517f08c379a000000000000000000000000000000000000000000000000000000000815260040161058d90611a93565b60405180910390fd5b3460025f8381526020019081526020015f205f8282546105b69190611ade565b9250508190555050565b6001602052805f5260405f205f91509050805f015f9054906101000a900473ffffffffffffffffffffffffffffffffffffffff169080600101805461060490611b3e565b80601f016020809104026020016040519081016040528092919081815260200182805461063090611b3e565b801561067b5780601f106106525761010080835404028352916020019161067b565b820191905f5260205f20905b81548152906001019060200180831161065e57829003601f168201915b505050505090806002015490806003015f9054906101000a900460ff16908060030160019054906101000a900473ffffffffffffffffffffffffffffffffffffffff16905085565b6002602052805f5260405f205f915090505481565b60015f8381526020019081526020015f206003015f9054906101000a900460ff16610738576040517f08c379a000000000000000000000000000000000000000000000000000000000815260040161072f906119c3565b60405180910390fd5b60015f8381526020019081526020015f205f015f9054906101000a900473ffffffffffffffffffffffffffffffffffffffff1673ffffffffffffffffffffffffffffffffffffffff163373ffffffffffffffffffffffffffffffffffffffff16146107d8576040517f08c379a00000000000000000000000000000000000000000000000000000000081526004016107cf90611a2b565b60405180910390fd5b5f60025f8481526020019081526020015f205490505f821180156107fc5750808211155b61083b576040517f08c379a000000000000000000000000000000000000000000000000000000000815260040161083290611bb8565b60405180910390fd5b5f60015f8581526020019081526020015f2060030160019054906101000a900473ffffffffffffffffffffffffffffffffffffffff1690505f73ffffffffffffffffffffffffffffffffffffffff168173ffffffffffffffffffffffffffffffffffffffff161461095f578073ffffffffffffffffffffffffffffffffffffffff1663cf15ff9b856040518263ffffffff1660e01b81526004016108df919061174a565b602060405180830381865afa1580156108fa573d5f5f3e3d5ffd5b505050506040513d601f19601f8201168201806040525081019061091e9190611c00565b1561095e576040517f08c379a000000000000000000000000000000000000000000000000000000000815260040161095590611c75565b60405180910390fd5b5b828261096b9190611c93565b60025f8681526020019081526020015f20819055505f3373ffffffffffffffffffffffffffffffffffffffff16846040516109a590611cf3565b5f6040518083038185875af1925050503d805f81146109df576040519150601f19603f3d011682016040523d82523d5f602084013e6109e4565b606091505b5050905080610a28576040517f08c379a0000000000000000000000000000000000000000000000000000000008152600401610a1f90611d51565b60405180910390fd5b3373ffffffffffffffffffffffffffffffffffffffff16857f379aa75a3ce753638a787f85ad8655bba22deba4d9746a0f907b88ab44d18df986604051610a6f919061174a565b60405180910390a35050505050565b60015f8481526020019081526020015f206003015f9054906101000a900460ff16610ade576040517f08c379a0000000000000000000000000000000000000000000000000000000008152600401610ad5906119c3565b60405180910390fd5b60015f8481526020019081526020015f2060030160019054906101000a900473ffffffffffffffffffffffffffffffffffffffff1673ffffffffffffffffffffffffffffffffffffffff163373ffffffffffffffffffffffffffffffffffffffff1614610b80576040517f08c379a0000000000000000000000000000000000000000000000000000000008152600401610b7790611db9565b60405180910390fd5b5f60025f8581526020019081526020015f2054905080831115610ba1578092505b5f8303610bae5750610c7a565b8281610bba9190611c93565b60025f8681526020019081526020015f20819055505f8273ffffffffffffffffffffffffffffffffffffffff1684604051610bf490611cf3565b5f6040518083038185875af1925050503d805f8114610c2e576040519150601f19603f3d011682016040523d82523d5f602084013e610c33565b606091505b5050905080610c77576040517f08c379a0000000000000000000000000000000000000000000000000000000008152600401610c6e90611d51565b60405180910390fd5b50505b505050565b5f5f9054906101000a900473ffffffffffffffffffffffffffffffffffffffff1681565b5f60015f8381526020019081526020015f20600201549050919050565b60015f8381526020019081526020015f206003015f9054906101000a900460ff16610d20576040517f08c379a0000000000000000000000000000000000000000000000000000000008152600401610d17906119c3565b60405180910390fd5b60015f8381526020019081526020015f205f015f9054906101000a900473ffffffffffffffffffffffffffffffffffffffff1673ffffffffffffffffffffffffffffffffffffffff163373ffffffffffffffffffffffffffffffffffffffff1614610dc0576040517f08c379a0000000000000000000000000000000000000000000000000000000008152600401610db790611a2b565b60405180910390fd5b8060015f8481526020019081526020015f206002018190555060015f8381526020019081526020015f205f015f9054906101000a900473ffffffffffffffffffffffffffffffffffffffff1673ffffffffffffffffffffffffffffffffffffffff16827f66c8bb2dd40684160712ab45155c9150a41b7357907e5fee065548cd7044d10883604051610e52919061174a565b60405180910390a35050565b60015f8381526020019081526020015f206003015f9054906101000a900460ff16610ebe576040517f08c379a0000000000000000000000000000000000000000000000000000000008152600401610eb5906119c3565b60405180910390fd5b60015f8381526020019081526020015f205f015f9054906101000a900473ffffffffffffffffffffffffffffffffffffffff1673ffffffffffffffffffffffffffffffffffffffff163373ffffffffffffffffffffffffffffffffffffffff1614610f5e576040517f08c379a0000000000000000000000000000000000000000000000000000000008152600401610f5590611a2b565b60405180910390fd5b5f73ffffffffffffffffffffffffffffffffffffffff168173ffffffffffffffffffffffffffffffffffffffff1603610fcc576040517f08c379a0000000000000000000000000000000000000000000000000000000008152600401610fc390611e21565b60405180910390fd5b8060015f8481526020019081526020015f205f015f6101000a81548173ffffffffffffffffffffffffffffffffffffffff021916908373ffffffffffffffffffffffffffffffffffffffff1602179055508073ffffffffffffffffffffffffffffffffffffffff16827f66c8bb2dd40684160712ab45155c9150a41b7357907e5fee065548cd7044d10860015f8681526020019081526020015f2060020154604051611078919061174a565b60405180910390a35050565b60015f8381526020019081526020015f206003015f9054906101000a900460ff166110e4576040517f08c379a00000000000000000000000000000000000000000000000000000000081526004016110db906119c3565b60405180910390fd5b60015f8381526020019081526020015f205f015f9054906101000a900473ffffffffffffffffffffffffffffffffffffffff1673ffffffffffffffffffffffffffffffffffffffff163373ffffffffffffffffffffffffffffffffffffffff1614611184576040517f08c379a000000000000000000000000000000000000000000000000000000000815260040161117b90611a2b565b60405180910390fd5b5f73ffffffffffffffffffffffffffffffffffffffff168173ffffffffffffffffffffffffffffffffffffffff16036111f2576040517f08c379a00000000000000000000000000000000000000000000000000000000081526004016111e990611e89565b60405180910390fd5b8060015f8481526020019081526020015f2060030160016101000a81548173ffffffffffffffffffffffffffffffffffffffff021916908373ffffffffffffffffffffffffffffffffffffffff1602179055505050565b5f60025f8381526020019081526020015f20549050919050565b61126b61150b565b60015f8681526020019081526020015f206003015f9054906101000a900460ff16156112cc576040517f08c379a00000000000000000000000000000000000000000000000000000000081526004016112c390611ef1565b60405180910390fd5b5f73ffffffffffffffffffffffffffffffffffffffff168473ffffffffffffffffffffffffffffffffffffffff160361133a576040517f08c379a000000000000000000000000000000000000000000000000000000000815260040161133190611e21565b60405180910390fd5b6040518060a001604052808573ffffffffffffffffffffffffffffffffffffffff16815260200184848080601f0160208091040260200160405190810160405280939291908181526020018383808284375f81840152601f19601f8201169050808301925050505050505081526020018281526020016001151581526020015f73ffffffffffffffffffffffffffffffffffffffff1681525060015f8781526020019081526020015f205f820151815f015f6101000a81548173ffffffffffffffffffffffffffffffffffffffff021916908373ffffffffffffffffffffffffffffffffffffffff160217905550602082015181600101908161143d91906120dc565b50604082015181600201556060820151816003015f6101000a81548160ff02191690831515021790555060808201518160030160016101000a81548173ffffffffffffffffffffffffffffffffffffffff021916908373ffffffffffffffffffffffffffffffffffffffff1602179055509050508373ffffffffffffffffffffffffffffffffffffffff16857f1e57a7f863d6bc4637f9b79edf29c9f79759f1ccda38ff64df48c70ed73e1fff8585856040516114fc939291906121e5565b60405180910390a35050505050565b5f5f9054906101000a900473ffffffffffffffffffffffffffffffffffffffff1673ffffffffffffffffffffffffffffffffffffffff163373ffffffffffffffffffffffffffffffffffffffff1614611599576040517f08c379a00000000000000000000000000000000000000000000000000000000081526004016115909061225f565b60405180910390fd5b565b5f5ffd5b5f5ffd5b5f819050919050565b6115b5816115a3565b81146115bf575f5ffd5b50565b5f813590506115d0816115ac565b92915050565b5f602082840312156115eb576115ea61159b565b5b5f6115f8848285016115c2565b91505092915050565b5f73ffffffffffffffffffffffffffffffffffffffff82169050919050565b5f61162a82611601565b9050919050565b61163a81611620565b82525050565b5f6020820190506116535f830184611631565b92915050565b5f81519050919050565b5f82825260208201905092915050565b8281835e5f83830152505050565b5f601f19601f8301169050919050565b5f61169b82611659565b6116a58185611663565b93506116b5818560208601611673565b6116be81611681565b840191505092915050565b6116d2816115a3565b82525050565b5f8115159050919050565b6116ec816116d8565b82525050565b5f60a0820190506117055f830188611631565b81810360208301526117178187611691565b905061172660408301866116c9565b61173360608301856116e3565b6117406080830184611631565b9695505050505050565b5f60208201905061175d5f8301846116c9565b92915050565b5f5f604083850312156117795761177861159b565b5b5f611786858286016115c2565b9250506020611797858286016115c2565b9150509250929050565b5f6117ab82611601565b9050919050565b6117bb816117a1565b81146117c5575f5ffd5b50565b5f813590506117d6816117b2565b92915050565b5f5f5f606084860312156117f3576117f261159b565b5b5f611800868287016115c2565b9350506020611811868287016115c2565b9250506040611822868287016117c8565b9150509250925092565b61183581611620565b811461183f575f5ffd5b50565b5f813590506118508161182c565b92915050565b5f5f6040838503121561186c5761186b61159b565b5b5f611879858286016115c2565b925050602061188a85828601611842565b9150509250929050565b5f5ffd5b5f5ffd5b5f5ffd5b5f5f83601f8401126118b5576118b4611894565b5b8235905067ffffffffffffffff8111156118d2576118d1611898565b5b6020830191508360018202830111156118ee576118ed61189c565b5b9250929050565b5f5f5f5f5f6080868803121561190e5761190d61159b565b5b5f61191b888289016115c2565b955050602061192c88828901611842565b945050604086013567ffffffffffffffff81111561194d5761194c61159f565b5b611959888289016118a0565b9350935050606061196c888289016115c2565b9150509295509295909350565b7f6e6f20636861696e0000000000000000000000000000000000000000000000005f82015250565b5f6119ad600883611663565b91506119b882611979565b602082019050919050565b5f6020820190508181035f8301526119da816119a1565b9050919050565b7f6e6f74206f70657261746f7200000000000000000000000000000000000000005f82015250565b5f611a15600c83611663565b9150611a20826119e1565b602082019050919050565b5f6020820190508181035f830152611a4281611a09565b9050919050565b7f6e6f2076616c75650000000000000000000000000000000000000000000000005f82015250565b5f611a7d600883611663565b9150611a8882611a49565b602082019050919050565b5f6020820190508181035f830152611aaa81611a71565b9050919050565b7f4e487b71000000000000000000000000000000000000000000000000000000005f52601160045260245ffd5b5f611ae8826115a3565b9150611af3836115a3565b9250828201905080821115611b0b57611b0a611ab1565b5b92915050565b7f4e487b71000000000000000000000000000000000000000000000000000000005f52602260045260245ffd5b5f6002820490506001821680611b5557607f821691505b602082108103611b6857611b67611b11565b5b50919050565b7f696e76616c696420616d6f756e740000000000000000000000000000000000005f82015250565b5f611ba2600e83611663565b9150611bad82611b6e565b602082019050919050565b5f6020820190508181035f830152611bcf81611b96565b9050919050565b611bdf816116d8565b8114611be9575f5ffd5b50565b5f81519050611bfa81611bd6565b92915050565b5f60208284031215611c1557611c1461159b565b5b5f611c2284828501611bec565b91505092915050565b7f696e20696e636964656e740000000000000000000000000000000000000000005f82015250565b5f611c5f600b83611663565b9150611c6a82611c2b565b602082019050919050565b5f6020820190508181035f830152611c8c81611c53565b9050919050565b5f611c9d826115a3565b9150611ca8836115a3565b9250828203905081811115611cc057611cbf611ab1565b5b92915050565b5f81905092915050565b50565b5f611cde5f83611cc6565b9150611ce982611cd0565b5f82019050919050565b5f611cfd82611cd3565b9150819050919050565b7f7472616e73666572206661696c656400000000000000000000000000000000005f82015250565b5f611d3b600f83611663565b9150611d4682611d07565b602082019050919050565b5f6020820190508181035f830152611d6881611d2f565b9050919050565b7f6f6e6c79206d6f6e69746f7200000000000000000000000000000000000000005f82015250565b5f611da3600c83611663565b9150611dae82611d6f565b602082019050919050565b5f6020820190508181035f830152611dd081611d97565b9050919050565b7f696e76616c6964206f70657261746f72000000000000000000000000000000005f82015250565b5f611e0b601083611663565b9150611e1682611dd7565b602082019050919050565b5f6020820190508181035f830152611e3881611dff565b9050919050565b7f7a65726f206d6f6e69746f7200000000000000000000000000000000000000005f82015250565b5f611e73600c83611663565b9150611e7e82611e3f565b602082019050919050565b5f6020820190508181035f830152611ea081611e67565b9050919050565b7f636861696e2065786973747300000000000000000000000000000000000000005f82015250565b5f611edb600c83611663565b9150611ee682611ea7565b602082019050919050565b5f6020820190508181035f830152611f0881611ecf565b9050919050565b7f4e487b71000000000000000000000000000000000000000000000000000000005f52604160045260245ffd5b5f819050815f5260205f209050919050565b5f6020601f8301049050919050565b5f82821b905092915050565b5f60088302611f987fffffffffffffffffffffffffffffffffffffffffffffffffffffffffffffffff82611f5d565b611fa28683611f5d565b95508019841693508086168417925050509392505050565b5f819050919050565b5f611fdd611fd8611fd3846115a3565b611fba565b6115a3565b9050919050565b5f819050919050565b611ff683611fc3565b61200a61200282611fe4565b848454611f69565b825550505050565b5f5f905090565b612021612012565b61202c818484611fed565b505050565b5b8181101561204f576120445f82612019565b600181019050612032565b5050565b601f8211156120945761206581611f3c565b61206e84611f4e565b8101602085101561207d578190505b61209161208985611f4e565b830182612031565b50505b505050565b5f82821c905092915050565b5f6120b45f1984600802612099565b1980831691505092915050565b5f6120cc83836120a5565b9150826002028217905092915050565b6120e582611659565b67ffffffffffffffff8111156120fe576120fd611f0f565b5b6121088254611b3e565b612113828285612053565b5f60209050601f831160018114612144575f8415612132578287015190505b61213c85826120c1565b8655506121a3565b601f19841661215286611f3c565b5f5b8281101561217957848901518255600182019150602085019450602081019050612154565b868310156121965784890151612192601f8916826120a5565b8355505b6001600288020188555050505b505050505050565b828183375f83830152505050565b5f6121c48385611663565b93506121d18385846121ab565b6121da83611681565b840190509392505050565b5f6040820190508181035f8301526121fe8185876121b9565b905061220d60208301846116c9565b949350505050565b7f6f6e6c79206f776e6572000000000000000000000000000000000000000000005f82015250565b5f612249600a83611663565b915061225482612215565b602082019050919050565b5f6020820190508181035f8301526122768161223d565b905091905056fea2646970667358221220493ecc6c45c6fe5121af3e3c3ad35dabb66724f3a6cc64d2c01384ad5ddc77b564736f6c634300081e0033","linkReferences":{}},"methodIdentifiers":{"bonds(uint256)":"5f1c17c0","chains(uint256)":"550325b5","depositBond(uint256)":"4dcb05f9","getBond(uint256)":"d8fe7642","getChainMonitor(uint256)":"4d6f45d4","getHeartbeatThreshold(uint256)":"8ed0717e","getOperator(uint256)":"05f63c8a","monitor()":"3241992a","owner()":"8da5cb5b","registerChain(uint256,address,string,uint256)":"eecfd2ce","setChainMonitor(uint256,address)":"c749c430","setHeartbeatThreshold(uint256,uint256)":"94b2c958","slashBond(uint256,uint256,address)":"83db1f6a","updateOperator(uint256,address)":"c65a391d","withdrawBond(uint256,uint256)":"6ffcdfc0"},"id":27}