{"abi":[{"type":"constructor","inputs":[],"stateMutability":"nonpayable"},{"type":"function","name":"bonds","inputs":[{"name":"","type":"uint256","internalType":"uint256"}],"outputs":[{"name":"","type":"uint256","internalType":"uint256"}],"stateMutability":"view"},{"type":"function","name":"chains","inputs":[{"name":"","type":"uint256","internalType":"uint256"}],"outputs":[{"name":"operator","type":"address","internalType":"address"},{"name":"metadataURI","type":"string","internalType":"string"},{"name":"heartbeatThreshold","type":"uint256","internalType":"uint256"},{"name":"exists","type":"bool","internalType":"bool"},{"name":"monitor","type":"address","internalType":"address"}],"stateMutability":"view"},{"type":"function","name":"depositBond","inputs":[{"name":"chainId","type":"uint256","internalType":"uint256"}],"outputs":[],"stateMutability":"payable"},{"type":"function","name":"getBond","inputs":[{"name":"chainId","type":"uint256","internalType":"uint256"}],"outputs":[{"name":"","type":"uint256","internalType":"uint256"}],"stateMutability":"view"},{"type":"function","name":"getChainMonitor","inputs":[{"name":"chainId","type":"uint256","internalType":"uint256"}],"outputs":[{"name":"","type":"address","internalType":"address"}],"stateMutability":"view"},{"type":"function","name":"getHeartbeatThreshold","inputs":[{"name":"chainId","type":"uint256","internalType":"uint256"}],"outputs":[{"name":"","type":"uint256","internalType":"uint256"}],"stateMutability":"view"},{"type":"function","name":"getOperator","inputs":[{"name":"chainId","type":"uint256","internalType":"uint256"}],"outputs":[{"name":"","type":"address","internalType":"address"}],"stateMutability":"view"},{"type":"function","name":"monitor","inputs":[],"outputs":[{"name":"","type":"address","internalType":"address"}],"stateMutability":"view"},{"type":"function","name":"owner","inputs":[],"outputs":[{"name":"","type":"address","internalType":"address"}],"stateMutability":"view"},{"type":"function","name":"registerChain","inputs":[{"name":"chainId","type":"uint256","internalType":"uint256"},{"name":"operator","type":"address","internalType":"address"},{"name":"metadataURI","type":"string","internalType":"string"},{"name":"heartbeatThreshold","type":"uint256","internalType":"uint256"}],"outputs":[],"stateMutability":"nonpayable"},{"type":"function","name":"setChainMonitor","inputs":[{"name":"chainId","type":"uint256","internalType":"uint256"},{"name":"_monitor","type":"address","internalType":"address"}],"outputs":[],"stateMutability":"nonpayable"},{"type":"function","name":"setHeartbeatThreshold","inputs":[{"name":"chainId","type":"uint256","internalType":"uint256"},{"name":"heartbeatThreshold","type":"uint256","internalType":"uint256"}],"outputs":[],"stateMutability":"nonpayable"},{"type":"function","name":"slashBond","inputs":[{"name":"chainId","type":"uint256","internalType":"uint256"},{"name":"amount","type":"uint256","internalType":"uint256"},{"name":"recipient","type":"address","internalType":"address payable"}],"outputs":[],"stateMutability":"nonpayable"},{"type":"function","name":"updateOperator","inputs":[{"name":"chainId","type":"uint256","internalType":"uint256"},{"name":"newOperator","type":"address","internalType":"address"}],"outputs":[],"stateMutability":"nonpayable"},{"type":"function","name":"withdrawBond","inputs":[{"name":"chainId","type":"uint256","internalType":"uint256"},{"name":"amount","type":"uint256","internalType":"uint256"}],"outputs":[],"stateMutability":"nonpayable"},{"type":"event","name":"BondWithdrawn","inputs":[{"name":"chainId","type":"uint256","indexed":true,"internalType":"uint256"},{"name":"operator","type":"address","indexed":true,"internalType":"address"},{"name":"amount","type":"uint256","indexed":false,"internalType":"uint256"}],"anonymous":false},{"type":"event","name":"ChainRegistered","inputs":[{"name":"chainId","type":"uint256","indexed":true,"internalType":"uint256"},{"name":"operator","type":"address","indexed":true,"internalType":"address"},{"name":"metadataURI","type":"string","indexed":false,"internalType":"string"},{"name":"heartbeatThreshold","type":"uint256","indexed":false,"internalType":"uint256"}],"anonymous":false},{"type":"event","name":"ChainUpdated","inputs":[{"name":"chainId","type":"uint256","indexed":true,"internalType":"uint256"},{"name":"operator","type":"address","indexed":true,"internalType":"address"},{"name":"heartbeatThreshold","type":"uint256","indexed":false,"internalType":"uint256"}],"anonymous":false},{"type":"event","name":"OwnershipTransferred","inputs":[{"name":"previousOwner","type":"address","indexed":true,"internalType":"address"},{"name":"newOwner","type":"address","indexed":true,"internalType":"address"}],"anonymous":false}],"bytecode":{"object":"0x6080604052348015600e575f5ffd5b50335f5f6101000a81548173ffffffffffffffffffffffffffffffffffffffff021916908373ffffffffffffffffffffffffffffffffffffffff1602179055505f5f9054906101000a900473ffffffffffffffffffffffffffffffffffffffff1673ffffffffffffffffffffffffffffffffffffffff165f73ffffffffffffffffffffffffffffffffffffffff167f8be0079c531659141344cd1fd0a4f28419497f9722a3daafe3b4186f6b6457e060405160405180910390a36122a9806100d55f395ff3fe6080604052600436106100e7575f3560e01c806383db1f6a11610089578063c65a391d11610058578063c65a391d14610303578063c749c4301461032b578063d8fe764214610353578063eecfd2ce1461038f576100e7565b806383db1f6a1461024d5780638da5cb5b146102755780638ed0717e1461029f57806394b2c958146102db576100e7565b80634dcb05f9116100c55780634dcb05f91461018d578063550325b5146101a95780635f1c17c0146101e95780636ffcdfc014610225576100e7565b806305f63c8a146100eb5780633241992a146101275780634d6f45d414610151575b5f5ffd5b3480156100f6575f5ffd5b50610111600480360381019061010c91906115cc565b6103b7565b60405161011e9190611636565b60405180910390f35b348015610132575f5ffd5b5061013b6103f2565b6040516101489190611636565b60405180910390f35b34801561015c575f5ffd5b50610177600480360381019061017291906115cc565b610417565b6040516101849190611636565b60405180910390f35b6101a760048036038101906101a291906115cc565b610454565b005b3480156101b4575f5ffd5b506101cf60048036038101906101ca91906115cc565b6105c0565b6040516101e09594939291906116e8565b60405180910390f35b3480156101f4575f5ffd5b5061020f600480360381019061020a91906115cc565b6106c3565b60405161021c9190611740565b60405180910390f35b348015610230575f5ffd5b5061024b60048036038101906102469190611759565b6106d8565b005b348015610258575f5ffd5b50610273600480360381019061026e91906117d2565b610a7e565b005b348015610280575f5ffd5b50610289610c7f565b6040516102969190611636565b60405180910390f35b3480156102aa575f5ffd5b506102c560048036038101906102c091906115cc565b610ca3565b6040516102d29190611740565b60405180910390f35b3480156102e6575f5ffd5b5061030160048036038101906102fc9190611759565b610cc0565b005b34801561030e575f5ffd5b506103296004803603810190610324919061184c565b610e5e565b005b348015610336575f5ffd5b50610351600480360381019061034c919061184c565b611084565b005b34801561035e575f5ffd5b50610379600480360381019061037491906115cc565b611249565b6040516103869190611740565b60405180910390f35b34801561039a575f5ffd5b506103b560048036038101906103b091906118eb565b611263565b005b5f60015f8381526020019081526020015f205f015f9054906101000a900473ffffffffffffffffffffffffffffffffffffffff169050919050565b60035f9054906101000a900473ffffffffffffffffffffffffffffffffffffffff1681565b5f60015f8381526020019081526020015f2060030160019054906101000a900473ffffffffffffffffffffffffffffffffffffffff169050919050565b60015f8281526020019081526020015f206003015f9054906101000a900460ff166104b4576040517f08c379a00000000000000000000000000000000000000000000000000000000081526004016104ab906119b9565b60405180910390fd5b60015f8281526020019081526020015f205f015f9054906101000a900473ffffffffffffffffffffffffffffffffffffffff1673ffffffffffffffffffffffffffffffffffffffff163373ffffffffffffffffffffffffffffffffffffffff1614610554576040517f08c379a000000000000000000000000000000000000000000000000000000000815260040161054b90611a21565b60405180910390fd5b5f3411610596576040517f08c379a000000000000000000000000000000000000000000000000000000000815260040161058d90611a89565b60405180910390fd5b3460025f8381526020019081526020015f205f8282546105b69190611ad4565b9250508190555050565b6001602052805f5260405f205f91509050805f015f9054906101000a900473ffffffffffffffffffffffffffffffffffffffff169080600101805461060490611b34565b80601f016020809104026020016040519081016040528092919081815260200182805461063090611b34565b801561067b5780601f106106525761010080835404028352916020019161067b565b820191905f5260205f20905b81548152906001019060200180831161065e57829003601f168201915b505050505090806002015490806003015f9054906101000a900460ff16908060030160019054906101000a900473ffffffffffffffffffffffffffffffffffffffff16905085565b6002602052805f5260405f205f915090505481565b60015f8381526020019081526020015f206003015f9054906101000a900460ff16610738576040517f08c379a000000000000000000000000000000000000000000000000000000000815260040161072f906119b9565b60405180910390fd5b60015f8381526020019081526020015f205f015f9054906101000a900473ffffffffffffffffffffffffffffffffffffffff1673ffffffffffffffffffffffffffffffffffffffff163373ffffffffffffffffffffffffffffffffffffffff16146107d8576040517f08c379a00000000000000000000000000000000000000000000000000000000081526004016107cf90611a21565b60405180910390fd5b5f60025f8481526020019081526020015f205490505f821180156107fc5750808211155b61083b576040517f08c379a000000000000000000000000000000000000000000000000000000000815260040161083290611bae565b60405180910390fd5b5f60015f8581526020019081526020015f2060030160019054906101000a900473ffffffffffffffffffffffffffffffffffffffff1690505f73ffffffffffffffffffffffffffffffffffffffff168173ffffffffffffffffffffffffffffffffffffffff161461095f578073ffffffffffffffffffffffffffffffffffffffff1663cf15ff9b856040518263ffffffff1660e01b81526004016108df9190611740565b602060405180830381865afa1580156108fa573d5f5f3e3d5ffd5b505050506040513d601f19601f8201168201806040525081019061091e9190611bf6565b1561095e576040517f08c379a000000000000000000000000000000000000000000000000000000000815260040161095590611c6b565b60405180910390fd5b5b828261096b9190611c89565b60025f8681526020019081526020015f20819055505f3373ffffffffffffffffffffffffffffffffffffffff16846040516109a590611ce9565b5f6040518083038185875af1925050503d805f81146109df576040519150601f19603f3d011682016040523d82523d5f602084013e6109e4565b606091505b5050905080610a28576040517f08c379a0000000000000000000000000000000000000000000000000000000008152600401610a1f90611d47565b60405180910390fd5b3373ffffffffffffffffffffffffffffffffffffffff16857f379aa75a3ce753638a787f85ad8655bba22deba4d9746a0f907b88ab44d18df986604051610a6f9190611740565b60405180910390a35050505050565b60015f8481526020019081526020015f206003015f9054906101000a900460ff16610ade576040517f08c379a0000000000000000000000000000000000000000000000000000000008152600401610ad5906119b9565b60405180910390fd5b60015f8481526020019081526020015f2060030160019054906101000a900473ffffffffffffffffffffffffffffffffffffffff1673ffffffffffffffffffffffffffffffffffffffff163373ffffffffffffffffffffffffffffffffffffffff1614610b80576040517f08c379a0000000000000000000000000000000000000000000000000000000008152600401610b7790611daf565b60405180910390fd5b5f60025f8581526020019081526020015f2054905080831115610ba1578092505b5f8303610bae5750610c7a565b8281610bba9190611c89565b60025f8681526020019081526020015f20819055505f8273ffffffffffffffffffffffffffffffffffffffff1684604051610bf490611ce9565b5f6040518083038185875af1925050503d805f8114610c2e576040519150601f19603f3d011682016040523d82523d5f602084013e610c33565b606091505b5050905080610c77576040517f08c379a0000000000000000000000000000000000000000000000000000000008152600401610c6e90611d47565b60405180910390fd5b50505b505050565b5f5f9054906101000a900473ffffffffffffffffffffffffffffffffffffffff1681565b5f60015f8381526020019081526020015f20600201549050919050565b60015f8381526020019081526020015f206003015f9054906101000a900460ff16610d20576040517f08c379a0000000000000000000000000000000000000000000000000000000008152600401610d17906119b9565b60405180910390fd5b60015f8381526020019081526020015f205f015f9054906101000a900473ffffffffffffffffffffffffffffffffffffffff1673ffffffffffffffffffffffffffffffffffffffff163373ffffffffffffffffffffffffffffffffffffffff1614610dc0576040517f08c379a0000000000000000000000000000000000000000000000000000000008152600401610db790611a21565b60405180910390fd5b8060015f8481526020019081526020015f206002018190555060015f8381526020019081526020015f205f015f9054906101000a900473ffffffffffffffffffffffffffffffffffffffff1673ffffffffffffffffffffffffffffffffffffffff16827f66c8bb2dd40684160712ab45155c9150a41b7357907e5fee065548cd7044d10883604051610e529190611740565b60405180910390a35050565b60015f8381526020019081526020015f206003015f9054906101000a900460ff16610ebe576040517f08c379a0000000000000000000000000000000000000000000000000000000008152600401610eb5906119b9565b60405180910390fd5b60015f8381526020019081526020015f205f015f9054906101000a900473ffffffffffffffffffffffffffffffffffffffff1673ffffffffffffffffffffffffffffffffffffffff163373ffffffffffffffffffffffffffffffffffffffff1614610f5e576040517f08c379a0000000000000000000000000000000000000000000000000000000008152600401610f5590611a21565b60405180910390fd5b5f73ffffffffffffffffffffffffffffffffffffffff168173ffffffffffffffffffffffffffffffffffffffff1603610fcc576040517f08c379a0000000000000000000000000000000000000000000000000000000008152600401610fc390611e17565b60405180910390fd5b8060015f8481526020019081526020015f205f015f6101000a81548173ffffffffffffffffffffffffffffffffffffffff021916908373ffffffffffffffffffffffffffffffffffffffff1602179055508073ffffffffffffffffffffffffffffffffffffffff16827f66c8bb2dd40684160712ab45155c9150a41b7357907e5fee065548cd7044d10860015f8681526020019081526020015f20600201546040516110789190611740565b60405180910390a35050565b60015f8381526020019081526020015f206003015f9054906101000a900460ff166110e4576040517f08c379a00000000000000000000000000000000000000000000000000000000081526004016110db906119b9565b60405180910390fd5b60015f8381526020019081526020015f205f015f9054906101000a900473ffffffffffffffffffffffffffffffffffffffff1673ffffffffffffffffffffffffffffffffffffffff163373ffffffffffffffffffffffffffffffffffffffff1614611184576040517f08c379a000000000000000000000000000000000000000000000000000000000815260040161117b90611a21565b60405180910390fd5b5f73ffffffffffffffffffffffffffffffffffffffff168173ffffffffffffffffffffffffffffffffffffffff16036111f2576040517f08c379a00000000000000000000000000000000000000000000000000000000081526004016111e990611e7f565b60405180910390fd5b8060015f8481526020019081526020015f2060030160016101000a81548173ffffffffffffffffffffffffffffffffffffffff021916908373ffffffffffffffffffffffffffffffffffffffff1602179055505050565b5f60025f8381526020019081526020015f20549050919050565b5f5f9054906101000a900473ffffffffffffffffffffffffffffffffffffffff1673ffffffffffffffffffffffffffffffffffffffff163373ffffffffffffffffffffffffffffffffffffffff16146112f1576040517f08c379a00000000000000000000000000000000000000000000000000000000081526004016112e890611ee7565b60405180910390fd5b60015f8681526020019081526020015f206003015f9054906101000a900460ff1615611352576040517f08c379a000000000000000000000000000000000000000000000000000000000815260040161134990611f4f565b60405180910390fd5b5f73ffffffffffffffffffffffffffffffffffffffff168473ffffffffffffffffffffffffffffffffffffffff16036113c0576040517f08c379a00000000000000000000000000000000000000000000000000000000081526004016113b790611e17565b60405180910390fd5b6040518060a001604052808573ffffffffffffffffffffffffffffffffffffffff16815260200184848080601f0160208091040260200160405190810160405280939291908181526020018383808284375f81840152601f19601f8201169050808301925050505050505081526020018281526020016001151581526020015f73ffffffffffffffffffffffffffffffffffffffff1681525060015f8781526020019081526020015f205f820151815f015f6101000a81548173ffffffffffffffffffffffffffffffffffffffff021916908373ffffffffffffffffffffffffffffffffffffffff16021790555060208201518160010190816114c3919061213a565b50604082015181600201556060820151816003015f6101000a81548160ff02191690831515021790555060808201518160030160016101000a81548173ffffffffffffffffffffffffffffffffffffffff021916908373ffffffffffffffffffffffffffffffffffffffff1602179055509050508373ffffffffffffffffffffffffffffffffffffffff16857f1e57a7f863d6bc4637f9b79edf29c9f79759f1ccda38ff64df48c70ed73e1fff85858560405161158293929190612243565b60405180910390a35050505050565b5f5ffd5b5f5ffd5b5f819050919050565b6115ab81611599565b81146115b5575f5ffd5b50565b5f813590506115c6816115a2565b92915050565b5f602082840312156115e1576115e0611591565b5b5f6115ee848285016115b8565b91505092915050565b5f73ffffffffffffffffffffffffffffffffffffffff82169050919050565b5f611620826115f7565b9050919050565b61163081611616565b82525050565b5f6020820190506116495f830184611627565b92915050565b5f81519050919050565b5f82825260208201905092915050565b8281835e5f83830152505050565b5f601f19601f8301169050919050565b5f6116918261164f565b61169b8185611659565b93506116ab818560208601611669565b6116b481611677565b840191505092915050565b6116c881611599565b82525050565b5f8115159050919050565b6116e2816116ce565b82525050565b5f60a0820190506116fb5f830188611627565b818103602083015261170d8187611687565b905061171c60408301866116bf565b61172960608301856116d9565b6117366080830184611627565b9695505050505050565b5f6020820190506117535f8301846116bf565b92915050565b5f5f6040838503121561176f5761176e611591565b5b5f61177c858286016115b8565b925050602061178d858286016115b8565b9150509250929050565b5f6117a1826115f7565b9050919050565b6117b181611797565b81146117bb575f5ffd5b50565b5f813590506117cc816117a8565b92915050565b5f5f5f606084860312156117e9576117e8611591565b5b5f6117f6868287016115b8565b9350506020611807868287016115b8565b9250506040611818868287016117be565b9150509250925092565b61182b81611616565b8114611835575f5ffd5b50565b5f8135905061184681611822565b92915050565b5f5f6040838503121561186257611861611591565b5b5f61186f858286016115b8565b925050602061188085828601611838565b9150509250929050565b5f5ffd5b5f5ffd5b5f5ffd5b5f5f83601f8401126118ab576118aa61188a565b5b8235905067ffffffffffffffff8111156118c8576118c761188e565b5b6020830191508360018202830111156118e4576118e3611892565b5b9250929050565b5f5f5f5f5f6080868803121561190457611903611591565b5b5f611911888289016115b8565b955050602061192288828901611838565b945050604086013567ffffffffffffffff81111561194357611942611595565b5b61194f88828901611896565b93509350506060611962888289016115b8565b9150509295509295909350565b7f6e6f20636861696e0000000000000000000000000000000000000000000000005f82015250565b5f6119a3600883611659565b91506119ae8261196f565b602082019050919050565b5f6020820190508181035f8301526119d081611997565b9050919050565b7f6e6f74206f70657261746f7200000000000000000000000000000000000000005f82015250565b5f611a0b600c83611659565b9150611a16826119d7565b602082019050919050565b5f6020820190508181035f830152611a38816119ff565b9050919050565b7f6e6f2076616c75650000000000000000000000000000000000000000000000005f82015250565b5f611a73600883611659565b9150611a7e82611a3f565b602082019050919050565b5f6020820190508181035f830152611aa081611a67565b9050919050565b7f4e487b71000000000000000000000000000000000000000000000000000000005f52601160045260245ffd5b5f611ade82611599565b9150611ae983611599565b9250828201905080821115611b0157611b00611aa7565b5b92915050565b7f4e487b71000000000000000000000000000000000000000000000000000000005f52602260045260245ffd5b5f6002820490506001821680611b4b57607f821691505b602082108103611b5e57611b5d611b07565b5b50919050565b7f696e76616c696420616d6f756e740000000000000000000000000000000000005f82015250565b5f611b98600e83611659565b9150611ba382611b64565b602082019050919050565b5f6020820190508181035f830152611bc581611b8c565b9050919050565b611bd5816116ce565b8114611bdf575f5ffd5b50565b5f81519050611bf081611bcc565b92915050565b5f60208284031215611c0b57611c0a611591565b5b5f611c1884828501611be2565b91505092915050565b7f696e20696e636964656e740000000000000000000000000000000000000000005f82015250565b5f611c55600b83611659565b9150611c6082611c21565b602082019050919050565b5f6020820190508181035f830152611c8281611c49565b9050919050565b5f611c9382611599565b9150611c9e83611599565b9250828203905081811115611cb657611cb5611aa7565b5b92915050565b5f81905092915050565b50565b5f611cd45f83611cbc565b9150611cdf82611cc6565b5f82019050919050565b5f611cf382611cc9565b9150819050919050565b7f7472616e73666572206661696c656400000000000000000000000000000000005f82015250565b5f611d31600f83611659565b9150611d3c82611cfd565b602082019050919050565b5f6020820190508181035f830152611d5e81611d25565b9050919050565b7f6f6e6c79206d6f6e69746f7200000000000000000000000000000000000000005f82015250565b5f611d99600c83611659565b9150611da482611d65565b602082019050919050565b5f6020820190508181035f830152611dc681611d8d565b9050919050565b7f696e76616c6964206f70657261746f72000000000000000000000000000000005f82015250565b5f611e01601083611659565b9150611e0c82611dcd565b602082019050919050565b5f6020820190508181035f830152611e2e81611df5565b9050919050565b7f7a65726f206d6f6e69746f7200000000000000000000000000000000000000005f82015250565b5f611e69600c83611659565b9150611e7482611e35565b602082019050919050565b5f6020820190508181035f830152611e9681611e5d565b9050919050565b7f6f6e6c79206f776e6572000000000000000000000000000000000000000000005f82015250565b5f611ed1600a83611659565b9150611edc82611e9d565b602082019050919050565b5f6020820190508181035f830152611efe81611ec5565b9050919050565b7f636861696e2065786973747300000000000000000000000000000000000000005f82015250565b5f611f39600c83611659565b9150611f4482611f05565b602082019050919050565b5f6020820190508181035f830152611f6681611f2d565b9050919050565b7f4e487b71000000000000000000000000000000000000000000000000000000005f52604160045260245ffd5b5f819050815f5260205f209050919050565b5f6020601f8301049050919050565b5f82821b905092915050565b5f60088302611ff67fffffffffffffffffffffffffffffffffffffffffffffffffffffffffffffffff82611fbb565b6120008683611fbb565b95508019841693508086168417925050509392505050565b5f819050919050565b5f61203b61203661203184611599565b612018565b611599565b9050919050565b5f819050919050565b61205483612021565b61206861206082612042565b848454611fc7565b825550505050565b5f5f905090565b61207f612070565b61208a81848461204b565b505050565b5b818110156120ad576120a25f82612077565b600181019050612090565b5050565b601f8211156120f2576120c381611f9a565b6120cc84611fac565b810160208510156120db578190505b6120ef6120e785611fac565b83018261208f565b50505b505050565b5f82821c905092915050565b5f6121125f19846008026120f7565b1980831691505092915050565b5f61212a8383612103565b9150826002028217905092915050565b6121438261164f565b67ffffffffffffffff81111561215c5761215b611f6d565b5b6121668254611b34565b6121718282856120b1565b5f60209050601f8311600181146121a2575f8415612190578287015190505b61219a858261211f565b865550612201565b601f1984166121b086611f9a565b5f5b828110156121d7578489015182556001820191506020850194506020810190506121b2565b868310156121f457848901516121f0601f891682612103565b8355505b6001600288020188555050505b505050505050565b828183375f83830152505050565b5f6122228385611659565b935061222f838584612209565b61223883611677565b840190509392505050565b5f6040820190508181035f83015261225c818587612217565b905061226b60208301846116bf565b94935050505056fea2646970667358221220746292c0687f6111a8472d20e49e95b238a9789568e0d5a4bb16126738e34d7664736f6c634300081e0033","linkReferences":{}},"methodIdentifiers":{"bonds(uint256)":"5f1c17c0","chains(uint256)":"550325b5","depositBond(uint256)":"4dcb05f9","getBond(uint256)":"d8fe7642","getChainMonitor(uint256)":"4d6f45d4","getHeartbeatThreshold(uint256)":"8ed0717e","getOperator(uint256)":"05f63c8a","monitor()":"3241992a","owner()":"8da5cb5b","registerChain(uint256,address,string,uint256)":"eecfd2ce","setChainMonitor(uint256,address)":"c749c430","setHeartbeatThreshold(uint256,uint256)":"94b2c958","slashBond(uint256,uint256,address)":"83db1f6a","updateOperator(uint256,address)":"c65a391d","withdrawBond(uint256,uint256)":"6ffcdfc0"},"id":26}