{"abi":[{"type":"constructor","inputs":[],"stateMutability":"nonpayable"},{"type":"function","name":"OPERATOR_TRANSFER_DELAY","inputs":[],"outputs":[{"name":"","type":"uint256","internalType":"uint256"}],"stateMutability":"view"},{"type":"function","name":"acceptOperatorTransfer","inputs":[{"name":"chainId","type":"uint256","internalType":"uint256"}],"outputs":[],"stateMutability":"nonpayable"},{"type":"function","name":"acceptOwnerTransfer","inputs":[],"outputs":[],"stateMutability":"nonpayable"},{"type":"function","name":"cancelOperatorTransfer","inputs":[{"name":"chainId","type":"uint256","internalType":"uint256"}],"outputs":[],"stateMutability":"nonpayable"},{"type":"function","name":"cancelOwnerTransfer","inputs":[],"outputs":[],"stateMutability":"nonpayable"},{"type":"function","name":"chains","inputs":[{"name":"","type":"uint256","internalType":"uint256"}],"outputs":[{"name":"operator","type":"address","internalType":"address"},{"name":"pendingOperator","type":"address","internalType":"address"},{"name":"operatorTransferTime","type":"uint256","internalType":"uint256"},{"name":"expectedBlockTime","type":"uint256","internalType":"uint256"},{"name":"maxBlockLag","type":"uint256","internalType":"uint256"},{"name":"isActive","type":"bool","internalType":"bool"},{"name":"name","type":"string","internalType":"string"}],"stateMutability":"view"},{"type":"function","name":"deactivateChain","inputs":[{"name":"chainId","type":"uint256","internalType":"uint256"}],"outputs":[],"stateMutability":"nonpayable"},{"type":"function","name":"getChain","inputs":[{"name":"chainId","type":"uint256","internalType":"uint256"}],"outputs":[{"name":"","type":"tuple","internalType":"struct OrbitChainRegistry.ChainConfig","components":[{"name":"operator","type":"address","internalType":"address"},{"name":"pendingOperator","type":"address","internalType":"address"},{"name":"operatorTransferTime","type":"uint256","internalType":"uint256"},{"name":"expectedBlockTime","type":"uint256","internalType":"uint256"},{"name":"maxBlockLag","type":"uint256","internalType":"uint256"},{"name":"isActive","type":"bool","internalType":"bool"},{"name":"name","type":"string","internalType":"string"}]}],"stateMutability":"view"},{"type":"function","name":"initiateOperatorTransfer","inputs":[{"name":"chainId","type":"uint256","internalType":"uint256"},{"name":"newOperator","type":"address","internalType":"address"}],"outputs":[],"stateMutability":"nonpayable"},{"type":"function","name":"initiateOwnerTransfer","inputs":[{"name":"newOwner","type":"address","internalType":"address"}],"outputs":[],"stateMutability":"nonpayable"},{"type":"function","name":"owner","inputs":[],"outputs":[{"name":"","type":"address","internalType":"address"}],"stateMutability":"view"},{"type":"function","name":"pendingOwner","inputs":[],"outputs":[{"name":"","type":"address","internalType":"address"}],"stateMutability":"view"},{"type":"function","name":"registerChain","inputs":[{"name":"chainId","type":"uint256","internalType":"uint256"},{"name":"operator","type":"address","internalType":"address"},{"name":"expectedBlockTime","type":"uint256","internalType":"uint256"},{"name":"maxBlockLag","type":"uint256","internalType":"uint256"},{"name":"name","type":"string","internalType":"string"}],"outputs":[],"stateMutability":"nonpayable"},{"type":"function","name":"updateThresholds","inputs":[{"name":"chainId","type":"uint256","internalType":"uint256"},{"name":"expectedBlockTime","type":"uint256","internalType":"uint256"},{"name":"maxBlockLag","type":"uint256","internalType":"uint256"}],"outputs":[],"stateMutability":"nonpayable"},{"type":"event","name":"ChainDeactivated","inputs":[{"name":"chainId","type":"uint256","indexed":true,"internalType":"uint256"}],"anonymous":false},{"type":"event","name":"ChainRegistered","inputs":[{"name":"chainId","type":"uint256","indexed":true,"internalType":"uint256"},{"name":"operator","type":"address","indexed":true,"internalType":"address"},{"name":"expectedBlockTime","type":"uint256","indexed":false,"internalType":"uint256"},{"name":"maxBlockLag","type":"uint256","indexed":false,"internalType":"uint256"},{"name":"name","type":"string","indexed":false,"internalType":"string"}],"anonymous":false},{"type":"event","name":"ChainUpdated","inputs":[{"name":"chainId","type":"uint256","indexed":true,"internalType":"uint256"},{"name":"expectedBlockTime","type":"uint256","indexed":false,"internalType":"uint256"},{"name":"maxBlockLag","type":"uint256","indexed":false,"internalType":"uint256"}],"anonymous":false},{"type":"event","name":"OperatorTransferAccepted","inputs":[{"name":"chainId","type":"uint256","indexed":true,"internalType":"uint256"},{"name":"newOperator","type":"address","indexed":true,"internalType":"address"}],"anonymous":false},{"type":"event","name":"OperatorTransferInitiated","inputs":[{"name":"chainId","type":"uint256","indexed":true,"internalType":"uint256"},{"name":"newOperator","type":"address","indexed":true,"internalType":"address"}],"anonymous":false},{"type":"event","name":"OwnerTransferAccepted","inputs":[{"name":"newOwner","type":"address","indexed":true,"internalType":"address"}],"anonymous":false},{"type":"event","name":"OwnerTransferInitiated","inputs":[{"name":"newOwner","type":"address","indexed":true,"internalType":"address"}],"anonymous":false}],"bytecode":{"object":"0x6080604052348015600e575f5ffd5b50335f5f6101000a81548173ffffffffffffffffffffffffffffffffffffffff021916908373ffffffffffffffffffffffffffffffffffffffff16021790555061234f8061005b5f395ff3fe608060405234801561000f575f5ffd5b50600436106100e8575f3560e01c8063797a12b21161008a578063b6791ad411610064578063b6791ad4146101fc578063bb02061b1461022c578063e30c39781461024a578063fd19e10c14610268576100e8565b8063797a12b2146101a6578063823d11b1146101c25780638da5cb5b146101de576100e8565b8063550325b5116100c6578063550325b51461012e57806357a069dd146101645780636d4016e014610180578063707a7ab31461019c576100e8565b80630460dafc146100ec5780630802648f14610108578063208d69aa14610112575b5f5ffd5b61010660048036038101906101019190611528565b610284565b005b61011061035a565b005b61012c600480360381019061012791906115ad565b6103a4565b005b61014860048036038101906101439190611528565b6105cd565b60405161015b9796959493929190611693565b60405180910390f35b61017e60048036038101906101799190611768565b6106db565b005b61019a600480360381019061019591906117fe565b610a37565b005b6101a4610bc1565b005b6101c060048036038101906101bb9190611528565b610d55565b005b6101dc60048036038101906101d79190611528565b610e18565b005b6101e66110e6565b6040516101f39190611829565b60405180910390f35b61021660048036038101906102119190611528565b61110a565b6040516102239190611950565b60405180910390f35b6102346112a6565b6040516102419190611970565b60405180910390f35b6102526112ad565b60405161025f9190611829565b60405180910390f35b610282600480360381019061027d9190611989565b6112d2565b005b61028c6113f8565b60025f8281526020019081526020015f206005015f9054906101000a900460ff166102ec576040517f08c379a00000000000000000000000000000000000000000000000000000000081526004016102e390611a23565b60405180910390fd5b5f60025f8381526020019081526020015f206001015f6101000a81548173ffffffffffffffffffffffffffffffffffffffff021916908373ffffffffffffffffffffffffffffffffffffffff1602179055505f60025f8381526020019081526020015f206002018190555050565b6103626113f8565b5f60015f6101000a81548173ffffffffffffffffffffffffffffffffffffffff021916908373ffffffffffffffffffffffffffffffffffffffff160217905550565b6103ac6113f8565b60025f8381526020019081526020015f206005015f9054906101000a900460ff1661040c576040517f08c379a000000000000000000000000000000000000000000000000000000000815260040161040390611a23565b60405180910390fd5b5f73ffffffffffffffffffffffffffffffffffffffff168173ffffffffffffffffffffffffffffffffffffffff160361047a576040517f08c379a000000000000000000000000000000000000000000000000000000000815260040161047190611a8b565b60405180910390fd5b60025f8381526020019081526020015f205f015f9054906101000a900473ffffffffffffffffffffffffffffffffffffffff1673ffffffffffffffffffffffffffffffffffffffff168173ffffffffffffffffffffffffffffffffffffffff160361051a576040517f08c379a000000000000000000000000000000000000000000000000000000000815260040161051190611af3565b60405180910390fd5b8060025f8481526020019081526020015f206001015f6101000a81548173ffffffffffffffffffffffffffffffffffffffff021916908373ffffffffffffffffffffffffffffffffffffffff1602179055504260025f8481526020019081526020015f20600201819055508073ffffffffffffffffffffffffffffffffffffffff16827f94d84e9abd4b5fbfb65921517efd0b9a44ff9513af989017948c9937aa76813160405160405180910390a35050565b6002602052805f5260405f205f91509050805f015f9054906101000a900473ffffffffffffffffffffffffffffffffffffffff1690806001015f9054906101000a900473ffffffffffffffffffffffffffffffffffffffff1690806002015490806003015490806004015490806005015f9054906101000a900460ff169080600601805461065a90611b3e565b80601f016020809104026020016040519081016040528092919081815260200182805461068690611b3e565b80156106d15780601f106106a8576101008083540402835291602001916106d1565b820191905f5260205f20905b8154815290600101906020018083116106b457829003601f168201915b5050505050905087565b6106e36113f8565b60025f8781526020019081526020015f206005015f9054906101000a900460ff1615610744576040517f08c379a000000000000000000000000000000000000000000000000000000000815260040161073b90611bb8565b60405180910390fd5b5f73ffffffffffffffffffffffffffffffffffffffff168573ffffffffffffffffffffffffffffffffffffffff16036107b2576040517f08c379a00000000000000000000000000000000000000000000000000000000081526004016107a990611c20565b60405180910390fd5b5f841180156107c057505f83115b6107ff576040517f08c379a00000000000000000000000000000000000000000000000000000000081526004016107f690611c88565b60405180910390fd5b5f8282905011610844576040517f08c379a000000000000000000000000000000000000000000000000000000000815260040161083b90611cf0565b60405180910390fd5b6040518060e001604052808673ffffffffffffffffffffffffffffffffffffffff1681526020015f73ffffffffffffffffffffffffffffffffffffffff1681526020015f815260200185815260200184815260200160011515815260200183838080601f0160208091040260200160405190810160405280939291908181526020018383808284375f81840152601f19601f8201169050808301925050505050505081525060025f8881526020019081526020015f205f820151815f015f6101000a81548173ffffffffffffffffffffffffffffffffffffffff021916908373ffffffffffffffffffffffffffffffffffffffff1602179055506020820151816001015f6101000a81548173ffffffffffffffffffffffffffffffffffffffff021916908373ffffffffffffffffffffffffffffffffffffffff16021790555060408201518160020155606082015181600301556080820151816004015560a0820151816005015f6101000a81548160ff02191690831515021790555060c08201518160060190816109d69190611edb565b509050508473ffffffffffffffffffffffffffffffffffffffff16867f0a196778a60d7cdce1b5b3b8f4a3090e49b2156cd67a0b4ac89ffdc9b80f15cc86868686604051610a279493929190611fe4565b60405180910390a3505050505050565b610a3f6113f8565b5f73ffffffffffffffffffffffffffffffffffffffff168173ffffffffffffffffffffffffffffffffffffffff1603610aad576040517f08c379a0000000000000000000000000000000000000000000000000000000008152600401610aa49061206c565b60405180910390fd5b5f5f9054906101000a900473ffffffffffffffffffffffffffffffffffffffff1673ffffffffffffffffffffffffffffffffffffffff168173ffffffffffffffffffffffffffffffffffffffff1603610b3b576040517f08c379a0000000000000000000000000000000000000000000000000000000008152600401610b32906120d4565b60405180910390fd5b8060015f6101000a81548173ffffffffffffffffffffffffffffffffffffffff021916908373ffffffffffffffffffffffffffffffffffffffff1602179055508073ffffffffffffffffffffffffffffffffffffffff167f96b3b36cf7b05f340b515f0af8f8e5f829ac74cb6c92397feaf01452deded82860405160405180910390a250565b60015f9054906101000a900473ffffffffffffffffffffffffffffffffffffffff1673ffffffffffffffffffffffffffffffffffffffff163373ffffffffffffffffffffffffffffffffffffffff1614610c50576040517f08c379a0000000000000000000000000000000000000000000000000000000008152600401610c479061213c565b60405180910390fd5b60015f9054906101000a900473ffffffffffffffffffffffffffffffffffffffff165f5f6101000a81548173ffffffffffffffffffffffffffffffffffffffff021916908373ffffffffffffffffffffffffffffffffffffffff1602179055505f60015f6101000a81548173ffffffffffffffffffffffffffffffffffffffff021916908373ffffffffffffffffffffffffffffffffffffffff1602179055505f5f9054906101000a900473ffffffffffffffffffffffffffffffffffffffff1673ffffffffffffffffffffffffffffffffffffffff167f2a02d90acde622780ee8356f83770fd8168f9d002beb5626f3bd15062e06f0c960405160405180910390a2565b610d5d6113f8565b60025f8281526020019081526020015f206005015f9054906101000a900460ff16610dbd576040517f08c379a0000000000000000000000000000000000000000000000000000000008152600401610db490611a23565b60405180910390fd5b5f60025f8381526020019081526020015f206005015f6101000a81548160ff021916908315150217905550807fa370332e396d9f7f4863be46a33472830f7cdd4d88613633c02d144b8523e06c60405160405180910390a250565b60025f8281526020019081526020015f206005015f9054906101000a900460ff16610e78576040517f08c379a0000000000000000000000000000000000000000000000000000000008152600401610e6f90611a23565b60405180910390fd5b60025f8281526020019081526020015f206001015f9054906101000a900473ffffffffffffffffffffffffffffffffffffffff1673ffffffffffffffffffffffffffffffffffffffff163373ffffffffffffffffffffffffffffffffffffffff1614610f19576040517f08c379a0000000000000000000000000000000000000000000000000000000008152600401610f10906121a4565b60405180910390fd5b6202a30060025f8381526020019081526020015f206002015442610f3d91906121ef565b1015610f7e576040517f08c379a0000000000000000000000000000000000000000000000000000000008152600401610f759061226c565b60405180910390fd5b60025f8281526020019081526020015f206001015f9054906101000a900473ffffffffffffffffffffffffffffffffffffffff1660025f8381526020019081526020015f205f015f6101000a81548173ffffffffffffffffffffffffffffffffffffffff021916908373ffffffffffffffffffffffffffffffffffffffff1602179055505f60025f8381526020019081526020015f206001015f6101000a81548173ffffffffffffffffffffffffffffffffffffffff021916908373ffffffffffffffffffffffffffffffffffffffff1602179055505f60025f8381526020019081526020015f206002018190555060025f8281526020019081526020015f205f015f9054906101000a900473ffffffffffffffffffffffffffffffffffffffff1673ffffffffffffffffffffffffffffffffffffffff16817f919b52ffcfbe2a3034f94f40e910d9997c6403ee080e94a57dfcc514f2862df760405160405180910390a350565b5f5f9054906101000a900473ffffffffffffffffffffffffffffffffffffffff1681565b611112611488565b60025f8381526020019081526020015f206040518060e00160405290815f82015f9054906101000a900473ffffffffffffffffffffffffffffffffffffffff1673ffffffffffffffffffffffffffffffffffffffff1673ffffffffffffffffffffffffffffffffffffffff168152602001600182015f9054906101000a900473ffffffffffffffffffffffffffffffffffffffff1673ffffffffffffffffffffffffffffffffffffffff1673ffffffffffffffffffffffffffffffffffffffff168152602001600282015481526020016003820154815260200160048201548152602001600582015f9054906101000a900460ff1615151515815260200160068201805461121f90611b3e565b80601f016020809104026020016040519081016040528092919081815260200182805461124b90611b3e565b80156112965780601f1061126d57610100808354040283529160200191611296565b820191905f5260205f20905b81548152906001019060200180831161127957829003601f168201915b5050505050815250509050919050565b6202a30081565b60015f9054906101000a900473ffffffffffffffffffffffffffffffffffffffff1681565b6112da6113f8565b60025f8481526020019081526020015f206005015f9054906101000a900460ff1661133a576040517f08c379a000000000000000000000000000000000000000000000000000000000815260040161133190611a23565b60405180910390fd5b5f8211801561134857505f81115b611387576040517f08c379a000000000000000000000000000000000000000000000000000000000815260040161137e90611c88565b60405180910390fd5b8160025f8581526020019081526020015f20600301819055508060025f8581526020019081526020015f2060040181905550827fa2de5f16532999e2a7e49d7288acded3d4bd1f82d7c8442ab4432ae09f66f12983836040516113eb92919061228a565b60405180910390a2505050565b5f5f9054906101000a900473ffffffffffffffffffffffffffffffffffffffff1673ffffffffffffffffffffffffffffffffffffffff163373ffffffffffffffffffffffffffffffffffffffff1614611486576040517f08c379a000000000000000000000000000000000000000000000000000000000815260040161147d906122fb565b60405180910390fd5b565b6040518060e001604052805f73ffffffffffffffffffffffffffffffffffffffff1681526020015f73ffffffffffffffffffffffffffffffffffffffff1681526020015f81526020015f81526020015f81526020015f15158152602001606081525090565b5f5ffd5b5f5ffd5b5f819050919050565b611507816114f5565b8114611511575f5ffd5b50565b5f81359050611522816114fe565b92915050565b5f6020828403121561153d5761153c6114ed565b5b5f61154a84828501611514565b91505092915050565b5f73ffffffffffffffffffffffffffffffffffffffff82169050919050565b5f61157c82611553565b9050919050565b61158c81611572565b8114611596575f5ffd5b50565b5f813590506115a781611583565b92915050565b5f5f604083850312156115c3576115c26114ed565b5b5f6115d085828601611514565b92505060206115e185828601611599565b9150509250929050565b6115f481611572565b82525050565b611603816114f5565b82525050565b5f8115159050919050565b61161d81611609565b82525050565b5f81519050919050565b5f82825260208201905092915050565b8281835e5f83830152505050565b5f601f19601f8301169050919050565b5f61166582611623565b61166f818561162d565b935061167f81856020860161163d565b6116888161164b565b840191505092915050565b5f60e0820190506116a65f83018a6115eb565b6116b360208301896115eb565b6116c060408301886115fa565b6116cd60608301876115fa565b6116da60808301866115fa565b6116e760a0830185611614565b81810360c08301526116f9818461165b565b905098975050505050505050565b5f5ffd5b5f5ffd5b5f5ffd5b5f5f83601f84011261172857611727611707565b5b8235905067ffffffffffffffff8111156117455761174461170b565b5b6020830191508360018202830111156117615761176061170f565b5b9250929050565b5f5f5f5f5f5f60a08789031215611782576117816114ed565b5b5f61178f89828a01611514565b96505060206117a089828a01611599565b95505060406117b189828a01611514565b94505060606117c289828a01611514565b935050608087013567ffffffffffffffff8111156117e3576117e26114f1565b5b6117ef89828a01611713565b92509250509295509295509295565b5f60208284031215611813576118126114ed565b5b5f61182084828501611599565b91505092915050565b5f60208201905061183c5f8301846115eb565b92915050565b61184b81611572565b82525050565b61185a816114f5565b82525050565b61186981611609565b82525050565b5f82825260208201905092915050565b5f61188982611623565b611893818561186f565b93506118a381856020860161163d565b6118ac8161164b565b840191505092915050565b5f60e083015f8301516118cc5f860182611842565b5060208301516118df6020860182611842565b5060408301516118f26040860182611851565b5060608301516119056060860182611851565b5060808301516119186080860182611851565b5060a083015161192b60a0860182611860565b5060c083015184820360c0860152611943828261187f565b9150508091505092915050565b5f6020820190508181035f83015261196881846118b7565b905092915050565b5f6020820190506119835f8301846115fa565b92915050565b5f5f5f606084860312156119a05761199f6114ed565b5b5f6119ad86828701611514565b93505060206119be86828701611514565b92505060406119cf86828701611514565b9150509250925092565b7f6e6f20636861696e0000000000000000000000000000000000000000000000005f82015250565b5f611a0d60088361162d565b9150611a18826119d9565b602082019050919050565b5f6020820190508181035f830152611a3a81611a01565b9050919050565b7f7a65726f206f70657261746f72000000000000000000000000000000000000005f82015250565b5f611a75600d8361162d565b9150611a8082611a41565b602082019050919050565b5f6020820190508181035f830152611aa281611a69565b9050919050565b7f73616d65206f70657261746f72000000000000000000000000000000000000005f82015250565b5f611add600d8361162d565b9150611ae882611aa9565b602082019050919050565b5f6020820190508181035f830152611b0a81611ad1565b9050919050565b7f4e487b71000000000000000000000000000000000000000000000000000000005f52602260045260245ffd5b5f6002820490506001821680611b5557607f821691505b602082108103611b6857611b67611b11565b5b50919050565b7f636861696e2065786973747300000000000000000000000000000000000000005f82015250565b5f611ba2600c8361162d565b9150611bad82611b6e565b602082019050919050565b5f6020820190508181035f830152611bcf81611b96565b9050919050565b7f696e76616c6964206f70657261746f72000000000000000000000000000000005f82015250565b5f611c0a60108361162d565b9150611c1582611bd6565b602082019050919050565b5f6020820190508181035f830152611c3781611bfe565b9050919050565b7f696e76616c696420706172616d730000000000000000000000000000000000005f82015250565b5f611c72600e8361162d565b9150611c7d82611c3e565b602082019050919050565b5f6020820190508181035f830152611c9f81611c66565b9050919050565b7f656d707479206e616d65000000000000000000000000000000000000000000005f82015250565b5f611cda600a8361162d565b9150611ce582611ca6565b602082019050919050565b5f6020820190508181035f830152611d0781611cce565b9050919050565b7f4e487b71000000000000000000000000000000000000000000000000000000005f52604160045260245ffd5b5f819050815f5260205f209050919050565b5f6020601f8301049050919050565b5f82821b905092915050565b5f60088302611d977fffffffffffffffffffffffffffffffffffffffffffffffffffffffffffffffff82611d5c565b611da18683611d5c565b95508019841693508086168417925050509392505050565b5f819050919050565b5f611ddc611dd7611dd2846114f5565b611db9565b6114f5565b9050919050565b5f819050919050565b611df583611dc2565b611e09611e0182611de3565b848454611d68565b825550505050565b5f5f905090565b611e20611e11565b611e2b818484611dec565b505050565b5b81811015611e4e57611e435f82611e18565b600181019050611e31565b5050565b601f821115611e9357611e6481611d3b565b611e6d84611d4d565b81016020851015611e7c578190505b611e90611e8885611d4d565b830182611e30565b50505b505050565b5f82821c905092915050565b5f611eb35f1984600802611e98565b1980831691505092915050565b5f611ecb8383611ea4565b9150826002028217905092915050565b611ee482611623565b67ffffffffffffffff811115611efd57611efc611d0e565b5b611f078254611b3e565b611f12828285611e52565b5f60209050601f831160018114611f43575f8415611f31578287015190505b611f3b8582611ec0565b865550611fa2565b601f198416611f5186611d3b565b5f5b82811015611f7857848901518255600182019150602085019450602081019050611f53565b86831015611f955784890151611f91601f891682611ea4565b8355505b6001600288020188555050505b505050505050565b828183375f83830152505050565b5f611fc3838561162d565b9350611fd0838584611faa565b611fd98361164b565b840190509392505050565b5f606082019050611ff75f8301876115fa565b61200460208301866115fa565b8181036040830152612017818486611fb8565b905095945050505050565b7f7a65726f206f776e6572000000000000000000000000000000000000000000005f82015250565b5f612056600a8361162d565b915061206182612022565b602082019050919050565b5f6020820190508181035f8301526120838161204a565b9050919050565b7f73616d65206f776e6572000000000000000000000000000000000000000000005f82015250565b5f6120be600a8361162d565b91506120c98261208a565b602082019050919050565b5f6020820190508181035f8301526120eb816120b2565b9050919050565b7f6e6f742070656e64696e67206f776e65720000000000000000000000000000005f82015250565b5f61212660118361162d565b9150612131826120f2565b602082019050919050565b5f6020820190508181035f8301526121538161211a565b9050919050565b7f6e6f742070656e64696e67206f70657261746f720000000000000000000000005f82015250565b5f61218e60148361162d565b91506121998261215a565b602082019050919050565b5f6020820190508181035f8301526121bb81612182565b9050919050565b7f4e487b71000000000000000000000000000000000000000000000000000000005f52601160045260245ffd5b5f6121f9826114f5565b9150612204836114f5565b925082820390508181111561221c5761221b6121c2565b5b92915050565b7f7472616e736665722064656c6179206e6f7420656c61707365640000000000005f82015250565b5f612256601a8361162d565b915061226182612222565b602082019050919050565b5f6020820190508181035f8301526122838161224a565b9050919050565b5f60408201905061229d5f8301856115fa565b6122aa60208301846115fa565b9392505050565b7f6f6e6c79206f776e6572000000000000000000000000000000000000000000005f82015250565b5f6122e5600a8361162d565b91506122f0826122b1565b602082019050919050565b5f6020820190508181035f830152612312816122d9565b905091905056fea2646970667358221220de875908cd53d79fe4a680e36566042d0d5857b99e6bedb1e71d60705de9e9da64736f6c634300081e0033","linkReferences":{}},"methodIdentifiers":{"OPERATOR_TRANSFER_DELAY()":"bb02061b","acceptOperatorTransfer(uint256)":"823d11b1","acceptOwnerTransfer()":"707a7ab3","cancelOperatorTransfer(uint256)":"0460dafc","cancelOwnerTransfer()":"0802648f","chains(uint256)":"550325b5","deactivateChain(uint256)":"797a12b2","getChain(uint256)":"b6791ad4","initiateOperatorTransfer(uint256,address)":"208d69aa","initiateOwnerTransfer(address)":"6d4016e0","owner()":"8da5cb5b","pendingOwner()":"e30c3978","registerChain(uint256,address,uint256,uint256,string)":"57a069dd","updateThresholds(uint256,uint256,uint256)":"fd19e10c"},"id":26}