{"abi":[{"type":"constructor","inputs":[],"stateMutability":"nonpayable"},{"type":"function","name":"OPERATOR_TRANSFER_DELAY","inputs":[],"outputs":[{"name":"","type":"uint256","internalType":"uint256"}],"stateMutability":"view"},{"type":"function","name":"acceptOperatorTransfer","inputs":[{"name":"chainId","type":"uint256","internalType":"uint256"}],"outputs":[],"stateMutability":"nonpayable"},{"type":"function","name":"acceptOwnerTransfer","inputs":[],"outputs":[],"stateMutability":"nonpayable"},{"type":"function","name":"cancelOperatorTransfer","inputs":[{"name":"chainId","type":"uint256","internalType":"uint256"}],"outputs":[],"stateMutability":"nonpayable"},{"type":"function","name":"cancelOwnerTransfer","inputs":[],"outputs":[],"stateMutability":"nonpayable"},{"type":"function","name":"chains","inputs":[{"name":"","type":"uint256","internalType":"uint256"}],"outputs":[{"name":"operator","type":"address","internalType":"address"},{"name":"pendingOperator","type":"address","internalType":"address"},{"name":"operatorTransferTime","type":"uint256","internalType":"uint256"},{"name":"expectedBlockTime","type":"uint256","internalType":"uint256"},{"name":"maxBlockLag","type":"uint256","internalType":"uint256"},{"name":"isActive","type":"bool","internalType":"bool"},{"name":"name","type":"string","internalType":"string"}],"stateMutability":"view"},{"type":"function","name":"deactivateChain","inputs":[{"name":"chainId","type":"uint256","internalType":"uint256"}],"outputs":[],"stateMutability":"nonpayable"},{"type":"function","name":"getChain","inputs":[{"name":"chainId","type":"uint256","internalType":"uint256"}],"outputs":[{"name":"","type":"tuple","internalType":"struct OrbitChainRegistry.ChainConfig","components":[{"name":"operator","type":"address","internalType":"address"},{"name":"pendingOperator","type":"address","internalType":"address"},{"name":"operatorTransferTime","type":"uint256","internalType":"uint256"},{"name":"expectedBlockTime","type":"uint256","internalType":"uint256"},{"name":"maxBlockLag","type":"uint256","internalType":"uint256"},{"name":"isActive","type":"bool","internalType":"bool"},{"name":"name","type":"string","internalType":"string"}]}],"stateMutability":"view"},{"type":"function","name":"initiateOperatorTransfer","inputs":[{"name":"chainId","type":"uint256","internalType":"uint256"},{"name":"newOperator","type":"address","internalType":"address"}],"outputs":[],"stateMutability":"nonpayable"},{"type":"function","name":"initiateOwnerTransfer","inputs":[{"name":"newOwner","type":"address","internalType":"address"}],"outputs":[],"stateMutability":"nonpayable"},{"type":"function","name":"owner","inputs":[],"outputs":[{"name":"","type":"address","internalType":"address"}],"stateMutability":"view"},{"type":"function","name":"pendingOwner","inputs":[],"outputs":[{"name":"","type":"address","internalType":"address"}],"stateMutability":"view"},{"type":"function","name":"registerChain","inputs":[{"name":"chainId","type":"uint256","internalType":"uint256"},{"name":"operator","type":"address","internalType":"address"},{"name":"expectedBlockTime","type":"uint256","internalType":"uint256"},{"name":"maxBlockLag","type":"uint256","internalType":"uint256"},{"name":"name","type":"string","internalType":"string"}],"outputs":[],"stateMutability":"nonpayable"},{"type":"function","name":"updateThresholds","inputs":[{"name":"chainId","type":"uint256","internalType":"uint256"},{"name":"expectedBlockTime","type":"uint256","internalType":"uint256"},{"name":"maxBlockLag","type":"uint256","internalType":"uint256"}],"outputs":[],"stateMutability":"nonpayable"},{"type":"event","name":"ChainDeactivated","inputs":[{"name":"chainId","type":"uint256","indexed":true,"internalType":"uint256"}],"anonymous":false},{"type":"event","name":"ChainRegistered","inputs":[{"name":"chainId","type":"uint256","indexed":true,"internalType":"uint256"},{"name":"operator","type":"address","indexed":true,"internalType":"address"},{"name":"expectedBlockTime","type":"uint256","indexed":false,"internalType":"uint256"},{"name":"maxBlockLag","type":"uint256","indexed":false,"internalType":"uint256"},{"name":"name","type":"string","indexed":false,"internalType":"string"}],"anonymous":false},{"type":"event","name":"ChainUpdated","inputs":[{"name":"chainId","type":"uint256","indexed":true,"internalType":"uint256"},{"name":"expectedBlockTime","type":"uint256","indexed":false,"internalType":"uint256"},{"name":"maxBlockLag","type":"uint256","indexed":false,"internalType":"uint256"}],"anonymous":false},{"type":"event","name":"OperatorTransferAccepted","inputs":[{"name":"chainId","type":"uint256","indexed":true,"internalType":"uint256"},{"name":"newOperator","type":"address","indexed":true,"internalType":"address"}],"anonymous":false},{"type":"event","name":"OperatorTransferInitiated","inputs":[{"name":"chainId","type":"uint256","indexed":true,"internalType":"uint256"},{"name":"newOperator","type":"address","indexed":true,"internalType":"address"}],"anonymous":false},{"type":"event","name":"OwnerTransferAccepted","inputs":[{"name":"newOwner","type":"address","indexed":true,"internalType":"address"}],"anonymous":false},{"type":"event","name":"OwnerTransferInitiated","inputs":[{"name":"newOwner","type":"address","indexed":true,"internalType":"address"}],"anonymous":false}],"bytecode":{"object":"0x6080604052348015600e575f5ffd5b50335f5f6101000a81548173ffffffffffffffffffffffffffffffffffffffff021916908373ffffffffffffffffffffffffffffffffffffffff1602179055506126698061005b5f395ff3fe608060405234801561000f575f5ffd5b50600436106100e8575f3560e01c8063797a12b21161008a578063b6791ad411610064578063b6791ad4146101fc578063bb02061b1461022c578063e30c39781461024a578063fd19e10c14610268576100e8565b8063797a12b2146101a6578063823d11b1146101c25780638da5cb5b146101de576100e8565b8063550325b5116100c6578063550325b51461012e57806357a069dd146101645780636d4016e014610180578063707a7ab31461019c576100e8565b80630460dafc146100ec5780630802648f14610108578063208d69aa14610112575b5f5ffd5b61010660048036038101906101019190611842565b610284565b005b6101106103e0565b005b61012c600480360381019061012791906118c7565b6104b0565b005b61014860048036038101906101439190611842565b61075f565b60405161015b97969594939291906119ad565b60405180910390f35b61017e60048036038101906101799190611a82565b61086d565b005b61019a60048036038101906101959190611b18565b610c4f565b005b6101a4610e5f565b005b6101c060048036038101906101bb9190611842565b610ff3565b005b6101dc60048036038101906101d79190611842565b61113c565b005b6101e661140a565b6040516101f39190611b43565b60405180910390f35b61021660048036038101906102119190611842565b61142e565b6040516102239190611c6a565b60405180910390f35b6102346115ca565b6040516102419190611c8a565b60405180910390f35b6102526115d1565b60405161025f9190611b43565b60405180910390f35b610282600480360381019061027d9190611ca3565b6115f6565b005b5f5f9054906101000a900473ffffffffffffffffffffffffffffffffffffffff1673ffffffffffffffffffffffffffffffffffffffff163373ffffffffffffffffffffffffffffffffffffffff1614610312576040517f08c379a000000000000000000000000000000000000000000000000000000000815260040161030990611d3d565b60405180910390fd5b60025f8281526020019081526020015f206005015f9054906101000a900460ff16610372576040517f08c379a000000000000000000000000000000000000000000000000000000000815260040161036990611da5565b60405180910390fd5b5f60025f8381526020019081526020015f206001015f6101000a81548173ffffffffffffffffffffffffffffffffffffffff021916908373ffffffffffffffffffffffffffffffffffffffff1602179055505f60025f8381526020019081526020015f206002018190555050565b5f5f9054906101000a900473ffffffffffffffffffffffffffffffffffffffff1673ffffffffffffffffffffffffffffffffffffffff163373ffffffffffffffffffffffffffffffffffffffff161461046e576040517f08c379a000000000000000000000000000000000000000000000000000000000815260040161046590611d3d565b60405180910390fd5b5f60015f6101000a81548173ffffffffffffffffffffffffffffffffffffffff021916908373ffffffffffffffffffffffffffffffffffffffff160217905550565b5f5f9054906101000a900473ffffffffffffffffffffffffffffffffffffffff1673ffffffffffffffffffffffffffffffffffffffff163373ffffffffffffffffffffffffffffffffffffffff161461053e576040517f08c379a000000000000000000000000000000000000000000000000000000000815260040161053590611d3d565b60405180910390fd5b60025f8381526020019081526020015f206005015f9054906101000a900460ff1661059e576040517f08c379a000000000000000000000000000000000000000000000000000000000815260040161059590611da5565b60405180910390fd5b5f73ffffffffffffffffffffffffffffffffffffffff168173ffffffffffffffffffffffffffffffffffffffff160361060c576040517f08c379a000000000000000000000000000000000000000000000000000000000815260040161060390611e0d565b60405180910390fd5b60025f8381526020019081526020015f205f015f9054906101000a900473ffffffffffffffffffffffffffffffffffffffff1673ffffffffffffffffffffffffffffffffffffffff168173ffffffffffffffffffffffffffffffffffffffff16036106ac576040517f08c379a00000000000000000000000000000000000000000000000000000000081526004016106a390611e75565b60405180910390fd5b8060025f8481526020019081526020015f206001015f6101000a81548173ffffffffffffffffffffffffffffffffffffffff021916908373ffffffffffffffffffffffffffffffffffffffff1602179055504260025f8481526020019081526020015f20600201819055508073ffffffffffffffffffffffffffffffffffffffff16827f94d84e9abd4b5fbfb65921517efd0b9a44ff9513af989017948c9937aa76813160405160405180910390a35050565b6002602052805f5260405f205f91509050805f015f9054906101000a900473ffffffffffffffffffffffffffffffffffffffff1690806001015f9054906101000a900473ffffffffffffffffffffffffffffffffffffffff1690806002015490806003015490806004015490806005015f9054906101000a900460ff16908060060180546107ec90611ec0565b80601f016020809104026020016040519081016040528092919081815260200182805461081890611ec0565b80156108635780601f1061083a57610100808354040283529160200191610863565b820191905f5260205f20905b81548152906001019060200180831161084657829003601f168201915b5050505050905087565b5f5f9054906101000a900473ffffffffffffffffffffffffffffffffffffffff1673ffffffffffffffffffffffffffffffffffffffff163373ffffffffffffffffffffffffffffffffffffffff16146108fb576040517f08c379a00000000000000000000000000000000000000000000000000000000081526004016108f290611d3d565b60405180910390fd5b60025f8781526020019081526020015f206005015f9054906101000a900460ff161561095c576040517f08c379a000000000000000000000000000000000000000000000000000000000815260040161095390611f3a565b60405180910390fd5b5f73ffffffffffffffffffffffffffffffffffffffff168573ffffffffffffffffffffffffffffffffffffffff16036109ca576040517f08c379a00000000000000000000000000000000000000000000000000000000081526004016109c190611fa2565b60405180910390fd5b5f841180156109d857505f83115b610a17576040517f08c379a0000000000000000000000000000000000000000000000000000000008152600401610a0e9061200a565b60405180910390fd5b5f8282905011610a5c576040517f08c379a0000000000000000000000000000000000000000000000000000000008152600401610a5390612072565b60405180910390fd5b6040518060e001604052808673ffffffffffffffffffffffffffffffffffffffff1681526020015f73ffffffffffffffffffffffffffffffffffffffff1681526020015f815260200185815260200184815260200160011515815260200183838080601f0160208091040260200160405190810160405280939291908181526020018383808284375f81840152601f19601f8201169050808301925050505050505081525060025f8881526020019081526020015f205f820151815f015f6101000a81548173ffffffffffffffffffffffffffffffffffffffff021916908373ffffffffffffffffffffffffffffffffffffffff1602179055506020820151816001015f6101000a81548173ffffffffffffffffffffffffffffffffffffffff021916908373ffffffffffffffffffffffffffffffffffffffff16021790555060408201518160020155606082015181600301556080820151816004015560a0820151816005015f6101000a81548160ff02191690831515021790555060c0820151816006019081610bee919061225d565b509050508473ffffffffffffffffffffffffffffffffffffffff16867f0a196778a60d7cdce1b5b3b8f4a3090e49b2156cd67a0b4ac89ffdc9b80f15cc86868686604051610c3f9493929190612366565b60405180910390a3505050505050565b5f5f9054906101000a900473ffffffffffffffffffffffffffffffffffffffff1673ffffffffffffffffffffffffffffffffffffffff163373ffffffffffffffffffffffffffffffffffffffff1614610cdd576040517f08c379a0000000000000000000000000000000000000000000000000000000008152600401610cd490611d3d565b60405180910390fd5b5f73ffffffffffffffffffffffffffffffffffffffff168173ffffffffffffffffffffffffffffffffffffffff1603610d4b576040517f08c379a0000000000000000000000000000000000000000000000000000000008152600401610d42906123ee565b60405180910390fd5b5f5f9054906101000a900473ffffffffffffffffffffffffffffffffffffffff1673ffffffffffffffffffffffffffffffffffffffff168173ffffffffffffffffffffffffffffffffffffffff1603610dd9576040517f08c379a0000000000000000000000000000000000000000000000000000000008152600401610dd090612456565b60405180910390fd5b8060015f6101000a81548173ffffffffffffffffffffffffffffffffffffffff021916908373ffffffffffffffffffffffffffffffffffffffff1602179055508073ffffffffffffffffffffffffffffffffffffffff167f96b3b36cf7b05f340b515f0af8f8e5f829ac74cb6c92397feaf01452deded82860405160405180910390a250565b60015f9054906101000a900473ffffffffffffffffffffffffffffffffffffffff1673ffffffffffffffffffffffffffffffffffffffff163373ffffffffffffffffffffffffffffffffffffffff1614610eee576040517f08c379a0000000000000000000000000000000000000000000000000000000008152600401610ee5906124be565b60405180910390fd5b60015f9054906101000a900473ffffffffffffffffffffffffffffffffffffffff165f5f6101000a81548173ffffffffffffffffffffffffffffffffffffffff021916908373ffffffffffffffffffffffffffffffffffffffff1602179055505f60015f6101000a81548173ffffffffffffffffffffffffffffffffffffffff021916908373ffffffffffffffffffffffffffffffffffffffff1602179055505f5f9054906101000a900473ffffffffffffffffffffffffffffffffffffffff1673ffffffffffffffffffffffffffffffffffffffff167f2a02d90acde622780ee8356f83770fd8168f9d002beb5626f3bd15062e06f0c960405160405180910390a2565b5f5f9054906101000a900473ffffffffffffffffffffffffffffffffffffffff1673ffffffffffffffffffffffffffffffffffffffff163373ffffffffffffffffffffffffffffffffffffffff1614611081576040517f08c379a000000000000000000000000000000000000000000000000000000000815260040161107890611d3d565b60405180910390fd5b60025f8281526020019081526020015f206005015f9054906101000a900460ff166110e1576040517f08c379a00000000000000000000000000000000000000000000000000000000081526004016110d890611da5565b60405180910390fd5b5f60025f8381526020019081526020015f206005015f6101000a81548160ff021916908315150217905550807fa370332e396d9f7f4863be46a33472830f7cdd4d88613633c02d144b8523e06c60405160405180910390a250565b60025f8281526020019081526020015f206005015f9054906101000a900460ff1661119c576040517f08c379a000000000000000000000000000000000000000000000000000000000815260040161119390611da5565b60405180910390fd5b60025f8281526020019081526020015f206001015f9054906101000a900473ffffffffffffffffffffffffffffffffffffffff1673ffffffffffffffffffffffffffffffffffffffff163373ffffffffffffffffffffffffffffffffffffffff161461123d576040517f08c379a000000000000000000000000000000000000000000000000000000000815260040161123490612526565b60405180910390fd5b6202a30060025f8381526020019081526020015f2060020154426112619190612571565b10156112a2576040517f08c379a0000000000000000000000000000000000000000000000000000000008152600401611299906125ee565b60405180910390fd5b60025f8281526020019081526020015f206001015f9054906101000a900473ffffffffffffffffffffffffffffffffffffffff1660025f8381526020019081526020015f205f015f6101000a81548173ffffffffffffffffffffffffffffffffffffffff021916908373ffffffffffffffffffffffffffffffffffffffff1602179055505f60025f8381526020019081526020015f206001015f6101000a81548173ffffffffffffffffffffffffffffffffffffffff021916908373ffffffffffffffffffffffffffffffffffffffff1602179055505f60025f8381526020019081526020015f206002018190555060025f8281526020019081526020015f205f015f9054906101000a900473ffffffffffffffffffffffffffffffffffffffff1673ffffffffffffffffffffffffffffffffffffffff16817f919b52ffcfbe2a3034f94f40e910d9997c6403ee080e94a57dfcc514f2862df760405160405180910390a350565b5f5f9054906101000a900473ffffffffffffffffffffffffffffffffffffffff1681565b6114366117a2565b60025f8381526020019081526020015f206040518060e00160405290815f82015f9054906101000a900473ffffffffffffffffffffffffffffffffffffffff1673ffffffffffffffffffffffffffffffffffffffff1673ffffffffffffffffffffffffffffffffffffffff168152602001600182015f9054906101000a900473ffffffffffffffffffffffffffffffffffffffff1673ffffffffffffffffffffffffffffffffffffffff1673ffffffffffffffffffffffffffffffffffffffff168152602001600282015481526020016003820154815260200160048201548152602001600582015f9054906101000a900460ff1615151515815260200160068201805461154390611ec0565b80601f016020809104026020016040519081016040528092919081815260200182805461156f90611ec0565b80156115ba5780601f10611591576101008083540402835291602001916115ba565b820191905f5260205f20905b81548152906001019060200180831161159d57829003601f168201915b5050505050815250509050919050565b6202a30081565b60015f9054906101000a900473ffffffffffffffffffffffffffffffffffffffff1681565b5f5f9054906101000a900473ffffffffffffffffffffffffffffffffffffffff1673ffffffffffffffffffffffffffffffffffffffff163373ffffffffffffffffffffffffffffffffffffffff1614611684576040517f08c379a000000000000000000000000000000000000000000000000000000000815260040161167b90611d3d565b60405180910390fd5b60025f8481526020019081526020015f206005015f9054906101000a900460ff166116e4576040517f08c379a00000000000000000000000000000000000000000000000000000000081526004016116db90611da5565b60405180910390fd5b5f821180156116f257505f81115b611731576040517f08c379a00000000000000000000000000000000000000000000000000000000081526004016117289061200a565b60405180910390fd5b8160025f8581526020019081526020015f20600301819055508060025f8581526020019081526020015f2060040181905550827fa2de5f16532999e2a7e49d7288acded3d4bd1f82d7c8442ab4432ae09f66f129838360405161179592919061260c565b60405180910390a2505050565b6040518060e001604052805f73ffffffffffffffffffffffffffffffffffffffff1681526020015f73ffffffffffffffffffffffffffffffffffffffff1681526020015f81526020015f81526020015f81526020015f15158152602001606081525090565b5f5ffd5b5f5ffd5b5f819050919050565b6118218161180f565b811461182b575f5ffd5b50565b5f8135905061183c81611818565b92915050565b5f6020828403121561185757611856611807565b5b5f6118648482850161182e565b91505092915050565b5f73ffffffffffffffffffffffffffffffffffffffff82169050919050565b5f6118968261186d565b9050919050565b6118a68161188c565b81146118b0575f5ffd5b50565b5f813590506118c18161189d565b92915050565b5f5f604083850312156118dd576118dc611807565b5b5f6118ea8582860161182e565b92505060206118fb858286016118b3565b9150509250929050565b61190e8161188c565b82525050565b61191d8161180f565b82525050565b5f8115159050919050565b61193781611923565b82525050565b5f81519050919050565b5f82825260208201905092915050565b8281835e5f83830152505050565b5f601f19601f8301169050919050565b5f61197f8261193d565b6119898185611947565b9350611999818560208601611957565b6119a281611965565b840191505092915050565b5f60e0820190506119c05f83018a611905565b6119cd6020830189611905565b6119da6040830188611914565b6119e76060830187611914565b6119f46080830186611914565b611a0160a083018561192e565b81810360c0830152611a138184611975565b905098975050505050505050565b5f5ffd5b5f5ffd5b5f5ffd5b5f5f83601f840112611a4257611a41611a21565b5b8235905067ffffffffffffffff811115611a5f57611a5e611a25565b5b602083019150836001820283011115611a7b57611a7a611a29565b5b9250929050565b5f5f5f5f5f5f60a08789031215611a9c57611a9b611807565b5b5f611aa989828a0161182e565b9650506020611aba89828a016118b3565b9550506040611acb89828a0161182e565b9450506060611adc89828a0161182e565b935050608087013567ffffffffffffffff811115611afd57611afc61180b565b5b611b0989828a01611a2d565b92509250509295509295509295565b5f60208284031215611b2d57611b2c611807565b5b5f611b3a848285016118b3565b91505092915050565b5f602082019050611b565f830184611905565b92915050565b611b658161188c565b82525050565b611b748161180f565b82525050565b611b8381611923565b82525050565b5f82825260208201905092915050565b5f611ba38261193d565b611bad8185611b89565b9350611bbd818560208601611957565b611bc681611965565b840191505092915050565b5f60e083015f830151611be65f860182611b5c565b506020830151611bf96020860182611b5c565b506040830151611c0c6040860182611b6b565b506060830151611c1f6060860182611b6b565b506080830151611c326080860182611b6b565b5060a0830151611c4560a0860182611b7a565b5060c083015184820360c0860152611c5d8282611b99565b9150508091505092915050565b5f6020820190508181035f830152611c828184611bd1565b905092915050565b5f602082019050611c9d5f830184611914565b92915050565b5f5f5f60608486031215611cba57611cb9611807565b5b5f611cc78682870161182e565b9350506020611cd88682870161182e565b9250506040611ce98682870161182e565b9150509250925092565b7f6f6e6c79206f776e6572000000000000000000000000000000000000000000005f82015250565b5f611d27600a83611947565b9150611d3282611cf3565b602082019050919050565b5f6020820190508181035f830152611d5481611d1b565b9050919050565b7f6e6f20636861696e0000000000000000000000000000000000000000000000005f82015250565b5f611d8f600883611947565b9150611d9a82611d5b565b602082019050919050565b5f6020820190508181035f830152611dbc81611d83565b9050919050565b7f7a65726f206f70657261746f72000000000000000000000000000000000000005f82015250565b5f611df7600d83611947565b9150611e0282611dc3565b602082019050919050565b5f6020820190508181035f830152611e2481611deb565b9050919050565b7f73616d65206f70657261746f72000000000000000000000000000000000000005f82015250565b5f611e5f600d83611947565b9150611e6a82611e2b565b602082019050919050565b5f6020820190508181035f830152611e8c81611e53565b9050919050565b7f4e487b71000000000000000000000000000000000000000000000000000000005f52602260045260245ffd5b5f6002820490506001821680611ed757607f821691505b602082108103611eea57611ee9611e93565b5b50919050565b7f636861696e2065786973747300000000000000000000000000000000000000005f82015250565b5f611f24600c83611947565b9150611f2f82611ef0565b602082019050919050565b5f6020820190508181035f830152611f5181611f18565b9050919050565b7f696e76616c6964206f70657261746f72000000000000000000000000000000005f82015250565b5f611f8c601083611947565b9150611f9782611f58565b602082019050919050565b5f6020820190508181035f830152611fb981611f80565b9050919050565b7f696e76616c696420706172616d730000000000000000000000000000000000005f82015250565b5f611ff4600e83611947565b9150611fff82611fc0565b602082019050919050565b5f6020820190508181035f83015261202181611fe8565b9050919050565b7f656d707479206e616d65000000000000000000000000000000000000000000005f82015250565b5f61205c600a83611947565b915061206782612028565b602082019050919050565b5f6020820190508181035f83015261208981612050565b9050919050565b7f4e487b71000000000000000000000000000000000000000000000000000000005f52604160045260245ffd5b5f819050815f5260205f209050919050565b5f6020601f8301049050919050565b5f82821b905092915050565b5f600883026121197fffffffffffffffffffffffffffffffffffffffffffffffffffffffffffffffff826120de565b61212386836120de565b95508019841693508086168417925050509392505050565b5f819050919050565b5f61215e6121596121548461180f565b61213b565b61180f565b9050919050565b5f819050919050565b61217783612144565b61218b61218382612165565b8484546120ea565b825550505050565b5f5f905090565b6121a2612193565b6121ad81848461216e565b505050565b5b818110156121d0576121c55f8261219a565b6001810190506121b3565b5050565b601f821115612215576121e6816120bd565b6121ef846120cf565b810160208510156121fe578190505b61221261220a856120cf565b8301826121b2565b50505b505050565b5f82821c905092915050565b5f6122355f198460080261221a565b1980831691505092915050565b5f61224d8383612226565b9150826002028217905092915050565b6122668261193d565b67ffffffffffffffff81111561227f5761227e612090565b5b6122898254611ec0565b6122948282856121d4565b5f60209050601f8311600181146122c5575f84156122b3578287015190505b6122bd8582612242565b865550612324565b601f1984166122d3866120bd565b5f5b828110156122fa578489015182556001820191506020850194506020810190506122d5565b868310156123175784890151612313601f891682612226565b8355505b6001600288020188555050505b505050505050565b828183375f83830152505050565b5f6123458385611947565b935061235283858461232c565b61235b83611965565b840190509392505050565b5f6060820190506123795f830187611914565b6123866020830186611914565b818103604083015261239981848661233a565b905095945050505050565b7f7a65726f206f776e6572000000000000000000000000000000000000000000005f82015250565b5f6123d8600a83611947565b91506123e3826123a4565b602082019050919050565b5f6020820190508181035f830152612405816123cc565b9050919050565b7f73616d65206f776e6572000000000000000000000000000000000000000000005f82015250565b5f612440600a83611947565b915061244b8261240c565b602082019050919050565b5f6020820190508181035f83015261246d81612434565b9050919050565b7f6e6f742070656e64696e67206f776e65720000000000000000000000000000005f82015250565b5f6124a8601183611947565b91506124b382612474565b602082019050919050565b5f6020820190508181035f8301526124d58161249c565b9050919050565b7f6e6f742070656e64696e67206f70657261746f720000000000000000000000005f82015250565b5f612510601483611947565b915061251b826124dc565b602082019050919050565b5f6020820190508181035f83015261253d81612504565b9050919050565b7f4e487b71000000000000000000000000000000000000000000000000000000005f52601160045260245ffd5b5f61257b8261180f565b91506125868361180f565b925082820390508181111561259e5761259d612544565b5b92915050565b7f7472616e736665722064656c6179206e6f7420656c61707365640000000000005f82015250565b5f6125d8601a83611947565b91506125e3826125a4565b602082019050919050565b5f6020820190508181035f830152612605816125cc565b9050919050565b5f60408201905061261f5f830185611914565b61262c6020830184611914565b939250505056fea264697066735822122019f07ff0568b075f9e7cc31e68653cc80a0ee46e9b53ea3a2f0eb3878b5a421e64736f6c634300081e0033","linkReferences":{}},"methodIdentifiers":{"OPERATOR_TRANSFER_DELAY()":"bb02061b","acceptOperatorTransfer(uint256)":"823d11b1","acceptOwnerTransfer()":"707a7ab3","cancelOperatorTransfer(uint256)":"0460dafc","cancelOwnerTransfer()":"0802648f","chains(uint256)":"550325b5","deactivateChain(uint256)":"797a12b2","getChain(uint256)":"b6791ad4","initiateOperatorTransfer(uint256,address)":"208d69aa","initiateOwnerTransfer(address)":"6d4016e0","owner()":"8da5cb5b","pendingOwner()":"e30c3978","registerChain(uint256,address,uint256,uint256,string)":"57a069dd","updateThresholds(uint256,uint256,uint256)":"fd19e10c"},"id":25}