{"abi":[{"type":"constructor","inputs":[],"stateMutability":"nonpayable"},{"type":"function","name":"callFailureCount","inputs":[{"name":"","type":"address","internalType":"address"}],"outputs":[{"name":"","type":"uint256","internalType":"uint256"}],"stateMutability":"view"},{"type":"function","name":"deregisterResponder","inputs":[{"name":"chainId","type":"uint256","internalType":"uint256"},{"name":"responder","type":"address","internalType":"address"}],"outputs":[],"stateMutability":"nonpayable"},{"type":"function","name":"getChainResponders","inputs":[{"name":"chainId","type":"uint256","internalType":"uint256"}],"outputs":[{"name":"","type":"address[]","internalType":"address[]"}],"stateMutability":"view"},{"type":"function","name":"getGlobalResponders","inputs":[],"outputs":[{"name":"","type":"address[]","internalType":"address[]"}],"stateMutability":"view"},{"type":"function","name":"globalResponderIndex","inputs":[{"name":"","type":"address","internalType":"address"}],"outputs":[{"name":"","type":"uint256","internalType":"uint256"}],"stateMutability":"view"},{"type":"function","name":"globalResponders","inputs":[{"name":"","type":"uint256","internalType":"uint256"}],"outputs":[{"name":"","type":"address","internalType":"address"}],"stateMutability":"view"},{"type":"function","name":"lastCallTime","inputs":[{"name":"","type":"address","internalType":"address"}],"outputs":[{"name":"","type":"uint256","internalType":"uint256"}],"stateMutability":"view"},{"type":"function","name":"notifyResponders","inputs":[{"name":"chainId","type":"uint256","internalType":"uint256"},{"name":"signalType","type":"uint8","internalType":"enum SignalTypes.SignalType"},{"name":"severity","type":"uint8","internalType":"enum SignalTypes.Severity"},{"name":"description","type":"string","internalType":"string"}],"outputs":[{"name":"successCount","type":"uint256","internalType":"uint256"}],"stateMutability":"nonpayable"},{"type":"function","name":"owner","inputs":[],"outputs":[{"name":"","type":"address","internalType":"address"}],"stateMutability":"view"},{"type":"function","name":"registerResponder","inputs":[{"name":"chainId","type":"uint256","internalType":"uint256"},{"name":"responder","type":"address","internalType":"address"},{"name":"minSeverity","type":"uint8","internalType":"enum SignalTypes.Severity"}],"outputs":[],"stateMutability":"nonpayable"},{"type":"function","name":"responderCount","inputs":[{"name":"chainId","type":"uint256","internalType":"uint256"}],"outputs":[{"name":"chainSpecific","type":"uint256","internalType":"uint256"},{"name":"global","type":"uint256","internalType":"uint256"}],"stateMutability":"view"},{"type":"function","name":"responderIndex","inputs":[{"name":"","type":"uint256","internalType":"uint256"},{"name":"","type":"address","internalType":"address"}],"outputs":[{"name":"","type":"uint256","internalType":"uint256"}],"stateMutability":"view"},{"type":"function","name":"responderMinSeverity","inputs":[{"name":"","type":"address","internalType":"address"}],"outputs":[{"name":"","type":"uint8","internalType":"enum SignalTypes.Severity"}],"stateMutability":"view"},{"type":"function","name":"respondersByChain","inputs":[{"name":"","type":"uint256","internalType":"uint256"},{"name":"","type":"uint256","internalType":"uint256"}],"outputs":[{"name":"","type":"address","internalType":"address"}],"stateMutability":"view"},{"type":"event","name":"ResponderCalled","inputs":[{"name":"chainId","type":"uint256","indexed":true,"internalType":"uint256"},{"name":"responder","type":"address","indexed":true,"internalType":"address"},{"name":"signalType","type":"uint8","indexed":false,"internalType":"enum SignalTypes.SignalType"},{"name":"success","type":"bool","indexed":false,"internalType":"bool"},{"name":"returnData","type":"bytes","indexed":false,"internalType":"bytes"}],"anonymous":false},{"type":"event","name":"ResponderDeregistered","inputs":[{"name":"chainId","type":"uint256","indexed":true,"internalType":"uint256"},{"name":"responder","type":"address","indexed":true,"internalType":"address"},{"name":"isGlobal","type":"bool","indexed":false,"internalType":"bool"}],"anonymous":false},{"type":"event","name":"ResponderDisabled","inputs":[{"name":"responder","type":"address","indexed":true,"internalType":"address"},{"name":"reason","type":"string","indexed":false,"internalType":"string"}],"anonymous":false},{"type":"event","name":"ResponderRegistered","inputs":[{"name":"chainId","type":"uint256","indexed":true,"internalType":"uint256"},{"name":"responder","type":"address","indexed":true,"internalType":"address"},{"name":"isGlobal","type":"bool","indexed":false,"internalType":"bool"}],"anonymous":false}],"bytecode":{"object":"0x6080604052348015600e575f5ffd5b50335f5f6101000a81548173ffffffffffffffffffffffffffffffffffffffff021916908373ffffffffffffffffffffffffffffffffffffffff160217905550611f038061005b5f395ff3fe608060405234801561000f575f5ffd5b50600436106100e8575f3560e01c806355e6c3451161008a5780638da5cb5b116100645780638da5cb5b146102a75780639c5f4724146102c5578063b4473752146102e1578063e3329b1c14610311576100e8565b806355e6c345146102175780635c4cb7c01461024757806386d922a914610277576100e8565b80632d0c38a4116100c65780632d0c38a41461017c57806335066cc41461019857806340aad2ef146101c957806341e861d7146101e7576100e8565b806307dd533c146100ec5780630aa2c7b61461011c57806310ffe97d1461014c575b5f5ffd5b610106600480360381019061010191906114fd565b610341565b6040516101139190611540565b60405180910390f35b6101366004803603810190610131919061162a565b610356565b6040516101439190611540565b60405180910390f35b610166600480360381019061016191906114fd565b61046d565b6040516101739190611721565b60405180910390f35b6101966004803603810190610191919061173a565b61048a565b005b6101b260048036038101906101ad919061178a565b610923565b6040516101c09291906117b5565b60405180910390f35b6101d1610949565b6040516101de9190611893565b60405180910390f35b61020160048036038101906101fc91906118b3565b6109d4565b60405161020e9190611900565b60405180910390f35b610231600480360381019061022c919061178a565b610a1c565b60405161023e9190611893565b60405180910390f35b610261600480360381019061025c919061178a565b610ab8565b60405161026e9190611900565b60405180910390f35b610291600480360381019061028c91906114fd565b610af3565b60405161029e9190611540565b60405180910390f35b6102af610b08565b6040516102bc9190611900565b60405180910390f35b6102df60048036038101906102da9190611919565b610b2c565b005b6102fb60048036038101906102f69190611919565b6110aa565b6040516103089190611540565b60405180910390f35b61032b600480360381019061032691906114fd565b6110ca565b6040516103389190611540565b60405180910390f35b6004602052805f5260405f205f915090505481565b5f5f60015f8881526020019081526020015f2090505f5f90505b81805490508110156103e5576103c48883838154811061039357610392611957565b5b905f5260205f20015f9054906101000a900473ffffffffffffffffffffffffffffffffffffffff16898989896110df565b156103d85782806103d4906119b1565b9350505b8080600101915050610370565b505f5f90505b6003805490508110156104625761044188600383815481106104105761040f611957565b5b905f5260205f20015f9054906101000a900473ffffffffffffffffffffffffffffffffffffffff16898989896110df565b15610455578280610451906119b1565b9350505b80806001019150506103eb565b505095945050505050565b6005602052805f5260405f205f915054906101000a900460ff1681565b5f5f9054906101000a900473ffffffffffffffffffffffffffffffffffffffff1673ffffffffffffffffffffffffffffffffffffffff163373ffffffffffffffffffffffffffffffffffffffff1614610518576040517f08c379a000000000000000000000000000000000000000000000000000000000815260040161050f90611a52565b60405180910390fd5b5f73ffffffffffffffffffffffffffffffffffffffff168273ffffffffffffffffffffffffffffffffffffffff1603610586576040517f08c379a000000000000000000000000000000000000000000000000000000000815260040161057d90611aba565b60405180910390fd5b8060055f8473ffffffffffffffffffffffffffffffffffffffff1673ffffffffffffffffffffffffffffffffffffffff1681526020019081526020015f205f6101000a81548160ff021916908360028111156105e5576105e46116ae565b5b02179055505f830361076c575f60045f8473ffffffffffffffffffffffffffffffffffffffff1673ffffffffffffffffffffffffffffffffffffffff1681526020019081526020015f205414610670576040517f08c379a000000000000000000000000000000000000000000000000000000000815260040161066790611b22565b60405180910390fd5b600382908060018154018082558091505060019003905f5260205f20015f9091909190916101000a81548173ffffffffffffffffffffffffffffffffffffffff021916908373ffffffffffffffffffffffffffffffffffffffff16021790555060038054905060045f8473ffffffffffffffffffffffffffffffffffffffff1673ffffffffffffffffffffffffffffffffffffffff1681526020019081526020015f20819055508173ffffffffffffffffffffffffffffffffffffffff165f7f63eb010a56c6d3b0022a95f6363a82ff967e8686d33164ef2701d44d5d0aff00600160405161075f9190611b5a565b60405180910390a361091e565b5f60025f8581526020019081526020015f205f8473ffffffffffffffffffffffffffffffffffffffff1673ffffffffffffffffffffffffffffffffffffffff1681526020019081526020015f2054146107fa576040517f08c379a00000000000000000000000000000000000000000000000000000000081526004016107f190611b22565b60405180910390fd5b60015f8481526020019081526020015f2082908060018154018082558091505060019003905f5260205f20015f9091909190916101000a81548173ffffffffffffffffffffffffffffffffffffffff021916908373ffffffffffffffffffffffffffffffffffffffff16021790555060015f8481526020019081526020015f208054905060025f8581526020019081526020015f205f8473ffffffffffffffffffffffffffffffffffffffff1673ffffffffffffffffffffffffffffffffffffffff1681526020019081526020015f20819055508173ffffffffffffffffffffffffffffffffffffffff16837f63eb010a56c6d3b0022a95f6363a82ff967e8686d33164ef2701d44d5d0aff005f6040516109159190611b5a565b60405180910390a35b505050565b5f5f60015f8481526020019081526020015f208054905060038054905091509150915091565b606060038054806020026020016040519081016040528092919081815260200182805480156109ca57602002820191905f5260205f20905b815f9054906101000a900473ffffffffffffffffffffffffffffffffffffffff1673ffffffffffffffffffffffffffffffffffffffff1681526020019060010190808311610981575b5050505050905090565b6001602052815f5260405f2081815481106109ed575f80fd5b905f5260205f20015f915091509054906101000a900473ffffffffffffffffffffffffffffffffffffffff1681565b606060015f8381526020019081526020015f20805480602002602001604051908101604052809291908181526020018280548015610aac57602002820191905f5260205f20905b815f9054906101000a900473ffffffffffffffffffffffffffffffffffffffff1673ffffffffffffffffffffffffffffffffffffffff1681526020019060010190808311610a63575b50505050509050919050565b60038181548110610ac7575f80fd5b905f5260205f20015f915054906101000a900473ffffffffffffffffffffffffffffffffffffffff1681565b6006602052805f5260405f205f915090505481565b5f5f9054906101000a900473ffffffffffffffffffffffffffffffffffffffff1681565b5f5f9054906101000a900473ffffffffffffffffffffffffffffffffffffffff1673ffffffffffffffffffffffffffffffffffffffff163373ffffffffffffffffffffffffffffffffffffffff1614610bba576040517f08c379a0000000000000000000000000000000000000000000000000000000008152600401610bb190611a52565b60405180910390fd5b5f8203610e17575f60045f8373ffffffffffffffffffffffffffffffffffffffff1673ffffffffffffffffffffffffffffffffffffffff1681526020019081526020015f205490505f8111610c44576040517f08c379a0000000000000000000000000000000000000000000000000000000008152600401610c3b90611bbd565b60405180910390fd5b5f60036001600380549050610c599190611bdb565b81548110610c6a57610c69611957565b5b905f5260205f20015f9054906101000a900473ffffffffffffffffffffffffffffffffffffffff169050806003600184610ca49190611bdb565b81548110610cb557610cb4611957565b5b905f5260205f20015f6101000a81548173ffffffffffffffffffffffffffffffffffffffff021916908373ffffffffffffffffffffffffffffffffffffffff1602179055508160045f8373ffffffffffffffffffffffffffffffffffffffff1673ffffffffffffffffffffffffffffffffffffffff1681526020019081526020015f20819055506003805480610d4e57610d4d611c0e565b5b600190038181905f5260205f20015f6101000a81549073ffffffffffffffffffffffffffffffffffffffff0219169055905560045f8473ffffffffffffffffffffffffffffffffffffffff1673ffffffffffffffffffffffffffffffffffffffff1681526020019081526020015f205f90558273ffffffffffffffffffffffffffffffffffffffff165f7f3c0f07c4464f8658f1d10255ab6a1e4ad1e692d3dc82b1ce098eb45c70fcd6ba6001604051610e089190611b5a565b60405180910390a350506110a6565b5f60025f8481526020019081526020015f205f8373ffffffffffffffffffffffffffffffffffffffff1673ffffffffffffffffffffffffffffffffffffffff1681526020019081526020015f205490505f8111610ea9576040517f08c379a0000000000000000000000000000000000000000000000000000000008152600401610ea090611bbd565b60405180910390fd5b5f60015f8581526020019081526020015f2090505f8160018380549050610ed09190611bdb565b81548110610ee157610ee0611957565b5b905f5260205f20015f9054906101000a900473ffffffffffffffffffffffffffffffffffffffff1690508082600185610f1a9190611bdb565b81548110610f2b57610f2a611957565b5b905f5260205f20015f6101000a81548173ffffffffffffffffffffffffffffffffffffffff021916908373ffffffffffffffffffffffffffffffffffffffff1602179055508260025f8781526020019081526020015f205f8373ffffffffffffffffffffffffffffffffffffffff1673ffffffffffffffffffffffffffffffffffffffff1681526020019081526020015f208190555081805480610fd257610fd1611c0e565b5b600190038181905f5260205f20015f6101000a81549073ffffffffffffffffffffffffffffffffffffffff0219169055905560025f8681526020019081526020015f205f8573ffffffffffffffffffffffffffffffffffffffff1673ffffffffffffffffffffffffffffffffffffffff1681526020019081526020015f205f90558373ffffffffffffffffffffffffffffffffffffffff16857f3c0f07c4464f8658f1d10255ab6a1e4ad1e692d3dc82b1ce098eb45c70fcd6ba5f60405161109a9190611b5a565b60405180910390a35050505b5050565b6002602052815f5260405f20602052805f5260405f205f91509150505481565b6007602052805f5260405f205f915090505481565b5f60055f8773ffffffffffffffffffffffffffffffffffffffff1673ffffffffffffffffffffffffffffffffffffffff1681526020019081526020015f205f9054906101000a900460ff16600281111561113c5761113b6116ae565b5b60ff16846002811115611152576111516116ae565b5b60ff161015611163575f9050611491565b600360075f8873ffffffffffffffffffffffffffffffffffffffff1673ffffffffffffffffffffffffffffffffffffffff1681526020019081526020015f2054106111fc578573ffffffffffffffffffffffffffffffffffffffff167faa783be67f7284467d9bcf40296f96264522b9de7c4ab25f016e36814d7dbdb36040516111ec90611c85565b60405180910390a25f9050611491565b4260065f8873ffffffffffffffffffffffffffffffffffffffff1673ffffffffffffffffffffffffffffffffffffffff1681526020019081526020015f205403611248575f9050611491565b8573ffffffffffffffffffffffffffffffffffffffff1663a925fa9188878787876040518663ffffffff1660e01b8152600401611289959493929190611d33565b6020604051808303815f875af19250505080156112c457506040513d601f19601f820116820180604052508101906112c19190611da9565b60015b6113a6573d805f81146112f2576040519150601f19603f3d011682016040523d82523d5f602084013e6112f7565b606091505b5060075f8873ffffffffffffffffffffffffffffffffffffffff1673ffffffffffffffffffffffffffffffffffffffff1681526020019081526020015f205f815480929190611345906119b1565b91905055508673ffffffffffffffffffffffffffffffffffffffff16887f7dddfe305db5971deecef6d27cdfd56bb54ebaac6fe0a23518b7f66657f60a32885f8560405161139593929190611e34565b60405180910390a35f915050611491565b4260065f8973ffffffffffffffffffffffffffffffffffffffff1673ffffffffffffffffffffffffffffffffffffffff1681526020019081526020015f20819055505f60075f8973ffffffffffffffffffffffffffffffffffffffff1673ffffffffffffffffffffffffffffffffffffffff1681526020019081526020015f2081905550801561148c578673ffffffffffffffffffffffffffffffffffffffff16887f7dddfe305db5971deecef6d27cdfd56bb54ebaac6fe0a23518b7f66657f60a3288600160405161147a929190611e93565b60405180910390a36001915050611491565b505f90505b9695505050505050565b5f5ffd5b5f5ffd5b5f73ffffffffffffffffffffffffffffffffffffffff82169050919050565b5f6114cc826114a3565b9050919050565b6114dc816114c2565b81146114e6575f5ffd5b50565b5f813590506114f7816114d3565b92915050565b5f602082840312156115125761151161149b565b5b5f61151f848285016114e9565b91505092915050565b5f819050919050565b61153a81611528565b82525050565b5f6020820190506115535f830184611531565b92915050565b61156281611528565b811461156c575f5ffd5b50565b5f8135905061157d81611559565b92915050565b600c811061158f575f5ffd5b50565b5f813590506115a081611583565b92915050565b600381106115b2575f5ffd5b50565b5f813590506115c3816115a6565b92915050565b5f5ffd5b5f5ffd5b5f5ffd5b5f5f83601f8401126115ea576115e96115c9565b5b8235905067ffffffffffffffff811115611607576116066115cd565b5b602083019150836001820283011115611623576116226115d1565b5b9250929050565b5f5f5f5f5f608086880312156116435761164261149b565b5b5f6116508882890161156f565b955050602061166188828901611592565b9450506040611672888289016115b5565b935050606086013567ffffffffffffffff8111156116935761169261149f565b5b61169f888289016115d5565b92509250509295509295909350565b7f4e487b71000000000000000000000000000000000000000000000000000000005f52602160045260245ffd5b600381106116ec576116eb6116ae565b5b50565b5f8190506116fc826116db565b919050565b5f61170b826116ef565b9050919050565b61171b81611701565b82525050565b5f6020820190506117345f830184611712565b92915050565b5f5f5f606084860312156117515761175061149b565b5b5f61175e8682870161156f565b935050602061176f868287016114e9565b9250506040611780868287016115b5565b9150509250925092565b5f6020828403121561179f5761179e61149b565b5b5f6117ac8482850161156f565b91505092915050565b5f6040820190506117c85f830185611531565b6117d56020830184611531565b9392505050565b5f81519050919050565b5f82825260208201905092915050565b5f819050602082019050919050565b61180e816114c2565b82525050565b5f61181f8383611805565b60208301905092915050565b5f602082019050919050565b5f611841826117dc565b61184b81856117e6565b9350611856836117f6565b805f5b8381101561188657815161186d8882611814565b97506118788361182b565b925050600181019050611859565b5085935050505092915050565b5f6020820190508181035f8301526118ab8184611837565b905092915050565b5f5f604083850312156118c9576118c861149b565b5b5f6118d68582860161156f565b92505060206118e78582860161156f565b9150509250929050565b6118fa816114c2565b82525050565b5f6020820190506119135f8301846118f1565b92915050565b5f5f6040838503121561192f5761192e61149b565b5b5f61193c8582860161156f565b925050602061194d858286016114e9565b9150509250929050565b7f4e487b71000000000000000000000000000000000000000000000000000000005f52603260045260245ffd5b7f4e487b71000000000000000000000000000000000000000000000000000000005f52601160045260245ffd5b5f6119bb82611528565b91507fffffffffffffffffffffffffffffffffffffffffffffffffffffffffffffffff82036119ed576119ec611984565b5b600182019050919050565b5f82825260208201905092915050565b7f6f6e6c79206f776e6572000000000000000000000000000000000000000000005f82015250565b5f611a3c600a836119f8565b9150611a4782611a08565b602082019050919050565b5f6020820190508181035f830152611a6981611a30565b9050919050565b7f7a65726f20726573706f6e6465720000000000000000000000000000000000005f82015250565b5f611aa4600e836119f8565b9150611aaf82611a70565b602082019050919050565b5f6020820190508181035f830152611ad181611a98565b9050919050565b7f616c7265616479207265676973746572656400000000000000000000000000005f82015250565b5f611b0c6012836119f8565b9150611b1782611ad8565b602082019050919050565b5f6020820190508181035f830152611b3981611b00565b9050919050565b5f8115159050919050565b611b5481611b40565b82525050565b5f602082019050611b6d5f830184611b4b565b92915050565b7f6e6f7420726567697374657265640000000000000000000000000000000000005f82015250565b5f611ba7600e836119f8565b9150611bb282611b73565b602082019050919050565b5f6020820190508181035f830152611bd481611b9b565b9050919050565b5f611be582611528565b9150611bf083611528565b9250828203905081811115611c0857611c07611984565b5b92915050565b7f4e487b71000000000000000000000000000000000000000000000000000000005f52603160045260245ffd5b7f746f6f206d616e79206661696c757265730000000000000000000000000000005f82015250565b5f611c6f6011836119f8565b9150611c7a82611c3b565b602082019050919050565b5f6020820190508181035f830152611c9c81611c63565b9050919050565b600c8110611cb457611cb36116ae565b5b50565b5f819050611cc482611ca3565b919050565b5f611cd382611cb7565b9050919050565b611ce381611cc9565b82525050565b828183375f83830152505050565b5f601f19601f8301169050919050565b5f611d1283856119f8565b9350611d1f838584611ce9565b611d2883611cf7565b840190509392505050565b5f608082019050611d465f830188611531565b611d536020830187611cda565b611d606040830186611712565b8181036060830152611d73818486611d07565b90509695505050505050565b611d8881611b40565b8114611d92575f5ffd5b50565b5f81519050611da381611d7f565b92915050565b5f60208284031215611dbe57611dbd61149b565b5b5f611dcb84828501611d95565b91505092915050565b5f81519050919050565b5f82825260208201905092915050565b8281835e5f83830152505050565b5f611e0682611dd4565b611e108185611dde565b9350611e20818560208601611dee565b611e2981611cf7565b840191505092915050565b5f606082019050611e475f830186611cda565b611e546020830185611b4b565b8181036040830152611e668184611dfc565b9050949350505050565b50565b5f611e7e5f83611dde565b9150611e8982611e70565b5f82019050919050565b5f606082019050611ea65f830185611cda565b611eb36020830184611b4b565b8181036040830152611ec481611e73565b9050939250505056fea2646970667358221220bb39b4ff64832a3c0195a95ee5df0284f0e2e570e5818bf480894c483718e8bf64736f6c634300081e0033","linkReferences":{}},"methodIdentifiers":{"callFailureCount(address)":"e3329b1c","deregisterResponder(uint256,address)":"9c5f4724","getChainResponders(uint256)":"55e6c345","getGlobalResponders()":"40aad2ef","globalResponderIndex(address)":"07dd533c","globalResponders(uint256)":"5c4cb7c0","lastCallTime(address)":"86d922a9","notifyResponders(uint256,uint8,uint8,string)":"0aa2c7b6","owner()":"8da5cb5b","registerResponder(uint256,address,uint8)":"2d0c38a4","responderCount(uint256)":"35066cc4","responderIndex(uint256,address)":"b4473752","responderMinSeverity(address)":"10ffe97d","respondersByChain(uint256,uint256)":"41e861d7"},"id":27}