{"abi":[{"type":"constructor","inputs":[],"stateMutability":"nonpayable"},{"type":"function","name":"callFailureCount","inputs":[{"name":"","type":"address","internalType":"address"}],"outputs":[{"name":"","type":"uint256","internalType":"uint256"}],"stateMutability":"view"},{"type":"function","name":"deregisterResponder","inputs":[{"name":"chainId","type":"uint256","internalType":"uint256"},{"name":"responder","type":"address","internalType":"address"}],"outputs":[],"stateMutability":"nonpayable"},{"type":"function","name":"getChainResponders","inputs":[{"name":"chainId","type":"uint256","internalType":"uint256"}],"outputs":[{"name":"","type":"address[]","internalType":"address[]"}],"stateMutability":"view"},{"type":"function","name":"getGlobalResponders","inputs":[],"outputs":[{"name":"","type":"address[]","internalType":"address[]"}],"stateMutability":"view"},{"type":"function","name":"globalResponderIndex","inputs":[{"name":"","type":"address","internalType":"address"}],"outputs":[{"name":"","type":"uint256","internalType":"uint256"}],"stateMutability":"view"},{"type":"function","name":"globalResponders","inputs":[{"name":"","type":"uint256","internalType":"uint256"}],"outputs":[{"name":"","type":"address","internalType":"address"}],"stateMutability":"view"},{"type":"function","name":"lastCallTime","inputs":[{"name":"","type":"address","internalType":"address"}],"outputs":[{"name":"","type":"uint256","internalType":"uint256"}],"stateMutability":"view"},{"type":"function","name":"notifyResponders","inputs":[{"name":"chainId","type":"uint256","internalType":"uint256"},{"name":"signalType","type":"uint8","internalType":"enum SignalTypes.SignalType"},{"name":"severity","type":"uint8","internalType":"enum SignalTypes.Severity"},{"name":"description","type":"string","internalType":"string"}],"outputs":[{"name":"successCount","type":"uint256","internalType":"uint256"}],"stateMutability":"nonpayable"},{"type":"function","name":"owner","inputs":[],"outputs":[{"name":"","type":"address","internalType":"address"}],"stateMutability":"view"},{"type":"function","name":"registerResponder","inputs":[{"name":"chainId","type":"uint256","internalType":"uint256"},{"name":"responder","type":"address","internalType":"address"},{"name":"minSeverity","type":"uint8","internalType":"enum SignalTypes.Severity"}],"outputs":[],"stateMutability":"nonpayable"},{"type":"function","name":"responderCount","inputs":[{"name":"chainId","type":"uint256","internalType":"uint256"}],"outputs":[{"name":"chainSpecific","type":"uint256","internalType":"uint256"},{"name":"global","type":"uint256","internalType":"uint256"}],"stateMutability":"view"},{"type":"function","name":"responderIndex","inputs":[{"name":"","type":"uint256","internalType":"uint256"},{"name":"","type":"address","internalType":"address"}],"outputs":[{"name":"","type":"uint256","internalType":"uint256"}],"stateMutability":"view"},{"type":"function","name":"responderMinSeverity","inputs":[{"name":"","type":"address","internalType":"address"}],"outputs":[{"name":"","type":"uint8","internalType":"enum SignalTypes.Severity"}],"stateMutability":"view"},{"type":"function","name":"respondersByChain","inputs":[{"name":"","type":"uint256","internalType":"uint256"},{"name":"","type":"uint256","internalType":"uint256"}],"outputs":[{"name":"","type":"address","internalType":"address"}],"stateMutability":"view"},{"type":"event","name":"ResponderCalled","inputs":[{"name":"chainId","type":"uint256","indexed":true,"internalType":"uint256"},{"name":"responder","type":"address","indexed":true,"internalType":"address"},{"name":"signalType","type":"uint8","indexed":false,"internalType":"enum SignalTypes.SignalType"},{"name":"success","type":"bool","indexed":false,"internalType":"bool"},{"name":"returnData","type":"bytes","indexed":false,"internalType":"bytes"}],"anonymous":false},{"type":"event","name":"ResponderDeregistered","inputs":[{"name":"chainId","type":"uint256","indexed":true,"internalType":"uint256"},{"name":"responder","type":"address","indexed":true,"internalType":"address"},{"name":"isGlobal","type":"bool","indexed":false,"internalType":"bool"}],"anonymous":false},{"type":"event","name":"ResponderDisabled","inputs":[{"name":"responder","type":"address","indexed":true,"internalType":"address"},{"name":"reason","type":"string","indexed":false,"internalType":"string"}],"anonymous":false},{"type":"event","name":"ResponderRegistered","inputs":[{"name":"chainId","type":"uint256","indexed":true,"internalType":"uint256"},{"name":"responder","type":"address","indexed":true,"internalType":"address"},{"name":"isGlobal","type":"bool","indexed":false,"internalType":"bool"}],"anonymous":false}],"bytecode":{"object":"0x6080604052348015600e575f5ffd5b50335f5f6101000a81548173ffffffffffffffffffffffffffffffffffffffff021916908373ffffffffffffffffffffffffffffffffffffffff160217905550611e878061005b5f395ff3fe608060405234801561000f575f5ffd5b50600436106100e8575f3560e01c806355e6c3451161008a5780638da5cb5b116100645780638da5cb5b146102a75780639c5f4724146102c5578063b4473752146102e1578063e3329b1c14610311576100e8565b806355e6c345146102175780635c4cb7c01461024757806386d922a914610277576100e8565b80632d0c38a4116100c65780632d0c38a41461017c57806335066cc41461019857806340aad2ef146101c957806341e861d7146101e7576100e8565b806307dd533c146100ec5780630aa2c7b61461011c57806310ffe97d1461014c575b5f5ffd5b61010660048036038101906101019190611481565b610341565b60405161011391906114c4565b60405180910390f35b610136600480360381019061013191906115ae565b610356565b60405161014391906114c4565b60405180910390f35b61016660048036038101906101619190611481565b61046d565b60405161017391906116a5565b60405180910390f35b610196600480360381019061019191906116be565b61048a565b005b6101b260048036038101906101ad919061170e565b61089d565b6040516101c0929190611739565b60405180910390f35b6101d16108c3565b6040516101de9190611817565b60405180910390f35b61020160048036038101906101fc9190611837565b61094e565b60405161020e9190611884565b60405180910390f35b610231600480360381019061022c919061170e565b610996565b60405161023e9190611817565b60405180910390f35b610261600480360381019061025c919061170e565b610a32565b60405161026e9190611884565b60405180910390f35b610291600480360381019061028c9190611481565b610a6d565b60405161029e91906114c4565b60405180910390f35b6102af610a82565b6040516102bc9190611884565b60405180910390f35b6102df60048036038101906102da919061189d565b610aa6565b005b6102fb60048036038101906102f6919061189d565b610f9e565b60405161030891906114c4565b60405180910390f35b61032b60048036038101906103269190611481565b610fbe565b60405161033891906114c4565b60405180910390f35b6004602052805f5260405f205f915090505481565b5f5f60015f8881526020019081526020015f2090505f5f90505b81805490508110156103e5576103c488838381548110610393576103926118db565b5b905f5260205f20015f9054906101000a900473ffffffffffffffffffffffffffffffffffffffff1689898989610fd3565b156103d85782806103d490611935565b9350505b8080600101915050610370565b505f5f90505b6003805490508110156104625761044188600383815481106104105761040f6118db565b5b905f5260205f20015f9054906101000a900473ffffffffffffffffffffffffffffffffffffffff1689898989610fd3565b1561045557828061045190611935565b9350505b80806001019150506103eb565b505095945050505050565b6005602052805f5260405f205f915054906101000a900460ff1681565b61049261138f565b5f73ffffffffffffffffffffffffffffffffffffffff168273ffffffffffffffffffffffffffffffffffffffff1603610500576040517f08c379a00000000000000000000000000000000000000000000000000000000081526004016104f7906119d6565b60405180910390fd5b8060055f8473ffffffffffffffffffffffffffffffffffffffff1673ffffffffffffffffffffffffffffffffffffffff1681526020019081526020015f205f6101000a81548160ff0219169083600281111561055f5761055e611632565b5b02179055505f83036106e6575f60045f8473ffffffffffffffffffffffffffffffffffffffff1673ffffffffffffffffffffffffffffffffffffffff1681526020019081526020015f2054146105ea576040517f08c379a00000000000000000000000000000000000000000000000000000000081526004016105e190611a3e565b60405180910390fd5b600382908060018154018082558091505060019003905f5260205f20015f9091909190916101000a81548173ffffffffffffffffffffffffffffffffffffffff021916908373ffffffffffffffffffffffffffffffffffffffff16021790555060038054905060045f8473ffffffffffffffffffffffffffffffffffffffff1673ffffffffffffffffffffffffffffffffffffffff1681526020019081526020015f20819055508173ffffffffffffffffffffffffffffffffffffffff165f7f63eb010a56c6d3b0022a95f6363a82ff967e8686d33164ef2701d44d5d0aff0060016040516106d99190611a76565b60405180910390a3610898565b5f60025f8581526020019081526020015f205f8473ffffffffffffffffffffffffffffffffffffffff1673ffffffffffffffffffffffffffffffffffffffff1681526020019081526020015f205414610774576040517f08c379a000000000000000000000000000000000000000000000000000000000815260040161076b90611a3e565b60405180910390fd5b60015f8481526020019081526020015f2082908060018154018082558091505060019003905f5260205f20015f9091909190916101000a81548173ffffffffffffffffffffffffffffffffffffffff021916908373ffffffffffffffffffffffffffffffffffffffff16021790555060015f8481526020019081526020015f208054905060025f8581526020019081526020015f205f8473ffffffffffffffffffffffffffffffffffffffff1673ffffffffffffffffffffffffffffffffffffffff1681526020019081526020015f20819055508173ffffffffffffffffffffffffffffffffffffffff16837f63eb010a56c6d3b0022a95f6363a82ff967e8686d33164ef2701d44d5d0aff005f60405161088f9190611a76565b60405180910390a35b505050565b5f5f60015f8481526020019081526020015f208054905060038054905091509150915091565b6060600380548060200260200160405190810160405280929190818152602001828054801561094457602002820191905f5260205f20905b815f9054906101000a900473ffffffffffffffffffffffffffffffffffffffff1673ffffffffffffffffffffffffffffffffffffffff16815260200190600101908083116108fb575b5050505050905090565b6001602052815f5260405f208181548110610967575f80fd5b905f5260205f20015f915091509054906101000a900473ffffffffffffffffffffffffffffffffffffffff1681565b606060015f8381526020019081526020015f20805480602002602001604051908101604052809291908181526020018280548015610a2657602002820191905f5260205f20905b815f9054906101000a900473ffffffffffffffffffffffffffffffffffffffff1673ffffffffffffffffffffffffffffffffffffffff16815260200190600101908083116109dd575b50505050509050919050565b60038181548110610a41575f80fd5b905f5260205f20015f915054906101000a900473ffffffffffffffffffffffffffffffffffffffff1681565b6006602052805f5260405f205f915090505481565b5f5f9054906101000a900473ffffffffffffffffffffffffffffffffffffffff1681565b610aae61138f565b5f8203610d0b575f60045f8373ffffffffffffffffffffffffffffffffffffffff1673ffffffffffffffffffffffffffffffffffffffff1681526020019081526020015f205490505f8111610b38576040517f08c379a0000000000000000000000000000000000000000000000000000000008152600401610b2f90611ad9565b60405180910390fd5b5f60036001600380549050610b4d9190611af7565b81548110610b5e57610b5d6118db565b5b905f5260205f20015f9054906101000a900473ffffffffffffffffffffffffffffffffffffffff169050806003600184610b989190611af7565b81548110610ba957610ba86118db565b5b905f5260205f20015f6101000a81548173ffffffffffffffffffffffffffffffffffffffff021916908373ffffffffffffffffffffffffffffffffffffffff1602179055508160045f8373ffffffffffffffffffffffffffffffffffffffff1673ffffffffffffffffffffffffffffffffffffffff1681526020019081526020015f20819055506003805480610c4257610c41611b2a565b5b600190038181905f5260205f20015f6101000a81549073ffffffffffffffffffffffffffffffffffffffff0219169055905560045f8473ffffffffffffffffffffffffffffffffffffffff1673ffffffffffffffffffffffffffffffffffffffff1681526020019081526020015f205f90558273ffffffffffffffffffffffffffffffffffffffff165f7f3c0f07c4464f8658f1d10255ab6a1e4ad1e692d3dc82b1ce098eb45c70fcd6ba6001604051610cfc9190611a76565b60405180910390a35050610f9a565b5f60025f8481526020019081526020015f205f8373ffffffffffffffffffffffffffffffffffffffff1673ffffffffffffffffffffffffffffffffffffffff1681526020019081526020015f205490505f8111610d9d576040517f08c379a0000000000000000000000000000000000000000000000000000000008152600401610d9490611ad9565b60405180910390fd5b5f60015f8581526020019081526020015f2090505f8160018380549050610dc49190611af7565b81548110610dd557610dd46118db565b5b905f5260205f20015f9054906101000a900473ffffffffffffffffffffffffffffffffffffffff1690508082600185610e0e9190611af7565b81548110610e1f57610e1e6118db565b5b905f5260205f20015f6101000a81548173ffffffffffffffffffffffffffffffffffffffff021916908373ffffffffffffffffffffffffffffffffffffffff1602179055508260025f8781526020019081526020015f205f8373ffffffffffffffffffffffffffffffffffffffff1673ffffffffffffffffffffffffffffffffffffffff1681526020019081526020015f208190555081805480610ec657610ec5611b2a565b5b600190038181905f5260205f20015f6101000a81549073ffffffffffffffffffffffffffffffffffffffff0219169055905560025f8681526020019081526020015f205f8573ffffffffffffffffffffffffffffffffffffffff1673ffffffffffffffffffffffffffffffffffffffff1681526020019081526020015f205f90558373ffffffffffffffffffffffffffffffffffffffff16857f3c0f07c4464f8658f1d10255ab6a1e4ad1e692d3dc82b1ce098eb45c70fcd6ba5f604051610f8e9190611a76565b60405180910390a35050505b5050565b6002602052815f5260405f20602052805f5260405f205f91509150505481565b6007602052805f5260405f205f915090505481565b5f60055f8773ffffffffffffffffffffffffffffffffffffffff1673ffffffffffffffffffffffffffffffffffffffff1681526020019081526020015f205f9054906101000a900460ff1660028111156110305761102f611632565b5b60ff1684600281111561104657611045611632565b5b60ff161015611057575f9050611385565b600360075f8873ffffffffffffffffffffffffffffffffffffffff1673ffffffffffffffffffffffffffffffffffffffff1681526020019081526020015f2054106110f0578573ffffffffffffffffffffffffffffffffffffffff167faa783be67f7284467d9bcf40296f96264522b9de7c4ab25f016e36814d7dbdb36040516110e090611ba1565b60405180910390a25f9050611385565b4260065f8873ffffffffffffffffffffffffffffffffffffffff1673ffffffffffffffffffffffffffffffffffffffff1681526020019081526020015f20540361113c575f9050611385565b8573ffffffffffffffffffffffffffffffffffffffff1663a925fa9188878787876040518663ffffffff1660e01b815260040161117d959493929190611c4f565b6020604051808303815f875af19250505080156111b857506040513d601f19601f820116820180604052508101906111b59190611cc5565b60015b61129a573d805f81146111e6576040519150601f19603f3d011682016040523d82523d5f602084013e6111eb565b606091505b5060075f8873ffffffffffffffffffffffffffffffffffffffff1673ffffffffffffffffffffffffffffffffffffffff1681526020019081526020015f205f81548092919061123990611935565b91905055508673ffffffffffffffffffffffffffffffffffffffff16887f7dddfe305db5971deecef6d27cdfd56bb54ebaac6fe0a23518b7f66657f60a32885f8560405161128993929190611d50565b60405180910390a35f915050611385565b4260065f8973ffffffffffffffffffffffffffffffffffffffff1673ffffffffffffffffffffffffffffffffffffffff1681526020019081526020015f20819055505f60075f8973ffffffffffffffffffffffffffffffffffffffff1673ffffffffffffffffffffffffffffffffffffffff1681526020019081526020015f20819055508015611380578673ffffffffffffffffffffffffffffffffffffffff16887f7dddfe305db5971deecef6d27cdfd56bb54ebaac6fe0a23518b7f66657f60a3288600160405161136e929190611daf565b60405180910390a36001915050611385565b505f90505b9695505050505050565b5f5f9054906101000a900473ffffffffffffffffffffffffffffffffffffffff1673ffffffffffffffffffffffffffffffffffffffff163373ffffffffffffffffffffffffffffffffffffffff161461141d576040517f08c379a000000000000000000000000000000000000000000000000000000000815260040161141490611e33565b60405180910390fd5b565b5f5ffd5b5f5ffd5b5f73ffffffffffffffffffffffffffffffffffffffff82169050919050565b5f61145082611427565b9050919050565b61146081611446565b811461146a575f5ffd5b50565b5f8135905061147b81611457565b92915050565b5f602082840312156114965761149561141f565b5b5f6114a38482850161146d565b91505092915050565b5f819050919050565b6114be816114ac565b82525050565b5f6020820190506114d75f8301846114b5565b92915050565b6114e6816114ac565b81146114f0575f5ffd5b50565b5f81359050611501816114dd565b92915050565b600c8110611513575f5ffd5b50565b5f8135905061152481611507565b92915050565b60038110611536575f5ffd5b50565b5f813590506115478161152a565b92915050565b5f5ffd5b5f5ffd5b5f5ffd5b5f5f83601f84011261156e5761156d61154d565b5b8235905067ffffffffffffffff81111561158b5761158a611551565b5b6020830191508360018202830111156115a7576115a6611555565b5b9250929050565b5f5f5f5f5f608086880312156115c7576115c661141f565b5b5f6115d4888289016114f3565b95505060206115e588828901611516565b94505060406115f688828901611539565b935050606086013567ffffffffffffffff81111561161757611616611423565b5b61162388828901611559565b92509250509295509295909350565b7f4e487b71000000000000000000000000000000000000000000000000000000005f52602160045260245ffd5b600381106116705761166f611632565b5b50565b5f8190506116808261165f565b919050565b5f61168f82611673565b9050919050565b61169f81611685565b82525050565b5f6020820190506116b85f830184611696565b92915050565b5f5f5f606084860312156116d5576116d461141f565b5b5f6116e2868287016114f3565b93505060206116f38682870161146d565b925050604061170486828701611539565b9150509250925092565b5f602082840312156117235761172261141f565b5b5f611730848285016114f3565b91505092915050565b5f60408201905061174c5f8301856114b5565b61175960208301846114b5565b9392505050565b5f81519050919050565b5f82825260208201905092915050565b5f819050602082019050919050565b61179281611446565b82525050565b5f6117a38383611789565b60208301905092915050565b5f602082019050919050565b5f6117c582611760565b6117cf818561176a565b93506117da8361177a565b805f5b8381101561180a5781516117f18882611798565b97506117fc836117af565b9250506001810190506117dd565b5085935050505092915050565b5f6020820190508181035f83015261182f81846117bb565b905092915050565b5f5f6040838503121561184d5761184c61141f565b5b5f61185a858286016114f3565b925050602061186b858286016114f3565b9150509250929050565b61187e81611446565b82525050565b5f6020820190506118975f830184611875565b92915050565b5f5f604083850312156118b3576118b261141f565b5b5f6118c0858286016114f3565b92505060206118d18582860161146d565b9150509250929050565b7f4e487b71000000000000000000000000000000000000000000000000000000005f52603260045260245ffd5b7f4e487b71000000000000000000000000000000000000000000000000000000005f52601160045260245ffd5b5f61193f826114ac565b91507fffffffffffffffffffffffffffffffffffffffffffffffffffffffffffffffff820361197157611970611908565b5b600182019050919050565b5f82825260208201905092915050565b7f7a65726f20726573706f6e6465720000000000000000000000000000000000005f82015250565b5f6119c0600e8361197c565b91506119cb8261198c565b602082019050919050565b5f6020820190508181035f8301526119ed816119b4565b9050919050565b7f616c7265616479207265676973746572656400000000000000000000000000005f82015250565b5f611a2860128361197c565b9150611a33826119f4565b602082019050919050565b5f6020820190508181035f830152611a5581611a1c565b9050919050565b5f8115159050919050565b611a7081611a5c565b82525050565b5f602082019050611a895f830184611a67565b92915050565b7f6e6f7420726567697374657265640000000000000000000000000000000000005f82015250565b5f611ac3600e8361197c565b9150611ace82611a8f565b602082019050919050565b5f6020820190508181035f830152611af081611ab7565b9050919050565b5f611b01826114ac565b9150611b0c836114ac565b9250828203905081811115611b2457611b23611908565b5b92915050565b7f4e487b71000000000000000000000000000000000000000000000000000000005f52603160045260245ffd5b7f746f6f206d616e79206661696c757265730000000000000000000000000000005f82015250565b5f611b8b60118361197c565b9150611b9682611b57565b602082019050919050565b5f6020820190508181035f830152611bb881611b7f565b9050919050565b600c8110611bd057611bcf611632565b5b50565b5f819050611be082611bbf565b919050565b5f611bef82611bd3565b9050919050565b611bff81611be5565b82525050565b828183375f83830152505050565b5f601f19601f8301169050919050565b5f611c2e838561197c565b9350611c3b838584611c05565b611c4483611c13565b840190509392505050565b5f608082019050611c625f8301886114b5565b611c6f6020830187611bf6565b611c7c6040830186611696565b8181036060830152611c8f818486611c23565b90509695505050505050565b611ca481611a5c565b8114611cae575f5ffd5b50565b5f81519050611cbf81611c9b565b92915050565b5f60208284031215611cda57611cd961141f565b5b5f611ce784828501611cb1565b91505092915050565b5f81519050919050565b5f82825260208201905092915050565b8281835e5f83830152505050565b5f611d2282611cf0565b611d2c8185611cfa565b9350611d3c818560208601611d0a565b611d4581611c13565b840191505092915050565b5f606082019050611d635f830186611bf6565b611d706020830185611a67565b8181036040830152611d828184611d18565b9050949350505050565b50565b5f611d9a5f83611cfa565b9150611da582611d8c565b5f82019050919050565b5f606082019050611dc25f830185611bf6565b611dcf6020830184611a67565b8181036040830152611de081611d8f565b90509392505050565b7f6f6e6c79206f776e6572000000000000000000000000000000000000000000005f82015250565b5f611e1d600a8361197c565b9150611e2882611de9565b602082019050919050565b5f6020820190508181035f830152611e4a81611e11565b905091905056fea264697066735822122061d24ef4eb4a401ea8584508467617fedd730f8b4050656d58be29a116003c6f64736f6c634300081e0033","linkReferences":{}},"methodIdentifiers":{"callFailureCount(address)":"e3329b1c","deregisterResponder(uint256,address)":"9c5f4724","getChainResponders(uint256)":"55e6c345","getGlobalResponders()":"40aad2ef","globalResponderIndex(address)":"07dd533c","globalResponders(uint256)":"5c4cb7c0","lastCallTime(address)":"86d922a9","notifyResponders(uint256,uint8,uint8,string)":"0aa2c7b6","owner()":"8da5cb5b","registerResponder(uint256,address,uint8)":"2d0c38a4","responderCount(uint256)":"35066cc4","responderIndex(uint256,address)":"b4473752","responderMinSeverity(address)":"10ffe97d","respondersByChain(uint256,uint256)":"41e861d7"},"id":28}