{"abi":[{"type":"constructor","inputs":[{"name":"_registry","type":"address","internalType":"address"},{"name":"_incidents","type":"address","internalType":"address"},{"name":"_reporter","type":"address","internalType":"address"}],"stateMutability":"nonpayable"},{"type":"function","name":"INCIDENT_COOLDOWN","inputs":[],"outputs":[{"name":"","type":"uint256","internalType":"uint256"}],"stateMutability":"view"},{"type":"function","name":"RATE_LIMIT_SECONDS","inputs":[],"outputs":[{"name":"","type":"uint256","internalType":"uint256"}],"stateMutability":"view"},{"type":"function","name":"getSignal","inputs":[{"name":"index","type":"uint256","internalType":"uint256"}],"outputs":[{"name":"","type":"tuple","internalType":"struct HealthReporter.HealthSignal","components":[{"name":"chainId","type":"uint256","internalType":"uint256"},{"name":"blockNumber","type":"uint256","internalType":"uint256"},{"name":"blockTimestamp","type":"uint256","internalType":"uint256"},{"name":"sequencerNumber","type":"uint256","internalType":"uint256"},{"name":"sequencerHealthy","type":"bool","internalType":"bool"},{"name":"details","type":"string","internalType":"string"}]}],"stateMutability":"view"},{"type":"function","name":"getSignalCount","inputs":[],"outputs":[{"name":"","type":"uint256","internalType":"uint256"}],"stateMutability":"view"},{"type":"function","name":"incidents","inputs":[],"outputs":[{"name":"","type":"address","internalType":"contract IncidentManager"}],"stateMutability":"view"},{"type":"function","name":"lastBlockNumber","inputs":[{"name":"","type":"uint256","internalType":"uint256"}],"outputs":[{"name":"","type":"uint256","internalType":"uint256"}],"stateMutability":"view"},{"type":"function","name":"lastBlockTimestamp","inputs":[{"name":"","type":"uint256","internalType":"uint256"}],"outputs":[{"name":"","type":"uint256","internalType":"uint256"}],"stateMutability":"view"},{"type":"function","name":"lastIncidentTime","inputs":[{"name":"","type":"uint256","internalType":"uint256"}],"outputs":[{"name":"","type":"uint256","internalType":"uint256"}],"stateMutability":"view"},{"type":"function","name":"lastSignalTime","inputs":[{"name":"","type":"uint256","internalType":"uint256"}],"outputs":[{"name":"","type":"uint256","internalType":"uint256"}],"stateMutability":"view"},{"type":"function","name":"registry","inputs":[],"outputs":[{"name":"","type":"address","internalType":"contract OrbitChainRegistry"}],"stateMutability":"view"},{"type":"function","name":"reporter","inputs":[],"outputs":[{"name":"","type":"address","internalType":"address"}],"stateMutability":"view"},{"type":"function","name":"setReporter","inputs":[{"name":"_newReporter","type":"address","internalType":"address"}],"outputs":[],"stateMutability":"nonpayable"},{"type":"function","name":"signals","inputs":[{"name":"","type":"uint256","internalType":"uint256"}],"outputs":[{"name":"chainId","type":"uint256","internalType":"uint256"},{"name":"blockNumber","type":"uint256","internalType":"uint256"},{"name":"blockTimestamp","type":"uint256","internalType":"uint256"},{"name":"sequencerNumber","type":"uint256","internalType":"uint256"},{"name":"sequencerHealthy","type":"bool","internalType":"bool"},{"name":"details","type":"string","internalType":"string"}],"stateMutability":"view"},{"type":"function","name":"submitHealthSignal","inputs":[{"name":"chainId","type":"uint256","internalType":"uint256"},{"name":"blockNumber","type":"uint256","internalType":"uint256"},{"name":"blockTimestamp","type":"uint256","internalType":"uint256"},{"name":"sequencerNumber","type":"uint256","internalType":"uint256"},{"name":"sequencerHealthy","type":"bool","internalType":"bool"},{"name":"details","type":"string","internalType":"string"}],"outputs":[],"stateMutability":"nonpayable"},{"type":"event","name":"HealthSignalReceived","inputs":[{"name":"chainId","type":"uint256","indexed":true,"internalType":"uint256"},{"name":"blockNumber","type":"uint256","indexed":false,"internalType":"uint256"},{"name":"blockTimestamp","type":"uint256","indexed":false,"internalType":"uint256"},{"name":"details","type":"string","indexed":false,"internalType":"string"}],"anonymous":false},{"type":"event","name":"IncidentTriggered","inputs":[{"name":"chainId","type":"uint256","indexed":true,"internalType":"uint256"},{"name":"failureType","type":"uint8","indexed":false,"internalType":"enum IncidentManager.FailureType"},{"name":"details","type":"string","indexed":false,"internalType":"string"}],"anonymous":false}],"bytecode":{"object":"0x608060405234801561000f575f5ffd5b506040516128db3803806128db833981810160405281019061003191906102a0565b5f73ffffffffffffffffffffffffffffffffffffffff168373ffffffffffffffffffffffffffffffffffffffff160361009f576040517f08c379a00000000000000000000000000000000000000000000000000000000081526004016100969061034a565b60405180910390fd5b5f73ffffffffffffffffffffffffffffffffffffffff168273ffffffffffffffffffffffffffffffffffffffff160361010d576040517f08c379a0000000000000000000000000000000000000000000000000000000008152600401610104906103b2565b60405180910390fd5b5f73ffffffffffffffffffffffffffffffffffffffff168173ffffffffffffffffffffffffffffffffffffffff160361017b576040517f08c379a00000000000000000000000000000000000000000000000000000000081526004016101729061041a565b60405180910390fd5b825f5f6101000a81548173ffffffffffffffffffffffffffffffffffffffff021916908373ffffffffffffffffffffffffffffffffffffffff1602179055508160015f6101000a81548173ffffffffffffffffffffffffffffffffffffffff021916908373ffffffffffffffffffffffffffffffffffffffff1602179055508060025f6101000a81548173ffffffffffffffffffffffffffffffffffffffff021916908373ffffffffffffffffffffffffffffffffffffffff160217905550505050610438565b5f5ffd5b5f73ffffffffffffffffffffffffffffffffffffffff82169050919050565b5f61026f82610246565b9050919050565b61027f81610265565b8114610289575f5ffd5b50565b5f8151905061029a81610276565b92915050565b5f5f5f606084860312156102b7576102b6610242565b5b5f6102c48682870161028c565b93505060206102d58682870161028c565b92505060406102e68682870161028c565b9150509250925092565b5f82825260208201905092915050565b7f7a65726f207265676973747279000000000000000000000000000000000000005f82015250565b5f610334600d836102f0565b915061033f82610300565b602082019050919050565b5f6020820190508181035f83015261036181610328565b9050919050565b7f7a65726f20696e636964656e74730000000000000000000000000000000000005f82015250565b5f61039c600e836102f0565b91506103a782610368565b602082019050919050565b5f6020820190508181035f8301526103c981610390565b9050919050565b7f7a65726f207265706f72746572000000000000000000000000000000000000005f82015250565b5f610404600d836102f0565b915061040f826103d0565b602082019050919050565b5f6020820190508181035f830152610431816103f8565b9050919050565b612496806104455f395ff3fe608060405234801561000f575f5ffd5b50600436106100e8575f3560e01c8063828e58e21161008a578063bc29107c11610064578063bc29107c14610263578063be0464491461027f578063c4e5b86c1461029d578063dfb76d64146102cd576100e8565b8063828e58e2146101e5578063a409a64514610215578063a9fd09fc14610245576100e8565b80634b227336116100c65780634b2273361461016f5780634c9250321461018d578063592ee87a146101a95780637b103999146101c7576100e8565b8063010ec441146100ec57806302c9913d1461010a57806347c740cd1461013a575b5f5ffd5b6100f46102fd565b6040516101019190611044565b60405180910390f35b610124600480360381019061011f91906110a1565b610322565b60405161013191906110db565b60405180910390f35b610154600480360381019061014f91906110a1565b610337565b6040516101669695949392919061117e565b60405180910390f35b610177610410565b604051610184919061123f565b60405180910390f35b6101a760048036038101906101a29190611282565b610435565b005b6101b1610575565b6040516101be91906110db565b60405180910390f35b6101cf610581565b6040516101dc91906112cd565b60405180910390f35b6101ff60048036038101906101fa91906110a1565b6105a5565b60405161020c91906113d2565b60405180910390f35b61022f600480360381019061022a91906110a1565b6106f7565b60405161023c91906110db565b60405180910390f35b61024d61070c565b60405161025a91906110db565b60405180910390f35b61027d6004803603810190610278919061147d565b610712565b005b610287610cf1565b60405161029491906110db565b60405180910390f35b6102b760048036038101906102b291906110a1565b610cf6565b6040516102c491906110db565b60405180910390f35b6102e760048036038101906102e291906110a1565b610d0b565b6040516102f491906110db565b60405180910390f35b60025f9054906101000a900473ffffffffffffffffffffffffffffffffffffffff1681565b6005602052805f5260405f205f915090505481565b60038181548110610346575f80fd5b905f5260205f2090600602015f91509050805f015490806001015490806002015490806003015490806004015f9054906101000a900460ff169080600501805461038f90611554565b80601f01602080910402602001604051908101604052809291908181526020018280546103bb90611554565b80156104065780601f106103dd57610100808354040283529160200191610406565b820191905f5260205f20905b8154815290600101906020018083116103e957829003601f168201915b5050505050905086565b60015f9054906101000a900473ffffffffffffffffffffffffffffffffffffffff1681565b60015f9054906101000a900473ffffffffffffffffffffffffffffffffffffffff1673ffffffffffffffffffffffffffffffffffffffff163373ffffffffffffffffffffffffffffffffffffffff16146104c4576040517f08c379a00000000000000000000000000000000000000000000000000000000081526004016104bb906115ce565b60405180910390fd5b5f73ffffffffffffffffffffffffffffffffffffffff168173ffffffffffffffffffffffffffffffffffffffff1603610532576040517f08c379a000000000000000000000000000000000000000000000000000000000815260040161052990611636565b60405180910390fd5b8060025f6101000a81548173ffffffffffffffffffffffffffffffffffffffff021916908373ffffffffffffffffffffffffffffffffffffffff16021790555050565b5f600380549050905090565b5f5f9054906101000a900473ffffffffffffffffffffffffffffffffffffffff1681565b6105ad610fd2565b60038054905082106105f4576040517f08c379a00000000000000000000000000000000000000000000000000000000081526004016105eb9061169e565b60405180910390fd5b60038281548110610608576106076116bc565b5b905f5260205f2090600602016040518060c00160405290815f8201548152602001600182015481526020016002820154815260200160038201548152602001600482015f9054906101000a900460ff1615151515815260200160058201805461067090611554565b80601f016020809104026020016040519081016040528092919081815260200182805461069c90611554565b80156106e75780601f106106be576101008083540402835291602001916106e7565b820191905f5260205f20905b8154815290600101906020018083116106ca57829003601f168201915b5050505050815250509050919050565b6006602052805f5260405f205f915090505481565b61012c81565b60025f9054906101000a900473ffffffffffffffffffffffffffffffffffffffff1673ffffffffffffffffffffffffffffffffffffffff163373ffffffffffffffffffffffffffffffffffffffff16146107a1576040517f08c379a000000000000000000000000000000000000000000000000000000000815260040161079890611733565b60405180910390fd5b5f86116107e3576040517f08c379a00000000000000000000000000000000000000000000000000000000081526004016107da9061179b565b60405180910390fd5b5f8511610825576040517f08c379a000000000000000000000000000000000000000000000000000000000815260040161081c90611803565b60405180910390fd5b5f828290501161086a576040517f08c379a00000000000000000000000000000000000000000000000000000000081526004016108619061186b565b60405180910390fd5b6102008282905011156108b2576040517f08c379a00000000000000000000000000000000000000000000000000000000081526004016108a9906118d3565b60405180910390fd5b5f5f5f9054906101000a900473ffffffffffffffffffffffffffffffffffffffff1673ffffffffffffffffffffffffffffffffffffffff1663b6791ad4896040518263ffffffff1660e01b815260040161090c91906110db565b5f60405180830381865afa158015610926573d5f5f3e3d5ffd5b505050506040513d5f823e3d601f19601f8201168201806040525081019061094e9190611b1c565b90508060a00151610994576040517f08c379a000000000000000000000000000000000000000000000000000000000815260040161098b90611bad565b60405180910390fd5b5f60045f8a81526020019081526020015f205490505f60055f8b81526020019081526020015f205490505f821115610a4c57818911610a08576040517f08c379a00000000000000000000000000000000000000000000000000000000081526004016109ff90611c15565b60405180910390fd5b80881015610a4b576040517f08c379a0000000000000000000000000000000000000000000000000000000008152600401610a4290611c7d565b60405180910390fd5b5b5f60065f8c81526020019081526020015f205490505f811115610ab957601e8142610a779190611cc8565b1015610ab8576040517f08c379a0000000000000000000000000000000000000000000000000000000008152600401610aaf90611d6b565b60405180910390fd5b5b8960045f8d81526020019081526020015f20819055508860055f8d81526020019081526020015f20819055504260065f8d81526020019081526020015f208190555060036040518060c001604052808d81526020018c81526020018b81526020018a8152602001891515815260200188888080601f0160208091040260200160405190810160405280939291908181526020018383808284375f81840152601f19601f82011690508083019250505050505050815250908060018154018082558091505060019003905f5260205f2090600602015f909190919091505f820151815f01556020820151816001015560408201518160020155606082015181600301556080820151816004015f6101000a81548160ff02191690831515021790555060a0820151816005019081610bef9190611f20565b5050508a7fc2f3c383e25c8291ceda631b6a887f25bb4af5f4f8a1df0abf1d25f601d388f18b8b8989604051610c289493929190612029565b60405180910390a25f831115610c9a575f828a610c459190611cc8565b90508460800151811115610c9857610c978c6001808787610c6587610d20565b610c728c60800151610d20565b604051602001610c8392919061217f565b604051602081830303815290604052610e9e565b5b505b86610ce457610ce38b5f600186866040518060400160405280601a81526020017f53657175656e63657220756e6865616c74687920737461747573000000000000815250610e9e565b5b5050505050505050505050565b601e81565b6007602052805f5260405f205f915090505481565b6004602052805f5260405f205f915090505481565b60605f8203610d66576040518060400160405280600181526020017f30000000000000000000000000000000000000000000000000000000000000008152509050610e99565b5f8290505f5b5f8214610d95578080610d7e906121c3565b915050600a82610d8e9190612237565b9150610d6c565b5f8167ffffffffffffffff811115610db057610daf6118f5565b5b6040519080825280601f01601f191660200182016040528015610de25781602001600182028036833780820191505090505b5090505f8290505b5f8614610e9157600181610dfe9190611cc8565b90505f600a8088610e0f9190612237565b610e199190612267565b87610e249190611cc8565b6030610e3091906122b4565b90505f8160f81b905080848481518110610e4d57610e4c6116bc565b5b60200101907effffffffffffffffffffffffffffffffffffffffffffffffffffffffffffff191690815f1a905350600a88610e889190612237565b97505050610dea565b819450505050505b919050565b5f60075f8881526020019081526020015f205490505f811480610ece575061012c8142610ecb9190611cc8565b10155b15610fc95760015f9054906101000a900473ffffffffffffffffffffffffffffffffffffffff1673ffffffffffffffffffffffffffffffffffffffff1663c9344ded8888888888886040518763ffffffff1660e01b8152600401610f37969594939291906123a1565b6020604051808303815f875af1158015610f53573d5f5f3e3d5ffd5b505050506040513d601f19601f82011682018060405250810190610f779190612407565b504260075f8981526020019081526020015f2081905550867f2e656e0d84450d82ce855de13d375b073f43e6f4aebc00e88abf8bc086f0faa88784604051610fc0929190612432565b60405180910390a25b50505050505050565b6040518060c001604052805f81526020015f81526020015f81526020015f81526020015f15158152602001606081525090565b5f73ffffffffffffffffffffffffffffffffffffffff82169050919050565b5f61102e82611005565b9050919050565b61103e81611024565b82525050565b5f6020820190506110575f830184611035565b92915050565b5f604051905090565b5f5ffd5b5f5ffd5b5f819050919050565b6110808161106e565b811461108a575f5ffd5b50565b5f8135905061109b81611077565b92915050565b5f602082840312156110b6576110b5611066565b5b5f6110c38482850161108d565b91505092915050565b6110d58161106e565b82525050565b5f6020820190506110ee5f8301846110cc565b92915050565b5f8115159050919050565b611108816110f4565b82525050565b5f81519050919050565b5f82825260208201905092915050565b8281835e5f83830152505050565b5f601f19601f8301169050919050565b5f6111508261110e565b61115a8185611118565b935061116a818560208601611128565b61117381611136565b840191505092915050565b5f60c0820190506111915f8301896110cc565b61119e60208301886110cc565b6111ab60408301876110cc565b6111b860608301866110cc565b6111c560808301856110ff565b81810360a08301526111d78184611146565b9050979650505050505050565b5f819050919050565b5f6112076112026111fd84611005565b6111e4565b611005565b9050919050565b5f611218826111ed565b9050919050565b5f6112298261120e565b9050919050565b6112398161121f565b82525050565b5f6020820190506112525f830184611230565b92915050565b61126181611024565b811461126b575f5ffd5b50565b5f8135905061127c81611258565b92915050565b5f6020828403121561129757611296611066565b5b5f6112a48482850161126e565b91505092915050565b5f6112b78261120e565b9050919050565b6112c7816112ad565b82525050565b5f6020820190506112e05f8301846112be565b92915050565b6112ef8161106e565b82525050565b6112fe816110f4565b82525050565b5f82825260208201905092915050565b5f61131e8261110e565b6113288185611304565b9350611338818560208601611128565b61134181611136565b840191505092915050565b5f60c083015f8301516113615f8601826112e6565b50602083015161137460208601826112e6565b50604083015161138760408601826112e6565b50606083015161139a60608601826112e6565b5060808301516113ad60808601826112f5565b5060a083015184820360a08601526113c58282611314565b9150508091505092915050565b5f6020820190508181035f8301526113ea818461134c565b905092915050565b6113fb816110f4565b8114611405575f5ffd5b50565b5f81359050611416816113f2565b92915050565b5f5ffd5b5f5ffd5b5f5ffd5b5f5f83601f84011261143d5761143c61141c565b5b8235905067ffffffffffffffff81111561145a57611459611420565b5b60208301915083600182028301111561147657611475611424565b5b9250929050565b5f5f5f5f5f5f5f60c0888a03121561149857611497611066565b5b5f6114a58a828b0161108d565b97505060206114b68a828b0161108d565b96505060406114c78a828b0161108d565b95505060606114d88a828b0161108d565b94505060806114e98a828b01611408565b93505060a088013567ffffffffffffffff81111561150a5761150961106a565b5b6115168a828b01611428565b925092505092959891949750929550565b7f4e487b71000000000000000000000000000000000000000000000000000000005f52602260045260245ffd5b5f600282049050600182168061156b57607f821691505b60208210810361157e5761157d611527565b5b50919050565b7f6f6e6c7920696e636964656e74730000000000000000000000000000000000005f82015250565b5f6115b8600e83611118565b91506115c382611584565b602082019050919050565b5f6020820190508181035f8301526115e5816115ac565b9050919050565b7f7a65726f207265706f72746572000000000000000000000000000000000000005f82015250565b5f611620600d83611118565b915061162b826115ec565b602082019050919050565b5f6020820190508181035f83015261164d81611614565b9050919050565b7f6e6f207369676e616c00000000000000000000000000000000000000000000005f82015250565b5f611688600983611118565b915061169382611654565b602082019050919050565b5f6020820190508181035f8301526116b58161167c565b9050919050565b7f4e487b71000000000000000000000000000000000000000000000000000000005f52603260045260245ffd5b7f6f6e6c79207265706f72746572000000000000000000000000000000000000005f82015250565b5f61171d600d83611118565b9150611728826116e9565b602082019050919050565b5f6020820190508181035f83015261174a81611711565b9050919050565b7f696e76616c696420626c6f636b206e756d6265720000000000000000000000005f82015250565b5f611785601483611118565b915061179082611751565b602082019050919050565b5f6020820190508181035f8301526117b281611779565b9050919050565b7f696e76616c69642074696d657374616d700000000000000000000000000000005f82015250565b5f6117ed601183611118565b91506117f8826117b9565b602082019050919050565b5f6020820190508181035f83015261181a816117e1565b9050919050565b7f656d7074792064657461696c73000000000000000000000000000000000000005f82015250565b5f611855600d83611118565b915061186082611821565b602082019050919050565b5f6020820190508181035f83015261188281611849565b9050919050565b7f64657461696c7320746f6f206c6f6e67000000000000000000000000000000005f82015250565b5f6118bd601083611118565b91506118c882611889565b602082019050919050565b5f6020820190508181035f8301526118ea816118b1565b9050919050565b5f5ffd5b7f4e487b71000000000000000000000000000000000000000000000000000000005f52604160045260245ffd5b61192b82611136565b810181811067ffffffffffffffff8211171561194a576119496118f5565b5b80604052505050565b5f61195c61105d565b90506119688282611922565b919050565b5f5ffd5b5f8151905061197f81611258565b92915050565b5f8151905061199381611077565b92915050565b5f815190506119a7816113f2565b92915050565b5f5ffd5b5f67ffffffffffffffff8211156119cb576119ca6118f5565b5b6119d482611136565b9050602081019050919050565b5f6119f36119ee846119b1565b611953565b905082815260208101848484011115611a0f57611a0e6119ad565b5b611a1a848285611128565b509392505050565b5f82601f830112611a3657611a3561141c565b5b8151611a468482602086016119e1565b91505092915050565b5f60e08284031215611a6457611a636118f1565b5b611a6e60e0611953565b90505f611a7d84828501611971565b5f830152506020611a9084828501611971565b6020830152506040611aa484828501611985565b6040830152506060611ab884828501611985565b6060830152506080611acc84828501611985565b60808301525060a0611ae084828501611999565b60a08301525060c082015167ffffffffffffffff811115611b0457611b0361196d565b5b611b1084828501611a22565b60c08301525092915050565b5f60208284031215611b3157611b30611066565b5b5f82015167ffffffffffffffff811115611b4e57611b4d61106a565b5b611b5a84828501611a4f565b91505092915050565b7f636861696e206e6f7420726567697374657265640000000000000000000000005f82015250565b5f611b97601483611118565b9150611ba282611b63565b602082019050919050565b5f6020820190508181035f830152611bc481611b8b565b9050919050565b7f626c6f636b206d7573742070726f6772657373000000000000000000000000005f82015250565b5f611bff601383611118565b9150611c0a82611bcb565b602082019050919050565b5f6020820190508181035f830152611c2c81611bf3565b9050919050565b7f74696d657374616d702063616e6e6f74206465637265617365000000000000005f82015250565b5f611c67601983611118565b9150611c7282611c33565b602082019050919050565b5f6020820190508181035f830152611c9481611c5b565b9050919050565b7f4e487b71000000000000000000000000000000000000000000000000000000005f52601160045260245ffd5b5f611cd28261106e565b9150611cdd8361106e565b9250828203905081811115611cf557611cf4611c9b565b5b92915050565b7f72617465206c696d697465643a206d696e20333073206265747765656e2073695f8201527f676e616c73000000000000000000000000000000000000000000000000000000602082015250565b5f611d55602583611118565b9150611d6082611cfb565b604082019050919050565b5f6020820190508181035f830152611d8281611d49565b9050919050565b5f819050815f5260205f209050919050565b5f6020601f8301049050919050565b5f82821b905092915050565b5f60088302611de57fffffffffffffffffffffffffffffffffffffffffffffffffffffffffffffffff82611daa565b611def8683611daa565b95508019841693508086168417925050509392505050565b5f611e21611e1c611e178461106e565b6111e4565b61106e565b9050919050565b5f819050919050565b611e3a83611e07565b611e4e611e4682611e28565b848454611db6565b825550505050565b5f5f905090565b611e65611e56565b611e70818484611e31565b505050565b5b81811015611e9357611e885f82611e5d565b600181019050611e76565b5050565b601f821115611ed857611ea981611d89565b611eb284611d9b565b81016020851015611ec1578190505b611ed5611ecd85611d9b565b830182611e75565b50505b505050565b5f82821c905092915050565b5f611ef85f1984600802611edd565b1980831691505092915050565b5f611f108383611ee9565b9150826002028217905092915050565b611f298261110e565b67ffffffffffffffff811115611f4257611f416118f5565b5b611f4c8254611554565b611f57828285611e97565b5f60209050601f831160018114611f88575f8415611f76578287015190505b611f808582611f05565b865550611fe7565b601f198416611f9686611d89565b5f5b82811015611fbd57848901518255600182019150602085019450602081019050611f98565b86831015611fda5784890151611fd6601f891682611ee9565b8355505b6001600288020188555050505b505050505050565b828183375f83830152505050565b5f6120088385611118565b9350612015838584611fef565b61201e83611136565b840190509392505050565b5f60608201905061203c5f8301876110cc565b61204960208301866110cc565b818103604083015261205c818486611ffd565b905095945050505050565b5f81905092915050565b7f426c6f636b206c61673a200000000000000000000000000000000000000000005f82015250565b5f6120a5600b83612067565b91506120b082612071565b600b82019050919050565b5f6120c58261110e565b6120cf8185612067565b93506120df818560208601611128565b80840191505092915050565b7f7320286d61783a200000000000000000000000000000000000000000000000005f82015250565b5f61211f600883612067565b915061212a826120eb565b600882019050919050565b7f73290000000000000000000000000000000000000000000000000000000000005f82015250565b5f612169600283612067565b915061217482612135565b600282019050919050565b5f61218982612099565b915061219582856120bb565b91506121a082612113565b91506121ac82846120bb565b91506121b78261215d565b91508190509392505050565b5f6121cd8261106e565b91507fffffffffffffffffffffffffffffffffffffffffffffffffffffffffffffffff82036121ff576121fe611c9b565b5b600182019050919050565b7f4e487b71000000000000000000000000000000000000000000000000000000005f52601260045260245ffd5b5f6122418261106e565b915061224c8361106e565b92508261225c5761225b61220a565b5b828204905092915050565b5f6122718261106e565b915061227c8361106e565b925082820261228a8161106e565b915082820484148315176122a1576122a0611c9b565b5b5092915050565b5f60ff82169050919050565b5f6122be826122a8565b91506122c9836122a8565b9250828201905060ff8111156122e2576122e1611c9b565b5b92915050565b7f4e487b71000000000000000000000000000000000000000000000000000000005f52602160045260245ffd5b60058110612326576123256122e8565b5b50565b5f81905061233682612315565b919050565b5f61234582612329565b9050919050565b6123558161233b565b82525050565b6003811061236c5761236b6122e8565b5b50565b5f81905061237c8261235b565b919050565b5f61238b8261236f565b9050919050565b61239b81612381565b82525050565b5f60c0820190506123b45f8301896110cc565b6123c1602083018861234c565b6123ce6040830187612392565b6123db60608301866110cc565b6123e860808301856110cc565b81810360a08301526123fa8184611146565b9050979650505050505050565b5f6020828403121561241c5761241b611066565b5b5f61242984828501611985565b91505092915050565b5f6040820190506124455f83018561234c565b81810360208301526124578184611146565b9050939250505056fea2646970667358221220fe2f8d6e517795a7fc25a4afa5a791102e508d6b7bb852538af2a68f6b66f1b064736f6c634300081e0033","linkReferences":{}},"methodIdentifiers":{"INCIDENT_COOLDOWN()":"a9fd09fc","RATE_LIMIT_SECONDS()":"be046449","getSignal(uint256)":"828e58e2","getSignalCount()":"592ee87a","incidents()":"4b227336","lastBlockNumber(uint256)":"dfb76d64","lastBlockTimestamp(uint256)":"02c9913d","lastIncidentTime(uint256)":"c4e5b86c","lastSignalTime(uint256)":"a409a645","registry()":"7b103999","reporter()":"010ec441","setReporter(address)":"4c925032","signals(uint256)":"47c740cd","submitHealthSignal(uint256,uint256,uint256,uint256,bool,string)":"bc29107c"},"id":23}