{"abi":[{"type":"constructor","inputs":[{"name":"_registry","type":"address","internalType":"address"},{"name":"_incidents","type":"address","internalType":"address"},{"name":"_reporter","type":"address","internalType":"address"}],"stateMutability":"nonpayable"},{"type":"function","name":"INCIDENT_COOLDOWN","inputs":[],"outputs":[{"name":"","type":"uint256","internalType":"uint256"}],"stateMutability":"view"},{"type":"function","name":"RATE_LIMIT_SECONDS","inputs":[],"outputs":[{"name":"","type":"uint256","internalType":"uint256"}],"stateMutability":"view"},{"type":"function","name":"getSignal","inputs":[{"name":"index","type":"uint256","internalType":"uint256"}],"outputs":[{"name":"","type":"tuple","internalType":"struct HealthReporter.HealthSignal","components":[{"name":"chainId","type":"uint256","internalType":"uint256"},{"name":"blockNumber","type":"uint256","internalType":"uint256"},{"name":"blockTimestamp","type":"uint256","internalType":"uint256"},{"name":"sequencerNumber","type":"uint256","internalType":"uint256"},{"name":"sequencerHealthy","type":"bool","internalType":"bool"},{"name":"details","type":"string","internalType":"string"}]}],"stateMutability":"view"},{"type":"function","name":"getSignalCount","inputs":[],"outputs":[{"name":"","type":"uint256","internalType":"uint256"}],"stateMutability":"view"},{"type":"function","name":"incidents","inputs":[],"outputs":[{"name":"","type":"address","internalType":"contract IncidentManager"}],"stateMutability":"view"},{"type":"function","name":"lastBlockNumber","inputs":[{"name":"","type":"uint256","internalType":"uint256"}],"outputs":[{"name":"","type":"uint256","internalType":"uint256"}],"stateMutability":"view"},{"type":"function","name":"lastBlockTimestamp","inputs":[{"name":"","type":"uint256","internalType":"uint256"}],"outputs":[{"name":"","type":"uint256","internalType":"uint256"}],"stateMutability":"view"},{"type":"function","name":"lastIncidentTime","inputs":[{"name":"","type":"uint256","internalType":"uint256"}],"outputs":[{"name":"","type":"uint256","internalType":"uint256"}],"stateMutability":"view"},{"type":"function","name":"lastSignalTime","inputs":[{"name":"","type":"uint256","internalType":"uint256"}],"outputs":[{"name":"","type":"uint256","internalType":"uint256"}],"stateMutability":"view"},{"type":"function","name":"registry","inputs":[],"outputs":[{"name":"","type":"address","internalType":"contract OrbitChainRegistry"}],"stateMutability":"view"},{"type":"function","name":"reporter","inputs":[],"outputs":[{"name":"","type":"address","internalType":"address"}],"stateMutability":"view"},{"type":"function","name":"setReporter","inputs":[{"name":"_newReporter","type":"address","internalType":"address"}],"outputs":[],"stateMutability":"nonpayable"},{"type":"function","name":"signals","inputs":[{"name":"","type":"uint256","internalType":"uint256"}],"outputs":[{"name":"chainId","type":"uint256","internalType":"uint256"},{"name":"blockNumber","type":"uint256","internalType":"uint256"},{"name":"blockTimestamp","type":"uint256","internalType":"uint256"},{"name":"sequencerNumber","type":"uint256","internalType":"uint256"},{"name":"sequencerHealthy","type":"bool","internalType":"bool"},{"name":"details","type":"string","internalType":"string"}],"stateMutability":"view"},{"type":"function","name":"submitHealthSignal","inputs":[{"name":"chainId","type":"uint256","internalType":"uint256"},{"name":"blockNumber","type":"uint256","internalType":"uint256"},{"name":"blockTimestamp","type":"uint256","internalType":"uint256"},{"name":"sequencerNumber","type":"uint256","internalType":"uint256"},{"name":"sequencerHealthy","type":"bool","internalType":"bool"},{"name":"details","type":"string","internalType":"string"}],"outputs":[],"stateMutability":"nonpayable"},{"type":"event","name":"HealthSignalReceived","inputs":[{"name":"chainId","type":"uint256","indexed":true,"internalType":"uint256"},{"name":"blockNumber","type":"uint256","indexed":false,"internalType":"uint256"},{"name":"blockTimestamp","type":"uint256","indexed":false,"internalType":"uint256"},{"name":"details","type":"string","indexed":false,"internalType":"string"}],"anonymous":false},{"type":"event","name":"IncidentTriggered","inputs":[{"name":"chainId","type":"uint256","indexed":true,"internalType":"uint256"},{"name":"failureType","type":"uint8","indexed":false,"internalType":"enum IncidentManager.FailureType"},{"name":"details","type":"string","indexed":false,"internalType":"string"}],"anonymous":false}],"bytecode":{"object":"0x608060405234801561000f575f5ffd5b506040516128e53803806128e5833981810160405281019061003191906102a0565b5f73ffffffffffffffffffffffffffffffffffffffff168373ffffffffffffffffffffffffffffffffffffffff160361009f576040517f08c379a00000000000000000000000000000000000000000000000000000000081526004016100969061034a565b60405180910390fd5b5f73ffffffffffffffffffffffffffffffffffffffff168273ffffffffffffffffffffffffffffffffffffffff160361010d576040517f08c379a0000000000000000000000000000000000000000000000000000000008152600401610104906103b2565b60405180910390fd5b5f73ffffffffffffffffffffffffffffffffffffffff168173ffffffffffffffffffffffffffffffffffffffff160361017b576040517f08c379a00000000000000000000000000000000000000000000000000000000081526004016101729061041a565b60405180910390fd5b825f5f6101000a81548173ffffffffffffffffffffffffffffffffffffffff021916908373ffffffffffffffffffffffffffffffffffffffff1602179055508160015f6101000a81548173ffffffffffffffffffffffffffffffffffffffff021916908373ffffffffffffffffffffffffffffffffffffffff1602179055508060025f6101000a81548173ffffffffffffffffffffffffffffffffffffffff021916908373ffffffffffffffffffffffffffffffffffffffff160217905550505050610438565b5f5ffd5b5f73ffffffffffffffffffffffffffffffffffffffff82169050919050565b5f61026f82610246565b9050919050565b61027f81610265565b8114610289575f5ffd5b50565b5f8151905061029a81610276565b92915050565b5f5f5f606084860312156102b7576102b6610242565b5b5f6102c48682870161028c565b93505060206102d58682870161028c565b92505060406102e68682870161028c565b9150509250925092565b5f82825260208201905092915050565b7f7a65726f207265676973747279000000000000000000000000000000000000005f82015250565b5f610334600d836102f0565b915061033f82610300565b602082019050919050565b5f6020820190508181035f83015261036181610328565b9050919050565b7f7a65726f20696e636964656e74730000000000000000000000000000000000005f82015250565b5f61039c600e836102f0565b91506103a782610368565b602082019050919050565b5f6020820190508181035f8301526103c981610390565b9050919050565b7f7a65726f207265706f72746572000000000000000000000000000000000000005f82015250565b5f610404600d836102f0565b915061040f826103d0565b602082019050919050565b5f6020820190508181035f830152610431816103f8565b9050919050565b6124a0806104455f395ff3fe608060405234801561000f575f5ffd5b50600436106100e8575f3560e01c8063828e58e21161008a578063bc29107c11610064578063bc29107c14610263578063be0464491461027f578063c4e5b86c1461029d578063dfb76d64146102cd576100e8565b8063828e58e2146101e5578063a409a64514610215578063a9fd09fc14610245576100e8565b80634b227336116100c65780634b2273361461016f5780634c9250321461018d578063592ee87a146101a95780637b103999146101c7576100e8565b8063010ec441146100ec57806302c9913d1461010a57806347c740cd1461013a575b5f5ffd5b6100f46102fd565b604051610101919061104e565b60405180910390f35b610124600480360381019061011f91906110ab565b610322565b60405161013191906110e5565b60405180910390f35b610154600480360381019061014f91906110ab565b610337565b60405161016696959493929190611188565b60405180910390f35b610177610410565b6040516101849190611249565b60405180910390f35b6101a760048036038101906101a2919061128c565b610435565b005b6101b1610575565b6040516101be91906110e5565b60405180910390f35b6101cf610581565b6040516101dc91906112d7565b60405180910390f35b6101ff60048036038101906101fa91906110ab565b6105a5565b60405161020c91906113dc565b60405180910390f35b61022f600480360381019061022a91906110ab565b6106f7565b60405161023c91906110e5565b60405180910390f35b61024d61070c565b60405161025a91906110e5565b60405180910390f35b61027d60048036038101906102789190611487565b610712565b005b610287610c6a565b60405161029491906110e5565b60405180910390f35b6102b760048036038101906102b291906110ab565b610c6f565b6040516102c491906110e5565b60405180910390f35b6102e760048036038101906102e291906110ab565b610c84565b6040516102f491906110e5565b60405180910390f35b60025f9054906101000a900473ffffffffffffffffffffffffffffffffffffffff1681565b6005602052805f5260405f205f915090505481565b60038181548110610346575f80fd5b905f5260205f2090600602015f91509050805f015490806001015490806002015490806003015490806004015f9054906101000a900460ff169080600501805461038f9061155e565b80601f01602080910402602001604051908101604052809291908181526020018280546103bb9061155e565b80156104065780601f106103dd57610100808354040283529160200191610406565b820191905f5260205f20905b8154815290600101906020018083116103e957829003601f168201915b5050505050905086565b60015f9054906101000a900473ffffffffffffffffffffffffffffffffffffffff1681565b60015f9054906101000a900473ffffffffffffffffffffffffffffffffffffffff1673ffffffffffffffffffffffffffffffffffffffff163373ffffffffffffffffffffffffffffffffffffffff16146104c4576040517f08c379a00000000000000000000000000000000000000000000000000000000081526004016104bb906115d8565b60405180910390fd5b5f73ffffffffffffffffffffffffffffffffffffffff168173ffffffffffffffffffffffffffffffffffffffff1603610532576040517f08c379a000000000000000000000000000000000000000000000000000000000815260040161052990611640565b60405180910390fd5b8060025f6101000a81548173ffffffffffffffffffffffffffffffffffffffff021916908373ffffffffffffffffffffffffffffffffffffffff16021790555050565b5f600380549050905090565b5f5f9054906101000a900473ffffffffffffffffffffffffffffffffffffffff1681565b6105ad610fdc565b60038054905082106105f4576040517f08c379a00000000000000000000000000000000000000000000000000000000081526004016105eb906116a8565b60405180910390fd5b60038281548110610608576106076116c6565b5b905f5260205f2090600602016040518060c00160405290815f8201548152602001600182015481526020016002820154815260200160038201548152602001600482015f9054906101000a900460ff161515151581526020016005820180546106709061155e565b80601f016020809104026020016040519081016040528092919081815260200182805461069c9061155e565b80156106e75780601f106106be576101008083540402835291602001916106e7565b820191905f5260205f20905b8154815290600101906020018083116106ca57829003601f168201915b5050505050815250509050919050565b6006602052805f5260405f205f915090505481565b61012c81565b61071a610c99565b5f861161075c576040517f08c379a00000000000000000000000000000000000000000000000000000000081526004016107539061173d565b60405180910390fd5b5f851161079e576040517f08c379a0000000000000000000000000000000000000000000000000000000008152600401610795906117a5565b60405180910390fd5b5f82829050116107e3576040517f08c379a00000000000000000000000000000000000000000000000000000000081526004016107da9061180d565b60405180910390fd5b61020082829050111561082b576040517f08c379a000000000000000000000000000000000000000000000000000000000815260040161082290611875565b60405180910390fd5b5f5f5f9054906101000a900473ffffffffffffffffffffffffffffffffffffffff1673ffffffffffffffffffffffffffffffffffffffff1663b6791ad4896040518263ffffffff1660e01b815260040161088591906110e5565b5f60405180830381865afa15801561089f573d5f5f3e3d5ffd5b505050506040513d5f823e3d601f19601f820116820180604052508101906108c79190611abe565b90508060a0015161090d576040517f08c379a000000000000000000000000000000000000000000000000000000000815260040161090490611b4f565b60405180910390fd5b5f60045f8a81526020019081526020015f205490505f60055f8b81526020019081526020015f205490505f8211156109c557818911610981576040517f08c379a000000000000000000000000000000000000000000000000000000000815260040161097890611bb7565b60405180910390fd5b808810156109c4576040517f08c379a00000000000000000000000000000000000000000000000000000000081526004016109bb90611c1f565b60405180910390fd5b5b5f60065f8c81526020019081526020015f205490505f811115610a3257601e81426109f09190611c6a565b1015610a31576040517f08c379a0000000000000000000000000000000000000000000000000000000008152600401610a2890611d0d565b60405180910390fd5b5b8960045f8d81526020019081526020015f20819055508860055f8d81526020019081526020015f20819055504260065f8d81526020019081526020015f208190555060036040518060c001604052808d81526020018c81526020018b81526020018a8152602001891515815260200188888080601f0160208091040260200160405190810160405280939291908181526020018383808284375f81840152601f19601f82011690508083019250505050505050815250908060018154018082558091505060019003905f5260205f2090600602015f909190919091505f820151815f01556020820151816001015560408201518160020155606082015181600301556080820151816004015f6101000a81548160ff02191690831515021790555060a0820151816005019081610b689190611ec2565b5050508a7fc2f3c383e25c8291ceda631b6a887f25bb4af5f4f8a1df0abf1d25f601d388f18b8b8989604051610ba19493929190611fcb565b60405180910390a25f831115610c13575f828a610bbe9190611c6a565b90508460800151811115610c1157610c108c6001808787610bde87610d2a565b610beb8c60800151610d2a565b604051602001610bfc929190612121565b604051602081830303815290604052610ea8565b5b505b86610c5d57610c5c8b5f600186866040518060400160405280601a81526020017f53657175656e63657220756e6865616c74687920737461747573000000000000815250610ea8565b5b5050505050505050505050565b601e81565b6007602052805f5260405f205f915090505481565b6004602052805f5260405f205f915090505481565b60025f9054906101000a900473ffffffffffffffffffffffffffffffffffffffff1673ffffffffffffffffffffffffffffffffffffffff163373ffffffffffffffffffffffffffffffffffffffff1614610d28576040517f08c379a0000000000000000000000000000000000000000000000000000000008152600401610d1f906121af565b60405180910390fd5b565b60605f8203610d70576040518060400160405280600181526020017f30000000000000000000000000000000000000000000000000000000000000008152509050610ea3565b5f8290505f5b5f8214610d9f578080610d88906121cd565b915050600a82610d989190612241565b9150610d76565b5f8167ffffffffffffffff811115610dba57610db9611897565b5b6040519080825280601f01601f191660200182016040528015610dec5781602001600182028036833780820191505090505b5090505f8290505b5f8614610e9b57600181610e089190611c6a565b90505f600a8088610e199190612241565b610e239190612271565b87610e2e9190611c6a565b6030610e3a91906122be565b90505f8160f81b905080848481518110610e5757610e566116c6565b5b60200101907effffffffffffffffffffffffffffffffffffffffffffffffffffffffffffff191690815f1a905350600a88610e929190612241565b97505050610df4565b819450505050505b919050565b5f60075f8881526020019081526020015f205490505f811480610ed8575061012c8142610ed59190611c6a565b10155b15610fd35760015f9054906101000a900473ffffffffffffffffffffffffffffffffffffffff1673ffffffffffffffffffffffffffffffffffffffff1663c9344ded8888888888886040518763ffffffff1660e01b8152600401610f41969594939291906123ab565b6020604051808303815f875af1158015610f5d573d5f5f3e3d5ffd5b505050506040513d601f19601f82011682018060405250810190610f819190612411565b504260075f8981526020019081526020015f2081905550867f2e656e0d84450d82ce855de13d375b073f43e6f4aebc00e88abf8bc086f0faa88784604051610fca92919061243c565b60405180910390a25b50505050505050565b6040518060c001604052805f81526020015f81526020015f81526020015f81526020015f15158152602001606081525090565b5f73ffffffffffffffffffffffffffffffffffffffff82169050919050565b5f6110388261100f565b9050919050565b6110488161102e565b82525050565b5f6020820190506110615f83018461103f565b92915050565b5f604051905090565b5f5ffd5b5f5ffd5b5f819050919050565b61108a81611078565b8114611094575f5ffd5b50565b5f813590506110a581611081565b92915050565b5f602082840312156110c0576110bf611070565b5b5f6110cd84828501611097565b91505092915050565b6110df81611078565b82525050565b5f6020820190506110f85f8301846110d6565b92915050565b5f8115159050919050565b611112816110fe565b82525050565b5f81519050919050565b5f82825260208201905092915050565b8281835e5f83830152505050565b5f601f19601f8301169050919050565b5f61115a82611118565b6111648185611122565b9350611174818560208601611132565b61117d81611140565b840191505092915050565b5f60c08201905061119b5f8301896110d6565b6111a860208301886110d6565b6111b560408301876110d6565b6111c260608301866110d6565b6111cf6080830185611109565b81810360a08301526111e18184611150565b9050979650505050505050565b5f819050919050565b5f61121161120c6112078461100f565b6111ee565b61100f565b9050919050565b5f611222826111f7565b9050919050565b5f61123382611218565b9050919050565b61124381611229565b82525050565b5f60208201905061125c5f83018461123a565b92915050565b61126b8161102e565b8114611275575f5ffd5b50565b5f8135905061128681611262565b92915050565b5f602082840312156112a1576112a0611070565b5b5f6112ae84828501611278565b91505092915050565b5f6112c182611218565b9050919050565b6112d1816112b7565b82525050565b5f6020820190506112ea5f8301846112c8565b92915050565b6112f981611078565b82525050565b611308816110fe565b82525050565b5f82825260208201905092915050565b5f61132882611118565b611332818561130e565b9350611342818560208601611132565b61134b81611140565b840191505092915050565b5f60c083015f83015161136b5f8601826112f0565b50602083015161137e60208601826112f0565b50604083015161139160408601826112f0565b5060608301516113a460608601826112f0565b5060808301516113b760808601826112ff565b5060a083015184820360a08601526113cf828261131e565b9150508091505092915050565b5f6020820190508181035f8301526113f48184611356565b905092915050565b611405816110fe565b811461140f575f5ffd5b50565b5f81359050611420816113fc565b92915050565b5f5ffd5b5f5ffd5b5f5ffd5b5f5f83601f84011261144757611446611426565b5b8235905067ffffffffffffffff8111156114645761146361142a565b5b6020830191508360018202830111156114805761147f61142e565b5b9250929050565b5f5f5f5f5f5f5f60c0888a0312156114a2576114a1611070565b5b5f6114af8a828b01611097565b97505060206114c08a828b01611097565b96505060406114d18a828b01611097565b95505060606114e28a828b01611097565b94505060806114f38a828b01611412565b93505060a088013567ffffffffffffffff81111561151457611513611074565b5b6115208a828b01611432565b925092505092959891949750929550565b7f4e487b71000000000000000000000000000000000000000000000000000000005f52602260045260245ffd5b5f600282049050600182168061157557607f821691505b60208210810361158857611587611531565b5b50919050565b7f6f6e6c7920696e636964656e74730000000000000000000000000000000000005f82015250565b5f6115c2600e83611122565b91506115cd8261158e565b602082019050919050565b5f6020820190508181035f8301526115ef816115b6565b9050919050565b7f7a65726f207265706f72746572000000000000000000000000000000000000005f82015250565b5f61162a600d83611122565b9150611635826115f6565b602082019050919050565b5f6020820190508181035f8301526116578161161e565b9050919050565b7f6e6f207369676e616c00000000000000000000000000000000000000000000005f82015250565b5f611692600983611122565b915061169d8261165e565b602082019050919050565b5f6020820190508181035f8301526116bf81611686565b9050919050565b7f4e487b71000000000000000000000000000000000000000000000000000000005f52603260045260245ffd5b7f696e76616c696420626c6f636b206e756d6265720000000000000000000000005f82015250565b5f611727601483611122565b9150611732826116f3565b602082019050919050565b5f6020820190508181035f8301526117548161171b565b9050919050565b7f696e76616c69642074696d657374616d700000000000000000000000000000005f82015250565b5f61178f601183611122565b915061179a8261175b565b602082019050919050565b5f6020820190508181035f8301526117bc81611783565b9050919050565b7f656d7074792064657461696c73000000000000000000000000000000000000005f82015250565b5f6117f7600d83611122565b9150611802826117c3565b602082019050919050565b5f6020820190508181035f830152611824816117eb565b9050919050565b7f64657461696c7320746f6f206c6f6e67000000000000000000000000000000005f82015250565b5f61185f601083611122565b915061186a8261182b565b602082019050919050565b5f6020820190508181035f83015261188c81611853565b9050919050565b5f5ffd5b7f4e487b71000000000000000000000000000000000000000000000000000000005f52604160045260245ffd5b6118cd82611140565b810181811067ffffffffffffffff821117156118ec576118eb611897565b5b80604052505050565b5f6118fe611067565b905061190a82826118c4565b919050565b5f5ffd5b5f8151905061192181611262565b92915050565b5f8151905061193581611081565b92915050565b5f81519050611949816113fc565b92915050565b5f5ffd5b5f67ffffffffffffffff82111561196d5761196c611897565b5b61197682611140565b9050602081019050919050565b5f61199561199084611953565b6118f5565b9050828152602081018484840111156119b1576119b061194f565b5b6119bc848285611132565b509392505050565b5f82601f8301126119d8576119d7611426565b5b81516119e8848260208601611983565b91505092915050565b5f60e08284031215611a0657611a05611893565b5b611a1060e06118f5565b90505f611a1f84828501611913565b5f830152506020611a3284828501611913565b6020830152506040611a4684828501611927565b6040830152506060611a5a84828501611927565b6060830152506080611a6e84828501611927565b60808301525060a0611a828482850161193b565b60a08301525060c082015167ffffffffffffffff811115611aa657611aa561190f565b5b611ab2848285016119c4565b60c08301525092915050565b5f60208284031215611ad357611ad2611070565b5b5f82015167ffffffffffffffff811115611af057611aef611074565b5b611afc848285016119f1565b91505092915050565b7f636861696e206e6f7420726567697374657265640000000000000000000000005f82015250565b5f611b39601483611122565b9150611b4482611b05565b602082019050919050565b5f6020820190508181035f830152611b6681611b2d565b9050919050565b7f626c6f636b206d7573742070726f6772657373000000000000000000000000005f82015250565b5f611ba1601383611122565b9150611bac82611b6d565b602082019050919050565b5f6020820190508181035f830152611bce81611b95565b9050919050565b7f74696d657374616d702063616e6e6f74206465637265617365000000000000005f82015250565b5f611c09601983611122565b9150611c1482611bd5565b602082019050919050565b5f6020820190508181035f830152611c3681611bfd565b9050919050565b7f4e487b71000000000000000000000000000000000000000000000000000000005f52601160045260245ffd5b5f611c7482611078565b9150611c7f83611078565b9250828203905081811115611c9757611c96611c3d565b5b92915050565b7f72617465206c696d697465643a206d696e20333073206265747765656e2073695f8201527f676e616c73000000000000000000000000000000000000000000000000000000602082015250565b5f611cf7602583611122565b9150611d0282611c9d565b604082019050919050565b5f6020820190508181035f830152611d2481611ceb565b9050919050565b5f819050815f5260205f209050919050565b5f6020601f8301049050919050565b5f82821b905092915050565b5f60088302611d877fffffffffffffffffffffffffffffffffffffffffffffffffffffffffffffffff82611d4c565b611d918683611d4c565b95508019841693508086168417925050509392505050565b5f611dc3611dbe611db984611078565b6111ee565b611078565b9050919050565b5f819050919050565b611ddc83611da9565b611df0611de882611dca565b848454611d58565b825550505050565b5f5f905090565b611e07611df8565b611e12818484611dd3565b505050565b5b81811015611e3557611e2a5f82611dff565b600181019050611e18565b5050565b601f821115611e7a57611e4b81611d2b565b611e5484611d3d565b81016020851015611e63578190505b611e77611e6f85611d3d565b830182611e17565b50505b505050565b5f82821c905092915050565b5f611e9a5f1984600802611e7f565b1980831691505092915050565b5f611eb28383611e8b565b9150826002028217905092915050565b611ecb82611118565b67ffffffffffffffff811115611ee457611ee3611897565b5b611eee825461155e565b611ef9828285611e39565b5f60209050601f831160018114611f2a575f8415611f18578287015190505b611f228582611ea7565b865550611f89565b601f198416611f3886611d2b565b5f5b82811015611f5f57848901518255600182019150602085019450602081019050611f3a565b86831015611f7c5784890151611f78601f891682611e8b565b8355505b6001600288020188555050505b505050505050565b828183375f83830152505050565b5f611faa8385611122565b9350611fb7838584611f91565b611fc083611140565b840190509392505050565b5f606082019050611fde5f8301876110d6565b611feb60208301866110d6565b8181036040830152611ffe818486611f9f565b905095945050505050565b5f81905092915050565b7f426c6f636b206c61673a200000000000000000000000000000000000000000005f82015250565b5f612047600b83612009565b915061205282612013565b600b82019050919050565b5f61206782611118565b6120718185612009565b9350612081818560208601611132565b80840191505092915050565b7f7320286d61783a200000000000000000000000000000000000000000000000005f82015250565b5f6120c1600883612009565b91506120cc8261208d565b600882019050919050565b7f73290000000000000000000000000000000000000000000000000000000000005f82015250565b5f61210b600283612009565b9150612116826120d7565b600282019050919050565b5f61212b8261203b565b9150612137828561205d565b9150612142826120b5565b915061214e828461205d565b9150612159826120ff565b91508190509392505050565b7f6f6e6c79207265706f72746572000000000000000000000000000000000000005f82015250565b5f612199600d83611122565b91506121a482612165565b602082019050919050565b5f6020820190508181035f8301526121c68161218d565b9050919050565b5f6121d782611078565b91507fffffffffffffffffffffffffffffffffffffffffffffffffffffffffffffffff820361220957612208611c3d565b5b600182019050919050565b7f4e487b71000000000000000000000000000000000000000000000000000000005f52601260045260245ffd5b5f61224b82611078565b915061225683611078565b92508261226657612265612214565b5b828204905092915050565b5f61227b82611078565b915061228683611078565b925082820261229481611078565b915082820484148315176122ab576122aa611c3d565b5b5092915050565b5f60ff82169050919050565b5f6122c8826122b2565b91506122d3836122b2565b9250828201905060ff8111156122ec576122eb611c3d565b5b92915050565b7f4e487b71000000000000000000000000000000000000000000000000000000005f52602160045260245ffd5b600581106123305761232f6122f2565b5b50565b5f8190506123408261231f565b919050565b5f61234f82612333565b9050919050565b61235f81612345565b82525050565b60038110612376576123756122f2565b5b50565b5f81905061238682612365565b919050565b5f61239582612379565b9050919050565b6123a58161238b565b82525050565b5f60c0820190506123be5f8301896110d6565b6123cb6020830188612356565b6123d8604083018761239c565b6123e560608301866110d6565b6123f260808301856110d6565b81810360a08301526124048184611150565b9050979650505050505050565b5f6020828403121561242657612425611070565b5b5f61243384828501611927565b91505092915050565b5f60408201905061244f5f830185612356565b81810360208301526124618184611150565b9050939250505056fea2646970667358221220c77c74ac52f673d777336433bbf4da126526180b2a18b8d526a2018a23a2d4c064736f6c634300081e0033","linkReferences":{}},"methodIdentifiers":{"INCIDENT_COOLDOWN()":"a9fd09fc","RATE_LIMIT_SECONDS()":"be046449","getSignal(uint256)":"828e58e2","getSignalCount()":"592ee87a","incidents()":"4b227336","lastBlockNumber(uint256)":"dfb76d64","lastBlockTimestamp(uint256)":"02c9913d","lastIncidentTime(uint256)":"c4e5b86c","lastSignalTime(uint256)":"a409a645","registry()":"7b103999","reporter()":"010ec441","setReporter(address)":"4c925032","signals(uint256)":"47c740cd","submitHealthSignal(uint256,uint256,uint256,uint256,bool,string)":"bc29107c"},"id":16}