{"abi":[{"type":"constructor","inputs":[],"stateMutability":"nonpayable"},{"type":"function","name":"allIncidentIds","inputs":[{"name":"","type":"uint256","internalType":"uint256"}],"outputs":[{"name":"","type":"uint256","internalType":"uint256"}],"stateMutability":"view"},{"type":"function","name":"authorizedReporters","inputs":[{"name":"","type":"address","internalType":"address"}],"outputs":[{"name":"","type":"bool","internalType":"bool"}],"stateMutability":"view"},{"type":"function","name":"chainIncidents","inputs":[{"name":"","type":"uint256","internalType":"uint256"},{"name":"","type":"uint256","internalType":"uint256"}],"outputs":[{"name":"","type":"uint256","internalType":"uint256"}],"stateMutability":"view"},{"type":"function","name":"getChainIncidents","inputs":[{"name":"chainId","type":"uint256","internalType":"uint256"}],"outputs":[{"name":"","type":"uint256[]","internalType":"uint256[]"}],"stateMutability":"view"},{"type":"function","name":"getIncident","inputs":[{"name":"incidentId","type":"uint256","internalType":"uint256"}],"outputs":[{"name":"","type":"tuple","internalType":"struct IncidentManager.Incident","components":[{"name":"chainId","type":"uint256","internalType":"uint256"},{"name":"detectedAt","type":"uint256","internalType":"uint256"},{"name":"failureType","type":"uint8","internalType":"enum IncidentManager.FailureType"},{"name":"severity","type":"uint8","internalType":"enum IncidentManager.IncidentSeverity"},{"name":"lastHealthyBlock","type":"uint256","internalType":"uint256"},{"name":"lastHealthyTimestamp","type":"uint256","internalType":"uint256"},{"name":"description","type":"string","internalType":"string"},{"name":"resolved","type":"bool","internalType":"bool"}]}],"stateMutability":"view"},{"type":"function","name":"getIncidentCount","inputs":[],"outputs":[{"name":"","type":"uint256","internalType":"uint256"}],"stateMutability":"view"},{"type":"function","name":"incidentExists","inputs":[{"name":"","type":"uint256","internalType":"uint256"}],"outputs":[{"name":"","type":"bool","internalType":"bool"}],"stateMutability":"view"},{"type":"function","name":"incidents","inputs":[{"name":"","type":"uint256","internalType":"uint256"}],"outputs":[{"name":"chainId","type":"uint256","internalType":"uint256"},{"name":"detectedAt","type":"uint256","internalType":"uint256"},{"name":"failureType","type":"uint8","internalType":"enum IncidentManager.FailureType"},{"name":"severity","type":"uint8","internalType":"enum IncidentManager.IncidentSeverity"},{"name":"lastHealthyBlock","type":"uint256","internalType":"uint256"},{"name":"lastHealthyTimestamp","type":"uint256","internalType":"uint256"},{"name":"description","type":"string","internalType":"string"},{"name":"resolved","type":"bool","internalType":"bool"}],"stateMutability":"view"},{"type":"function","name":"owner","inputs":[],"outputs":[{"name":"","type":"address","internalType":"address"}],"stateMutability":"view"},{"type":"function","name":"raiseIncident","inputs":[{"name":"chainId","type":"uint256","internalType":"uint256"},{"name":"failureType","type":"uint8","internalType":"enum IncidentManager.FailureType"},{"name":"severity","type":"uint8","internalType":"enum IncidentManager.IncidentSeverity"},{"name":"lastHealthyBlock","type":"uint256","internalType":"uint256"},{"name":"lastHealthyTimestamp","type":"uint256","internalType":"uint256"},{"name":"description","type":"string","internalType":"string"}],"outputs":[{"name":"","type":"uint256","internalType":"uint256"}],"stateMutability":"nonpayable"},{"type":"function","name":"registry","inputs":[],"outputs":[{"name":"","type":"address","internalType":"address"}],"stateMutability":"view"},{"type":"function","name":"reporterContract","inputs":[],"outputs":[{"name":"","type":"address","internalType":"address"}],"stateMutability":"view"},{"type":"function","name":"resolveIncident","inputs":[{"name":"incidentId","type":"uint256","internalType":"uint256"},{"name":"reason","type":"string","internalType":"string"}],"outputs":[],"stateMutability":"nonpayable"},{"type":"function","name":"setRegistry","inputs":[{"name":"_registry","type":"address","internalType":"address"}],"outputs":[],"stateMutability":"nonpayable"},{"type":"function","name":"setReporterAuthorization","inputs":[{"name":"reporter","type":"address","internalType":"address"},{"name":"authorized","type":"bool","internalType":"bool"}],"outputs":[],"stateMutability":"nonpayable"},{"type":"function","name":"setReporterContract","inputs":[{"name":"_reporter","type":"address","internalType":"address"}],"outputs":[],"stateMutability":"nonpayable"},{"type":"function","name":"transferOwnership","inputs":[{"name":"newOwner","type":"address","internalType":"address"}],"outputs":[],"stateMutability":"nonpayable"},{"type":"event","name":"IncidentRaised","inputs":[{"name":"incidentId","type":"uint256","indexed":true,"internalType":"uint256"},{"name":"chainId","type":"uint256","indexed":true,"internalType":"uint256"},{"name":"failureType","type":"uint8","indexed":true,"internalType":"uint8"},{"name":"severity","type":"uint8","indexed":false,"internalType":"uint8"},{"name":"description","type":"string","indexed":false,"internalType":"string"},{"name":"timestamp","type":"uint256","indexed":false,"internalType":"uint256"}],"anonymous":false},{"type":"event","name":"IncidentResolved","inputs":[{"name":"incidentId","type":"uint256","indexed":true,"internalType":"uint256"},{"name":"chainId","type":"uint256","indexed":true,"internalType":"uint256"},{"name":"reason","type":"string","indexed":false,"internalType":"string"},{"name":"timestamp","type":"uint256","indexed":false,"internalType":"uint256"}],"anonymous":false},{"type":"event","name":"OwnershipTransferred","inputs":[{"name":"previousOwner","type":"address","indexed":true,"internalType":"address"},{"name":"newOwner","type":"address","indexed":true,"internalType":"address"}],"anonymous":false}],"bytecode":{"object":"0x6080604052348015600e575f5ffd5b50335f5f6101000a81548173ffffffffffffffffffffffffffffffffffffffff021916908373ffffffffffffffffffffffffffffffffffffffff1602179055506122b68061005b5f395ff3fe608060405234801561000f575f5ffd5b5060043610610109575f3560e01c80639704d4e6116100a0578063c9344ded1161006f578063c9344ded146102e2578063f032a3b714610312578063f298818b14610330578063f2fde38b14610360578063f7fe4e891461037c57610109565b80639704d4e61461022f578063a6c6a8f31461025f578063a91ee0dc14610296578063c246cc83146102b257610109565b80637b103999116100dc5780637b103999146101a55780638da5cb5b146101c35780639578615e146101e1578063959626921461021157610109565b80633a41429a1461010d5780633eefb9111461013d5780635e6b20861461016d5780636482f2b714610189575b5f5ffd5b61012760048036038101906101229190611252565b610398565b6040516101349190611297565b60405180910390f35b610157600480360381019061015291906112e3565b6103b5565b6040516101649190611297565b60405180910390f35b6101876004803603810190610182919061136f565b6103d2565b005b6101a3600480360381019061019e9190611252565b610543565b005b6101ad6105fc565b6040516101ba91906113db565b60405180910390f35b6101cb610621565b6040516101d891906113db565b60405180910390f35b6101fb60048036038101906101f691906112e3565b610645565b60405161020891906115e8565b60405180910390f35b610219610814565b6040516102269190611617565b60405180910390f35b610249600480360381019061024491906112e3565b610820565b60405161025691906116d8565b60405180910390f35b610279600480360381019061027491906112e3565b610887565b60405161028d98979695949392919061175e565b60405180910390f35b6102b060048036038101906102ab9190611252565b610976565b005b6102cc60048036038101906102c791906117e1565b610a2f565b6040516102d99190611617565b60405180910390f35b6102fc60048036038101906102f79190611865565b610a5a565b6040516103099190611617565b60405180910390f35b61031a610e8f565b60405161032791906113db565b60405180910390f35b61034a600480360381019061034591906112e3565b610eb4565b6040516103579190611617565b60405180910390f35b61037a60048036038101906103759190611252565b610ed4565b005b61039660048036038101906103919190611939565b61100b565b005b6007602052805f5260405f205f915054906101000a900460ff1681565b6005602052805f5260405f205f915054906101000a900460ff1681565b6103da61106b565b60055f8481526020019081526020015f205f9054906101000a900460ff16610437576040517f08c379a000000000000000000000000000000000000000000000000000000000815260040161042e906119c1565b60405180910390fd5b5f828290501161047c576040517f08c379a000000000000000000000000000000000000000000000000000000000815260040161047390611a29565b60405180910390fd5b5f60035f8581526020019081526020015f209050806006015f9054906101000a900460ff16156104e1576040517f08c379a00000000000000000000000000000000000000000000000000000000081526004016104d890611a91565b60405180910390fd5b6001816006015f6101000a81548160ff021916908315150217905550805f0154847f203d637a2df96a23f9b92adb7b1d7d925c49feca90c01a21c316d2273d2fc68d85854260405161053593929190611ae9565b60405180910390a350505050565b61054b6110fc565b5f73ffffffffffffffffffffffffffffffffffffffff168173ffffffffffffffffffffffffffffffffffffffff16036105b9576040517f08c379a00000000000000000000000000000000000000000000000000000000081526004016105b090611b63565b60405180910390fd5b8060025f6101000a81548173ffffffffffffffffffffffffffffffffffffffff021916908373ffffffffffffffffffffffffffffffffffffffff16021790555050565b60015f9054906101000a900473ffffffffffffffffffffffffffffffffffffffff1681565b5f5f9054906101000a900473ffffffffffffffffffffffffffffffffffffffff1681565b61064d61118c565b60055f8381526020019081526020015f205f9054906101000a900460ff166106aa576040517f08c379a00000000000000000000000000000000000000000000000000000000081526004016106a1906119c1565b60405180910390fd5b60035f8381526020019081526020015f20604051806101000160405290815f820154815260200160018201548152602001600282015f9054906101000a900460ff1660048111156106fe576106fd611403565b5b60048111156107105761070f611403565b5b81526020016002820160019054906101000a900460ff16600281111561073957610738611403565b5b600281111561074b5761074a611403565b5b8152602001600382015481526020016004820154815260200160058201805461077390611bae565b80601f016020809104026020016040519081016040528092919081815260200182805461079f90611bae565b80156107ea5780601f106107c1576101008083540402835291602001916107ea565b820191905f5260205f20905b8154815290600101906020018083116107cd57829003601f168201915b50505050508152602001600682015f9054906101000a900460ff1615151515815250509050919050565b5f600480549050905090565b606060065f8381526020019081526020015f2080548060200260200160405190810160405280929190818152602001828054801561087b57602002820191905f5260205f20905b815481526020019060010190808311610867575b50505050509050919050565b6003602052805f5260405f205f91509050805f015490806001015490806002015f9054906101000a900460ff16908060020160019054906101000a900460ff16908060030154908060040154908060050180546108e390611bae565b80601f016020809104026020016040519081016040528092919081815260200182805461090f90611bae565b801561095a5780601f106109315761010080835404028352916020019161095a565b820191905f5260205f20905b81548152906001019060200180831161093d57829003601f168201915b505050505090806006015f9054906101000a900460ff16905088565b61097e6110fc565b5f73ffffffffffffffffffffffffffffffffffffffff168173ffffffffffffffffffffffffffffffffffffffff16036109ec576040517f08c379a00000000000000000000000000000000000000000000000000000000081526004016109e390611c28565b60405180910390fd5b8060015f6101000a81548173ffffffffffffffffffffffffffffffffffffffff021916908373ffffffffffffffffffffffffffffffffffffffff16021790555050565b6006602052815f5260405f208181548110610a48575f80fd5b905f5260205f20015f91509150505481565b5f60025f9054906101000a900473ffffffffffffffffffffffffffffffffffffffff1673ffffffffffffffffffffffffffffffffffffffff163373ffffffffffffffffffffffffffffffffffffffff161480610b0157505f5f9054906101000a900473ffffffffffffffffffffffffffffffffffffffff1673ffffffffffffffffffffffffffffffffffffffff163373ffffffffffffffffffffffffffffffffffffffff16145b80610b52575060075f3373ffffffffffffffffffffffffffffffffffffffff1673ffffffffffffffffffffffffffffffffffffffff1681526020019081526020015f205f9054906101000a900460ff165b610b91576040517f08c379a0000000000000000000000000000000000000000000000000000000008152600401610b8890611c90565b60405180910390fd5b5f423344604051602001610ba793929190611d13565b604051602081830303815290604052805190602001205f1c90505f60646126ac83610bd29190611d7c565b610bdc9190611dd9565b90505b60055f8281526020019081526020015f205f9054906101000a900460ff1615610c23578080610c0d90611e0c565b9150506127108110610c1e57606490505b610bdf565b6040518061010001604052808b81526020014281526020018a6004811115610c4e57610c4d611403565b5b8152602001896002811115610c6657610c65611403565b5b815260200188815260200187815260200186868080601f0160208091040260200160405190810160405280939291908181526020018383808284375f81840152601f19601f8201169050808301925050505050505081526020015f151581525060035f8381526020019081526020015f205f820151815f0155602082015181600101556040820151816002015f6101000a81548160ff02191690836004811115610d1357610d12611403565b5b021790555060608201518160020160016101000a81548160ff02191690836002811115610d4357610d42611403565b5b02179055506080820151816003015560a0820151816004015560c0820151816005019081610d719190612020565b5060e0820151816006015f6101000a81548160ff021916908315150217905550905050600481908060018154018082558091505060019003905f5260205f20015f909190919091505560065f8b81526020019081526020015f2081908060018154018082558091505060019003905f5260205f20015f9091909190915055600160055f8381526020019081526020015f205f6101000a81548160ff021916908315150217905550886004811115610e2b57610e2a611403565b5b60ff168a827f63182e04c87d0ccf0af379f7ded82326273bc6d7c2b5db26b2e9354ec06f1f578b6002811115610e6457610e63611403565b5b898942604051610e77949392919061210a565b60405180910390a48092505050979650505050505050565b60025f9054906101000a900473ffffffffffffffffffffffffffffffffffffffff1681565b60048181548110610ec3575f80fd5b905f5260205f20015f915090505481565b610edc6110fc565b5f73ffffffffffffffffffffffffffffffffffffffff168173ffffffffffffffffffffffffffffffffffffffff1603610f4a576040517f08c379a0000000000000000000000000000000000000000000000000000000008152600401610f4190612192565b60405180910390fd5b5f5f5f9054906101000a900473ffffffffffffffffffffffffffffffffffffffff169050815f5f6101000a81548173ffffffffffffffffffffffffffffffffffffffff021916908373ffffffffffffffffffffffffffffffffffffffff1602179055508173ffffffffffffffffffffffffffffffffffffffff168173ffffffffffffffffffffffffffffffffffffffff167f8be0079c531659141344cd1fd0a4f28419497f9722a3daafe3b4186f6b6457e060405160405180910390a35050565b6110136110fc565b8060075f8473ffffffffffffffffffffffffffffffffffffffff1673ffffffffffffffffffffffffffffffffffffffff1681526020019081526020015f205f6101000a81548160ff0219169083151502179055505050565b60015f9054906101000a900473ffffffffffffffffffffffffffffffffffffffff1673ffffffffffffffffffffffffffffffffffffffff163373ffffffffffffffffffffffffffffffffffffffff16146110fa576040517f08c379a00000000000000000000000000000000000000000000000000000000081526004016110f1906121fa565b60405180910390fd5b565b5f5f9054906101000a900473ffffffffffffffffffffffffffffffffffffffff1673ffffffffffffffffffffffffffffffffffffffff163373ffffffffffffffffffffffffffffffffffffffff161461118a576040517f08c379a000000000000000000000000000000000000000000000000000000000815260040161118190612262565b60405180910390fd5b565b6040518061010001604052805f81526020015f81526020015f60048111156111b7576111b6611403565b5b81526020015f60028111156111cf576111ce611403565b5b81526020015f81526020015f8152602001606081526020015f151581525090565b5f5ffd5b5f5ffd5b5f73ffffffffffffffffffffffffffffffffffffffff82169050919050565b5f611221826111f8565b9050919050565b61123181611217565b811461123b575f5ffd5b50565b5f8135905061124c81611228565b92915050565b5f60208284031215611267576112666111f0565b5b5f6112748482850161123e565b91505092915050565b5f8115159050919050565b6112918161127d565b82525050565b5f6020820190506112aa5f830184611288565b92915050565b5f819050919050565b6112c2816112b0565b81146112cc575f5ffd5b50565b5f813590506112dd816112b9565b92915050565b5f602082840312156112f8576112f76111f0565b5b5f611305848285016112cf565b91505092915050565b5f5ffd5b5f5ffd5b5f5ffd5b5f5f83601f84011261132f5761132e61130e565b5b8235905067ffffffffffffffff81111561134c5761134b611312565b5b60208301915083600182028301111561136857611367611316565b5b9250929050565b5f5f5f60408486031215611386576113856111f0565b5b5f611393868287016112cf565b935050602084013567ffffffffffffffff8111156113b4576113b36111f4565b5b6113c08682870161131a565b92509250509250925092565b6113d581611217565b82525050565b5f6020820190506113ee5f8301846113cc565b92915050565b6113fd816112b0565b82525050565b7f4e487b71000000000000000000000000000000000000000000000000000000005f52602160045260245ffd5b6005811061144157611440611403565b5b50565b5f81905061145182611430565b919050565b5f61146082611444565b9050919050565b61147081611456565b82525050565b6003811061148757611486611403565b5b50565b5f81905061149782611476565b919050565b5f6114a68261148a565b9050919050565b6114b68161149c565b82525050565b5f81519050919050565b5f82825260208201905092915050565b8281835e5f83830152505050565b5f601f19601f8301169050919050565b5f6114fe826114bc565b61150881856114c6565b93506115188185602086016114d6565b611521816114e4565b840191505092915050565b6115358161127d565b82525050565b5f61010083015f8301516115515f8601826113f4565b50602083015161156460208601826113f4565b5060408301516115776040860182611467565b50606083015161158a60608601826114ad565b50608083015161159d60808601826113f4565b5060a08301516115b060a08601826113f4565b5060c083015184820360c08601526115c882826114f4565b91505060e08301516115dd60e086018261152c565b508091505092915050565b5f6020820190508181035f830152611600818461153b565b905092915050565b611611816112b0565b82525050565b5f60208201905061162a5f830184611608565b92915050565b5f81519050919050565b5f82825260208201905092915050565b5f819050602082019050919050565b5f61166483836113f4565b60208301905092915050565b5f602082019050919050565b5f61168682611630565b611690818561163a565b935061169b8361164a565b805f5b838110156116cb5781516116b28882611659565b97506116bd83611670565b92505060018101905061169e565b5085935050505092915050565b5f6020820190508181035f8301526116f0818461167c565b905092915050565b61170181611456565b82525050565b6117108161149c565b82525050565b5f82825260208201905092915050565b5f611730826114bc565b61173a8185611716565b935061174a8185602086016114d6565b611753816114e4565b840191505092915050565b5f610100820190506117725f83018b611608565b61177f602083018a611608565b61178c60408301896116f8565b6117996060830188611707565b6117a66080830187611608565b6117b360a0830186611608565b81810360c08301526117c58185611726565b90506117d460e0830184611288565b9998505050505050505050565b5f5f604083850312156117f7576117f66111f0565b5b5f611804858286016112cf565b9250506020611815858286016112cf565b9150509250929050565b6005811061182b575f5ffd5b50565b5f8135905061183c8161181f565b92915050565b6003811061184e575f5ffd5b50565b5f8135905061185f81611842565b92915050565b5f5f5f5f5f5f5f60c0888a0312156118805761187f6111f0565b5b5f61188d8a828b016112cf565b975050602061189e8a828b0161182e565b96505060406118af8a828b01611851565b95505060606118c08a828b016112cf565b94505060806118d18a828b016112cf565b93505060a088013567ffffffffffffffff8111156118f2576118f16111f4565b5b6118fe8a828b0161131a565b925092505092959891949750929550565b6119188161127d565b8114611922575f5ffd5b50565b5f813590506119338161190f565b92915050565b5f5f6040838503121561194f5761194e6111f0565b5b5f61195c8582860161123e565b925050602061196d85828601611925565b9150509250929050565b7f6e6f20696e636964656e740000000000000000000000000000000000000000005f82015250565b5f6119ab600b83611716565b91506119b682611977565b602082019050919050565b5f6020820190508181035f8301526119d88161199f565b9050919050565b7f656d70747920726561736f6e00000000000000000000000000000000000000005f82015250565b5f611a13600c83611716565b9150611a1e826119df565b602082019050919050565b5f6020820190508181035f830152611a4081611a07565b9050919050565b7f616c7265616479207265736f6c766564000000000000000000000000000000005f82015250565b5f611a7b601083611716565b9150611a8682611a47565b602082019050919050565b5f6020820190508181035f830152611aa881611a6f565b9050919050565b828183375f83830152505050565b5f611ac88385611716565b9350611ad5838584611aaf565b611ade836114e4565b840190509392505050565b5f6040820190508181035f830152611b02818587611abd565b9050611b116020830184611608565b949350505050565b7f7a65726f207265706f72746572000000000000000000000000000000000000005f82015250565b5f611b4d600d83611716565b9150611b5882611b19565b602082019050919050565b5f6020820190508181035f830152611b7a81611b41565b9050919050565b7f4e487b71000000000000000000000000000000000000000000000000000000005f52602260045260245ffd5b5f6002820490506001821680611bc557607f821691505b602082108103611bd857611bd7611b81565b5b50919050565b7f7a65726f207265676973747279000000000000000000000000000000000000005f82015250565b5f611c12600d83611716565b9150611c1d82611bde565b602082019050919050565b5f6020820190508181035f830152611c3f81611c06565b9050919050565b7f756e617574686f72697a656400000000000000000000000000000000000000005f82015250565b5f611c7a600c83611716565b9150611c8582611c46565b602082019050919050565b5f6020820190508181035f830152611ca781611c6e565b9050919050565b5f819050919050565b611cc8611cc3826112b0565b611cae565b82525050565b5f8160601b9050919050565b5f611ce482611cce565b9050919050565b5f611cf582611cda565b9050919050565b611d0d611d0882611217565b611ceb565b82525050565b5f611d1e8286611cb7565b602082019150611d2e8285611cfc565b601482019150611d3e8284611cb7565b602082019150819050949350505050565b7f4e487b71000000000000000000000000000000000000000000000000000000005f52601260045260245ffd5b5f611d86826112b0565b9150611d91836112b0565b925082611da157611da0611d4f565b5b828206905092915050565b7f4e487b71000000000000000000000000000000000000000000000000000000005f52601160045260245ffd5b5f611de3826112b0565b9150611dee836112b0565b9250828201905080821115611e0657611e05611dac565b5b92915050565b5f611e16826112b0565b91507fffffffffffffffffffffffffffffffffffffffffffffffffffffffffffffffff8203611e4857611e47611dac565b5b600182019050919050565b7f4e487b71000000000000000000000000000000000000000000000000000000005f52604160045260245ffd5b5f819050815f5260205f209050919050565b5f6020601f8301049050919050565b5f82821b905092915050565b5f60088302611edc7fffffffffffffffffffffffffffffffffffffffffffffffffffffffffffffffff82611ea1565b611ee68683611ea1565b95508019841693508086168417925050509392505050565b5f819050919050565b5f611f21611f1c611f17846112b0565b611efe565b6112b0565b9050919050565b5f819050919050565b611f3a83611f07565b611f4e611f4682611f28565b848454611ead565b825550505050565b5f5f905090565b611f65611f56565b611f70818484611f31565b505050565b5b81811015611f9357611f885f82611f5d565b600181019050611f76565b5050565b601f821115611fd857611fa981611e80565b611fb284611e92565b81016020851015611fc1578190505b611fd5611fcd85611e92565b830182611f75565b50505b505050565b5f82821c905092915050565b5f611ff85f1984600802611fdd565b1980831691505092915050565b5f6120108383611fe9565b9150826002028217905092915050565b612029826114bc565b67ffffffffffffffff81111561204257612041611e53565b5b61204c8254611bae565b612057828285611f97565b5f60209050601f831160018114612088575f8415612076578287015190505b6120808582612005565b8655506120e7565b601f19841661209686611e80565b5f5b828110156120bd57848901518255600182019150602085019450602081019050612098565b868310156120da57848901516120d6601f891682611fe9565b8355505b6001600288020188555050505b505050505050565b5f60ff82169050919050565b612104816120ef565b82525050565b5f60608201905061211d5f8301876120fb565b8181036020830152612130818587611abd565b905061213f6040830184611608565b95945050505050565b7f7a65726f206f776e6572000000000000000000000000000000000000000000005f82015250565b5f61217c600a83611716565b915061218782612148565b602082019050919050565b5f6020820190508181035f8301526121a981612170565b9050919050565b7f6f6e6c79207265676973747279000000000000000000000000000000000000005f82015250565b5f6121e4600d83611716565b91506121ef826121b0565b602082019050919050565b5f6020820190508181035f830152612211816121d8565b9050919050565b7f6f6e6c79206f776e6572000000000000000000000000000000000000000000005f82015250565b5f61224c600a83611716565b915061225782612218565b602082019050919050565b5f6020820190508181035f83015261227981612240565b905091905056fea26469706673582212208233b20a4bc5bb858f183f09d59383236b8e27aec4b16531136f9ca2f95f3a3964736f6c634300081e0033","linkReferences":{}},"methodIdentifiers":{"allIncidentIds(uint256)":"f298818b","authorizedReporters(address)":"3a41429a","chainIncidents(uint256,uint256)":"c246cc83","getChainIncidents(uint256)":"9704d4e6","getIncident(uint256)":"9578615e","getIncidentCount()":"95962692","incidentExists(uint256)":"3eefb911","incidents(uint256)":"a6c6a8f3","owner()":"8da5cb5b","raiseIncident(uint256,uint8,uint8,uint256,uint256,string)":"c9344ded","registry()":"7b103999","reporterContract()":"f032a3b7","resolveIncident(uint256,string)":"5e6b2086","setRegistry(address)":"a91ee0dc","setReporterAuthorization(address,bool)":"f7fe4e89","setReporterContract(address)":"6482f2b7","transferOwnership(address)":"f2fde38b"},"id":17}