{"abi":[{"type":"constructor","inputs":[],"stateMutability":"nonpayable"},{"type":"function","name":"chainIncidents","inputs":[{"name":"","type":"uint256","internalType":"uint256"},{"name":"","type":"uint256","internalType":"uint256"}],"outputs":[{"name":"","type":"uint256","internalType":"uint256"}],"stateMutability":"view"},{"type":"function","name":"getChainIncidents","inputs":[{"name":"chainId","type":"uint256","internalType":"uint256"}],"outputs":[{"name":"","type":"uint256[]","internalType":"uint256[]"}],"stateMutability":"view"},{"type":"function","name":"getIncident","inputs":[{"name":"incidentId","type":"uint256","internalType":"uint256"}],"outputs":[{"name":"","type":"tuple","internalType":"struct IncidentManager.Incident","components":[{"name":"chainId","type":"uint256","internalType":"uint256"},{"name":"detectedAt","type":"uint256","internalType":"uint256"},{"name":"failureType","type":"uint8","internalType":"enum IncidentManager.FailureType"},{"name":"severity","type":"uint8","internalType":"enum IncidentManager.IncidentSeverity"},{"name":"lastHealthyBlock","type":"uint256","internalType":"uint256"},{"name":"lastHealthyTimestamp","type":"uint256","internalType":"uint256"},{"name":"description","type":"string","internalType":"string"},{"name":"resolved","type":"bool","internalType":"bool"}]}],"stateMutability":"view"},{"type":"function","name":"getIncidentCount","inputs":[],"outputs":[{"name":"","type":"uint256","internalType":"uint256"}],"stateMutability":"view"},{"type":"function","name":"incidents","inputs":[{"name":"","type":"uint256","internalType":"uint256"}],"outputs":[{"name":"chainId","type":"uint256","internalType":"uint256"},{"name":"detectedAt","type":"uint256","internalType":"uint256"},{"name":"failureType","type":"uint8","internalType":"enum IncidentManager.FailureType"},{"name":"severity","type":"uint8","internalType":"enum IncidentManager.IncidentSeverity"},{"name":"lastHealthyBlock","type":"uint256","internalType":"uint256"},{"name":"lastHealthyTimestamp","type":"uint256","internalType":"uint256"},{"name":"description","type":"string","internalType":"string"},{"name":"resolved","type":"bool","internalType":"bool"}],"stateMutability":"view"},{"type":"function","name":"owner","inputs":[],"outputs":[{"name":"","type":"address","internalType":"address"}],"stateMutability":"view"},{"type":"function","name":"raiseIncident","inputs":[{"name":"chainId","type":"uint256","internalType":"uint256"},{"name":"failureType","type":"uint8","internalType":"enum IncidentManager.FailureType"},{"name":"severity","type":"uint8","internalType":"enum IncidentManager.IncidentSeverity"},{"name":"lastHealthyBlock","type":"uint256","internalType":"uint256"},{"name":"lastHealthyTimestamp","type":"uint256","internalType":"uint256"},{"name":"description","type":"string","internalType":"string"}],"outputs":[{"name":"","type":"uint256","internalType":"uint256"}],"stateMutability":"nonpayable"},{"type":"function","name":"registry","inputs":[],"outputs":[{"name":"","type":"address","internalType":"address"}],"stateMutability":"view"},{"type":"function","name":"reporterContract","inputs":[],"outputs":[{"name":"","type":"address","internalType":"address"}],"stateMutability":"view"},{"type":"function","name":"resolveIncident","inputs":[{"name":"incidentId","type":"uint256","internalType":"uint256"},{"name":"reason","type":"string","internalType":"string"}],"outputs":[],"stateMutability":"nonpayable"},{"type":"function","name":"setRegistry","inputs":[{"name":"_registry","type":"address","internalType":"address"}],"outputs":[],"stateMutability":"nonpayable"},{"type":"function","name":"setReporterContract","inputs":[{"name":"_reporter","type":"address","internalType":"address"}],"outputs":[],"stateMutability":"nonpayable"},{"type":"function","name":"transferOwnership","inputs":[{"name":"newOwner","type":"address","internalType":"address"}],"outputs":[],"stateMutability":"nonpayable"},{"type":"event","name":"IncidentRaised","inputs":[{"name":"incidentId","type":"uint256","indexed":true,"internalType":"uint256"},{"name":"chainId","type":"uint256","indexed":true,"internalType":"uint256"},{"name":"failureType","type":"uint8","indexed":true,"internalType":"uint8"},{"name":"severity","type":"uint8","indexed":false,"internalType":"uint8"},{"name":"description","type":"string","indexed":false,"internalType":"string"},{"name":"timestamp","type":"uint256","indexed":false,"internalType":"uint256"}],"anonymous":false},{"type":"event","name":"IncidentResolved","inputs":[{"name":"incidentId","type":"uint256","indexed":true,"internalType":"uint256"},{"name":"chainId","type":"uint256","indexed":true,"internalType":"uint256"},{"name":"reason","type":"string","indexed":false,"internalType":"string"},{"name":"timestamp","type":"uint256","indexed":false,"internalType":"uint256"}],"anonymous":false},{"type":"event","name":"OwnershipTransferred","inputs":[{"name":"previousOwner","type":"address","indexed":true,"internalType":"address"},{"name":"newOwner","type":"address","indexed":true,"internalType":"address"}],"anonymous":false}],"bytecode":{"object":"0x6080604052348015600e575f5ffd5b50335f5f6101000a81548173ffffffffffffffffffffffffffffffffffffffff021916908373ffffffffffffffffffffffffffffffffffffffff160217905550611eaa8061005b5f395ff3fe608060405234801561000f575f5ffd5b50600436106100cd575f3560e01c80639704d4e61161008a578063c246cc8311610064578063c246cc8314610216578063c9344ded14610246578063f032a3b714610276578063f2fde38b14610294576100cd565b80639704d4e614610193578063a6c6a8f3146101c3578063a91ee0dc146101fa576100cd565b80635e6b2086146100d15780636482f2b7146100ed5780637b103999146101095780638da5cb5b146101275780639578615e146101455780639596269214610175575b5f5ffd5b6100eb60048036038101906100e69190611079565b6102b0565b005b61010760048036038101906101029190611130565b6104a1565b005b6101116105e0565b60405161011e919061116a565b60405180910390f35b61012f610605565b60405161013c919061116a565b60405180910390f35b61015f600480360381019061015a9190611183565b610629565b60405161016c91906113ad565b60405180910390f35b61017d6107f1565b60405161018a91906113dc565b60405180910390f35b6101ad60048036038101906101a89190611183565b6107fd565b6040516101ba919061149d565b60405180910390f35b6101dd60048036038101906101d89190611183565b610864565b6040516101f1989796959493929190611532565b60405180910390f35b610214600480360381019061020f9190611130565b610962565b005b610230600480360381019061022b91906115b5565b610aa1565b60405161023d91906113dc565b60405180910390f35b610260600480360381019061025b9190611639565b610acc565b60405161026d91906113dc565b60405180910390f35b61027e610d97565b60405161028b919061116a565b60405180910390f35b6102ae60048036038101906102a99190611130565b610dbc565b005b60015f9054906101000a900473ffffffffffffffffffffffffffffffffffffffff1673ffffffffffffffffffffffffffffffffffffffff163373ffffffffffffffffffffffffffffffffffffffff161461033f576040517f08c379a00000000000000000000000000000000000000000000000000000000081526004016103369061172d565b60405180910390fd5b6003805490508310610386576040517f08c379a000000000000000000000000000000000000000000000000000000000815260040161037d90611795565b60405180910390fd5b5f82829050116103cb576040517f08c379a00000000000000000000000000000000000000000000000000000000081526004016103c2906117fd565b60405180910390fd5b5f600384815481106103e0576103df61181b565b5b905f5260205f2090600702019050806006015f9054906101000a900460ff161561043f576040517f08c379a000000000000000000000000000000000000000000000000000000000815260040161043690611892565b60405180910390fd5b6001816006015f6101000a81548160ff021916908315150217905550805f0154847f203d637a2df96a23f9b92adb7b1d7d925c49feca90c01a21c316d2273d2fc68d858542604051610493939291906118ea565b60405180910390a350505050565b5f5f9054906101000a900473ffffffffffffffffffffffffffffffffffffffff1673ffffffffffffffffffffffffffffffffffffffff163373ffffffffffffffffffffffffffffffffffffffff161461052f576040517f08c379a000000000000000000000000000000000000000000000000000000000815260040161052690611964565b60405180910390fd5b5f73ffffffffffffffffffffffffffffffffffffffff168173ffffffffffffffffffffffffffffffffffffffff160361059d576040517f08c379a0000000000000000000000000000000000000000000000000000000008152600401610594906119cc565b60405180910390fd5b8060025f6101000a81548173ffffffffffffffffffffffffffffffffffffffff021916908373ffffffffffffffffffffffffffffffffffffffff16021790555050565b60015f9054906101000a900473ffffffffffffffffffffffffffffffffffffffff1681565b5f5f9054906101000a900473ffffffffffffffffffffffffffffffffffffffff1681565b610631610f79565b6003805490508210610678576040517f08c379a000000000000000000000000000000000000000000000000000000000815260040161066f90611795565b60405180910390fd5b6003828154811061068c5761068b61181b565b5b905f5260205f209060070201604051806101000160405290815f820154815260200160018201548152602001600282015f9054906101000a900460ff1660048111156106db576106da6111bd565b5b60048111156106ed576106ec6111bd565b5b81526020016002820160019054906101000a900460ff166002811115610716576107156111bd565b5b6002811115610728576107276111bd565b5b8152602001600382015481526020016004820154815260200160058201805461075090611a17565b80601f016020809104026020016040519081016040528092919081815260200182805461077c90611a17565b80156107c75780601f1061079e576101008083540402835291602001916107c7565b820191905f5260205f20905b8154815290600101906020018083116107aa57829003601f168201915b50505050508152602001600682015f9054906101000a900460ff1615151515815250509050919050565b5f600380549050905090565b606060045f8381526020019081526020015f2080548060200260200160405190810160405280929190818152602001828054801561085857602002820191905f5260205f20905b815481526020019060010190808311610844575b50505050509050919050565b60038181548110610873575f80fd5b905f5260205f2090600702015f91509050805f015490806001015490806002015f9054906101000a900460ff16908060020160019054906101000a900460ff16908060030154908060040154908060050180546108cf90611a17565b80601f01602080910402602001604051908101604052809291908181526020018280546108fb90611a17565b80156109465780601f1061091d57610100808354040283529160200191610946565b820191905f5260205f20905b81548152906001019060200180831161092957829003601f168201915b505050505090806006015f9054906101000a900460ff16905088565b5f5f9054906101000a900473ffffffffffffffffffffffffffffffffffffffff1673ffffffffffffffffffffffffffffffffffffffff163373ffffffffffffffffffffffffffffffffffffffff16146109f0576040517f08c379a00000000000000000000000000000000000000000000000000000000081526004016109e790611964565b60405180910390fd5b5f73ffffffffffffffffffffffffffffffffffffffff168173ffffffffffffffffffffffffffffffffffffffff1603610a5e576040517f08c379a0000000000000000000000000000000000000000000000000000000008152600401610a5590611a91565b60405180910390fd5b8060015f6101000a81548173ffffffffffffffffffffffffffffffffffffffff021916908373ffffffffffffffffffffffffffffffffffffffff16021790555050565b6004602052815f5260405f208181548110610aba575f80fd5b905f5260205f20015f91509150505481565b5f60025f9054906101000a900473ffffffffffffffffffffffffffffffffffffffff1673ffffffffffffffffffffffffffffffffffffffff163373ffffffffffffffffffffffffffffffffffffffff1614610b5c576040517f08c379a0000000000000000000000000000000000000000000000000000000008152600401610b5390611af9565b60405180910390fd5b5f600380549050905060036040518061010001604052808b81526020014281526020018a6004811115610b9257610b916111bd565b5b8152602001896002811115610baa57610ba96111bd565b5b815260200188815260200187815260200186868080601f0160208091040260200160405190810160405280939291908181526020018383808284375f81840152601f19601f8201169050808301925050505050505081526020015f1515815250908060018154018082558091505060019003905f5260205f2090600702015f909190919091505f820151815f0155602082015181600101556040820151816002015f6101000a81548160ff02191690836004811115610c6c57610c6b6111bd565b5b021790555060608201518160020160016101000a81548160ff02191690836002811115610c9c57610c9b6111bd565b5b02179055506080820151816003015560a0820151816004015560c0820151816005019081610cca9190611ce4565b5060e0820151816006015f6101000a81548160ff021916908315150217905550505060045f8a81526020019081526020015f2081908060018154018082558091505060019003905f5260205f20015f9091909190915055876004811115610d3457610d336111bd565b5b60ff1689827f63182e04c87d0ccf0af379f7ded82326273bc6d7c2b5db26b2e9354ec06f1f578a6002811115610d6d57610d6c6111bd565b5b888842604051610d809493929190611dce565b60405180910390a480915050979650505050505050565b60025f9054906101000a900473ffffffffffffffffffffffffffffffffffffffff1681565b5f5f9054906101000a900473ffffffffffffffffffffffffffffffffffffffff1673ffffffffffffffffffffffffffffffffffffffff163373ffffffffffffffffffffffffffffffffffffffff1614610e4a576040517f08c379a0000000000000000000000000000000000000000000000000000000008152600401610e4190611964565b60405180910390fd5b5f73ffffffffffffffffffffffffffffffffffffffff168173ffffffffffffffffffffffffffffffffffffffff1603610eb8576040517f08c379a0000000000000000000000000000000000000000000000000000000008152600401610eaf90611e56565b60405180910390fd5b5f5f5f9054906101000a900473ffffffffffffffffffffffffffffffffffffffff169050815f5f6101000a81548173ffffffffffffffffffffffffffffffffffffffff021916908373ffffffffffffffffffffffffffffffffffffffff1602179055508173ffffffffffffffffffffffffffffffffffffffff168173ffffffffffffffffffffffffffffffffffffffff167f8be0079c531659141344cd1fd0a4f28419497f9722a3daafe3b4186f6b6457e060405160405180910390a35050565b6040518061010001604052805f81526020015f81526020015f6004811115610fa457610fa36111bd565b5b81526020015f6002811115610fbc57610fbb6111bd565b5b81526020015f81526020015f8152602001606081526020015f151581525090565b5f5ffd5b5f5ffd5b5f819050919050565b610ff781610fe5565b8114611001575f5ffd5b50565b5f8135905061101281610fee565b92915050565b5f5ffd5b5f5ffd5b5f5ffd5b5f5f83601f84011261103957611038611018565b5b8235905067ffffffffffffffff8111156110565761105561101c565b5b60208301915083600182028301111561107257611071611020565b5b9250929050565b5f5f5f604084860312156110905761108f610fdd565b5b5f61109d86828701611004565b935050602084013567ffffffffffffffff8111156110be576110bd610fe1565b5b6110ca86828701611024565b92509250509250925092565b5f73ffffffffffffffffffffffffffffffffffffffff82169050919050565b5f6110ff826110d6565b9050919050565b61110f816110f5565b8114611119575f5ffd5b50565b5f8135905061112a81611106565b92915050565b5f6020828403121561114557611144610fdd565b5b5f6111528482850161111c565b91505092915050565b611164816110f5565b82525050565b5f60208201905061117d5f83018461115b565b92915050565b5f6020828403121561119857611197610fdd565b5b5f6111a584828501611004565b91505092915050565b6111b781610fe5565b82525050565b7f4e487b71000000000000000000000000000000000000000000000000000000005f52602160045260245ffd5b600581106111fb576111fa6111bd565b5b50565b5f81905061120b826111ea565b919050565b5f61121a826111fe565b9050919050565b61122a81611210565b82525050565b60038110611241576112406111bd565b5b50565b5f81905061125182611230565b919050565b5f61126082611244565b9050919050565b61127081611256565b82525050565b5f81519050919050565b5f82825260208201905092915050565b8281835e5f83830152505050565b5f601f19601f8301169050919050565b5f6112b882611276565b6112c28185611280565b93506112d2818560208601611290565b6112db8161129e565b840191505092915050565b5f8115159050919050565b6112fa816112e6565b82525050565b5f61010083015f8301516113165f8601826111ae565b50602083015161132960208601826111ae565b50604083015161133c6040860182611221565b50606083015161134f6060860182611267565b50608083015161136260808601826111ae565b5060a083015161137560a08601826111ae565b5060c083015184820360c086015261138d82826112ae565b91505060e08301516113a260e08601826112f1565b508091505092915050565b5f6020820190508181035f8301526113c58184611300565b905092915050565b6113d681610fe5565b82525050565b5f6020820190506113ef5f8301846113cd565b92915050565b5f81519050919050565b5f82825260208201905092915050565b5f819050602082019050919050565b5f61142983836111ae565b60208301905092915050565b5f602082019050919050565b5f61144b826113f5565b61145581856113ff565b93506114608361140f565b805f5b83811015611490578151611477888261141e565b975061148283611435565b925050600181019050611463565b5085935050505092915050565b5f6020820190508181035f8301526114b58184611441565b905092915050565b6114c681611210565b82525050565b6114d581611256565b82525050565b5f82825260208201905092915050565b5f6114f582611276565b6114ff81856114db565b935061150f818560208601611290565b6115188161129e565b840191505092915050565b61152c816112e6565b82525050565b5f610100820190506115465f83018b6113cd565b611553602083018a6113cd565b61156060408301896114bd565b61156d60608301886114cc565b61157a60808301876113cd565b61158760a08301866113cd565b81810360c083015261159981856114eb565b90506115a860e0830184611523565b9998505050505050505050565b5f5f604083850312156115cb576115ca610fdd565b5b5f6115d885828601611004565b92505060206115e985828601611004565b9150509250929050565b600581106115ff575f5ffd5b50565b5f81359050611610816115f3565b92915050565b60038110611622575f5ffd5b50565b5f8135905061163381611616565b92915050565b5f5f5f5f5f5f5f60c0888a03121561165457611653610fdd565b5b5f6116618a828b01611004565b97505060206116728a828b01611602565b96505060406116838a828b01611625565b95505060606116948a828b01611004565b94505060806116a58a828b01611004565b93505060a088013567ffffffffffffffff8111156116c6576116c5610fe1565b5b6116d28a828b01611024565b925092505092959891949750929550565b7f6f6e6c79207265676973747279000000000000000000000000000000000000005f82015250565b5f611717600d836114db565b9150611722826116e3565b602082019050919050565b5f6020820190508181035f8301526117448161170b565b9050919050565b7f6e6f20696e636964656e740000000000000000000000000000000000000000005f82015250565b5f61177f600b836114db565b915061178a8261174b565b602082019050919050565b5f6020820190508181035f8301526117ac81611773565b9050919050565b7f656d70747920726561736f6e00000000000000000000000000000000000000005f82015250565b5f6117e7600c836114db565b91506117f2826117b3565b602082019050919050565b5f6020820190508181035f830152611814816117db565b9050919050565b7f4e487b71000000000000000000000000000000000000000000000000000000005f52603260045260245ffd5b7f616c7265616479207265736f6c766564000000000000000000000000000000005f82015250565b5f61187c6010836114db565b915061188782611848565b602082019050919050565b5f6020820190508181035f8301526118a981611870565b9050919050565b828183375f83830152505050565b5f6118c983856114db565b93506118d68385846118b0565b6118df8361129e565b840190509392505050565b5f6040820190508181035f8301526119038185876118be565b905061191260208301846113cd565b949350505050565b7f6f6e6c79206f776e6572000000000000000000000000000000000000000000005f82015250565b5f61194e600a836114db565b91506119598261191a565b602082019050919050565b5f6020820190508181035f83015261197b81611942565b9050919050565b7f7a65726f207265706f72746572000000000000000000000000000000000000005f82015250565b5f6119b6600d836114db565b91506119c182611982565b602082019050919050565b5f6020820190508181035f8301526119e3816119aa565b9050919050565b7f4e487b71000000000000000000000000000000000000000000000000000000005f52602260045260245ffd5b5f6002820490506001821680611a2e57607f821691505b602082108103611a4157611a406119ea565b5b50919050565b7f7a65726f207265676973747279000000000000000000000000000000000000005f82015250565b5f611a7b600d836114db565b9150611a8682611a47565b602082019050919050565b5f6020820190508181035f830152611aa881611a6f565b9050919050565b7f6f6e6c79207265706f7274657220636f6e7472616374000000000000000000005f82015250565b5f611ae36016836114db565b9150611aee82611aaf565b602082019050919050565b5f6020820190508181035f830152611b1081611ad7565b9050919050565b7f4e487b71000000000000000000000000000000000000000000000000000000005f52604160045260245ffd5b5f819050815f5260205f209050919050565b5f6020601f8301049050919050565b5f82821b905092915050565b5f60088302611ba07fffffffffffffffffffffffffffffffffffffffffffffffffffffffffffffffff82611b65565b611baa8683611b65565b95508019841693508086168417925050509392505050565b5f819050919050565b5f611be5611be0611bdb84610fe5565b611bc2565b610fe5565b9050919050565b5f819050919050565b611bfe83611bcb565b611c12611c0a82611bec565b848454611b71565b825550505050565b5f5f905090565b611c29611c1a565b611c34818484611bf5565b505050565b5b81811015611c5757611c4c5f82611c21565b600181019050611c3a565b5050565b601f821115611c9c57611c6d81611b44565b611c7684611b56565b81016020851015611c85578190505b611c99611c9185611b56565b830182611c39565b50505b505050565b5f82821c905092915050565b5f611cbc5f1984600802611ca1565b1980831691505092915050565b5f611cd48383611cad565b9150826002028217905092915050565b611ced82611276565b67ffffffffffffffff811115611d0657611d05611b17565b5b611d108254611a17565b611d1b828285611c5b565b5f60209050601f831160018114611d4c575f8415611d3a578287015190505b611d448582611cc9565b865550611dab565b601f198416611d5a86611b44565b5f5b82811015611d8157848901518255600182019150602085019450602081019050611d5c565b86831015611d9e5784890151611d9a601f891682611cad565b8355505b6001600288020188555050505b505050505050565b5f60ff82169050919050565b611dc881611db3565b82525050565b5f606082019050611de15f830187611dbf565b8181036020830152611df48185876118be565b9050611e0360408301846113cd565b95945050505050565b7f7a65726f206f776e6572000000000000000000000000000000000000000000005f82015250565b5f611e40600a836114db565b9150611e4b82611e0c565b602082019050919050565b5f6020820190508181035f830152611e6d81611e34565b905091905056fea2646970667358221220328c1ae2a5ae1c4bda5115c67644cb166ef2e41d837e852769dbb279ca8a4a5a64736f6c634300081e0033","linkReferences":{}},"methodIdentifiers":{"chainIncidents(uint256,uint256)":"c246cc83","getChainIncidents(uint256)":"9704d4e6","getIncident(uint256)":"9578615e","getIncidentCount()":"95962692","incidents(uint256)":"a6c6a8f3","owner()":"8da5cb5b","raiseIncident(uint256,uint8,uint8,uint256,uint256,string)":"c9344ded","registry()":"7b103999","reporterContract()":"f032a3b7","resolveIncident(uint256,string)":"5e6b2086","setRegistry(address)":"a91ee0dc","setReporterContract(address)":"6482f2b7","transferOwnership(address)":"f2fde38b"},"id":24}